{"contracts/v2/WaveXNFTV2.sol":{"WaveXNFTV2":{"abi":[{"inputs":[],"stateMutability":"nonpayable","type":"constructor"},{"inputs":[{"internalType":"address","name":"sender","type":"address"},{"internalType":"uint256","name":"tokenId","type":"uint256"},{"internalType":"address","name":"owner","type":"address"}],"name":"ERC721IncorrectOwner","type":"error"},{"inputs":[{"internalType":"address","name":"operator","type":"address"},{"internalType":"uint256","name":"tokenId","type":"uint256"}],"name":"ERC721InsufficientApproval","type":"error"},{"inputs":[{"internalType":"address","name":"approver","type":"address"}],"name":"ERC721InvalidApprover","type":"error"},{"inputs":[{"internalType":"address","name":"operator","type":"address"}],"name":"ERC721InvalidOperator","type":"error"},{"inputs":[{"internalType":"address","name":"owner","type":"address"}],"name":"ERC721InvalidOwner","type":"error"},{"inputs":[{"internalType":"address","name":"receiver","type":"address"}],"name":"ERC721InvalidReceiver","type":"error"},{"inputs":[{"internalType":"address","name":"sender","type":"address"}],"name":"ERC721InvalidSender","type":"error"},{"inputs":[{"internalType":"uint256","name":"tokenId","type":"uint256"}],"name":"ERC721NonexistentToken","type":"error"},{"inputs":[],"name":"EnforcedPause","type":"error"},{"inputs":[],"name":"ExpectedPause","type":"error"},{"inputs":[{"internalType":"address","name":"owner","type":"address"}],"name":"OwnableInvalidOwner","type":"error"},{"inputs":[{"internalType":"address","name":"account","type":"address"}],"name":"OwnableUnauthorizedAccount","type":"error"},{"anonymous":false,"inputs":[{"indexed":true,"internalType":"address","name":"owner","type":"address"},{"indexed":true,"internalType":"address","name":"approved","type":"address"},{"indexed":true,"internalType":"uint256","name":"tokenId","type":"uint256"}],"name":"Approval","type":"event"},{"anonymous":false,"inputs":[{"indexed":true,"internalType":"address","name":"owner","type":"address"},{"indexed":true,"internalType":"address","name":"operator","type":"address"},{"indexed":false,"internalType":"bool","name":"approved","type":"bool"}],"name":"ApprovalForAll","type":"event"},{"anonymous":false,"inputs":[{"indexed":true,"internalType":"uint256","name":"tokenId","type":"uint256"},{"indexed":false,"internalType":"uint256","name":"newBalance","type":"uint256"},{"indexed":false,"internalType":"string","name":"updateType","type":"string"}],"name":"BalanceUpdated","type":"event"},{"anonymous":false,"inputs":[{"indexed":false,"internalType":"uint256","name":"_fromTokenId","type":"uint256"},{"indexed":false,"internalType":"uint256","name":"_toTokenId","type":"uint256"}],"name":"BatchMetadataUpdate","type":"event"},{"anonymous":false,"inputs":[{"indexed":true,"internalType":"uint256","name":"eventId","type":"uint256"},{"indexed":false,"internalType":"string","name":"name","type":"string"},{"indexed":false,"internalType":"uint256","name":"capacity","type":"uint256"}],"name":"EventCreated","type":"event"},{"anonymous":false,"inputs":[{"indexed":true,"internalType":"uint256","name":"tokenId","type":"uint256"},{"indexed":true,"internalType":"uint256","name":"eventId","type":"uint256"}],"name":"EventPurchased","type":"event"},{"anonymous":false,"inputs":[{"indexed":false,"internalType":"uint256","name":"_tokenId","type":"uint256"}],"name":"MetadataUpdate","type":"event"},{"anonymous":false,"inputs":[{"indexed":true,"internalType":"address","name":"previousOwner","type":"address"},{"indexed":true,"internalType":"address","name":"newOwner","type":"address"}],"name":"OwnershipTransferred","type":"event"},{"anonymous":false,"inputs":[{"indexed":false,"internalType":"address","name":"account","type":"address"}],"name":"Paused","type":"event"},{"anonymous":false,"inputs":[{"indexed":true,"internalType":"address","name":"tokenAddress","type":"address"}],"name":"SupportedTokenAdded","type":"event"},{"anonymous":false,"inputs":[{"indexed":true,"internalType":"uint256","name":"templateId","type":"uint256"},{"indexed":false,"internalType":"string","name":"name","type":"string"},{"indexed":false,"internalType":"uint256","name":"baseBalance","type":"uint256"},{"indexed":false,"internalType":"uint256","name":"price","type":"uint256"},{"indexed":false,"internalType":"uint256","name":"discount","type":"uint256"},{"indexed":false,"internalType":"bool","name":"isVIP","type":"bool"},{"indexed":false,"internalType":"string","name":"metadataURI","type":"string"},{"indexed":false,"internalType":"bool","name":"active","type":"bool"}],"name":"TemplateCreated","type":"event"},{"anonymous":false,"inputs":[{"indexed":true,"internalType":"uint256","name":"templateId","type":"uint256"},{"indexed":false,"internalType":"string","name":"name","type":"string"},{"indexed":false,"internalType":"uint256","name":"baseBalance","type":"uint256"},{"indexed":false,"internalType":"uint256","name":"price","type":"uint256"},{"indexed":false,"internalType":"uint256","name":"discount","type":"uint256"},{"indexed":false,"internalType":"bool","name":"isVIP","type":"bool"},{"indexed":false,"internalType":"string","name":"metadataURI","type":"string"},{"indexed":false,"internalType":"bool","name":"active","type":"bool"}],"name":"TemplateUpdated","type":"event"},{"anonymous":false,"inputs":[{"indexed":true,"internalType":"uint256","name":"tokenId","type":"uint256"},{"indexed":false,"internalType":"string","name":"transactionType","type":"string"},{"indexed":false,"internalType":"uint256","name":"amount","type":"uint256"}],"name":"TransactionProcessed","type":"event"},{"anonymous":false,"inputs":[{"indexed":true,"internalType":"uint256","name":"tokenId","type":"uint256"},{"indexed":false,"internalType":"string","name":"transactionType","type":"string"},{"indexed":false,"internalType":"uint256","name":"amount","type":"uint256"}],"name":"TransactionRecorded","type":"event"},{"anonymous":false,"inputs":[{"indexed":true,"internalType":"address","name":"from","type":"address"},{"indexed":true,"internalType":"address","name":"to","type":"address"},{"indexed":true,"internalType":"uint256","name":"tokenId","type":"uint256"}],"name":"Transfer","type":"event"},{"anonymous":false,"inputs":[{"indexed":false,"internalType":"address","name":"account","type":"address"}],"name":"Unpaused","type":"event"},{"inputs":[{"internalType":"address","name":"tokenAddress","type":"address"}],"name":"addSupportedToken","outputs":[],"stateMutability":"nonpayable","type":"function"},{"inputs":[{"internalType":"uint256","name":"templateId","type":"uint256"},{"internalType":"string","name":"name","type":"string"},{"internalType":"uint256","name":"baseBalance","type":"uint256"},{"internalType":"uint256","name":"price","type":"uint256"},{"internalType":"uint256","name":"discount","type":"uint256"},{"internalType":"bool","name":"isVIP","type":"bool"},{"internalType":"string","name":"metadataURI","type":"string"},{"internalType":"bool","name":"active","type":"bool"}],"name":"addTemplate","outputs":[],"stateMutability":"nonpayable","type":"function"},{"inputs":[{"internalType":"address","name":"to","type":"address"},{"internalType":"uint256","name":"tokenId","type":"uint256"}],"name":"approve","outputs":[],"stateMutability":"nonpayable","type":"function"},{"inputs":[{"internalType":"address","name":"merchant","type":"address"}],"name":"authorizeMerchant","outputs":[],"stateMutability":"nonpayable","type":"function"},{"inputs":[{"internalType":"address","name":"","type":"address"}],"name":"authorizedMerchants","outputs":[{"internalType":"bool","name":"","type":"bool"}],"stateMutability":"view","type":"function"},{"inputs":[{"internalType":"address","name":"owner","type":"address"}],"name":"balanceOf","outputs":[{"internalType":"uint256","name":"","type":"uint256"}],"stateMutability":"view","type":"function"},{"inputs":[{"internalType":"string","name":"name","type":"string"},{"internalType":"uint256","name":"price","type":"uint256"},{"internalType":"uint256","name":"capacity","type":"uint256"},{"internalType":"uint256","name":"eventType","type":"uint256"}],"name":"createEvent","outputs":[{"internalType":"uint256","name":"","type":"uint256"}],"stateMutability":"nonpayable","type":"function"},{"inputs":[{"internalType":"uint256","name":"","type":"uint256"}],"name":"events","outputs":[{"internalType":"string","name":"name","type":"string"},{"internalType":"uint256","name":"price","type":"uint256"},{"internalType":"uint256","name":"capacity","type":"uint256"},{"internalType":"uint256","name":"soldCount","type":"uint256"},{"internalType":"bool","name":"active","type":"bool"},{"internalType":"uint256","name":"eventType","type":"uint256"}],"stateMutability":"view","type":"function"},{"inputs":[{"internalType":"uint256","name":"tokenId","type":"uint256"}],"name":"getApproved","outputs":[{"internalType":"address","name":"","type":"address"}],"stateMutability":"view","type":"function"},{"inputs":[{"internalType":"uint256","name":"templateId","type":"uint256"}],"name":"getTemplate","outputs":[{"internalType":"string","name":"name","type":"string"},{"internalType":"uint256","name":"baseBalance","type":"uint256"},{"internalType":"uint256","name":"price","type":"uint256"},{"internalType":"uint256","name":"discount","type":"uint256"},{"internalType":"bool","name":"isVIP","type":"bool"},{"internalType":"string","name":"metadataURI","type":"string"},{"internalType":"bool","name":"active","type":"bool"}],"stateMutability":"view","type":"function"},{"inputs":[],"name":"getTemplateCount","outputs":[{"internalType":"uint256","name":"","type":"uint256"}],"stateMutability":"view","type":"function"},{"inputs":[{"internalType":"uint256","name":"tokenId","type":"uint256"}],"name":"getTokenEvents","outputs":[{"internalType":"uint256[]","name":"","type":"uint256[]"}],"stateMutability":"view","type":"function"},{"inputs":[{"internalType":"uint256","name":"tokenId","type":"uint256"},{"internalType":"uint256","name":"index","type":"uint256"}],"name":"getTransaction","outputs":[{"internalType":"uint256","name":"timestamp","type":"uint256"},{"internalType":"address","name":"merchant","type":"address"},{"internalType":"uint256","name":"amount","type":"uint256"},{"internalType":"string","name":"transactionType","type":"string"},{"internalType":"string","name":"metadata","type":"string"}],"stateMutability":"view","type":"function"},{"inputs":[{"internalType":"uint256","name":"tokenId","type":"uint256"}],"name":"getTransactionCount","outputs":[{"internalType":"uint256","name":"","type":"uint256"}],"stateMutability":"view","type":"function"},{"inputs":[],"name":"initializeDefaultTemplates","outputs":[],"stateMutability":"nonpayable","type":"function"},{"inputs":[{"internalType":"address","name":"owner","type":"address"},{"internalType":"address","name":"operator","type":"address"}],"name":"isApprovedForAll","outputs":[{"internalType":"bool","name":"","type":"bool"}],"stateMutability":"view","type":"function"},{"inputs":[{"internalType":"uint256","name":"templateId","type":"uint256"},{"internalType":"address","name":"to","type":"address"},{"internalType":"string","name":"uri","type":"string"}],"name":"mintFromTemplate","outputs":[{"internalType":"uint256","name":"","type":"uint256"}],"stateMutability":"payable","type":"function"},{"inputs":[{"internalType":"uint256","name":"templateId","type":"uint256"},{"internalType":"string","name":"name","type":"string"},{"internalType":"uint256","name":"baseBalance","type":"uint256"},{"internalType":"uint256","name":"price","type":"uint256"},{"internalType":"uint256","name":"discount","type":"uint256"},{"internalType":"bool","name":"isVIP","type":"bool"},{"internalType":"string","name":"metadataURI","type":"string"},{"internalType":"bool","name":"active","type":"bool"}],"name":"modifyTemplate","outputs":[],"stateMutability":"nonpayable","type":"function"},{"inputs":[],"name":"name","outputs":[{"internalType":"string","name":"","type":"string"}],"stateMutability":"view","type":"function"},{"inputs":[],"name":"owner","outputs":[{"internalType":"address","name":"","type":"address"}],"stateMutability":"view","type":"function"},{"inputs":[{"internalType":"uint256","name":"tokenId","type":"uint256"}],"name":"ownerOf","outputs":[{"internalType":"address","name":"","type":"address"}],"stateMutability":"view","type":"function"},{"inputs":[],"name":"pause","outputs":[],"stateMutability":"nonpayable","type":"function"},{"inputs":[],"name":"paused","outputs":[{"internalType":"bool","name":"","type":"bool"}],"stateMutability":"view","type":"function"},{"inputs":[{"internalType":"uint256","name":"tokenId","type":"uint256"},{"internalType":"uint256","name":"amount","type":"uint256"},{"internalType":"string","name":"metadata","type":"string"}],"name":"processPayment","outputs":[],"stateMutability":"nonpayable","type":"function"},{"inputs":[{"internalType":"uint256","name":"tokenId","type":"uint256"},{"internalType":"uint256","name":"eventId","type":"uint256"}],"name":"purchaseEventEntrance","outputs":[],"stateMutability":"nonpayable","type":"function"},{"inputs":[],"name":"renounceOwnership","outputs":[],"stateMutability":"nonpayable","type":"function"},{"inputs":[{"internalType":"address","name":"merchant","type":"address"}],"name":"revokeMerchant","outputs":[],"stateMutability":"nonpayable","type":"function"},{"inputs":[{"internalType":"address","name":"from","type":"address"},{"internalType":"address","name":"to","type":"address"},{"internalType":"uint256","name":"tokenId","type":"uint256"}],"name":"safeTransferFrom","outputs":[],"stateMutability":"nonpayable","type":"function"},{"inputs":[{"internalType":"address","name":"from","type":"address"},{"internalType":"address","name":"to","type":"address"},{"internalType":"uint256","name":"tokenId","type":"uint256"},{"internalType":"bytes","name":"data","type":"bytes"}],"name":"safeTransferFrom","outputs":[],"stateMutability":"nonpayable","type":"function"},{"inputs":[{"internalType":"address","name":"operator","type":"address"},{"internalType":"bool","name":"approved","type":"bool"}],"name":"setApprovalForAll","outputs":[],"stateMutability":"nonpayable","type":"function"},{"inputs":[{"internalType":"address","name":"","type":"address"}],"name":"supportedTokens","outputs":[{"internalType":"bool","name":"","type":"bool"}],"stateMutability":"view","type":"function"},{"inputs":[{"internalType":"bytes4","name":"interfaceId","type":"bytes4"}],"name":"supportsInterface","outputs":[{"internalType":"bool","name":"","type":"bool"}],"stateMutability":"view","type":"function"},{"inputs":[],"name":"symbol","outputs":[{"internalType":"string","name":"","type":"string"}],"stateMutability":"view","type":"function"},{"inputs":[{"internalType":"uint256","name":"","type":"uint256"}],"name":"templates","outputs":[{"internalType":"string","name":"name","type":"string"},{"internalType":"uint256","name":"baseBalance","type":"uint256"},{"internalType":"uint256","name":"price","type":"uint256"},{"internalType":"uint256","name":"discount","type":"uint256"},{"internalType":"bool","name":"isVIP","type":"bool"},{"internalType":"string","name":"metadataURI","type":"string"},{"internalType":"bool","name":"active","type":"bool"}],"stateMutability":"view","type":"function"},{"inputs":[{"internalType":"uint256","name":"","type":"uint256"}],"name":"tokenBalance","outputs":[{"internalType":"uint256","name":"","type":"uint256"}],"stateMutability":"view","type":"function"},{"inputs":[{"internalType":"uint256","name":"","type":"uint256"},{"internalType":"uint256","name":"","type":"uint256"}],"name":"tokenEvents","outputs":[{"internalType":"uint256","name":"","type":"uint256"}],"stateMutability":"view","type":"function"},{"inputs":[{"internalType":"uint256","name":"tokenId","type":"uint256"}],"name":"tokenURI","outputs":[{"internalType":"string","name":"","type":"string"}],"stateMutability":"view","type":"function"},{"inputs":[{"internalType":"uint256","name":"tokenId","type":"uint256"},{"internalType":"uint256","name":"amount","type":"uint256"},{"internalType":"address","name":"paymentToken","type":"address"}],"name":"topUpBalance","outputs":[],"stateMutability":"nonpayable","type":"function"},{"inputs":[{"internalType":"uint256","name":"","type":"uint256"},{"internalType":"uint256","name":"","type":"uint256"}],"name":"transactions","outputs":[{"internalType":"uint256","name":"timestamp","type":"uint256"},{"internalType":"address","name":"merchant","type":"address"},{"internalType":"uint256","name":"amount","type":"uint256"},{"internalType":"string","name":"transactionType","type":"string"},{"internalType":"string","name":"metadata","type":"string"}],"stateMutability":"view","type":"function"},{"inputs":[{"internalType":"address","name":"from","type":"address"},{"internalType":"address","name":"to","type":"address"},{"internalType":"uint256","name":"tokenId","type":"uint256"}],"name":"transferFrom","outputs":[],"stateMutability":"nonpayable","type":"function"},{"inputs":[{"internalType":"address","name":"newOwner","type":"address"}],"name":"transferOwnership","outputs":[],"stateMutability":"nonpayable","type":"function"},{"inputs":[],"name":"unpause","outputs":[],"stateMutability":"nonpayable","type":"function"}],"evm":{"bytecode":{"linkReferences":{},"object":"6080346200038d576001600160401b039060408181018381118382101762000377578152600c82526020916b2bb0bb32ac1027232a102b1960a11b83820152815193828501858110828211176200037757835260068552652ba0ab22ac1960d11b84860152815181811162000377576000948554916001948584811c941680156200036c575b8385101462000358578190601f9485811162000305575b508390858311600114620002a157899262000295575b5050600019600383901b1c191690851b1786555b8651928311620002815783548481811c9116801562000276575b8282101462000262578281116200021a575b5080918311600114620001b3575084958293949592620001a7575b5050600019600383901b1c191690821b1790555b60075490331562000190576001600160a81b0319821633600881811b610100600160a81b0316929092176007559151939192901c6001600160a01b0316907f8be0079c531659141344cd1fd0a4f28419497f9722a3daafe3b4186f6b6457e09080a3613b1e9081620003938239f35b51631e4fbdf760e01b815260048101839052602490fd5b0151905038806200010d565b90601f198316968487528287209287905b89821062000202575050838596979810620001e8575b505050811b01905562000121565b015160001960f88460031b161c19169055388080620001da565b808785968294968601518155019501930190620001c4565b8487528187208380860160051c82019284871062000258575b0160051c019085905b8281106200024c575050620000f2565b8881550185906200023c565b9250819262000233565b634e487b7160e01b87526022600452602487fd5b90607f1690620000e0565b634e487b7160e01b86526041600452602486fd5b015190503880620000b2565b898052848a208894509190601f1984168b5b87828210620002ee5750508411620002d4575b505050811b018655620000c6565b015160001960f88460031b161c19169055388080620002c6565b8385015186558b97909501949384019301620002b3565b9091508880528389208580850160051c8201928686106200034e575b918991869594930160051c01915b8281106200033f5750506200009c565b8b81558594508991016200032f565b9250819262000321565b634e487b7160e01b88526022600452602488fd5b93607f169362000085565b634e487b7160e01b600052604160045260246000fd5b600080fdfe608080604052600436101561001357600080fd5b60003560e01c90816301ffc9a71461314e575080630374ab0b14612eb757806306fdde0314612e14578063081812fc14612dd6578063095ea7b314612cef5780630b79143014612c6e57806323b872dd14612c57578063283421331461282057806331543cf41461271b578063368a5247146121e857806337ae9c13146121a35780633de5d0de146121775780633f4ba83a1461210d57806342842e0e146120df57806349afc6e5146120b35780634eaf9db6146120455780635016959a146120275780635c975abb146120045780636352211e14611fd457806368c4ac2614611f955780636d69fcaf14611ee857806370a0823114611e8f578063715018a614611e2e5780637303f6ce14611d93578063819a701c14611d515780638456cb5914611cf75780638af5ae99146114b35780638da5cb5b1461148657806395d89b41146113a757806396651ec31461101c578063a22cb46514610f6e578063a871bd6614610f2f578063b701b31914610d5c578063b88d4fde14610cf0578063bc52565214610c88578063c4754b7714610be2578063c58d068614610701578063c87b56dd146106a4578063ca2efd3814610665578063cdc965cd146102e1578063e985e9c51461028b5763f2fde38b146101ed57600080fd5b3461028657602036600319011261028657610206613318565b61020e6135b6565b6001600160a01b0381811691821561026d5760078054610100600160a81b03198116600893841b610100600160a81b031617909155901c167f8be0079c531659141344cd1fd0a4f28419497f9722a3daafe3b4186f6b6457e0600080a3005b604051631e4fbdf760e01b815260006004820152602490fd5b600080fd5b34610286576040366003190112610286576102a4613318565b6102ac61332e565b9060018060a01b03809116600052600560205260406000209116600052602052602060ff604060002054166040519015158152f35b34610286576102ef3661352c565b9695936102fd9391936135b6565b610308878387613914565b604051610314816131d3565b85815286602082015281604082015282606082015283151560808201528460a082015288151560c082015287600052600a60205260406000209080518051906001600160401b03821161058e57819061036d8554613344565b601f8111610615575b50602090601f83116001146105af576000926105a4575b50508160011b916000199060031b1c19161782555b6020810151600183015560408101516002830155606081015160038301556103df60808201511515600484019060ff801983541691151516179055565b60a08101518051906001600160401b03821161058e576104026005850154613344565b601f8111610547575b50602090601f83116001146104a45760c07fff92d45b846f70a381c6b12925794910c7d5a97f58898ac2a2dae8e48fdbda639c9d98969484610488956104949c9a9895600695600092610499575b50508160011b916000199060031b1c19161760058501555b0151151591019060ff801983541691151516179055565b60405197889788613459565b0390a2005b015190503880610459565b906005850160005260206000209160005b601f198516811061052f57507fff92d45b846f70a381c6b12925794910c7d5a97f58898ac2a2dae8e48fdbda639c9d9896946001856104949c9a989560069560c09561048899601f19811610610516575b505050811b016005850155610471565b015160001960f88460031b161c19169055388080610506565b919260206001819286850151815501940192016104b5565b600585016000526020600020601f840160051c810160208510610587575b601f830160051c8201811061057b57505061040b565b60008155600101610565565b5080610565565b634e487b7160e01b600052604160045260246000fd5b015190508c8061038d565b6000868152602081209350601f198516905b8181106105fd57509084600195949392106105e4575b505050811b0182556103a2565b015160001960f88460031b161c191690558c80806105d7565b929360206001819287860151815501950193016105c1565b909150846000526020600020601f840160051c81016020851061065e575b90849392915b601f830160051c8201811061064f575050610376565b60008155859450600101610639565b5080610633565b34610286576020366003190112610286576001600160a01b03610686613318565b16600052600f602052602060ff604060002054166040519015158152f35b34610286576020366003190112610286576004356106c18161376b565b5060005260066020526106fd6106da604060002061337e565b60006040516106e881613224565b526040519182916020835260208301906132f3565b0390f35b60603660031901126102865760043561071861332e565b906001600160401b03604435818111610286576107399036906004016132b2565b916107426139b9565b80600052602093600a855260ff6006604060002001541615610ba75781600052600a85526002604060002001543410610b6b576107806008546139aa565b91826008556040519461079286613224565b600086526001600160a01b0383811696908715610b52578560005260028952604060002054169384151580610b1f575b8860005260038a5286896040600020976001988981540190558260005260028d526040600020826001600160601b0360a01b8254161790557fddf252ad1be2c89b69c2b068fc378daa952ba7f163c4a11628f55a4df523b3ef600080a4610b06573b6109e8575b509091928094955060005260068652604060002090805195861161058e576108518254613344565b601f811161099f575b508690601f8711600114610926579186869760809593600080516020613aa9833981519152979560009261091b575b5050600019600383901b1c191690841b1790555b7ff8e1a15aba9398e019f0b49df1a4fde98ee17ae345cb5f6b5e2c27f5033e8ce787604051878152a180600052600a8752816040600020015485600052600c8852604060002055600052600a86526040600020015460405190815260408682015260046040820152631352539560e21b6060820152a2604051908152f35b015190508a80610889565b90601f1987169183600052886000209260005b8a82821061098b5750509760809593879593600080516020613aa98339815191529893838b9c10610972575b505050811b01905561089d565b015160001960f88460031b161c191690558a8080610965565b838501518655948801949384019301610939565b8260005287600020601f880160051c8101918989106109de575b601f0160051c019085905b8281106109d257505061085a565b600081550185906109c4565b90915081906109b9565b604051888180610a21630a85bd0160e11b95868352336004840152600060248401528a60448401526080606484015260848301906132f3565b038160008c5af160009181610ac6575b50610a8d5788883d15610a86573d610a4881613260565b90610a56604051928361323f565b81523d60008483013e5b80519283610a8157604051633250574960e11b815260048101849052602490fd5b019050fd5b6060610a60565b63ffffffff60e0989394959697981b1603610aae5750908493929187610829565b60249060405190633250574960e11b82526004820152fd5b9091508981813d8311610aff575b610ade818361323f565b8101031261028657516001600160e01b03198116810361028657908a610a31565b503d610ad4565b6040516339e3563760e11b815260006004820152602490fd5b60008781526004602052604080822080546001600160a01b031916905587825260038c52902080546000190190556107c2565b604051633250574960e11b815260006004820152602490fd5b60405162461bcd60e51b8152600481018690526014602482015273125b9cdd59999a58da595b9d081c185e5b595b9d60621b6044820152606490fd5b60405162461bcd60e51b815260048101869052601360248201527254656d706c617465206e6f742061637469766560681b6044820152606490fd5b346102865760208060031936011261028657600435600052600e8152604060002060405190818382549182815201908192600052846000209060005b86828210610c74578686610c348288038361323f565b604051928392818401908285525180915260408401929160005b828110610c5d57505050500390f35b835185528695509381019392810192600101610c4e565b835485529093019260019283019201610c1e565b3461028657602036600319011261028657600435600052600a6020526040600020610cb28161337e565b6106fd600183015492600281015490600381015460ff6004830154169060ff6006610cdf6005860161337e565b940154169360405197889788613459565b3461028657608036600319011261028657610d09613318565b610d1161332e565b90604435606435926001600160401b038411610286573660238501121561028657610d49610d5a94369060248160040135910161327b565b92610d558383836135e5565b6137a6565b005b3461028657610d6a366134a5565b610d726139b9565b8160005260209060028252610d9560018060a01b036040600020541615156139d7565b80600052600b8252604060002083600052600c83526040600020549060ff60048201541615610ef757600381015460028201541115610ec557906001610dde9201541115613a1a565b80600052600b8252610df860016040600020015484613a5d565b80600052600b82526003604060002001610e1281546139aa565b905582600052600e82526040600020908154600160401b81101561058e57600080516020613aa983398151915293610e5482608095600160409501815561359e565b81549060031b9085821b91600019901b1916179055815192867f41d60c8cad3c4e044896e072fb848c8f5d2e3e91c87a22a93d930c35aa192403600080a385600052600c815281600020548352820152600e60408201526d4556454e545f505552434841534560901b6060820152a2005b60405162461bcd60e51b815260048101859052600a602482015269115d995b9d08199d5b1b60b21b6044820152606490fd5b60405162461bcd60e51b815260048101859052601060248201526f4576656e74206e6f742061637469766560801b6044820152606490fd5b3461028657610f3d366134a5565b90600052600e6020526040600020805482101561028657602091610f609161359e565b90546040519160031b1c8152f35b3461028657604036600319011261028657610f87613318565b6024359081151590818303610286576001600160a01b031691821561100357610fd59033600052600560205260406000208460005260205260406000209060ff801983541691151516179055565b6040519081527f17307eab39ab6107e8899845ad3d59bd9653f200f220920489ca2b5937696c3160203392a3005b604051630b61174360e31b815260048101849052602490fd5b346102865761102a3661352c565b9695936110389391936135b6565b611043878387613914565b86600052600a60205260016040600020015461136257604051611065816131d3565b85815286602082015281604082015282606082015283151560808201528460a082015288151560c082015287600052600a60205260406000209080518051906001600160401b03821161058e5781906110be8554613344565b601f8111611312575b50602090601f83116001146112ac576000926112a1575b50508160011b916000199060031b1c19161782555b60208101516001830155604081015160028301556060810151600383015561113060808201511515600484019060ff801983541691151516179055565b60a08101518051906001600160401b03821161058e576111536005850154613344565b601f811161125a575b50602090601f83116001146111e35760c0600080516020613ac98339815191529c9d989694846111c5956104949c9a98956006956000926104995750508160011b916000199060031b1c19161760058501550151151591019060ff801983541691151516179055565b6009548a116111da5760405197889788613459565b89600955610488565b906005850160005260206000209160005b601f19851681106112425750600080516020613ac98339815191529c9d9896946001856104949c9a989560069560c0956111c599601f1981161061051657505050811b016005850155610471565b919260206001819286850151815501940192016111f4565b600585016000526020600020601f840160051c81016020851061129a575b601f830160051c8201811061128e57505061115c565b60008155600101611278565b5080611278565b015190508c806110de565b6000868152602081209350601f198516905b8181106112fa57509084600195949392106112e1575b505050811b0182556110f3565b015160001960f88460031b161c191690558c80806112d4565b929360206001819287860151815501950193016112be565b909150846000526020600020601f840160051c81016020851061135b575b90849392915b601f830160051c8201811061134c5750506110c7565b60008155859450600101611336565b5080611330565b60405162461bcd60e51b815260206004820152601760248201527f54656d706c61746520616c7265616479206578697374730000000000000000006044820152606490fd5b3461028657600036600319011261028657604051600060018054906113cb82613344565b8085529181811690811561145f5750600114611406575b6106fd846113f28186038261323f565b6040519182916020835260208301906132f3565b600081815292507fb10e2d527612073b26eecdfd717e6a320cf44b4afac2b0732d9fcbe2b7fa0cf65b8284106114475750505081016020016113f2826113e2565b8054602085870181019190915290930192810161142f565b60ff191660208087019190915292151560051b850190920192506113f291508390506113e2565b346102865760003660031901126102865760075460405160089190911c6001600160a01b03168152602090f35b34610286576000366003190112610286576114cc6135b6565b6001600052600a6020527fbbc70db1b6c7afd11e79c0fb0051300458f1a3acb8ee9789d9b6b26c61ad9bc854611cb25760405161150881613209565b600481526311dbdb1960e21b602082015260405161152581613224565b60008152611532826138d0565b6001600052600a6020527fbbc70db1b6c7afd11e79c0fb0051300458f1a3acb8ee9789d9b6b26c61ad9bc8546113625760405161156e816131d3565b828152683635c9adc5dea000006020820152683635c9adc5dea00000604082015260006060820152600060808201528160a0820152600160c08201526001600052600a60205260406000209080518051906001600160401b03821161058e5781906115d98554613344565b601f8111611c62575b50602090601f8311600114611bf657600092611beb575b50508160011b916000199060031b1c19161782555b60208101516001830155604081015160028301556060810151600383015561164b60808201511515600484019060ff801983541691151516179055565b60a08101518051906001600160401b03821161058e5761166e6005850154613344565b601f8111611ba4575b50602090601f8311600114611b2d576116ff94600660c0600199968661173997600080516020613ac98339815191529b976116e197600092611b22575b5050600019600383901b1c1916908c1b1760058501550151151591019060ff801983541691151516179055565b6009548611611971575b60405193849360e0855260e08501906132f3565b90683635c9adc5dea000006020850152683635c9adc5dea000006040850152600060608501526000608085015283820360a08501526132f3565b8460c08301520390a260405161174e81613209565b6008815267506c6174696e756d60c01b602082015260405161176f81613224565b6000815261177c826138d0565b6002600052600a6020527fbff4442b8ed600beeb8e26b1279a0f0d14c6edfaec26d968ee13c86f7d4c2ba954611362576040516117b8816131d3565b82815268a2a15d09519be00000602082015268a2a15d09519be00000604082015260006060820152600060808201528160a0820152600160c08201526002600052600a60205260406000209080518051906001600160401b03821161058e5781906118238554613344565b601f8111611ad2575b50602090601f8311600114611a6657600092611a5b575b50508160011b916000199060031b1c19161782555b60208101516001830155604081015160028301556060810151600383015561189560808201511515600484019060ff801983541691151516179055565b60a08101518051906001600160401b03821161058e576118b86005850154613344565b601f8111611a14575b50602090601f83116001146119855761192b94600660c0600299968661196597600080516020613ac98339815191529b976116e19760009261197a5750508160011b916000199060031b1c19161760058501550151151591019060ff801983541691151516179055565b9068a2a15d09519be00000602085015268a2a15d09519be000006040850152600060608501526000608085015283820360a08501526132f3565b600160c08301520390a2005b856009556116eb565b015190508d80610459565b90601f198316916005860160005260206000209260005b8181106119fc575060c060029996600187600080516020613ac98339815191529b976116e19761192b9c976119659b600698106119e357505050811b016005850155610471565b015160001960f88460031b161c191690558d8080610506565b9293602060018192878601518155019501930161199c565b600585016000526020600020601f840160051c810160208510611a54575b601f830160051c82018110611a485750506118c1565b60008155600101611a32565b5080611a32565b015190508680611843565b9250846000526020600020906000935b601f1984168510611ab7576001945083601f19811610611a9e575b505050811b018255611858565b015160001960f88460031b161c19169055868080611a91565b81810151835560209485019460019093019290910190611a76565b909150846000526020600020601f840160051c810160208510611b1b575b90849392915b601f830160051c82018110611b0c57505061182c565b60008155859450600101611af6565b5080611af0565b015190508d806116b4565b906005850160005260206000209160005b601f1985168110611b8c575094600660c0600199968a87600080516020613ac98339815191529b976116e1976116ff9c6117399b601f198116106119e357505050811b016005850155610471565b91926020600181928685015181550194019201611b3e565b600585016000526020600020601f840160051c810160208510611be4575b601f830160051c82018110611bd8575050611677565b60008155600101611bc2565b5080611bc2565b0151905086806115f9565b9250846000526020600020906000935b601f1984168510611c47576001945083601f19811610611c2e575b505050811b01825561160e565b015160001960f88460031b161c19169055868080611c21565b81810151835560209485019460019093019290910190611c06565b909150846000526020600020601f840160051c810160208510611cab575b90849392915b601f830160051c82018110611c9c5750506115e2565b60008155859450600101611c86565b5080611c80565b60405162461bcd60e51b815260206004820152601d60248201527f54656d706c6174657320616c726561647920696e697469616c697a65640000006044820152606490fd5b3461028657600036600319011261028657611d106135b6565b611d186139b9565b600160ff1960075416176007557f62e78cea01bee320cd4e420270b5ea74000d11b0c9f74754ebdbfc544b05a2586020604051338152a1005b3461028657602036600319011261028657611d6a613318565b611d726135b6565b6001600160a01b03166000908152600f60205260409020805460ff19169055005b3461028657611db7611da4366134a5565b90600052600d60205260406000206134bb565b5060405190611dc5826131ee565b8054825260018101546001600160a01b03908116602084019081526002830154604085019081529390926106fd92611e126004611e046003850161337e565b93606086019485520161337e565b92836080820152519451169451905190604051958695866134ed565b3461028657600036600319011261028657611e476135b6565b60078054610100600160a81b0319811690915560009060081c6001600160a01b03167f8be0079c531659141344cd1fd0a4f28419497f9722a3daafe3b4186f6b6457e08280a3005b34610286576020366003190112610286576001600160a01b03611eb0613318565b168015611ecf5760005260036020526020604060002054604051908152f35b6040516322718ad960e21b815260006004820152602490fd5b3461028657602036600319011261028657611f01613318565b611f096135b6565b6001600160a01b03168015611f58578060005260106020526040600020600160ff198254161790557fd1be2e90bd3d24839d9dd94ad871068e1f9688b02fa43f2a62c9975dfa9de2d7600080a2005b60405162461bcd60e51b8152602060048201526015602482015274496e76616c696420746f6b656e206164647265737360581b6044820152606490fd5b34610286576020366003190112610286576001600160a01b03611fb6613318565b166000526010602052602060ff604060002054166040519015158152f35b34610286576020366003190112610286576020611ff260043561376b565b6040516001600160a01b039091168152f35b3461028657600036600319011261028657602060ff600754166040519015158152f35b34610286576000366003190112610286576020600954604051908152f35b3461028657612053366134a5565b90600052600d602052604060002090815481101561028657612074916134bb565b5080546106fd60018060a01b03600184015416926002810154906120a6600461209f6003840161337e565b920161337e565b91604051958695866134ed565b3461028657602036600319011261028657600435600052600c6020526020604060002054604051908152f35b3461028657610d5a6120f036613424565b90604051926120fe84613224565b60008452610d558383836135e5565b34610286576000366003190112610286576121266135b6565b60075460ff8116156121655760ff19166007557f5db9ee0a495bf2e6ff9c91a7834c1ba4fdd244a5e8aa4e537bd38aeae4b073aa6020604051338152a1005b604051638dfc202b60e01b8152600490fd5b3461028657602036600319011261028657600435600052600d6020526020604060002054604051908152f35b34610286576020366003190112610286576121bc613318565b6121c46135b6565b6001600160a01b03166000908152600f60205260409020805460ff19166001179055005b34610286576060366003190112610286576001600160a01b0360443581811690819003610286576122176139b9565b6004356000526002602052612234826040600020541615156139d7565b80600052601060205260ff60406000205416156126e05760206000916064604051809481936323b872dd60e01b835233600484015230602484015260243560448401525af19081156126d457600091612699575b501561266257600435600052600c6020526040600020805490602435820180921161264c57556040516122ba81613209565b60058152640544f5055560dc1b6020820152604051916122d983613224565b60008352600435600052600d602052604060002092604051936122fb856131ee565b428552602085016000815260408601916024358352606087019386855260808801528054600160401b81101561058e5761233a916001820181556134bb565b9490946126365786518555600185019151166001600160601b0360a01b825416179055516002830155519283516001600160401b03811161058e576123826003840154613344565b601f81116125ef575b506020601f821160011461257c5781906080949596600092612571575b50508160011b916000199060031b1c19161760038401555b01518051906001600160401b03821161058e576123e06004840154613344565b601f8111612526575b50602090601f83116001146124b85760049291600091836124ad575b50508160011b916000199060031b1c1916179101555b7f131c2944ea68313084c40d9074bfd26611dbd83e4c0bc84f646b864548708978612451604051926040845260408401906132f3565b91602435602082015280600435930390a2600435600052600c6020526040600020546040519081526040602082015260056040820152640544f5055560dc1b6060820152600080516020613aa9833981519152608060043592a2005b015190508580612405565b90601f198316916004850160005260206000209260005b81811061250e575091600193918560049694106124f5575b505050811b0191015561241b565b015160001960f88460031b161c191690558580806124e7565b929360206001819287860151815501950193016124cf565b600484016000526020600020601f840160051c81019160208510612567575b601f0160051c01905b81811061255b57506123e9565b6000815560010161254e565b9091508190612545565b0151905086806123a8565b6003840160005260206000209560005b601f19841681106125d757509582916080959697600194601f198116106125be575b505050811b0160038401556123c0565b015160001960f88460031b161c191690558680806125ae565b8282015188556001909701966020928301920161258c565b600384016000526020600020601f830160051c81016020841061262f575b601f830160051c8201811061262357505061238b565b6000815560010161260d565b508061260d565b634e487b7160e01b600052600060045260246000fd5b634e487b7160e01b600052601160045260246000fd5b60405162461bcd60e51b815260206004820152600f60248201526e151c985b9cd9995c8819985a5b1959608a1b6044820152606490fd5b90506020813d6020116126cc575b816126b46020938361323f565b81010312610286575180151581036102865782612288565b3d91506126a7565b6040513d6000823e3d90fd5b60405162461bcd60e51b8152602060048201526013602482015272151bdad95b881b9bdd081cdd5c1c1bdc9d1959606a1b6044820152606490fd5b3461028657602036600319011261028657600435600052600a6020526040600020604051612748816131d3565b6127518261337e565b815260018201549060208101918252600283015492604082019384526003810154906060830191825260ff6004820154169060808401911515825260ff600661279c6005840161337e565b9260a087019384520154169160c085019215158352845151156127db576106fd9451955196519351905115159151925115159360405197889788613459565b60405162461bcd60e51b815260206004820152601760248201527f54656d706c61746520646f6573206e6f742065786973740000000000000000006044820152606490fd5b34610286576060366003190112610286576044356001600160401b038111610286576128509036906004016132b2565b6128586139b9565b600435600052600260205260018060a01b0361287c816040600020541615156139d7565b33600052600f60205260ff6040600020541615612c12576128a1602435600435613a5d565b604051906128ae82613209565b60078252661410565351539560ca1b6020830152600435600052600d602052604060002092604051936128e0856131ee565b4285526020850133815260408601916024358352606087019386855260808801528054600160401b81101561058e5761291e916001820181556134bb565b9490946126365786518555600185019151166001600160601b0360a01b825416179055516002830155518051906001600160401b03821161058e576129666003840154613344565b601f8111612bcb575b50602090601f8311600114612b5657918060809492600494600092612b4b575b50508160011b916000199060031b1c19161760038201555b019201519182516001600160401b03811161058e576129c68254613344565b601f8111612b03575b506020601f8211600114612a9d5781929394600092612a92575b50508160011b916000199060031b1c19161790555b7f131c2944ea68313084c40d9074bfd26611dbd83e4c0bc84f646b864548708978612a34604051926040845260408401906132f3565b91602435602082015280600435930390a2600435600052600c6020526040600020546040519081526040602082015260076040820152661410565351539560ca1b6060820152600080516020613aa9833981519152608060043592a2005b0151905084806129e9565b601f198216908360005260206000209160005b818110612aeb57509583600195969710612ad2575b505050811b0190556129fe565b015160001960f88460031b161c19169055848080612ac5565b9192602060018192868b015181550194019201612ab0565b826000526020600020601f830160051c81019160208410612b41575b601f0160051c01905b818110612b3557506129cf565b60008155600101612b28565b9091508190612b1f565b01519050878061298f565b906003840160005260206000209160005b601f1985168110612bb35750926080949260019260049583601f19811610612b9a575b505050811b0160038201556129a7565b015160001960f88460031b161c19169055878080612b8a565b91926020600181928685015181550194019201612b67565b600384016000526020600020601f840160051c810160208510612c0b575b601f830160051c82018110612bff57505061296f565b60008155600101612be9565b5080612be9565b60405162461bcd60e51b815260206004820152601760248201527f4e6f7420617574686f72697a6564206d65726368616e740000000000000000006044820152606490fd5b3461028657610d5a612c6836613424565b916135e5565b3461028657602036600319011261028657600435600052600b602052612ccf6040600020612c9b8161337e565b906001810154906002810154906003810154600560ff6004840154169201549260405196879660c0885260c08801906132f3565b946020870152604086015260608501521515608084015260a08301520390f35b3461028657604036600319011261028657612d08613318565b602435612d148161376b565b33151580612dc3575b80612d96575b612d7e576001600160a01b039283169282918491167f8c5be1e5ebec7d5bd14f71427d1e84f3dd0314c0f7b2291e5b200ac8c7c3b925600080a4600090815260046020526040902080546001600160a01b0319169091179055005b60405163a9fbf51f60e01b8152336004820152602490fd5b5060018060a01b038116600052600560205260406000203360005260205260ff6040600020541615612d23565b506001600160a01b038116331415612d1d565b3461028657602036600319011261028657600435612df38161376b565b506000526004602052602060018060a01b0360406000205416604051908152f35b346102865760003660031901126102865760405160008054612e3581613344565b8084529060019081811690811561145f5750600114612e5e576106fd846113f28186038261323f565b600080805292507f290decd9548b62a8d60345a988386fc84ba6bc95484008f6362f93160ef3e5635b828410612e9f5750505081016020016113f2826113e2565b80546020858701810191909152909301928101612e87565b34610286576080366003190112610286576001600160401b0360043581811161028657612ee89036906004016132b2565b90612ef16135b6565b612ef96139b9565b6040516020810190612f2d6040828651612f17818760208b016132d0565b810142602082015203602081018452018261323f565b5190209060405160c081018181108382111761058e5760405283815260243560208201526044356040820152600060608201526001608082015260643560a082015282600052600b6020526040600020918151805191821161058e57612f938454613344565b601f8111613106575b5091849391602096938790601f8311600114613070577fee37bb5143a14810f72e86fce895be08e16090409d2e18f79b308995e39b73d4959383613053969460059460a094600092613065575b50508160011b916000199060031b1c19161784555b898101516001850155604081015160028501556060810151600385015561303a60808201511515600486019060ff801983541691151516179055565b01519101556040519182916040835260408301906132f3565b604435878301520390a2604051908152f35b015190508c80612fe9565b9084600052886000209160005b601f19851681106130ec57509360018460059460a0947fee37bb5143a14810f72e86fce895be08e16090409d2e18f79b308995e39b73d49a986130539a98601f198116106130d3575b505050811b018455612ffe565b015160001960f88460031b161c191690558c80806130c6565b818301518455899850600190930192918a01918a0161307d565b846000526020600020601f840160051c81019160208510613144575b601f0160051c01905b8181106131385750612f9c565b6000815560010161312b565b9091508190613122565b34610286576020366003190112610286576004359063ffffffff60e01b821680920361028657602091632483248360e11b8114908115613190575b5015158152f35b6380ac58cd60e01b8114915081156131c2575b81156131b1575b5083613189565b6301ffc9a760e01b149050836131aa565b635b5e139f60e01b811491506131a3565b60e081019081106001600160401b0382111761058e57604052565b60a081019081106001600160401b0382111761058e57604052565b604081019081106001600160401b0382111761058e57604052565b602081019081106001600160401b0382111761058e57604052565b90601f801991011681019081106001600160401b0382111761058e57604052565b6001600160401b03811161058e57601f01601f191660200190565b92919261328782613260565b91613295604051938461323f565b829481845281830111610286578281602093846000960137010152565b9080601f83011215610286578160206132cd9335910161327b565b90565b60005b8381106132e35750506000910152565b81810151838201526020016132d3565b9060209161330c815180928185528580860191016132d0565b601f01601f1916010190565b600435906001600160a01b038216820361028657565b602435906001600160a01b038216820361028657565b90600182811c92168015613374575b602083101461335e57565b634e487b7160e01b600052602260045260246000fd5b91607f1691613353565b906040519182600082549261339284613344565b90818452600194858116908160001461340157506001146133be575b50506133bc9250038361323f565b565b9093915060005260209081600020936000915b8183106133e95750506133bc935082010138806133ae565b855488840185015294850194879450918301916133d1565b9150506133bc94506020925060ff191682840152151560051b82010138806133ae565b6060906003190112610286576001600160a01b0390600435828116810361028657916024359081168103610286579060443590565b9591929361349d9461347960c097939a999a60e08a5260e08a01906132f3565b946020890152604088015260608701521515608086015284820360a08601526132f3565b931515910152565b6040906003190112610286576004359060243590565b80548210156134d7576000526005602060002091020190600090565b634e487b7160e01b600052603260045260246000fd5b93909261351e926132cd9694865260018060a01b03166020860152604085015260a0606085015260a08401906132f3565b9160808184039101526132f3565b9061010060031983011261028657600435916001600160401b0391602435838111610286578261355e916004016132b2565b9260443592606435926084359260a4358015158103610286579260c4359182116102865761358e916004016132b2565b9060e43580151581036102865790565b80548210156134d75760005260206000200190600090565b60075460081c6001600160a01b031633036135cd57565b60405163118cdaa760e01b8152336004820152602490fd5b6001600160a01b039182169290918315610b52576000928284528260209560028752604096848888205416968791331515806136d5575b509060027fddf252ad1be2c89b69c2b068fc378daa952ba7f163c4a11628f55a4df523b3ef92846136a2575b858352600381528b8320805460010190558683525289812080546001600160a01b0319168517905580a416928383036136815750505050565b6064945051926364283d7b60e01b8452600484015260248301526044820152fd5b600087815260046020526040902080546001600160a01b0319169055848352600381528b83208054600019019055613648565b9193945091508061372a575b156136f15785929187913861361c565b87868861370e576024915190637e27328960e01b82526004820152fd5b604491519063177e802f60e01b82523360048301526024820152fd5b50338714801561374f575b806136e157508582526004815233858984205416146136e1565b5086825260058152878220338352815260ff8883205416613735565b6000818152600260205260409020546001600160a01b031690811561378e575090565b60249060405190637e27328960e01b82526004820152fd5b813b6137b3575b50505050565b604051630a85bd0160e11b8082523360048301526001600160a01b039283166024830152604482019490945260806064820152602095929091169390929083906138019060848301906132f3565b039285816000958187895af184918161388c575b5061386f575050503d600014613867573d61382f81613260565b9061383d604051928361323f565b81528091843d92013e80519283610a8157604051633250574960e11b815260048101849052602490fd5b506060610a60565b919450915063ffffffff60e01b1603610aae5750388080806137ad565b9091508681813d83116138c9575b6138a4818361323f565b810103126138c557516001600160e01b0319811681036138c5579038613815565b8480fd5b503d61389a565b51156138d857565b60405162461bcd60e51b81526020600482015260146024820152734e616d652063616e6e6f7420626520656d70747960601b6044820152606490fd5b90911561396f5751156138d85760641061392a57565b60405162461bcd60e51b815260206004820152601b60248201527f496e76616c696420646973636f756e742070657263656e7461676500000000006044820152606490fd5b60405162461bcd60e51b8152602060048201526013602482015272125b9d985b1a59081d195b5c1b185d19481251606a1b6044820152606490fd5b600019811461264c5760010190565b60ff600754166139c557565b60405163d93c066560e01b8152600490fd5b156139de57565b60405162461bcd60e51b8152602060048201526014602482015273151bdad95b88191bd95cc81b9bdd08195e1a5cdd60621b6044820152606490fd5b15613a2157565b60405162461bcd60e51b8152602060048201526014602482015273496e73756666696369656e742062616c616e636560601b6044820152606490fd5b600090808252600c602052613a788360408420541015613a1a565b8152600c60205260408120908154928303928311613a94575055565b634e487b7160e01b81526011600452602490fdfeec928c2fe6632313165f754a793ab00b2cde005b5c7571959d3137d5c4d4ac67c0fdbb34fd837325f175bd973a8607230e48718904c92805638b65905f616d7da2646970667358221220c9fc3445b73939531b43219930e0ce29dd1f9fcaa1868952cee9a434e73953bc64736f6c63430008140033","opcodes":"PUSH1 0x80 CALLVALUE PUSH3 0x38D JUMPI PUSH1 0x1 PUSH1 0x1 PUSH1 0x40 SHL SUB SWAP1 PUSH1 0x40 DUP2 DUP2 ADD DUP4 DUP2 GT DUP4 DUP3 LT OR PUSH3 0x377 JUMPI DUP2 MSTORE PUSH1 0xC DUP3 MSTORE PUSH1 0x20 SWAP2 PUSH12 0x2BB0BB32AC1027232A102B19 PUSH1 0xA1 SHL DUP4 DUP3 ADD MSTORE DUP2 MLOAD SWAP4 DUP3 DUP6 ADD DUP6 DUP2 LT DUP3 DUP3 GT OR PUSH3 0x377 JUMPI DUP4 MSTORE PUSH1 0x6 DUP6 MSTORE PUSH6 0x2BA0AB22AC19 PUSH1 0xD1 SHL DUP5 DUP7 ADD MSTORE DUP2 MLOAD DUP2 DUP2 GT PUSH3 0x377 JUMPI PUSH1 0x0 SWAP5 DUP6 SLOAD SWAP2 PUSH1 0x1 SWAP5 DUP6 DUP5 DUP2 SHR SWAP5 AND DUP1 ISZERO PUSH3 0x36C JUMPI JUMPDEST DUP4 DUP6 LT EQ PUSH3 0x358 JUMPI DUP2 SWAP1 PUSH1 0x1F SWAP5 DUP6 DUP2 GT PUSH3 0x305 JUMPI JUMPDEST POP DUP4 SWAP1 DUP6 DUP4 GT PUSH1 0x1 EQ PUSH3 0x2A1 JUMPI DUP10 SWAP3 PUSH3 0x295 JUMPI JUMPDEST POP POP PUSH1 0x0 NOT PUSH1 0x3 DUP4 SWAP1 SHL SHR NOT AND SWAP1 DUP6 SHL OR DUP7 SSTORE JUMPDEST DUP7 MLOAD SWAP3 DUP4 GT PUSH3 0x281 JUMPI DUP4 SLOAD DUP5 DUP2 DUP2 SHR SWAP2 AND DUP1 ISZERO PUSH3 0x276 JUMPI JUMPDEST DUP3 DUP3 LT EQ PUSH3 0x262 JUMPI DUP3 DUP2 GT PUSH3 0x21A JUMPI JUMPDEST POP DUP1 SWAP2 DUP4 GT PUSH1 0x1 EQ PUSH3 0x1B3 JUMPI POP DUP5 SWAP6 DUP3 SWAP4 SWAP5 SWAP6 SWAP3 PUSH3 0x1A7 JUMPI JUMPDEST POP POP PUSH1 0x0 NOT PUSH1 0x3 DUP4 SWAP1 SHL SHR NOT AND SWAP1 DUP3 SHL OR SWAP1 SSTORE JUMPDEST PUSH1 0x7 SLOAD SWAP1 CALLER ISZERO PUSH3 0x190 JUMPI PUSH1 0x1 PUSH1 0x1 PUSH1 0xA8 SHL SUB NOT DUP3 AND CALLER PUSH1 0x8 DUP2 DUP2 SHL PUSH2 0x100 PUSH1 0x1 PUSH1 0xA8 SHL SUB AND SWAP3 SWAP1 SWAP3 OR PUSH1 0x7 SSTORE SWAP2 MLOAD SWAP4 SWAP2 SWAP3 SWAP1 SHR PUSH1 0x1 PUSH1 0x1 PUSH1 0xA0 SHL SUB AND SWAP1 PUSH32 0x8BE0079C531659141344CD1FD0A4F28419497F9722A3DAAFE3B4186F6B6457E0 SWAP1 DUP1 LOG3 PUSH2 0x3B1E SWAP1 DUP2 PUSH3 0x393 DUP3 CODECOPY RETURN JUMPDEST MLOAD PUSH4 0x1E4FBDF7 PUSH1 0xE0 SHL DUP2 MSTORE PUSH1 0x4 DUP2 ADD DUP4 SWAP1 MSTORE PUSH1 0x24 SWAP1 REVERT JUMPDEST ADD MLOAD SWAP1 POP CODESIZE DUP1 PUSH3 0x10D JUMP JUMPDEST SWAP1 PUSH1 0x1F NOT DUP4 AND SWAP7 DUP5 DUP8 MSTORE DUP3 DUP8 KECCAK256 SWAP3 DUP8 SWAP1 JUMPDEST DUP10 DUP3 LT PUSH3 0x202 JUMPI POP POP DUP4 DUP6 SWAP7 SWAP8 SWAP9 LT PUSH3 0x1E8 JUMPI JUMPDEST POP POP POP DUP2 SHL ADD SWAP1 SSTORE PUSH3 0x121 JUMP JUMPDEST ADD MLOAD PUSH1 0x0 NOT PUSH1 0xF8 DUP5 PUSH1 0x3 SHL AND SHR NOT AND SWAP1 SSTORE CODESIZE DUP1 DUP1 PUSH3 0x1DA JUMP JUMPDEST DUP1 DUP8 DUP6 SWAP7 DUP3 SWAP5 SWAP7 DUP7 ADD MLOAD DUP2 SSTORE ADD SWAP6 ADD SWAP4 ADD SWAP1 PUSH3 0x1C4 JUMP JUMPDEST DUP5 DUP8 MSTORE DUP2 DUP8 KECCAK256 DUP4 DUP1 DUP7 ADD PUSH1 0x5 SHR DUP3 ADD SWAP3 DUP5 DUP8 LT PUSH3 0x258 JUMPI JUMPDEST ADD PUSH1 0x5 SHR ADD SWAP1 DUP6 SWAP1 JUMPDEST DUP3 DUP2 LT PUSH3 0x24C JUMPI POP POP PUSH3 0xF2 JUMP JUMPDEST DUP9 DUP2 SSTORE ADD DUP6 SWAP1 PUSH3 0x23C JUMP JUMPDEST SWAP3 POP DUP2 SWAP3 PUSH3 0x233 JUMP JUMPDEST PUSH4 0x4E487B71 PUSH1 0xE0 SHL DUP8 MSTORE PUSH1 0x22 PUSH1 0x4 MSTORE PUSH1 0x24 DUP8 REVERT JUMPDEST SWAP1 PUSH1 0x7F AND SWAP1 PUSH3 0xE0 JUMP JUMPDEST PUSH4 0x4E487B71 PUSH1 0xE0 SHL DUP7 MSTORE PUSH1 0x41 PUSH1 0x4 MSTORE PUSH1 0x24 DUP7 REVERT JUMPDEST ADD MLOAD SWAP1 POP CODESIZE DUP1 PUSH3 0xB2 JUMP JUMPDEST DUP10 DUP1 MSTORE DUP5 DUP11 KECCAK256 DUP9 SWAP5 POP SWAP2 SWAP1 PUSH1 0x1F NOT DUP5 AND DUP12 JUMPDEST DUP8 DUP3 DUP3 LT PUSH3 0x2EE JUMPI POP POP DUP5 GT PUSH3 0x2D4 JUMPI JUMPDEST POP POP POP DUP2 SHL ADD DUP7 SSTORE PUSH3 0xC6 JUMP JUMPDEST ADD MLOAD PUSH1 0x0 NOT PUSH1 0xF8 DUP5 PUSH1 0x3 SHL AND SHR NOT AND SWAP1 SSTORE CODESIZE DUP1 DUP1 PUSH3 0x2C6 JUMP JUMPDEST DUP4 DUP6 ADD MLOAD DUP7 SSTORE DUP12 SWAP8 SWAP1 SWAP6 ADD SWAP5 SWAP4 DUP5 ADD SWAP4 ADD PUSH3 0x2B3 JUMP JUMPDEST SWAP1 SWAP2 POP DUP9 DUP1 MSTORE DUP4 DUP10 KECCAK256 DUP6 DUP1 DUP6 ADD PUSH1 0x5 SHR DUP3 ADD SWAP3 DUP7 DUP7 LT PUSH3 0x34E JUMPI JUMPDEST SWAP2 DUP10 SWAP2 DUP7 SWAP6 SWAP5 SWAP4 ADD PUSH1 0x5 SHR ADD SWAP2 JUMPDEST DUP3 DUP2 LT PUSH3 0x33F JUMPI POP POP PUSH3 0x9C JUMP JUMPDEST DUP12 DUP2 SSTORE DUP6 SWAP5 POP DUP10 SWAP2 ADD PUSH3 0x32F JUMP JUMPDEST SWAP3 POP DUP2 SWAP3 PUSH3 0x321 JUMP JUMPDEST PUSH4 0x4E487B71 PUSH1 0xE0 SHL DUP9 MSTORE PUSH1 0x22 PUSH1 0x4 MSTORE PUSH1 0x24 DUP9 REVERT JUMPDEST SWAP4 PUSH1 0x7F AND SWAP4 PUSH3 0x85 JUMP JUMPDEST PUSH4 0x4E487B71 PUSH1 0xE0 SHL PUSH1 0x0 MSTORE PUSH1 0x41 PUSH1 0x4 MSTORE PUSH1 0x24 PUSH1 0x0 REVERT JUMPDEST PUSH1 0x0 DUP1 REVERT INVALID PUSH1 0x80 DUP1 PUSH1 0x40 MSTORE PUSH1 0x4 CALLDATASIZE LT ISZERO PUSH2 0x13 JUMPI PUSH1 0x0 DUP1 REVERT JUMPDEST PUSH1 0x0 CALLDATALOAD PUSH1 0xE0 SHR SWAP1 DUP2 PUSH4 0x1FFC9A7 EQ PUSH2 0x314E JUMPI POP DUP1 PUSH4 0x374AB0B EQ PUSH2 0x2EB7 JUMPI DUP1 PUSH4 0x6FDDE03 EQ PUSH2 0x2E14 JUMPI DUP1 PUSH4 0x81812FC EQ PUSH2 0x2DD6 JUMPI DUP1 PUSH4 0x95EA7B3 EQ PUSH2 0x2CEF JUMPI DUP1 PUSH4 0xB791430 EQ PUSH2 0x2C6E JUMPI DUP1 PUSH4 0x23B872DD EQ PUSH2 0x2C57 JUMPI DUP1 PUSH4 0x28342133 EQ PUSH2 0x2820 JUMPI DUP1 PUSH4 0x31543CF4 EQ PUSH2 0x271B JUMPI DUP1 PUSH4 0x368A5247 EQ PUSH2 0x21E8 JUMPI DUP1 PUSH4 0x37AE9C13 EQ PUSH2 0x21A3 JUMPI DUP1 PUSH4 0x3DE5D0DE EQ PUSH2 0x2177 JUMPI DUP1 PUSH4 0x3F4BA83A EQ PUSH2 0x210D JUMPI DUP1 PUSH4 0x42842E0E EQ PUSH2 0x20DF JUMPI DUP1 PUSH4 0x49AFC6E5 EQ PUSH2 0x20B3 JUMPI DUP1 PUSH4 0x4EAF9DB6 EQ PUSH2 0x2045 JUMPI DUP1 PUSH4 0x5016959A EQ PUSH2 0x2027 JUMPI DUP1 PUSH4 0x5C975ABB EQ PUSH2 0x2004 JUMPI DUP1 PUSH4 0x6352211E EQ PUSH2 0x1FD4 JUMPI DUP1 PUSH4 0x68C4AC26 EQ PUSH2 0x1F95 JUMPI DUP1 PUSH4 0x6D69FCAF EQ PUSH2 0x1EE8 JUMPI DUP1 PUSH4 0x70A08231 EQ PUSH2 0x1E8F JUMPI DUP1 PUSH4 0x715018A6 EQ PUSH2 0x1E2E JUMPI DUP1 PUSH4 0x7303F6CE EQ PUSH2 0x1D93 JUMPI DUP1 PUSH4 0x819A701C EQ PUSH2 0x1D51 JUMPI DUP1 PUSH4 0x8456CB59 EQ PUSH2 0x1CF7 JUMPI DUP1 PUSH4 0x8AF5AE99 EQ PUSH2 0x14B3 JUMPI DUP1 PUSH4 0x8DA5CB5B EQ PUSH2 0x1486 JUMPI DUP1 PUSH4 0x95D89B41 EQ PUSH2 0x13A7 JUMPI DUP1 PUSH4 0x96651EC3 EQ PUSH2 0x101C JUMPI DUP1 PUSH4 0xA22CB465 EQ PUSH2 0xF6E JUMPI DUP1 PUSH4 0xA871BD66 EQ PUSH2 0xF2F JUMPI DUP1 PUSH4 0xB701B319 EQ PUSH2 0xD5C JUMPI DUP1 PUSH4 0xB88D4FDE EQ PUSH2 0xCF0 JUMPI DUP1 PUSH4 0xBC525652 EQ PUSH2 0xC88 JUMPI DUP1 PUSH4 0xC4754B77 EQ PUSH2 0xBE2 JUMPI DUP1 PUSH4 0xC58D0686 EQ PUSH2 0x701 JUMPI DUP1 PUSH4 0xC87B56DD EQ PUSH2 0x6A4 JUMPI DUP1 PUSH4 0xCA2EFD38 EQ PUSH2 0x665 JUMPI DUP1 PUSH4 0xCDC965CD EQ PUSH2 0x2E1 JUMPI DUP1 PUSH4 0xE985E9C5 EQ PUSH2 0x28B JUMPI PUSH4 0xF2FDE38B EQ PUSH2 0x1ED JUMPI PUSH1 0x0 DUP1 REVERT JUMPDEST CALLVALUE PUSH2 0x286 JUMPI PUSH1 0x20 CALLDATASIZE PUSH1 0x3 NOT ADD SLT PUSH2 0x286 JUMPI PUSH2 0x206 PUSH2 0x3318 JUMP JUMPDEST PUSH2 0x20E PUSH2 0x35B6 JUMP JUMPDEST PUSH1 0x1 PUSH1 0x1 PUSH1 0xA0 SHL SUB DUP2 DUP2 AND SWAP2 DUP3 ISZERO PUSH2 0x26D JUMPI PUSH1 0x7 DUP1 SLOAD PUSH2 0x100 PUSH1 0x1 PUSH1 0xA8 SHL SUB NOT DUP2 AND PUSH1 0x8 SWAP4 DUP5 SHL PUSH2 0x100 PUSH1 0x1 PUSH1 0xA8 SHL SUB AND OR SWAP1 SWAP2 SSTORE SWAP1 SHR AND PUSH32 0x8BE0079C531659141344CD1FD0A4F28419497F9722A3DAAFE3B4186F6B6457E0 PUSH1 0x0 DUP1 LOG3 STOP JUMPDEST PUSH1 0x40 MLOAD PUSH4 0x1E4FBDF7 PUSH1 0xE0 SHL DUP2 MSTORE PUSH1 0x0 PUSH1 0x4 DUP3 ADD MSTORE PUSH1 0x24 SWAP1 REVERT JUMPDEST PUSH1 0x0 DUP1 REVERT JUMPDEST CALLVALUE PUSH2 0x286 JUMPI PUSH1 0x40 CALLDATASIZE PUSH1 0x3 NOT ADD SLT PUSH2 0x286 JUMPI PUSH2 0x2A4 PUSH2 0x3318 JUMP JUMPDEST PUSH2 0x2AC PUSH2 0x332E JUMP JUMPDEST SWAP1 PUSH1 0x1 DUP1 PUSH1 0xA0 SHL SUB DUP1 SWAP2 AND PUSH1 0x0 MSTORE PUSH1 0x5 PUSH1 0x20 MSTORE PUSH1 0x40 PUSH1 0x0 KECCAK256 SWAP2 AND PUSH1 0x0 MSTORE PUSH1 0x20 MSTORE PUSH1 0x20 PUSH1 0xFF PUSH1 0x40 PUSH1 0x0 KECCAK256 SLOAD AND PUSH1 0x40 MLOAD SWAP1 ISZERO ISZERO DUP2 MSTORE RETURN JUMPDEST CALLVALUE PUSH2 0x286 JUMPI PUSH2 0x2EF CALLDATASIZE PUSH2 0x352C JUMP JUMPDEST SWAP7 SWAP6 SWAP4 PUSH2 0x2FD SWAP4 SWAP2 SWAP4 PUSH2 0x35B6 JUMP JUMPDEST PUSH2 0x308 DUP8 DUP4 DUP8 PUSH2 0x3914 JUMP JUMPDEST PUSH1 0x40 MLOAD PUSH2 0x314 DUP2 PUSH2 0x31D3 JUMP JUMPDEST DUP6 DUP2 MSTORE DUP7 PUSH1 0x20 DUP3 ADD MSTORE DUP2 PUSH1 0x40 DUP3 ADD MSTORE DUP3 PUSH1 0x60 DUP3 ADD MSTORE DUP4 ISZERO ISZERO PUSH1 0x80 DUP3 ADD MSTORE DUP5 PUSH1 0xA0 DUP3 ADD MSTORE DUP9 ISZERO ISZERO PUSH1 0xC0 DUP3 ADD MSTORE DUP8 PUSH1 0x0 MSTORE PUSH1 0xA PUSH1 0x20 MSTORE PUSH1 0x40 PUSH1 0x0 KECCAK256 SWAP1 DUP1 MLOAD DUP1 MLOAD SWAP1 PUSH1 0x1 PUSH1 0x1 PUSH1 0x40 SHL SUB DUP3 GT PUSH2 0x58E JUMPI DUP2 SWAP1 PUSH2 0x36D DUP6 SLOAD PUSH2 0x3344 JUMP JUMPDEST PUSH1 0x1F DUP2 GT PUSH2 0x615 JUMPI JUMPDEST POP PUSH1 0x20 SWAP1 PUSH1 0x1F DUP4 GT PUSH1 0x1 EQ PUSH2 0x5AF JUMPI PUSH1 0x0 SWAP3 PUSH2 0x5A4 JUMPI JUMPDEST POP POP DUP2 PUSH1 0x1 SHL SWAP2 PUSH1 0x0 NOT SWAP1 PUSH1 0x3 SHL SHR NOT AND OR DUP3 SSTORE JUMPDEST PUSH1 0x20 DUP2 ADD MLOAD PUSH1 0x1 DUP4 ADD SSTORE PUSH1 0x40 DUP2 ADD MLOAD PUSH1 0x2 DUP4 ADD SSTORE PUSH1 0x60 DUP2 ADD MLOAD PUSH1 0x3 DUP4 ADD SSTORE PUSH2 0x3DF PUSH1 0x80 DUP3 ADD MLOAD ISZERO ISZERO PUSH1 0x4 DUP5 ADD SWAP1 PUSH1 0xFF DUP1 NOT DUP4 SLOAD AND SWAP2 ISZERO ISZERO AND OR SWAP1 SSTORE JUMP JUMPDEST PUSH1 0xA0 DUP2 ADD MLOAD DUP1 MLOAD SWAP1 PUSH1 0x1 PUSH1 0x1 PUSH1 0x40 SHL SUB DUP3 GT PUSH2 0x58E JUMPI PUSH2 0x402 PUSH1 0x5 DUP6 ADD SLOAD PUSH2 0x3344 JUMP JUMPDEST PUSH1 0x1F DUP2 GT PUSH2 0x547 JUMPI JUMPDEST POP PUSH1 0x20 SWAP1 PUSH1 0x1F DUP4 GT PUSH1 0x1 EQ PUSH2 0x4A4 JUMPI PUSH1 0xC0 PUSH32 0xFF92D45B846F70A381C6B12925794910C7D5A97F58898AC2A2DAE8E48FDBDA63 SWAP13 SWAP14 SWAP9 SWAP7 SWAP5 DUP5 PUSH2 0x488 SWAP6 PUSH2 0x494 SWAP13 SWAP11 SWAP9 SWAP6 PUSH1 0x6 SWAP6 PUSH1 0x0 SWAP3 PUSH2 0x499 JUMPI JUMPDEST POP POP DUP2 PUSH1 0x1 SHL SWAP2 PUSH1 0x0 NOT SWAP1 PUSH1 0x3 SHL SHR NOT AND OR PUSH1 0x5 DUP6 ADD SSTORE JUMPDEST ADD MLOAD ISZERO ISZERO SWAP2 ADD SWAP1 PUSH1 0xFF DUP1 NOT DUP4 SLOAD AND SWAP2 ISZERO ISZERO AND OR SWAP1 SSTORE JUMP JUMPDEST PUSH1 0x40 MLOAD SWAP8 DUP9 SWAP8 DUP9 PUSH2 0x3459 JUMP JUMPDEST SUB SWAP1 LOG2 STOP JUMPDEST ADD MLOAD SWAP1 POP CODESIZE DUP1 PUSH2 0x459 JUMP JUMPDEST SWAP1 PUSH1 0x5 DUP6 ADD PUSH1 0x0 MSTORE PUSH1 0x20 PUSH1 0x0 KECCAK256 SWAP2 PUSH1 0x0 JUMPDEST PUSH1 0x1F NOT DUP6 AND DUP2 LT PUSH2 0x52F JUMPI POP PUSH32 0xFF92D45B846F70A381C6B12925794910C7D5A97F58898AC2A2DAE8E48FDBDA63 SWAP13 SWAP14 SWAP9 SWAP7 SWAP5 PUSH1 0x1 DUP6 PUSH2 0x494 SWAP13 SWAP11 SWAP9 SWAP6 PUSH1 0x6 SWAP6 PUSH1 0xC0 SWAP6 PUSH2 0x488 SWAP10 PUSH1 0x1F NOT DUP2 AND LT PUSH2 0x516 JUMPI JUMPDEST POP POP POP DUP2 SHL ADD PUSH1 0x5 DUP6 ADD SSTORE PUSH2 0x471 JUMP JUMPDEST ADD MLOAD PUSH1 0x0 NOT PUSH1 0xF8 DUP5 PUSH1 0x3 SHL AND SHR NOT AND SWAP1 SSTORE CODESIZE DUP1 DUP1 PUSH2 0x506 JUMP JUMPDEST SWAP2 SWAP3 PUSH1 0x20 PUSH1 0x1 DUP2 SWAP3 DUP7 DUP6 ADD MLOAD DUP2 SSTORE ADD SWAP5 ADD SWAP3 ADD PUSH2 0x4B5 JUMP JUMPDEST PUSH1 0x5 DUP6 ADD PUSH1 0x0 MSTORE PUSH1 0x20 PUSH1 0x0 KECCAK256 PUSH1 0x1F DUP5 ADD PUSH1 0x5 SHR DUP2 ADD PUSH1 0x20 DUP6 LT PUSH2 0x587 JUMPI JUMPDEST PUSH1 0x1F DUP4 ADD PUSH1 0x5 SHR DUP3 ADD DUP2 LT PUSH2 0x57B JUMPI POP POP PUSH2 0x40B JUMP JUMPDEST PUSH1 0x0 DUP2 SSTORE PUSH1 0x1 ADD PUSH2 0x565 JUMP JUMPDEST POP DUP1 PUSH2 0x565 JUMP JUMPDEST PUSH4 0x4E487B71 PUSH1 0xE0 SHL PUSH1 0x0 MSTORE PUSH1 0x41 PUSH1 0x4 MSTORE PUSH1 0x24 PUSH1 0x0 REVERT JUMPDEST ADD MLOAD SWAP1 POP DUP13 DUP1 PUSH2 0x38D JUMP JUMPDEST PUSH1 0x0 DUP7 DUP2 MSTORE PUSH1 0x20 DUP2 KECCAK256 SWAP4 POP PUSH1 0x1F NOT DUP6 AND SWAP1 JUMPDEST DUP2 DUP2 LT PUSH2 0x5FD JUMPI POP SWAP1 DUP5 PUSH1 0x1 SWAP6 SWAP5 SWAP4 SWAP3 LT PUSH2 0x5E4 JUMPI JUMPDEST POP POP POP DUP2 SHL ADD DUP3 SSTORE PUSH2 0x3A2 JUMP JUMPDEST ADD MLOAD PUSH1 0x0 NOT PUSH1 0xF8 DUP5 PUSH1 0x3 SHL AND SHR NOT AND SWAP1 SSTORE DUP13 DUP1 DUP1 PUSH2 0x5D7 JUMP JUMPDEST SWAP3 SWAP4 PUSH1 0x20 PUSH1 0x1 DUP2 SWAP3 DUP8 DUP7 ADD MLOAD DUP2 SSTORE ADD SWAP6 ADD SWAP4 ADD PUSH2 0x5C1 JUMP JUMPDEST SWAP1 SWAP2 POP DUP5 PUSH1 0x0 MSTORE PUSH1 0x20 PUSH1 0x0 KECCAK256 PUSH1 0x1F DUP5 ADD PUSH1 0x5 SHR DUP2 ADD PUSH1 0x20 DUP6 LT PUSH2 0x65E JUMPI JUMPDEST SWAP1 DUP5 SWAP4 SWAP3 SWAP2 JUMPDEST PUSH1 0x1F DUP4 ADD PUSH1 0x5 SHR DUP3 ADD DUP2 LT PUSH2 0x64F JUMPI POP POP PUSH2 0x376 JUMP JUMPDEST PUSH1 0x0 DUP2 SSTORE DUP6 SWAP5 POP PUSH1 0x1 ADD PUSH2 0x639 JUMP JUMPDEST POP DUP1 PUSH2 0x633 JUMP JUMPDEST CALLVALUE PUSH2 0x286 JUMPI PUSH1 0x20 CALLDATASIZE PUSH1 0x3 NOT ADD SLT PUSH2 0x286 JUMPI PUSH1 0x1 PUSH1 0x1 PUSH1 0xA0 SHL SUB PUSH2 0x686 PUSH2 0x3318 JUMP JUMPDEST AND PUSH1 0x0 MSTORE PUSH1 0xF PUSH1 0x20 MSTORE PUSH1 0x20 PUSH1 0xFF PUSH1 0x40 PUSH1 0x0 KECCAK256 SLOAD AND PUSH1 0x40 MLOAD SWAP1 ISZERO ISZERO DUP2 MSTORE RETURN JUMPDEST CALLVALUE PUSH2 0x286 JUMPI PUSH1 0x20 CALLDATASIZE PUSH1 0x3 NOT ADD SLT PUSH2 0x286 JUMPI PUSH1 0x4 CALLDATALOAD PUSH2 0x6C1 DUP2 PUSH2 0x376B JUMP JUMPDEST POP PUSH1 0x0 MSTORE PUSH1 0x6 PUSH1 0x20 MSTORE PUSH2 0x6FD PUSH2 0x6DA PUSH1 0x40 PUSH1 0x0 KECCAK256 PUSH2 0x337E JUMP JUMPDEST PUSH1 0x0 PUSH1 0x40 MLOAD PUSH2 0x6E8 DUP2 PUSH2 0x3224 JUMP JUMPDEST MSTORE PUSH1 0x40 MLOAD SWAP2 DUP3 SWAP2 PUSH1 0x20 DUP4 MSTORE PUSH1 0x20 DUP4 ADD SWAP1 PUSH2 0x32F3 JUMP JUMPDEST SUB SWAP1 RETURN JUMPDEST PUSH1 0x60 CALLDATASIZE PUSH1 0x3 NOT ADD SLT PUSH2 0x286 JUMPI PUSH1 0x4 CALLDATALOAD PUSH2 0x718 PUSH2 0x332E JUMP JUMPDEST SWAP1 PUSH1 0x1 PUSH1 0x1 PUSH1 0x40 SHL SUB PUSH1 0x44 CALLDATALOAD DUP2 DUP2 GT PUSH2 0x286 JUMPI PUSH2 0x739 SWAP1 CALLDATASIZE SWAP1 PUSH1 0x4 ADD PUSH2 0x32B2 JUMP JUMPDEST SWAP2 PUSH2 0x742 PUSH2 0x39B9 JUMP JUMPDEST DUP1 PUSH1 0x0 MSTORE PUSH1 0x20 SWAP4 PUSH1 0xA DUP6 MSTORE PUSH1 0xFF PUSH1 0x6 PUSH1 0x40 PUSH1 0x0 KECCAK256 ADD SLOAD AND ISZERO PUSH2 0xBA7 JUMPI DUP2 PUSH1 0x0 MSTORE PUSH1 0xA DUP6 MSTORE PUSH1 0x2 PUSH1 0x40 PUSH1 0x0 KECCAK256 ADD SLOAD CALLVALUE LT PUSH2 0xB6B JUMPI PUSH2 0x780 PUSH1 0x8 SLOAD PUSH2 0x39AA JUMP JUMPDEST SWAP2 DUP3 PUSH1 0x8 SSTORE PUSH1 0x40 MLOAD SWAP5 PUSH2 0x792 DUP7 PUSH2 0x3224 JUMP JUMPDEST PUSH1 0x0 DUP7 MSTORE PUSH1 0x1 PUSH1 0x1 PUSH1 0xA0 SHL SUB DUP4 DUP2 AND SWAP7 SWAP1 DUP8 ISZERO PUSH2 0xB52 JUMPI DUP6 PUSH1 0x0 MSTORE PUSH1 0x2 DUP10 MSTORE PUSH1 0x40 PUSH1 0x0 KECCAK256 SLOAD AND SWAP4 DUP5 ISZERO ISZERO DUP1 PUSH2 0xB1F JUMPI JUMPDEST DUP9 PUSH1 0x0 MSTORE PUSH1 0x3 DUP11 MSTORE DUP7 DUP10 PUSH1 0x40 PUSH1 0x0 KECCAK256 SWAP8 PUSH1 0x1 SWAP9 DUP10 DUP2 SLOAD ADD SWAP1 SSTORE DUP3 PUSH1 0x0 MSTORE PUSH1 0x2 DUP14 MSTORE PUSH1 0x40 PUSH1 0x0 KECCAK256 DUP3 PUSH1 0x1 PUSH1 0x1 PUSH1 0x60 SHL SUB PUSH1 0xA0 SHL DUP3 SLOAD AND OR SWAP1 SSTORE PUSH32 0xDDF252AD1BE2C89B69C2B068FC378DAA952BA7F163C4A11628F55A4DF523B3EF PUSH1 0x0 DUP1 LOG4 PUSH2 0xB06 JUMPI EXTCODESIZE PUSH2 0x9E8 JUMPI JUMPDEST POP SWAP1 SWAP2 SWAP3 DUP1 SWAP5 SWAP6 POP PUSH1 0x0 MSTORE PUSH1 0x6 DUP7 MSTORE PUSH1 0x40 PUSH1 0x0 KECCAK256 SWAP1 DUP1 MLOAD SWAP6 DUP7 GT PUSH2 0x58E JUMPI PUSH2 0x851 DUP3 SLOAD PUSH2 0x3344 JUMP JUMPDEST PUSH1 0x1F DUP2 GT PUSH2 0x99F JUMPI JUMPDEST POP DUP7 SWAP1 PUSH1 0x1F DUP8 GT PUSH1 0x1 EQ PUSH2 0x926 JUMPI SWAP2 DUP7 DUP7 SWAP8 PUSH1 0x80 SWAP6 SWAP4 PUSH1 0x0 DUP1 MLOAD PUSH1 0x20 PUSH2 0x3AA9 DUP4 CODECOPY DUP2 MLOAD SWAP2 MSTORE SWAP8 SWAP6 PUSH1 0x0 SWAP3 PUSH2 0x91B JUMPI JUMPDEST POP POP PUSH1 0x0 NOT PUSH1 0x3 DUP4 SWAP1 SHL SHR NOT AND SWAP1 DUP5 SHL OR SWAP1 SSTORE JUMPDEST PUSH32 0xF8E1A15ABA9398E019F0B49DF1A4FDE98EE17AE345CB5F6B5E2C27F5033E8CE7 DUP8 PUSH1 0x40 MLOAD DUP8 DUP2 MSTORE LOG1 DUP1 PUSH1 0x0 MSTORE PUSH1 0xA DUP8 MSTORE DUP2 PUSH1 0x40 PUSH1 0x0 KECCAK256 ADD SLOAD DUP6 PUSH1 0x0 MSTORE PUSH1 0xC DUP9 MSTORE PUSH1 0x40 PUSH1 0x0 KECCAK256 SSTORE PUSH1 0x0 MSTORE PUSH1 0xA DUP7 MSTORE PUSH1 0x40 PUSH1 0x0 KECCAK256 ADD SLOAD PUSH1 0x40 MLOAD SWAP1 DUP2 MSTORE PUSH1 0x40 DUP7 DUP3 ADD MSTORE PUSH1 0x4 PUSH1 0x40 DUP3 ADD MSTORE PUSH4 0x13525395 PUSH1 0xE2 SHL PUSH1 0x60 DUP3 ADD MSTORE LOG2 PUSH1 0x40 MLOAD SWAP1 DUP2 MSTORE RETURN JUMPDEST ADD MLOAD SWAP1 POP DUP11 DUP1 PUSH2 0x889 JUMP JUMPDEST SWAP1 PUSH1 0x1F NOT DUP8 AND SWAP2 DUP4 PUSH1 0x0 MSTORE DUP9 PUSH1 0x0 KECCAK256 SWAP3 PUSH1 0x0 JUMPDEST DUP11 DUP3 DUP3 LT PUSH2 0x98B JUMPI POP POP SWAP8 PUSH1 0x80 SWAP6 SWAP4 DUP8 SWAP6 SWAP4 PUSH1 0x0 DUP1 MLOAD PUSH1 0x20 PUSH2 0x3AA9 DUP4 CODECOPY DUP2 MLOAD SWAP2 MSTORE SWAP9 SWAP4 DUP4 DUP12 SWAP13 LT PUSH2 0x972 JUMPI JUMPDEST POP POP POP DUP2 SHL ADD SWAP1 SSTORE PUSH2 0x89D JUMP JUMPDEST ADD MLOAD PUSH1 0x0 NOT PUSH1 0xF8 DUP5 PUSH1 0x3 SHL AND SHR NOT AND SWAP1 SSTORE DUP11 DUP1 DUP1 PUSH2 0x965 JUMP JUMPDEST DUP4 DUP6 ADD MLOAD DUP7 SSTORE SWAP5 DUP9 ADD SWAP5 SWAP4 DUP5 ADD SWAP4 ADD PUSH2 0x939 JUMP JUMPDEST DUP3 PUSH1 0x0 MSTORE DUP8 PUSH1 0x0 KECCAK256 PUSH1 0x1F DUP9 ADD PUSH1 0x5 SHR DUP2 ADD SWAP2 DUP10 DUP10 LT PUSH2 0x9DE JUMPI JUMPDEST PUSH1 0x1F ADD PUSH1 0x5 SHR ADD SWAP1 DUP6 SWAP1 JUMPDEST DUP3 DUP2 LT PUSH2 0x9D2 JUMPI POP POP PUSH2 0x85A JUMP JUMPDEST PUSH1 0x0 DUP2 SSTORE ADD DUP6 SWAP1 PUSH2 0x9C4 JUMP JUMPDEST SWAP1 SWAP2 POP DUP2 SWAP1 PUSH2 0x9B9 JUMP JUMPDEST PUSH1 0x40 MLOAD DUP9 DUP2 DUP1 PUSH2 0xA21 PUSH4 0xA85BD01 PUSH1 0xE1 SHL SWAP6 DUP7 DUP4 MSTORE CALLER PUSH1 0x4 DUP5 ADD MSTORE PUSH1 0x0 PUSH1 0x24 DUP5 ADD MSTORE DUP11 PUSH1 0x44 DUP5 ADD MSTORE PUSH1 0x80 PUSH1 0x64 DUP5 ADD MSTORE PUSH1 0x84 DUP4 ADD SWAP1 PUSH2 0x32F3 JUMP JUMPDEST SUB DUP2 PUSH1 0x0 DUP13 GAS CALL PUSH1 0x0 SWAP2 DUP2 PUSH2 0xAC6 JUMPI JUMPDEST POP PUSH2 0xA8D JUMPI DUP9 DUP9 RETURNDATASIZE ISZERO PUSH2 0xA86 JUMPI RETURNDATASIZE PUSH2 0xA48 DUP2 PUSH2 0x3260 JUMP JUMPDEST SWAP1 PUSH2 0xA56 PUSH1 0x40 MLOAD SWAP3 DUP4 PUSH2 0x323F JUMP JUMPDEST DUP2 MSTORE RETURNDATASIZE PUSH1 0x0 DUP5 DUP4 ADD RETURNDATACOPY JUMPDEST DUP1 MLOAD SWAP3 DUP4 PUSH2 0xA81 JUMPI PUSH1 0x40 MLOAD PUSH4 0x32505749 PUSH1 0xE1 SHL DUP2 MSTORE PUSH1 0x4 DUP2 ADD DUP5 SWAP1 MSTORE PUSH1 0x24 SWAP1 REVERT JUMPDEST ADD SWAP1 POP REVERT JUMPDEST PUSH1 0x60 PUSH2 0xA60 JUMP JUMPDEST PUSH4 0xFFFFFFFF PUSH1 0xE0 SWAP9 SWAP4 SWAP5 SWAP6 SWAP7 SWAP8 SWAP9 SHL AND SUB PUSH2 0xAAE JUMPI POP SWAP1 DUP5 SWAP4 SWAP3 SWAP2 DUP8 PUSH2 0x829 JUMP JUMPDEST PUSH1 0x24 SWAP1 PUSH1 0x40 MLOAD SWAP1 PUSH4 0x32505749 PUSH1 0xE1 SHL DUP3 MSTORE PUSH1 0x4 DUP3 ADD MSTORE REVERT JUMPDEST SWAP1 SWAP2 POP DUP10 DUP2 DUP2 RETURNDATASIZE DUP4 GT PUSH2 0xAFF JUMPI JUMPDEST PUSH2 0xADE DUP2 DUP4 PUSH2 0x323F JUMP JUMPDEST DUP2 ADD SUB SLT PUSH2 0x286 JUMPI MLOAD PUSH1 0x1 PUSH1 0x1 PUSH1 0xE0 SHL SUB NOT DUP2 AND DUP2 SUB PUSH2 0x286 JUMPI SWAP1 DUP11 PUSH2 0xA31 JUMP JUMPDEST POP RETURNDATASIZE PUSH2 0xAD4 JUMP JUMPDEST PUSH1 0x40 MLOAD PUSH4 0x39E35637 PUSH1 0xE1 SHL DUP2 MSTORE PUSH1 0x0 PUSH1 0x4 DUP3 ADD MSTORE PUSH1 0x24 SWAP1 REVERT JUMPDEST PUSH1 0x0 DUP8 DUP2 MSTORE PUSH1 0x4 PUSH1 0x20 MSTORE PUSH1 0x40 DUP1 DUP3 KECCAK256 DUP1 SLOAD PUSH1 0x1 PUSH1 0x1 PUSH1 0xA0 SHL SUB NOT AND SWAP1 SSTORE DUP8 DUP3 MSTORE PUSH1 0x3 DUP13 MSTORE SWAP1 KECCAK256 DUP1 SLOAD PUSH1 0x0 NOT ADD SWAP1 SSTORE PUSH2 0x7C2 JUMP JUMPDEST PUSH1 0x40 MLOAD PUSH4 0x32505749 PUSH1 0xE1 SHL DUP2 MSTORE PUSH1 0x0 PUSH1 0x4 DUP3 ADD MSTORE PUSH1 0x24 SWAP1 REVERT JUMPDEST PUSH1 0x40 MLOAD PUSH3 0x461BCD PUSH1 0xE5 SHL DUP2 MSTORE PUSH1 0x4 DUP2 ADD DUP7 SWAP1 MSTORE PUSH1 0x14 PUSH1 0x24 DUP3 ADD MSTORE PUSH20 0x125B9CDD59999A58DA595B9D081C185E5B595B9D PUSH1 0x62 SHL PUSH1 0x44 DUP3 ADD MSTORE PUSH1 0x64 SWAP1 REVERT JUMPDEST PUSH1 0x40 MLOAD PUSH3 0x461BCD PUSH1 0xE5 SHL DUP2 MSTORE PUSH1 0x4 DUP2 ADD DUP7 SWAP1 MSTORE PUSH1 0x13 PUSH1 0x24 DUP3 ADD MSTORE PUSH19 0x54656D706C617465206E6F7420616374697665 PUSH1 0x68 SHL PUSH1 0x44 DUP3 ADD MSTORE PUSH1 0x64 SWAP1 REVERT JUMPDEST CALLVALUE PUSH2 0x286 JUMPI PUSH1 0x20 DUP1 PUSH1 0x3 NOT CALLDATASIZE ADD SLT PUSH2 0x286 JUMPI PUSH1 0x4 CALLDATALOAD PUSH1 0x0 MSTORE PUSH1 0xE DUP2 MSTORE PUSH1 0x40 PUSH1 0x0 KECCAK256 PUSH1 0x40 MLOAD SWAP1 DUP2 DUP4 DUP3 SLOAD SWAP2 DUP3 DUP2 MSTORE ADD SWAP1 DUP2 SWAP3 PUSH1 0x0 MSTORE DUP5 PUSH1 0x0 KECCAK256 SWAP1 PUSH1 0x0 JUMPDEST DUP7 DUP3 DUP3 LT PUSH2 0xC74 JUMPI DUP7 DUP7 PUSH2 0xC34 DUP3 DUP9 SUB DUP4 PUSH2 0x323F JUMP JUMPDEST PUSH1 0x40 MLOAD SWAP3 DUP4 SWAP3 DUP2 DUP5 ADD SWAP1 DUP3 DUP6 MSTORE MLOAD DUP1 SWAP2 MSTORE PUSH1 0x40 DUP5 ADD SWAP3 SWAP2 PUSH1 0x0 JUMPDEST DUP3 DUP2 LT PUSH2 0xC5D JUMPI POP POP POP POP SUB SWAP1 RETURN JUMPDEST DUP4 MLOAD DUP6 MSTORE DUP7 SWAP6 POP SWAP4 DUP2 ADD SWAP4 SWAP3 DUP2 ADD SWAP3 PUSH1 0x1 ADD PUSH2 0xC4E JUMP JUMPDEST DUP4 SLOAD DUP6 MSTORE SWAP1 SWAP4 ADD SWAP3 PUSH1 0x1 SWAP3 DUP4 ADD SWAP3 ADD PUSH2 0xC1E JUMP JUMPDEST CALLVALUE PUSH2 0x286 JUMPI PUSH1 0x20 CALLDATASIZE PUSH1 0x3 NOT ADD SLT PUSH2 0x286 JUMPI PUSH1 0x4 CALLDATALOAD PUSH1 0x0 MSTORE PUSH1 0xA PUSH1 0x20 MSTORE PUSH1 0x40 PUSH1 0x0 KECCAK256 PUSH2 0xCB2 DUP2 PUSH2 0x337E JUMP JUMPDEST PUSH2 0x6FD PUSH1 0x1 DUP4 ADD SLOAD SWAP3 PUSH1 0x2 DUP2 ADD SLOAD SWAP1 PUSH1 0x3 DUP2 ADD SLOAD PUSH1 0xFF PUSH1 0x4 DUP4 ADD SLOAD AND SWAP1 PUSH1 0xFF PUSH1 0x6 PUSH2 0xCDF PUSH1 0x5 DUP7 ADD PUSH2 0x337E JUMP JUMPDEST SWAP5 ADD SLOAD AND SWAP4 PUSH1 0x40 MLOAD SWAP8 DUP9 SWAP8 DUP9 PUSH2 0x3459 JUMP JUMPDEST CALLVALUE PUSH2 0x286 JUMPI PUSH1 0x80 CALLDATASIZE PUSH1 0x3 NOT ADD SLT PUSH2 0x286 JUMPI PUSH2 0xD09 PUSH2 0x3318 JUMP JUMPDEST PUSH2 0xD11 PUSH2 0x332E JUMP JUMPDEST SWAP1 PUSH1 0x44 CALLDATALOAD PUSH1 0x64 CALLDATALOAD SWAP3 PUSH1 0x1 PUSH1 0x1 PUSH1 0x40 SHL SUB DUP5 GT PUSH2 0x286 JUMPI CALLDATASIZE PUSH1 0x23 DUP6 ADD SLT ISZERO PUSH2 0x286 JUMPI PUSH2 0xD49 PUSH2 0xD5A SWAP5 CALLDATASIZE SWAP1 PUSH1 0x24 DUP2 PUSH1 0x4 ADD CALLDATALOAD SWAP2 ADD PUSH2 0x327B JUMP JUMPDEST SWAP3 PUSH2 0xD55 DUP4 DUP4 DUP4 PUSH2 0x35E5 JUMP JUMPDEST PUSH2 0x37A6 JUMP JUMPDEST STOP JUMPDEST CALLVALUE PUSH2 0x286 JUMPI PUSH2 0xD6A CALLDATASIZE PUSH2 0x34A5 JUMP JUMPDEST PUSH2 0xD72 PUSH2 0x39B9 JUMP JUMPDEST DUP2 PUSH1 0x0 MSTORE PUSH1 0x20 SWAP1 PUSH1 0x2 DUP3 MSTORE PUSH2 0xD95 PUSH1 0x1 DUP1 PUSH1 0xA0 SHL SUB PUSH1 0x40 PUSH1 0x0 KECCAK256 SLOAD AND ISZERO ISZERO PUSH2 0x39D7 JUMP JUMPDEST DUP1 PUSH1 0x0 MSTORE PUSH1 0xB DUP3 MSTORE PUSH1 0x40 PUSH1 0x0 KECCAK256 DUP4 PUSH1 0x0 MSTORE PUSH1 0xC DUP4 MSTORE PUSH1 0x40 PUSH1 0x0 KECCAK256 SLOAD SWAP1 PUSH1 0xFF PUSH1 0x4 DUP3 ADD SLOAD AND ISZERO PUSH2 0xEF7 JUMPI PUSH1 0x3 DUP2 ADD SLOAD PUSH1 0x2 DUP3 ADD SLOAD GT ISZERO PUSH2 0xEC5 JUMPI SWAP1 PUSH1 0x1 PUSH2 0xDDE SWAP3 ADD SLOAD GT ISZERO PUSH2 0x3A1A JUMP JUMPDEST DUP1 PUSH1 0x0 MSTORE PUSH1 0xB DUP3 MSTORE PUSH2 0xDF8 PUSH1 0x1 PUSH1 0x40 PUSH1 0x0 KECCAK256 ADD SLOAD DUP5 PUSH2 0x3A5D JUMP JUMPDEST DUP1 PUSH1 0x0 MSTORE PUSH1 0xB DUP3 MSTORE PUSH1 0x3 PUSH1 0x40 PUSH1 0x0 KECCAK256 ADD PUSH2 0xE12 DUP2 SLOAD PUSH2 0x39AA JUMP JUMPDEST SWAP1 SSTORE DUP3 PUSH1 0x0 MSTORE PUSH1 0xE DUP3 MSTORE PUSH1 0x40 PUSH1 0x0 KECCAK256 SWAP1 DUP2 SLOAD PUSH1 0x1 PUSH1 0x40 SHL DUP2 LT ISZERO PUSH2 0x58E JUMPI PUSH1 0x0 DUP1 MLOAD PUSH1 0x20 PUSH2 0x3AA9 DUP4 CODECOPY DUP2 MLOAD SWAP2 MSTORE SWAP4 PUSH2 0xE54 DUP3 PUSH1 0x80 SWAP6 PUSH1 0x1 PUSH1 0x40 SWAP6 ADD DUP2 SSTORE PUSH2 0x359E JUMP JUMPDEST DUP2 SLOAD SWAP1 PUSH1 0x3 SHL SWAP1 DUP6 DUP3 SHL SWAP2 PUSH1 0x0 NOT SWAP1 SHL NOT AND OR SWAP1 SSTORE DUP2 MLOAD SWAP3 DUP7 PUSH32 0x41D60C8CAD3C4E044896E072FB848C8F5D2E3E91C87A22A93D930C35AA192403 PUSH1 0x0 DUP1 LOG3 DUP6 PUSH1 0x0 MSTORE PUSH1 0xC DUP2 MSTORE DUP2 PUSH1 0x0 KECCAK256 SLOAD DUP4 MSTORE DUP3 ADD MSTORE PUSH1 0xE PUSH1 0x40 DUP3 ADD MSTORE PUSH14 0x4556454E545F5055524348415345 PUSH1 0x90 SHL PUSH1 0x60 DUP3 ADD MSTORE LOG2 STOP JUMPDEST PUSH1 0x40 MLOAD PUSH3 0x461BCD PUSH1 0xE5 SHL DUP2 MSTORE PUSH1 0x4 DUP2 ADD DUP6 SWAP1 MSTORE PUSH1 0xA PUSH1 0x24 DUP3 ADD MSTORE PUSH10 0x115D995B9D08199D5B1B PUSH1 0xB2 SHL PUSH1 0x44 DUP3 ADD MSTORE PUSH1 0x64 SWAP1 REVERT JUMPDEST PUSH1 0x40 MLOAD PUSH3 0x461BCD PUSH1 0xE5 SHL DUP2 MSTORE PUSH1 0x4 DUP2 ADD DUP6 SWAP1 MSTORE PUSH1 0x10 PUSH1 0x24 DUP3 ADD MSTORE PUSH16 0x4576656E74206E6F7420616374697665 PUSH1 0x80 SHL PUSH1 0x44 DUP3 ADD MSTORE PUSH1 0x64 SWAP1 REVERT JUMPDEST CALLVALUE PUSH2 0x286 JUMPI PUSH2 0xF3D CALLDATASIZE PUSH2 0x34A5 JUMP JUMPDEST SWAP1 PUSH1 0x0 MSTORE PUSH1 0xE PUSH1 0x20 MSTORE PUSH1 0x40 PUSH1 0x0 KECCAK256 DUP1 SLOAD DUP3 LT ISZERO PUSH2 0x286 JUMPI PUSH1 0x20 SWAP2 PUSH2 0xF60 SWAP2 PUSH2 0x359E JUMP JUMPDEST SWAP1 SLOAD PUSH1 0x40 MLOAD SWAP2 PUSH1 0x3 SHL SHR DUP2 MSTORE RETURN JUMPDEST CALLVALUE PUSH2 0x286 JUMPI PUSH1 0x40 CALLDATASIZE PUSH1 0x3 NOT ADD SLT PUSH2 0x286 JUMPI PUSH2 0xF87 PUSH2 0x3318 JUMP JUMPDEST PUSH1 0x24 CALLDATALOAD SWAP1 DUP2 ISZERO ISZERO SWAP1 DUP2 DUP4 SUB PUSH2 0x286 JUMPI PUSH1 0x1 PUSH1 0x1 PUSH1 0xA0 SHL SUB AND SWAP2 DUP3 ISZERO PUSH2 0x1003 JUMPI PUSH2 0xFD5 SWAP1 CALLER PUSH1 0x0 MSTORE PUSH1 0x5 PUSH1 0x20 MSTORE PUSH1 0x40 PUSH1 0x0 KECCAK256 DUP5 PUSH1 0x0 MSTORE PUSH1 0x20 MSTORE PUSH1 0x40 PUSH1 0x0 KECCAK256 SWAP1 PUSH1 0xFF DUP1 NOT DUP4 SLOAD AND SWAP2 ISZERO ISZERO AND OR SWAP1 SSTORE JUMP JUMPDEST PUSH1 0x40 MLOAD SWAP1 DUP2 MSTORE PUSH32 0x17307EAB39AB6107E8899845AD3D59BD9653F200F220920489CA2B5937696C31 PUSH1 0x20 CALLER SWAP3 LOG3 STOP JUMPDEST PUSH1 0x40 MLOAD PUSH4 0xB611743 PUSH1 0xE3 SHL DUP2 MSTORE PUSH1 0x4 DUP2 ADD DUP5 SWAP1 MSTORE PUSH1 0x24 SWAP1 REVERT JUMPDEST CALLVALUE PUSH2 0x286 JUMPI PUSH2 0x102A CALLDATASIZE PUSH2 0x352C JUMP JUMPDEST SWAP7 SWAP6 SWAP4 PUSH2 0x1038 SWAP4 SWAP2 SWAP4 PUSH2 0x35B6 JUMP JUMPDEST PUSH2 0x1043 DUP8 DUP4 DUP8 PUSH2 0x3914 JUMP JUMPDEST DUP7 PUSH1 0x0 MSTORE PUSH1 0xA PUSH1 0x20 MSTORE PUSH1 0x1 PUSH1 0x40 PUSH1 0x0 KECCAK256 ADD SLOAD PUSH2 0x1362 JUMPI PUSH1 0x40 MLOAD PUSH2 0x1065 DUP2 PUSH2 0x31D3 JUMP JUMPDEST DUP6 DUP2 MSTORE DUP7 PUSH1 0x20 DUP3 ADD MSTORE DUP2 PUSH1 0x40 DUP3 ADD MSTORE DUP3 PUSH1 0x60 DUP3 ADD MSTORE DUP4 ISZERO ISZERO PUSH1 0x80 DUP3 ADD MSTORE DUP5 PUSH1 0xA0 DUP3 ADD MSTORE DUP9 ISZERO ISZERO PUSH1 0xC0 DUP3 ADD MSTORE DUP8 PUSH1 0x0 MSTORE PUSH1 0xA PUSH1 0x20 MSTORE PUSH1 0x40 PUSH1 0x0 KECCAK256 SWAP1 DUP1 MLOAD DUP1 MLOAD SWAP1 PUSH1 0x1 PUSH1 0x1 PUSH1 0x40 SHL SUB DUP3 GT PUSH2 0x58E JUMPI DUP2 SWAP1 PUSH2 0x10BE DUP6 SLOAD PUSH2 0x3344 JUMP JUMPDEST PUSH1 0x1F DUP2 GT PUSH2 0x1312 JUMPI JUMPDEST POP PUSH1 0x20 SWAP1 PUSH1 0x1F DUP4 GT PUSH1 0x1 EQ PUSH2 0x12AC JUMPI PUSH1 0x0 SWAP3 PUSH2 0x12A1 JUMPI JUMPDEST POP POP DUP2 PUSH1 0x1 SHL SWAP2 PUSH1 0x0 NOT SWAP1 PUSH1 0x3 SHL SHR NOT AND OR DUP3 SSTORE JUMPDEST PUSH1 0x20 DUP2 ADD MLOAD PUSH1 0x1 DUP4 ADD SSTORE PUSH1 0x40 DUP2 ADD MLOAD PUSH1 0x2 DUP4 ADD SSTORE PUSH1 0x60 DUP2 ADD MLOAD PUSH1 0x3 DUP4 ADD SSTORE PUSH2 0x1130 PUSH1 0x80 DUP3 ADD MLOAD ISZERO ISZERO PUSH1 0x4 DUP5 ADD SWAP1 PUSH1 0xFF DUP1 NOT DUP4 SLOAD AND SWAP2 ISZERO ISZERO AND OR SWAP1 SSTORE JUMP JUMPDEST PUSH1 0xA0 DUP2 ADD MLOAD DUP1 MLOAD SWAP1 PUSH1 0x1 PUSH1 0x1 PUSH1 0x40 SHL SUB DUP3 GT PUSH2 0x58E JUMPI PUSH2 0x1153 PUSH1 0x5 DUP6 ADD SLOAD PUSH2 0x3344 JUMP JUMPDEST PUSH1 0x1F DUP2 GT PUSH2 0x125A JUMPI JUMPDEST POP PUSH1 0x20 SWAP1 PUSH1 0x1F DUP4 GT PUSH1 0x1 EQ PUSH2 0x11E3 JUMPI PUSH1 0xC0 PUSH1 0x0 DUP1 MLOAD PUSH1 0x20 PUSH2 0x3AC9 DUP4 CODECOPY DUP2 MLOAD SWAP2 MSTORE SWAP13 SWAP14 SWAP9 SWAP7 SWAP5 DUP5 PUSH2 0x11C5 SWAP6 PUSH2 0x494 SWAP13 SWAP11 SWAP9 SWAP6 PUSH1 0x6 SWAP6 PUSH1 0x0 SWAP3 PUSH2 0x499 JUMPI POP POP DUP2 PUSH1 0x1 SHL SWAP2 PUSH1 0x0 NOT SWAP1 PUSH1 0x3 SHL SHR NOT AND OR PUSH1 0x5 DUP6 ADD SSTORE ADD MLOAD ISZERO ISZERO SWAP2 ADD SWAP1 PUSH1 0xFF DUP1 NOT DUP4 SLOAD AND SWAP2 ISZERO ISZERO AND OR SWAP1 SSTORE JUMP JUMPDEST PUSH1 0x9 SLOAD DUP11 GT PUSH2 0x11DA JUMPI PUSH1 0x40 MLOAD SWAP8 DUP9 SWAP8 DUP9 PUSH2 0x3459 JUMP JUMPDEST DUP10 PUSH1 0x9 SSTORE PUSH2 0x488 JUMP JUMPDEST SWAP1 PUSH1 0x5 DUP6 ADD PUSH1 0x0 MSTORE PUSH1 0x20 PUSH1 0x0 KECCAK256 SWAP2 PUSH1 0x0 JUMPDEST PUSH1 0x1F NOT DUP6 AND DUP2 LT PUSH2 0x1242 JUMPI POP PUSH1 0x0 DUP1 MLOAD PUSH1 0x20 PUSH2 0x3AC9 DUP4 CODECOPY DUP2 MLOAD SWAP2 MSTORE SWAP13 SWAP14 SWAP9 SWAP7 SWAP5 PUSH1 0x1 DUP6 PUSH2 0x494 SWAP13 SWAP11 SWAP9 SWAP6 PUSH1 0x6 SWAP6 PUSH1 0xC0 SWAP6 PUSH2 0x11C5 SWAP10 PUSH1 0x1F NOT DUP2 AND LT PUSH2 0x516 JUMPI POP POP POP DUP2 SHL ADD PUSH1 0x5 DUP6 ADD SSTORE PUSH2 0x471 JUMP JUMPDEST SWAP2 SWAP3 PUSH1 0x20 PUSH1 0x1 DUP2 SWAP3 DUP7 DUP6 ADD MLOAD DUP2 SSTORE ADD SWAP5 ADD SWAP3 ADD PUSH2 0x11F4 JUMP JUMPDEST PUSH1 0x5 DUP6 ADD PUSH1 0x0 MSTORE PUSH1 0x20 PUSH1 0x0 KECCAK256 PUSH1 0x1F DUP5 ADD PUSH1 0x5 SHR DUP2 ADD PUSH1 0x20 DUP6 LT PUSH2 0x129A JUMPI JUMPDEST PUSH1 0x1F DUP4 ADD PUSH1 0x5 SHR DUP3 ADD DUP2 LT PUSH2 0x128E JUMPI POP POP PUSH2 0x115C JUMP JUMPDEST PUSH1 0x0 DUP2 SSTORE PUSH1 0x1 ADD PUSH2 0x1278 JUMP JUMPDEST POP DUP1 PUSH2 0x1278 JUMP JUMPDEST ADD MLOAD SWAP1 POP DUP13 DUP1 PUSH2 0x10DE JUMP JUMPDEST PUSH1 0x0 DUP7 DUP2 MSTORE PUSH1 0x20 DUP2 KECCAK256 SWAP4 POP PUSH1 0x1F NOT DUP6 AND SWAP1 JUMPDEST DUP2 DUP2 LT PUSH2 0x12FA JUMPI POP SWAP1 DUP5 PUSH1 0x1 SWAP6 SWAP5 SWAP4 SWAP3 LT PUSH2 0x12E1 JUMPI JUMPDEST POP POP POP DUP2 SHL ADD DUP3 SSTORE PUSH2 0x10F3 JUMP JUMPDEST ADD MLOAD PUSH1 0x0 NOT PUSH1 0xF8 DUP5 PUSH1 0x3 SHL AND SHR NOT AND SWAP1 SSTORE DUP13 DUP1 DUP1 PUSH2 0x12D4 JUMP JUMPDEST SWAP3 SWAP4 PUSH1 0x20 PUSH1 0x1 DUP2 SWAP3 DUP8 DUP7 ADD MLOAD DUP2 SSTORE ADD SWAP6 ADD SWAP4 ADD PUSH2 0x12BE JUMP JUMPDEST SWAP1 SWAP2 POP DUP5 PUSH1 0x0 MSTORE PUSH1 0x20 PUSH1 0x0 KECCAK256 PUSH1 0x1F DUP5 ADD PUSH1 0x5 SHR DUP2 ADD PUSH1 0x20 DUP6 LT PUSH2 0x135B JUMPI JUMPDEST SWAP1 DUP5 SWAP4 SWAP3 SWAP2 JUMPDEST PUSH1 0x1F DUP4 ADD PUSH1 0x5 SHR DUP3 ADD DUP2 LT PUSH2 0x134C JUMPI POP POP PUSH2 0x10C7 JUMP JUMPDEST PUSH1 0x0 DUP2 SSTORE DUP6 SWAP5 POP PUSH1 0x1 ADD PUSH2 0x1336 JUMP JUMPDEST POP DUP1 PUSH2 0x1330 JUMP JUMPDEST PUSH1 0x40 MLOAD PUSH3 0x461BCD PUSH1 0xE5 SHL DUP2 MSTORE PUSH1 0x20 PUSH1 0x4 DUP3 ADD MSTORE PUSH1 0x17 PUSH1 0x24 DUP3 ADD MSTORE PUSH32 0x54656D706C61746520616C726561647920657869737473000000000000000000 PUSH1 0x44 DUP3 ADD MSTORE PUSH1 0x64 SWAP1 REVERT JUMPDEST CALLVALUE PUSH2 0x286 JUMPI PUSH1 0x0 CALLDATASIZE PUSH1 0x3 NOT ADD SLT PUSH2 0x286 JUMPI PUSH1 0x40 MLOAD PUSH1 0x0 PUSH1 0x1 DUP1 SLOAD SWAP1 PUSH2 0x13CB DUP3 PUSH2 0x3344 JUMP JUMPDEST DUP1 DUP6 MSTORE SWAP2 DUP2 DUP2 AND SWAP1 DUP2 ISZERO PUSH2 0x145F JUMPI POP PUSH1 0x1 EQ PUSH2 0x1406 JUMPI JUMPDEST PUSH2 0x6FD DUP5 PUSH2 0x13F2 DUP2 DUP7 SUB DUP3 PUSH2 0x323F JUMP JUMPDEST PUSH1 0x40 MLOAD SWAP2 DUP3 SWAP2 PUSH1 0x20 DUP4 MSTORE PUSH1 0x20 DUP4 ADD SWAP1 PUSH2 0x32F3 JUMP JUMPDEST PUSH1 0x0 DUP2 DUP2 MSTORE SWAP3 POP PUSH32 0xB10E2D527612073B26EECDFD717E6A320CF44B4AFAC2B0732D9FCBE2B7FA0CF6 JUMPDEST DUP3 DUP5 LT PUSH2 0x1447 JUMPI POP POP POP DUP2 ADD PUSH1 0x20 ADD PUSH2 0x13F2 DUP3 PUSH2 0x13E2 JUMP JUMPDEST DUP1 SLOAD PUSH1 0x20 DUP6 DUP8 ADD DUP2 ADD SWAP2 SWAP1 SWAP2 MSTORE SWAP1 SWAP4 ADD SWAP3 DUP2 ADD PUSH2 0x142F JUMP JUMPDEST PUSH1 0xFF NOT AND PUSH1 0x20 DUP1 DUP8 ADD SWAP2 SWAP1 SWAP2 MSTORE SWAP3 ISZERO ISZERO PUSH1 0x5 SHL DUP6 ADD SWAP1 SWAP3 ADD SWAP3 POP PUSH2 0x13F2 SWAP2 POP DUP4 SWAP1 POP PUSH2 0x13E2 JUMP JUMPDEST CALLVALUE PUSH2 0x286 JUMPI PUSH1 0x0 CALLDATASIZE PUSH1 0x3 NOT ADD SLT PUSH2 0x286 JUMPI PUSH1 0x7 SLOAD PUSH1 0x40 MLOAD PUSH1 0x8 SWAP2 SWAP1 SWAP2 SHR PUSH1 0x1 PUSH1 0x1 PUSH1 0xA0 SHL SUB AND DUP2 MSTORE PUSH1 0x20 SWAP1 RETURN JUMPDEST CALLVALUE PUSH2 0x286 JUMPI PUSH1 0x0 CALLDATASIZE PUSH1 0x3 NOT ADD SLT PUSH2 0x286 JUMPI PUSH2 0x14CC PUSH2 0x35B6 JUMP JUMPDEST PUSH1 0x1 PUSH1 0x0 MSTORE PUSH1 0xA PUSH1 0x20 MSTORE PUSH32 0xBBC70DB1B6C7AFD11E79C0FB0051300458F1A3ACB8EE9789D9B6B26C61AD9BC8 SLOAD PUSH2 0x1CB2 JUMPI PUSH1 0x40 MLOAD PUSH2 0x1508 DUP2 PUSH2 0x3209 JUMP JUMPDEST PUSH1 0x4 DUP2 MSTORE PUSH4 0x11DBDB19 PUSH1 0xE2 SHL PUSH1 0x20 DUP3 ADD MSTORE PUSH1 0x40 MLOAD PUSH2 0x1525 DUP2 PUSH2 0x3224 JUMP JUMPDEST PUSH1 0x0 DUP2 MSTORE PUSH2 0x1532 DUP3 PUSH2 0x38D0 JUMP JUMPDEST PUSH1 0x1 PUSH1 0x0 MSTORE PUSH1 0xA PUSH1 0x20 MSTORE PUSH32 0xBBC70DB1B6C7AFD11E79C0FB0051300458F1A3ACB8EE9789D9B6B26C61AD9BC8 SLOAD PUSH2 0x1362 JUMPI PUSH1 0x40 MLOAD PUSH2 0x156E DUP2 PUSH2 0x31D3 JUMP JUMPDEST DUP3 DUP2 MSTORE PUSH9 0x3635C9ADC5DEA00000 PUSH1 0x20 DUP3 ADD MSTORE PUSH9 0x3635C9ADC5DEA00000 PUSH1 0x40 DUP3 ADD MSTORE PUSH1 0x0 PUSH1 0x60 DUP3 ADD MSTORE PUSH1 0x0 PUSH1 0x80 DUP3 ADD MSTORE DUP2 PUSH1 0xA0 DUP3 ADD MSTORE PUSH1 0x1 PUSH1 0xC0 DUP3 ADD MSTORE PUSH1 0x1 PUSH1 0x0 MSTORE PUSH1 0xA PUSH1 0x20 MSTORE PUSH1 0x40 PUSH1 0x0 KECCAK256 SWAP1 DUP1 MLOAD DUP1 MLOAD SWAP1 PUSH1 0x1 PUSH1 0x1 PUSH1 0x40 SHL SUB DUP3 GT PUSH2 0x58E JUMPI DUP2 SWAP1 PUSH2 0x15D9 DUP6 SLOAD PUSH2 0x3344 JUMP JUMPDEST PUSH1 0x1F DUP2 GT PUSH2 0x1C62 JUMPI JUMPDEST POP PUSH1 0x20 SWAP1 PUSH1 0x1F DUP4 GT PUSH1 0x1 EQ PUSH2 0x1BF6 JUMPI PUSH1 0x0 SWAP3 PUSH2 0x1BEB JUMPI JUMPDEST POP POP DUP2 PUSH1 0x1 SHL SWAP2 PUSH1 0x0 NOT SWAP1 PUSH1 0x3 SHL SHR NOT AND OR DUP3 SSTORE JUMPDEST PUSH1 0x20 DUP2 ADD MLOAD PUSH1 0x1 DUP4 ADD SSTORE PUSH1 0x40 DUP2 ADD MLOAD PUSH1 0x2 DUP4 ADD SSTORE PUSH1 0x60 DUP2 ADD MLOAD PUSH1 0x3 DUP4 ADD SSTORE PUSH2 0x164B PUSH1 0x80 DUP3 ADD MLOAD ISZERO ISZERO PUSH1 0x4 DUP5 ADD SWAP1 PUSH1 0xFF DUP1 NOT DUP4 SLOAD AND SWAP2 ISZERO ISZERO AND OR SWAP1 SSTORE JUMP JUMPDEST PUSH1 0xA0 DUP2 ADD MLOAD DUP1 MLOAD SWAP1 PUSH1 0x1 PUSH1 0x1 PUSH1 0x40 SHL SUB DUP3 GT PUSH2 0x58E JUMPI PUSH2 0x166E PUSH1 0x5 DUP6 ADD SLOAD PUSH2 0x3344 JUMP JUMPDEST PUSH1 0x1F DUP2 GT PUSH2 0x1BA4 JUMPI JUMPDEST POP PUSH1 0x20 SWAP1 PUSH1 0x1F DUP4 GT PUSH1 0x1 EQ PUSH2 0x1B2D JUMPI PUSH2 0x16FF SWAP5 PUSH1 0x6 PUSH1 0xC0 PUSH1 0x1 SWAP10 SWAP7 DUP7 PUSH2 0x1739 SWAP8 PUSH1 0x0 DUP1 MLOAD PUSH1 0x20 PUSH2 0x3AC9 DUP4 CODECOPY DUP2 MLOAD SWAP2 MSTORE SWAP12 SWAP8 PUSH2 0x16E1 SWAP8 PUSH1 0x0 SWAP3 PUSH2 0x1B22 JUMPI JUMPDEST POP POP PUSH1 0x0 NOT PUSH1 0x3 DUP4 SWAP1 SHL SHR NOT AND SWAP1 DUP13 SHL OR PUSH1 0x5 DUP6 ADD SSTORE ADD MLOAD ISZERO ISZERO SWAP2 ADD SWAP1 PUSH1 0xFF DUP1 NOT DUP4 SLOAD AND SWAP2 ISZERO ISZERO AND OR SWAP1 SSTORE JUMP JUMPDEST PUSH1 0x9 SLOAD DUP7 GT PUSH2 0x1971 JUMPI JUMPDEST PUSH1 0x40 MLOAD SWAP4 DUP5 SWAP4 PUSH1 0xE0 DUP6 MSTORE PUSH1 0xE0 DUP6 ADD SWAP1 PUSH2 0x32F3 JUMP JUMPDEST SWAP1 PUSH9 0x3635C9ADC5DEA00000 PUSH1 0x20 DUP6 ADD MSTORE PUSH9 0x3635C9ADC5DEA00000 PUSH1 0x40 DUP6 ADD MSTORE PUSH1 0x0 PUSH1 0x60 DUP6 ADD MSTORE PUSH1 0x0 PUSH1 0x80 DUP6 ADD MSTORE DUP4 DUP3 SUB PUSH1 0xA0 DUP6 ADD MSTORE PUSH2 0x32F3 JUMP JUMPDEST DUP5 PUSH1 0xC0 DUP4 ADD MSTORE SUB SWAP1 LOG2 PUSH1 0x40 MLOAD PUSH2 0x174E DUP2 PUSH2 0x3209 JUMP JUMPDEST PUSH1 0x8 DUP2 MSTORE PUSH8 0x506C6174696E756D PUSH1 0xC0 SHL PUSH1 0x20 DUP3 ADD MSTORE PUSH1 0x40 MLOAD PUSH2 0x176F DUP2 PUSH2 0x3224 JUMP JUMPDEST PUSH1 0x0 DUP2 MSTORE PUSH2 0x177C DUP3 PUSH2 0x38D0 JUMP JUMPDEST PUSH1 0x2 PUSH1 0x0 MSTORE PUSH1 0xA PUSH1 0x20 MSTORE PUSH32 0xBFF4442B8ED600BEEB8E26B1279A0F0D14C6EDFAEC26D968EE13C86F7D4C2BA9 SLOAD PUSH2 0x1362 JUMPI PUSH1 0x40 MLOAD PUSH2 0x17B8 DUP2 PUSH2 0x31D3 JUMP JUMPDEST DUP3 DUP2 MSTORE PUSH9 0xA2A15D09519BE00000 PUSH1 0x20 DUP3 ADD MSTORE PUSH9 0xA2A15D09519BE00000 PUSH1 0x40 DUP3 ADD MSTORE PUSH1 0x0 PUSH1 0x60 DUP3 ADD MSTORE PUSH1 0x0 PUSH1 0x80 DUP3 ADD MSTORE DUP2 PUSH1 0xA0 DUP3 ADD MSTORE PUSH1 0x1 PUSH1 0xC0 DUP3 ADD MSTORE PUSH1 0x2 PUSH1 0x0 MSTORE PUSH1 0xA PUSH1 0x20 MSTORE PUSH1 0x40 PUSH1 0x0 KECCAK256 SWAP1 DUP1 MLOAD DUP1 MLOAD SWAP1 PUSH1 0x1 PUSH1 0x1 PUSH1 0x40 SHL SUB DUP3 GT PUSH2 0x58E JUMPI DUP2 SWAP1 PUSH2 0x1823 DUP6 SLOAD PUSH2 0x3344 JUMP JUMPDEST PUSH1 0x1F DUP2 GT PUSH2 0x1AD2 JUMPI JUMPDEST POP PUSH1 0x20 SWAP1 PUSH1 0x1F DUP4 GT PUSH1 0x1 EQ PUSH2 0x1A66 JUMPI PUSH1 0x0 SWAP3 PUSH2 0x1A5B JUMPI JUMPDEST POP POP DUP2 PUSH1 0x1 SHL SWAP2 PUSH1 0x0 NOT SWAP1 PUSH1 0x3 SHL SHR NOT AND OR DUP3 SSTORE JUMPDEST PUSH1 0x20 DUP2 ADD MLOAD PUSH1 0x1 DUP4 ADD SSTORE PUSH1 0x40 DUP2 ADD MLOAD PUSH1 0x2 DUP4 ADD SSTORE PUSH1 0x60 DUP2 ADD MLOAD PUSH1 0x3 DUP4 ADD SSTORE PUSH2 0x1895 PUSH1 0x80 DUP3 ADD MLOAD ISZERO ISZERO PUSH1 0x4 DUP5 ADD SWAP1 PUSH1 0xFF DUP1 NOT DUP4 SLOAD AND SWAP2 ISZERO ISZERO AND OR SWAP1 SSTORE JUMP JUMPDEST PUSH1 0xA0 DUP2 ADD MLOAD DUP1 MLOAD SWAP1 PUSH1 0x1 PUSH1 0x1 PUSH1 0x40 SHL SUB DUP3 GT PUSH2 0x58E JUMPI PUSH2 0x18B8 PUSH1 0x5 DUP6 ADD SLOAD PUSH2 0x3344 JUMP JUMPDEST PUSH1 0x1F DUP2 GT PUSH2 0x1A14 JUMPI JUMPDEST POP PUSH1 0x20 SWAP1 PUSH1 0x1F DUP4 GT PUSH1 0x1 EQ PUSH2 0x1985 JUMPI PUSH2 0x192B SWAP5 PUSH1 0x6 PUSH1 0xC0 PUSH1 0x2 SWAP10 SWAP7 DUP7 PUSH2 0x1965 SWAP8 PUSH1 0x0 DUP1 MLOAD PUSH1 0x20 PUSH2 0x3AC9 DUP4 CODECOPY DUP2 MLOAD SWAP2 MSTORE SWAP12 SWAP8 PUSH2 0x16E1 SWAP8 PUSH1 0x0 SWAP3 PUSH2 0x197A JUMPI POP POP DUP2 PUSH1 0x1 SHL SWAP2 PUSH1 0x0 NOT SWAP1 PUSH1 0x3 SHL SHR NOT AND OR PUSH1 0x5 DUP6 ADD SSTORE ADD MLOAD ISZERO ISZERO SWAP2 ADD SWAP1 PUSH1 0xFF DUP1 NOT DUP4 SLOAD AND SWAP2 ISZERO ISZERO AND OR SWAP1 SSTORE JUMP JUMPDEST SWAP1 PUSH9 0xA2A15D09519BE00000 PUSH1 0x20 DUP6 ADD MSTORE PUSH9 0xA2A15D09519BE00000 PUSH1 0x40 DUP6 ADD MSTORE PUSH1 0x0 PUSH1 0x60 DUP6 ADD MSTORE PUSH1 0x0 PUSH1 0x80 DUP6 ADD MSTORE DUP4 DUP3 SUB PUSH1 0xA0 DUP6 ADD MSTORE PUSH2 0x32F3 JUMP JUMPDEST PUSH1 0x1 PUSH1 0xC0 DUP4 ADD MSTORE SUB SWAP1 LOG2 STOP JUMPDEST DUP6 PUSH1 0x9 SSTORE PUSH2 0x16EB JUMP JUMPDEST ADD MLOAD SWAP1 POP DUP14 DUP1 PUSH2 0x459 JUMP JUMPDEST SWAP1 PUSH1 0x1F NOT DUP4 AND SWAP2 PUSH1 0x5 DUP7 ADD PUSH1 0x0 MSTORE PUSH1 0x20 PUSH1 0x0 KECCAK256 SWAP3 PUSH1 0x0 JUMPDEST DUP2 DUP2 LT PUSH2 0x19FC JUMPI POP PUSH1 0xC0 PUSH1 0x2 SWAP10 SWAP7 PUSH1 0x1 DUP8 PUSH1 0x0 DUP1 MLOAD PUSH1 0x20 PUSH2 0x3AC9 DUP4 CODECOPY DUP2 MLOAD SWAP2 MSTORE SWAP12 SWAP8 PUSH2 0x16E1 SWAP8 PUSH2 0x192B SWAP13 SWAP8 PUSH2 0x1965 SWAP12 PUSH1 0x6 SWAP9 LT PUSH2 0x19E3 JUMPI POP POP POP DUP2 SHL ADD PUSH1 0x5 DUP6 ADD SSTORE PUSH2 0x471 JUMP JUMPDEST ADD MLOAD PUSH1 0x0 NOT PUSH1 0xF8 DUP5 PUSH1 0x3 SHL AND SHR NOT AND SWAP1 SSTORE DUP14 DUP1 DUP1 PUSH2 0x506 JUMP JUMPDEST SWAP3 SWAP4 PUSH1 0x20 PUSH1 0x1 DUP2 SWAP3 DUP8 DUP7 ADD MLOAD DUP2 SSTORE ADD SWAP6 ADD SWAP4 ADD PUSH2 0x199C JUMP JUMPDEST PUSH1 0x5 DUP6 ADD PUSH1 0x0 MSTORE PUSH1 0x20 PUSH1 0x0 KECCAK256 PUSH1 0x1F DUP5 ADD PUSH1 0x5 SHR DUP2 ADD PUSH1 0x20 DUP6 LT PUSH2 0x1A54 JUMPI JUMPDEST PUSH1 0x1F DUP4 ADD PUSH1 0x5 SHR DUP3 ADD DUP2 LT PUSH2 0x1A48 JUMPI POP POP PUSH2 0x18C1 JUMP JUMPDEST PUSH1 0x0 DUP2 SSTORE PUSH1 0x1 ADD PUSH2 0x1A32 JUMP JUMPDEST POP DUP1 PUSH2 0x1A32 JUMP JUMPDEST ADD MLOAD SWAP1 POP DUP7 DUP1 PUSH2 0x1843 JUMP JUMPDEST SWAP3 POP DUP5 PUSH1 0x0 MSTORE PUSH1 0x20 PUSH1 0x0 KECCAK256 SWAP1 PUSH1 0x0 SWAP4 JUMPDEST PUSH1 0x1F NOT DUP5 AND DUP6 LT PUSH2 0x1AB7 JUMPI PUSH1 0x1 SWAP5 POP DUP4 PUSH1 0x1F NOT DUP2 AND LT PUSH2 0x1A9E JUMPI JUMPDEST POP POP POP DUP2 SHL ADD DUP3 SSTORE PUSH2 0x1858 JUMP JUMPDEST ADD MLOAD PUSH1 0x0 NOT PUSH1 0xF8 DUP5 PUSH1 0x3 SHL AND SHR NOT AND SWAP1 SSTORE DUP7 DUP1 DUP1 PUSH2 0x1A91 JUMP JUMPDEST DUP2 DUP2 ADD MLOAD DUP4 SSTORE PUSH1 0x20 SWAP5 DUP6 ADD SWAP5 PUSH1 0x1 SWAP1 SWAP4 ADD SWAP3 SWAP1 SWAP2 ADD SWAP1 PUSH2 0x1A76 JUMP JUMPDEST SWAP1 SWAP2 POP DUP5 PUSH1 0x0 MSTORE PUSH1 0x20 PUSH1 0x0 KECCAK256 PUSH1 0x1F DUP5 ADD PUSH1 0x5 SHR DUP2 ADD PUSH1 0x20 DUP6 LT PUSH2 0x1B1B JUMPI JUMPDEST SWAP1 DUP5 SWAP4 SWAP3 SWAP2 JUMPDEST PUSH1 0x1F DUP4 ADD PUSH1 0x5 SHR DUP3 ADD DUP2 LT PUSH2 0x1B0C JUMPI POP POP PUSH2 0x182C JUMP JUMPDEST PUSH1 0x0 DUP2 SSTORE DUP6 SWAP5 POP PUSH1 0x1 ADD PUSH2 0x1AF6 JUMP JUMPDEST POP DUP1 PUSH2 0x1AF0 JUMP JUMPDEST ADD MLOAD SWAP1 POP DUP14 DUP1 PUSH2 0x16B4 JUMP JUMPDEST SWAP1 PUSH1 0x5 DUP6 ADD PUSH1 0x0 MSTORE PUSH1 0x20 PUSH1 0x0 KECCAK256 SWAP2 PUSH1 0x0 JUMPDEST PUSH1 0x1F NOT DUP6 AND DUP2 LT PUSH2 0x1B8C JUMPI POP SWAP5 PUSH1 0x6 PUSH1 0xC0 PUSH1 0x1 SWAP10 SWAP7 DUP11 DUP8 PUSH1 0x0 DUP1 MLOAD PUSH1 0x20 PUSH2 0x3AC9 DUP4 CODECOPY DUP2 MLOAD SWAP2 MSTORE SWAP12 SWAP8 PUSH2 0x16E1 SWAP8 PUSH2 0x16FF SWAP13 PUSH2 0x1739 SWAP12 PUSH1 0x1F NOT DUP2 AND LT PUSH2 0x19E3 JUMPI POP POP POP DUP2 SHL ADD PUSH1 0x5 DUP6 ADD SSTORE PUSH2 0x471 JUMP JUMPDEST SWAP2 SWAP3 PUSH1 0x20 PUSH1 0x1 DUP2 SWAP3 DUP7 DUP6 ADD MLOAD DUP2 SSTORE ADD SWAP5 ADD SWAP3 ADD PUSH2 0x1B3E JUMP JUMPDEST PUSH1 0x5 DUP6 ADD PUSH1 0x0 MSTORE PUSH1 0x20 PUSH1 0x0 KECCAK256 PUSH1 0x1F DUP5 ADD PUSH1 0x5 SHR DUP2 ADD PUSH1 0x20 DUP6 LT PUSH2 0x1BE4 JUMPI JUMPDEST PUSH1 0x1F DUP4 ADD PUSH1 0x5 SHR DUP3 ADD DUP2 LT PUSH2 0x1BD8 JUMPI POP POP PUSH2 0x1677 JUMP JUMPDEST PUSH1 0x0 DUP2 SSTORE PUSH1 0x1 ADD PUSH2 0x1BC2 JUMP JUMPDEST POP DUP1 PUSH2 0x1BC2 JUMP JUMPDEST ADD MLOAD SWAP1 POP DUP7 DUP1 PUSH2 0x15F9 JUMP JUMPDEST SWAP3 POP DUP5 PUSH1 0x0 MSTORE PUSH1 0x20 PUSH1 0x0 KECCAK256 SWAP1 PUSH1 0x0 SWAP4 JUMPDEST PUSH1 0x1F NOT DUP5 AND DUP6 LT PUSH2 0x1C47 JUMPI PUSH1 0x1 SWAP5 POP DUP4 PUSH1 0x1F NOT DUP2 AND LT PUSH2 0x1C2E JUMPI JUMPDEST POP POP POP DUP2 SHL ADD DUP3 SSTORE PUSH2 0x160E JUMP JUMPDEST ADD MLOAD PUSH1 0x0 NOT PUSH1 0xF8 DUP5 PUSH1 0x3 SHL AND SHR NOT AND SWAP1 SSTORE DUP7 DUP1 DUP1 PUSH2 0x1C21 JUMP JUMPDEST DUP2 DUP2 ADD MLOAD DUP4 SSTORE PUSH1 0x20 SWAP5 DUP6 ADD SWAP5 PUSH1 0x1 SWAP1 SWAP4 ADD SWAP3 SWAP1 SWAP2 ADD SWAP1 PUSH2 0x1C06 JUMP JUMPDEST SWAP1 SWAP2 POP DUP5 PUSH1 0x0 MSTORE PUSH1 0x20 PUSH1 0x0 KECCAK256 PUSH1 0x1F DUP5 ADD PUSH1 0x5 SHR DUP2 ADD PUSH1 0x20 DUP6 LT PUSH2 0x1CAB JUMPI JUMPDEST SWAP1 DUP5 SWAP4 SWAP3 SWAP2 JUMPDEST PUSH1 0x1F DUP4 ADD PUSH1 0x5 SHR DUP3 ADD DUP2 LT PUSH2 0x1C9C JUMPI POP POP PUSH2 0x15E2 JUMP JUMPDEST PUSH1 0x0 DUP2 SSTORE DUP6 SWAP5 POP PUSH1 0x1 ADD PUSH2 0x1C86 JUMP JUMPDEST POP DUP1 PUSH2 0x1C80 JUMP JUMPDEST PUSH1 0x40 MLOAD PUSH3 0x461BCD PUSH1 0xE5 SHL DUP2 MSTORE PUSH1 0x20 PUSH1 0x4 DUP3 ADD MSTORE PUSH1 0x1D PUSH1 0x24 DUP3 ADD MSTORE PUSH32 0x54656D706C6174657320616C726561647920696E697469616C697A6564000000 PUSH1 0x44 DUP3 ADD MSTORE PUSH1 0x64 SWAP1 REVERT JUMPDEST CALLVALUE PUSH2 0x286 JUMPI PUSH1 0x0 CALLDATASIZE PUSH1 0x3 NOT ADD SLT PUSH2 0x286 JUMPI PUSH2 0x1D10 PUSH2 0x35B6 JUMP JUMPDEST PUSH2 0x1D18 PUSH2 0x39B9 JUMP JUMPDEST PUSH1 0x1 PUSH1 0xFF NOT PUSH1 0x7 SLOAD AND OR PUSH1 0x7 SSTORE PUSH32 0x62E78CEA01BEE320CD4E420270B5EA74000D11B0C9F74754EBDBFC544B05A258 PUSH1 0x20 PUSH1 0x40 MLOAD CALLER DUP2 MSTORE LOG1 STOP JUMPDEST CALLVALUE PUSH2 0x286 JUMPI PUSH1 0x20 CALLDATASIZE PUSH1 0x3 NOT ADD SLT PUSH2 0x286 JUMPI PUSH2 0x1D6A PUSH2 0x3318 JUMP JUMPDEST PUSH2 0x1D72 PUSH2 0x35B6 JUMP JUMPDEST PUSH1 0x1 PUSH1 0x1 PUSH1 0xA0 SHL SUB AND PUSH1 0x0 SWAP1 DUP2 MSTORE PUSH1 0xF PUSH1 0x20 MSTORE PUSH1 0x40 SWAP1 KECCAK256 DUP1 SLOAD PUSH1 0xFF NOT AND SWAP1 SSTORE STOP JUMPDEST CALLVALUE PUSH2 0x286 JUMPI PUSH2 0x1DB7 PUSH2 0x1DA4 CALLDATASIZE PUSH2 0x34A5 JUMP JUMPDEST SWAP1 PUSH1 0x0 MSTORE PUSH1 0xD PUSH1 0x20 MSTORE PUSH1 0x40 PUSH1 0x0 KECCAK256 PUSH2 0x34BB JUMP JUMPDEST POP PUSH1 0x40 MLOAD SWAP1 PUSH2 0x1DC5 DUP3 PUSH2 0x31EE JUMP JUMPDEST DUP1 SLOAD DUP3 MSTORE PUSH1 0x1 DUP2 ADD SLOAD PUSH1 0x1 PUSH1 0x1 PUSH1 0xA0 SHL SUB SWAP1 DUP2 AND PUSH1 0x20 DUP5 ADD SWAP1 DUP2 MSTORE PUSH1 0x2 DUP4 ADD SLOAD PUSH1 0x40 DUP6 ADD SWAP1 DUP2 MSTORE SWAP4 SWAP1 SWAP3 PUSH2 0x6FD SWAP3 PUSH2 0x1E12 PUSH1 0x4 PUSH2 0x1E04 PUSH1 0x3 DUP6 ADD PUSH2 0x337E JUMP JUMPDEST SWAP4 PUSH1 0x60 DUP7 ADD SWAP5 DUP6 MSTORE ADD PUSH2 0x337E JUMP JUMPDEST SWAP3 DUP4 PUSH1 0x80 DUP3 ADD MSTORE MLOAD SWAP5 MLOAD AND SWAP5 MLOAD SWAP1 MLOAD SWAP1 PUSH1 0x40 MLOAD SWAP6 DUP7 SWAP6 DUP7 PUSH2 0x34ED JUMP JUMPDEST CALLVALUE PUSH2 0x286 JUMPI PUSH1 0x0 CALLDATASIZE PUSH1 0x3 NOT ADD SLT PUSH2 0x286 JUMPI PUSH2 0x1E47 PUSH2 0x35B6 JUMP JUMPDEST PUSH1 0x7 DUP1 SLOAD PUSH2 0x100 PUSH1 0x1 PUSH1 0xA8 SHL SUB NOT DUP2 AND SWAP1 SWAP2 SSTORE PUSH1 0x0 SWAP1 PUSH1 0x8 SHR PUSH1 0x1 PUSH1 0x1 PUSH1 0xA0 SHL SUB AND PUSH32 0x8BE0079C531659141344CD1FD0A4F28419497F9722A3DAAFE3B4186F6B6457E0 DUP3 DUP1 LOG3 STOP JUMPDEST CALLVALUE PUSH2 0x286 JUMPI PUSH1 0x20 CALLDATASIZE PUSH1 0x3 NOT ADD SLT PUSH2 0x286 JUMPI PUSH1 0x1 PUSH1 0x1 PUSH1 0xA0 SHL SUB PUSH2 0x1EB0 PUSH2 0x3318 JUMP JUMPDEST AND DUP1 ISZERO PUSH2 0x1ECF JUMPI PUSH1 0x0 MSTORE PUSH1 0x3 PUSH1 0x20 MSTORE PUSH1 0x20 PUSH1 0x40 PUSH1 0x0 KECCAK256 SLOAD PUSH1 0x40 MLOAD SWAP1 DUP2 MSTORE RETURN JUMPDEST PUSH1 0x40 MLOAD PUSH4 0x22718AD9 PUSH1 0xE2 SHL DUP2 MSTORE PUSH1 0x0 PUSH1 0x4 DUP3 ADD MSTORE PUSH1 0x24 SWAP1 REVERT JUMPDEST CALLVALUE PUSH2 0x286 JUMPI PUSH1 0x20 CALLDATASIZE PUSH1 0x3 NOT ADD SLT PUSH2 0x286 JUMPI PUSH2 0x1F01 PUSH2 0x3318 JUMP JUMPDEST PUSH2 0x1F09 PUSH2 0x35B6 JUMP JUMPDEST PUSH1 0x1 PUSH1 0x1 PUSH1 0xA0 SHL SUB AND DUP1 ISZERO PUSH2 0x1F58 JUMPI DUP1 PUSH1 0x0 MSTORE PUSH1 0x10 PUSH1 0x20 MSTORE PUSH1 0x40 PUSH1 0x0 KECCAK256 PUSH1 0x1 PUSH1 0xFF NOT DUP3 SLOAD AND OR SWAP1 SSTORE PUSH32 0xD1BE2E90BD3D24839D9DD94AD871068E1F9688B02FA43F2A62C9975DFA9DE2D7 PUSH1 0x0 DUP1 LOG2 STOP JUMPDEST PUSH1 0x40 MLOAD PUSH3 0x461BCD PUSH1 0xE5 SHL DUP2 MSTORE PUSH1 0x20 PUSH1 0x4 DUP3 ADD MSTORE PUSH1 0x15 PUSH1 0x24 DUP3 ADD MSTORE PUSH21 0x496E76616C696420746F6B656E2061646472657373 PUSH1 0x58 SHL PUSH1 0x44 DUP3 ADD MSTORE PUSH1 0x64 SWAP1 REVERT JUMPDEST CALLVALUE PUSH2 0x286 JUMPI PUSH1 0x20 CALLDATASIZE PUSH1 0x3 NOT ADD SLT PUSH2 0x286 JUMPI PUSH1 0x1 PUSH1 0x1 PUSH1 0xA0 SHL SUB PUSH2 0x1FB6 PUSH2 0x3318 JUMP JUMPDEST AND PUSH1 0x0 MSTORE PUSH1 0x10 PUSH1 0x20 MSTORE PUSH1 0x20 PUSH1 0xFF PUSH1 0x40 PUSH1 0x0 KECCAK256 SLOAD AND PUSH1 0x40 MLOAD SWAP1 ISZERO ISZERO DUP2 MSTORE RETURN JUMPDEST CALLVALUE PUSH2 0x286 JUMPI PUSH1 0x20 CALLDATASIZE PUSH1 0x3 NOT ADD SLT PUSH2 0x286 JUMPI PUSH1 0x20 PUSH2 0x1FF2 PUSH1 0x4 CALLDATALOAD PUSH2 0x376B JUMP JUMPDEST PUSH1 0x40 MLOAD PUSH1 0x1 PUSH1 0x1 PUSH1 0xA0 SHL SUB SWAP1 SWAP2 AND DUP2 MSTORE RETURN JUMPDEST CALLVALUE PUSH2 0x286 JUMPI PUSH1 0x0 CALLDATASIZE PUSH1 0x3 NOT ADD SLT PUSH2 0x286 JUMPI PUSH1 0x20 PUSH1 0xFF PUSH1 0x7 SLOAD AND PUSH1 0x40 MLOAD SWAP1 ISZERO ISZERO DUP2 MSTORE RETURN JUMPDEST CALLVALUE PUSH2 0x286 JUMPI PUSH1 0x0 CALLDATASIZE PUSH1 0x3 NOT ADD SLT PUSH2 0x286 JUMPI PUSH1 0x20 PUSH1 0x9 SLOAD PUSH1 0x40 MLOAD SWAP1 DUP2 MSTORE RETURN JUMPDEST CALLVALUE PUSH2 0x286 JUMPI PUSH2 0x2053 CALLDATASIZE PUSH2 0x34A5 JUMP JUMPDEST SWAP1 PUSH1 0x0 MSTORE PUSH1 0xD PUSH1 0x20 MSTORE PUSH1 0x40 PUSH1 0x0 KECCAK256 SWAP1 DUP2 SLOAD DUP2 LT ISZERO PUSH2 0x286 JUMPI PUSH2 0x2074 SWAP2 PUSH2 0x34BB JUMP JUMPDEST POP DUP1 SLOAD PUSH2 0x6FD PUSH1 0x1 DUP1 PUSH1 0xA0 SHL SUB PUSH1 0x1 DUP5 ADD SLOAD AND SWAP3 PUSH1 0x2 DUP2 ADD SLOAD SWAP1 PUSH2 0x20A6 PUSH1 0x4 PUSH2 0x209F PUSH1 0x3 DUP5 ADD PUSH2 0x337E JUMP JUMPDEST SWAP3 ADD PUSH2 0x337E JUMP JUMPDEST SWAP2 PUSH1 0x40 MLOAD SWAP6 DUP7 SWAP6 DUP7 PUSH2 0x34ED JUMP JUMPDEST CALLVALUE PUSH2 0x286 JUMPI PUSH1 0x20 CALLDATASIZE PUSH1 0x3 NOT ADD SLT PUSH2 0x286 JUMPI PUSH1 0x4 CALLDATALOAD PUSH1 0x0 MSTORE PUSH1 0xC PUSH1 0x20 MSTORE PUSH1 0x20 PUSH1 0x40 PUSH1 0x0 KECCAK256 SLOAD PUSH1 0x40 MLOAD SWAP1 DUP2 MSTORE RETURN JUMPDEST CALLVALUE PUSH2 0x286 JUMPI PUSH2 0xD5A PUSH2 0x20F0 CALLDATASIZE PUSH2 0x3424 JUMP JUMPDEST SWAP1 PUSH1 0x40 MLOAD SWAP3 PUSH2 0x20FE DUP5 PUSH2 0x3224 JUMP JUMPDEST PUSH1 0x0 DUP5 MSTORE PUSH2 0xD55 DUP4 DUP4 DUP4 PUSH2 0x35E5 JUMP JUMPDEST CALLVALUE PUSH2 0x286 JUMPI PUSH1 0x0 CALLDATASIZE PUSH1 0x3 NOT ADD SLT PUSH2 0x286 JUMPI PUSH2 0x2126 PUSH2 0x35B6 JUMP JUMPDEST PUSH1 0x7 SLOAD PUSH1 0xFF DUP2 AND ISZERO PUSH2 0x2165 JUMPI PUSH1 0xFF NOT AND PUSH1 0x7 SSTORE PUSH32 0x5DB9EE0A495BF2E6FF9C91A7834C1BA4FDD244A5E8AA4E537BD38AEAE4B073AA PUSH1 0x20 PUSH1 0x40 MLOAD CALLER DUP2 MSTORE LOG1 STOP JUMPDEST PUSH1 0x40 MLOAD PUSH4 0x8DFC202B PUSH1 0xE0 SHL DUP2 MSTORE PUSH1 0x4 SWAP1 REVERT JUMPDEST CALLVALUE PUSH2 0x286 JUMPI PUSH1 0x20 CALLDATASIZE PUSH1 0x3 NOT ADD SLT PUSH2 0x286 JUMPI PUSH1 0x4 CALLDATALOAD PUSH1 0x0 MSTORE PUSH1 0xD PUSH1 0x20 MSTORE PUSH1 0x20 PUSH1 0x40 PUSH1 0x0 KECCAK256 SLOAD PUSH1 0x40 MLOAD SWAP1 DUP2 MSTORE RETURN JUMPDEST CALLVALUE PUSH2 0x286 JUMPI PUSH1 0x20 CALLDATASIZE PUSH1 0x3 NOT ADD SLT PUSH2 0x286 JUMPI PUSH2 0x21BC PUSH2 0x3318 JUMP JUMPDEST PUSH2 0x21C4 PUSH2 0x35B6 JUMP JUMPDEST PUSH1 0x1 PUSH1 0x1 PUSH1 0xA0 SHL SUB AND PUSH1 0x0 SWAP1 DUP2 MSTORE PUSH1 0xF PUSH1 0x20 MSTORE PUSH1 0x40 SWAP1 KECCAK256 DUP1 SLOAD PUSH1 0xFF NOT AND PUSH1 0x1 OR SWAP1 SSTORE STOP JUMPDEST CALLVALUE PUSH2 0x286 JUMPI PUSH1 0x60 CALLDATASIZE PUSH1 0x3 NOT ADD SLT PUSH2 0x286 JUMPI PUSH1 0x1 PUSH1 0x1 PUSH1 0xA0 SHL SUB PUSH1 0x44 CALLDATALOAD DUP2 DUP2 AND SWAP1 DUP2 SWAP1 SUB PUSH2 0x286 JUMPI PUSH2 0x2217 PUSH2 0x39B9 JUMP JUMPDEST PUSH1 0x4 CALLDATALOAD PUSH1 0x0 MSTORE PUSH1 0x2 PUSH1 0x20 MSTORE PUSH2 0x2234 DUP3 PUSH1 0x40 PUSH1 0x0 KECCAK256 SLOAD AND ISZERO ISZERO PUSH2 0x39D7 JUMP JUMPDEST DUP1 PUSH1 0x0 MSTORE PUSH1 0x10 PUSH1 0x20 MSTORE PUSH1 0xFF PUSH1 0x40 PUSH1 0x0 KECCAK256 SLOAD AND ISZERO PUSH2 0x26E0 JUMPI PUSH1 0x20 PUSH1 0x0 SWAP2 PUSH1 0x64 PUSH1 0x40 MLOAD DUP1 SWAP5 DUP2 SWAP4 PUSH4 0x23B872DD PUSH1 0xE0 SHL DUP4 MSTORE CALLER PUSH1 0x4 DUP5 ADD MSTORE ADDRESS PUSH1 0x24 DUP5 ADD MSTORE PUSH1 0x24 CALLDATALOAD PUSH1 0x44 DUP5 ADD MSTORE GAS CALL SWAP1 DUP2 ISZERO PUSH2 0x26D4 JUMPI PUSH1 0x0 SWAP2 PUSH2 0x2699 JUMPI JUMPDEST POP ISZERO PUSH2 0x2662 JUMPI PUSH1 0x4 CALLDATALOAD PUSH1 0x0 MSTORE PUSH1 0xC PUSH1 0x20 MSTORE PUSH1 0x40 PUSH1 0x0 KECCAK256 DUP1 SLOAD SWAP1 PUSH1 0x24 CALLDATALOAD DUP3 ADD DUP1 SWAP3 GT PUSH2 0x264C JUMPI SSTORE PUSH1 0x40 MLOAD PUSH2 0x22BA DUP2 PUSH2 0x3209 JUMP JUMPDEST PUSH1 0x5 DUP2 MSTORE PUSH5 0x544F50555 PUSH1 0xDC SHL PUSH1 0x20 DUP3 ADD MSTORE PUSH1 0x40 MLOAD SWAP2 PUSH2 0x22D9 DUP4 PUSH2 0x3224 JUMP JUMPDEST PUSH1 0x0 DUP4 MSTORE PUSH1 0x4 CALLDATALOAD PUSH1 0x0 MSTORE PUSH1 0xD PUSH1 0x20 MSTORE PUSH1 0x40 PUSH1 0x0 KECCAK256 SWAP3 PUSH1 0x40 MLOAD SWAP4 PUSH2 0x22FB DUP6 PUSH2 0x31EE JUMP JUMPDEST TIMESTAMP DUP6 MSTORE PUSH1 0x20 DUP6 ADD PUSH1 0x0 DUP2 MSTORE PUSH1 0x40 DUP7 ADD SWAP2 PUSH1 0x24 CALLDATALOAD DUP4 MSTORE PUSH1 0x60 DUP8 ADD SWAP4 DUP7 DUP6 MSTORE PUSH1 0x80 DUP9 ADD MSTORE DUP1 SLOAD PUSH1 0x1 PUSH1 0x40 SHL DUP2 LT ISZERO PUSH2 0x58E JUMPI PUSH2 0x233A SWAP2 PUSH1 0x1 DUP3 ADD DUP2 SSTORE PUSH2 0x34BB JUMP JUMPDEST SWAP5 SWAP1 SWAP5 PUSH2 0x2636 JUMPI DUP7 MLOAD DUP6 SSTORE PUSH1 0x1 DUP6 ADD SWAP2 MLOAD AND PUSH1 0x1 PUSH1 0x1 PUSH1 0x60 SHL SUB PUSH1 0xA0 SHL DUP3 SLOAD AND OR SWAP1 SSTORE MLOAD PUSH1 0x2 DUP4 ADD SSTORE MLOAD SWAP3 DUP4 MLOAD PUSH1 0x1 PUSH1 0x1 PUSH1 0x40 SHL SUB DUP2 GT PUSH2 0x58E JUMPI PUSH2 0x2382 PUSH1 0x3 DUP5 ADD SLOAD PUSH2 0x3344 JUMP JUMPDEST PUSH1 0x1F DUP2 GT PUSH2 0x25EF JUMPI JUMPDEST POP PUSH1 0x20 PUSH1 0x1F DUP3 GT PUSH1 0x1 EQ PUSH2 0x257C JUMPI DUP2 SWAP1 PUSH1 0x80 SWAP5 SWAP6 SWAP7 PUSH1 0x0 SWAP3 PUSH2 0x2571 JUMPI JUMPDEST POP POP DUP2 PUSH1 0x1 SHL SWAP2 PUSH1 0x0 NOT SWAP1 PUSH1 0x3 SHL SHR NOT AND OR PUSH1 0x3 DUP5 ADD SSTORE JUMPDEST ADD MLOAD DUP1 MLOAD SWAP1 PUSH1 0x1 PUSH1 0x1 PUSH1 0x40 SHL SUB DUP3 GT PUSH2 0x58E JUMPI PUSH2 0x23E0 PUSH1 0x4 DUP5 ADD SLOAD PUSH2 0x3344 JUMP JUMPDEST PUSH1 0x1F DUP2 GT PUSH2 0x2526 JUMPI JUMPDEST POP PUSH1 0x20 SWAP1 PUSH1 0x1F DUP4 GT PUSH1 0x1 EQ PUSH2 0x24B8 JUMPI PUSH1 0x4 SWAP3 SWAP2 PUSH1 0x0 SWAP2 DUP4 PUSH2 0x24AD JUMPI JUMPDEST POP POP DUP2 PUSH1 0x1 SHL SWAP2 PUSH1 0x0 NOT SWAP1 PUSH1 0x3 SHL SHR NOT AND OR SWAP2 ADD SSTORE JUMPDEST PUSH32 0x131C2944EA68313084C40D9074BFD26611DBD83E4C0BC84F646B864548708978 PUSH2 0x2451 PUSH1 0x40 MLOAD SWAP3 PUSH1 0x40 DUP5 MSTORE PUSH1 0x40 DUP5 ADD SWAP1 PUSH2 0x32F3 JUMP JUMPDEST SWAP2 PUSH1 0x24 CALLDATALOAD PUSH1 0x20 DUP3 ADD MSTORE DUP1 PUSH1 0x4 CALLDATALOAD SWAP4 SUB SWAP1 LOG2 PUSH1 0x4 CALLDATALOAD PUSH1 0x0 MSTORE PUSH1 0xC PUSH1 0x20 MSTORE PUSH1 0x40 PUSH1 0x0 KECCAK256 SLOAD PUSH1 0x40 MLOAD SWAP1 DUP2 MSTORE PUSH1 0x40 PUSH1 0x20 DUP3 ADD MSTORE PUSH1 0x5 PUSH1 0x40 DUP3 ADD MSTORE PUSH5 0x544F50555 PUSH1 0xDC SHL PUSH1 0x60 DUP3 ADD MSTORE PUSH1 0x0 DUP1 MLOAD PUSH1 0x20 PUSH2 0x3AA9 DUP4 CODECOPY DUP2 MLOAD SWAP2 MSTORE PUSH1 0x80 PUSH1 0x4 CALLDATALOAD SWAP3 LOG2 STOP JUMPDEST ADD MLOAD SWAP1 POP DUP6 DUP1 PUSH2 0x2405 JUMP JUMPDEST SWAP1 PUSH1 0x1F NOT DUP4 AND SWAP2 PUSH1 0x4 DUP6 ADD PUSH1 0x0 MSTORE PUSH1 0x20 PUSH1 0x0 KECCAK256 SWAP3 PUSH1 0x0 JUMPDEST DUP2 DUP2 LT PUSH2 0x250E JUMPI POP SWAP2 PUSH1 0x1 SWAP4 SWAP2 DUP6 PUSH1 0x4 SWAP7 SWAP5 LT PUSH2 0x24F5 JUMPI JUMPDEST POP POP POP DUP2 SHL ADD SWAP2 ADD SSTORE PUSH2 0x241B JUMP JUMPDEST ADD MLOAD PUSH1 0x0 NOT PUSH1 0xF8 DUP5 PUSH1 0x3 SHL AND SHR NOT AND SWAP1 SSTORE DUP6 DUP1 DUP1 PUSH2 0x24E7 JUMP JUMPDEST SWAP3 SWAP4 PUSH1 0x20 PUSH1 0x1 DUP2 SWAP3 DUP8 DUP7 ADD MLOAD DUP2 SSTORE ADD SWAP6 ADD SWAP4 ADD PUSH2 0x24CF JUMP JUMPDEST PUSH1 0x4 DUP5 ADD PUSH1 0x0 MSTORE PUSH1 0x20 PUSH1 0x0 KECCAK256 PUSH1 0x1F DUP5 ADD PUSH1 0x5 SHR DUP2 ADD SWAP2 PUSH1 0x20 DUP6 LT PUSH2 0x2567 JUMPI JUMPDEST PUSH1 0x1F ADD PUSH1 0x5 SHR ADD SWAP1 JUMPDEST DUP2 DUP2 LT PUSH2 0x255B JUMPI POP PUSH2 0x23E9 JUMP JUMPDEST PUSH1 0x0 DUP2 SSTORE PUSH1 0x1 ADD PUSH2 0x254E JUMP JUMPDEST SWAP1 SWAP2 POP DUP2 SWAP1 PUSH2 0x2545 JUMP JUMPDEST ADD MLOAD SWAP1 POP DUP7 DUP1 PUSH2 0x23A8 JUMP JUMPDEST PUSH1 0x3 DUP5 ADD PUSH1 0x0 MSTORE PUSH1 0x20 PUSH1 0x0 KECCAK256 SWAP6 PUSH1 0x0 JUMPDEST PUSH1 0x1F NOT DUP5 AND DUP2 LT PUSH2 0x25D7 JUMPI POP SWAP6 DUP3 SWAP2 PUSH1 0x80 SWAP6 SWAP7 SWAP8 PUSH1 0x1 SWAP5 PUSH1 0x1F NOT DUP2 AND LT PUSH2 0x25BE JUMPI JUMPDEST POP POP POP DUP2 SHL ADD PUSH1 0x3 DUP5 ADD SSTORE PUSH2 0x23C0 JUMP JUMPDEST ADD MLOAD PUSH1 0x0 NOT PUSH1 0xF8 DUP5 PUSH1 0x3 SHL AND SHR NOT AND SWAP1 SSTORE DUP7 DUP1 DUP1 PUSH2 0x25AE JUMP JUMPDEST DUP3 DUP3 ADD MLOAD DUP9 SSTORE PUSH1 0x1 SWAP1 SWAP8 ADD SWAP7 PUSH1 0x20 SWAP3 DUP4 ADD SWAP3 ADD PUSH2 0x258C JUMP JUMPDEST PUSH1 0x3 DUP5 ADD PUSH1 0x0 MSTORE PUSH1 0x20 PUSH1 0x0 KECCAK256 PUSH1 0x1F DUP4 ADD PUSH1 0x5 SHR DUP2 ADD PUSH1 0x20 DUP5 LT PUSH2 0x262F JUMPI JUMPDEST PUSH1 0x1F DUP4 ADD PUSH1 0x5 SHR DUP3 ADD DUP2 LT PUSH2 0x2623 JUMPI POP POP PUSH2 0x238B JUMP JUMPDEST PUSH1 0x0 DUP2 SSTORE PUSH1 0x1 ADD PUSH2 0x260D JUMP JUMPDEST POP DUP1 PUSH2 0x260D JUMP JUMPDEST PUSH4 0x4E487B71 PUSH1 0xE0 SHL PUSH1 0x0 MSTORE PUSH1 0x0 PUSH1 0x4 MSTORE PUSH1 0x24 PUSH1 0x0 REVERT JUMPDEST PUSH4 0x4E487B71 PUSH1 0xE0 SHL PUSH1 0x0 MSTORE PUSH1 0x11 PUSH1 0x4 MSTORE PUSH1 0x24 PUSH1 0x0 REVERT JUMPDEST PUSH1 0x40 MLOAD PUSH3 0x461BCD PUSH1 0xE5 SHL DUP2 MSTORE PUSH1 0x20 PUSH1 0x4 DUP3 ADD MSTORE PUSH1 0xF PUSH1 0x24 DUP3 ADD MSTORE PUSH15 0x151C985B9CD9995C8819985A5B1959 PUSH1 0x8A SHL PUSH1 0x44 DUP3 ADD MSTORE PUSH1 0x64 SWAP1 REVERT JUMPDEST SWAP1 POP PUSH1 0x20 DUP2 RETURNDATASIZE PUSH1 0x20 GT PUSH2 0x26CC JUMPI JUMPDEST DUP2 PUSH2 0x26B4 PUSH1 0x20 SWAP4 DUP4 PUSH2 0x323F JUMP JUMPDEST DUP2 ADD SUB SLT PUSH2 0x286 JUMPI MLOAD DUP1 ISZERO ISZERO DUP2 SUB PUSH2 0x286 JUMPI DUP3 PUSH2 0x2288 JUMP JUMPDEST RETURNDATASIZE SWAP2 POP PUSH2 0x26A7 JUMP JUMPDEST PUSH1 0x40 MLOAD RETURNDATASIZE PUSH1 0x0 DUP3 RETURNDATACOPY RETURNDATASIZE SWAP1 REVERT JUMPDEST PUSH1 0x40 MLOAD PUSH3 0x461BCD PUSH1 0xE5 SHL DUP2 MSTORE PUSH1 0x20 PUSH1 0x4 DUP3 ADD MSTORE PUSH1 0x13 PUSH1 0x24 DUP3 ADD MSTORE PUSH19 0x151BDAD95B881B9BDD081CDD5C1C1BDC9D1959 PUSH1 0x6A SHL PUSH1 0x44 DUP3 ADD MSTORE PUSH1 0x64 SWAP1 REVERT JUMPDEST CALLVALUE PUSH2 0x286 JUMPI PUSH1 0x20 CALLDATASIZE PUSH1 0x3 NOT ADD SLT PUSH2 0x286 JUMPI PUSH1 0x4 CALLDATALOAD PUSH1 0x0 MSTORE PUSH1 0xA PUSH1 0x20 MSTORE PUSH1 0x40 PUSH1 0x0 KECCAK256 PUSH1 0x40 MLOAD PUSH2 0x2748 DUP2 PUSH2 0x31D3 JUMP JUMPDEST PUSH2 0x2751 DUP3 PUSH2 0x337E JUMP JUMPDEST DUP2 MSTORE PUSH1 0x1 DUP3 ADD SLOAD SWAP1 PUSH1 0x20 DUP2 ADD SWAP2 DUP3 MSTORE PUSH1 0x2 DUP4 ADD SLOAD SWAP3 PUSH1 0x40 DUP3 ADD SWAP4 DUP5 MSTORE PUSH1 0x3 DUP2 ADD SLOAD SWAP1 PUSH1 0x60 DUP4 ADD SWAP2 DUP3 MSTORE PUSH1 0xFF PUSH1 0x4 DUP3 ADD SLOAD AND SWAP1 PUSH1 0x80 DUP5 ADD SWAP2 ISZERO ISZERO DUP3 MSTORE PUSH1 0xFF PUSH1 0x6 PUSH2 0x279C PUSH1 0x5 DUP5 ADD PUSH2 0x337E JUMP JUMPDEST SWAP3 PUSH1 0xA0 DUP8 ADD SWAP4 DUP5 MSTORE ADD SLOAD AND SWAP2 PUSH1 0xC0 DUP6 ADD SWAP3 ISZERO ISZERO DUP4 MSTORE DUP5 MLOAD MLOAD ISZERO PUSH2 0x27DB JUMPI PUSH2 0x6FD SWAP5 MLOAD SWAP6 MLOAD SWAP7 MLOAD SWAP4 MLOAD SWAP1 MLOAD ISZERO ISZERO SWAP2 MLOAD SWAP3 MLOAD ISZERO ISZERO SWAP4 PUSH1 0x40 MLOAD SWAP8 DUP9 SWAP8 DUP9 PUSH2 0x3459 JUMP JUMPDEST PUSH1 0x40 MLOAD PUSH3 0x461BCD PUSH1 0xE5 SHL DUP2 MSTORE PUSH1 0x20 PUSH1 0x4 DUP3 ADD MSTORE PUSH1 0x17 PUSH1 0x24 DUP3 ADD MSTORE PUSH32 0x54656D706C61746520646F6573206E6F74206578697374000000000000000000 PUSH1 0x44 DUP3 ADD MSTORE PUSH1 0x64 SWAP1 REVERT JUMPDEST CALLVALUE PUSH2 0x286 JUMPI PUSH1 0x60 CALLDATASIZE PUSH1 0x3 NOT ADD SLT PUSH2 0x286 JUMPI PUSH1 0x44 CALLDATALOAD PUSH1 0x1 PUSH1 0x1 PUSH1 0x40 SHL SUB DUP2 GT PUSH2 0x286 JUMPI PUSH2 0x2850 SWAP1 CALLDATASIZE SWAP1 PUSH1 0x4 ADD PUSH2 0x32B2 JUMP JUMPDEST PUSH2 0x2858 PUSH2 0x39B9 JUMP JUMPDEST PUSH1 0x4 CALLDATALOAD PUSH1 0x0 MSTORE PUSH1 0x2 PUSH1 0x20 MSTORE PUSH1 0x1 DUP1 PUSH1 0xA0 SHL SUB PUSH2 0x287C DUP2 PUSH1 0x40 PUSH1 0x0 KECCAK256 SLOAD AND ISZERO ISZERO PUSH2 0x39D7 JUMP JUMPDEST CALLER PUSH1 0x0 MSTORE PUSH1 0xF PUSH1 0x20 MSTORE PUSH1 0xFF PUSH1 0x40 PUSH1 0x0 KECCAK256 SLOAD AND ISZERO PUSH2 0x2C12 JUMPI PUSH2 0x28A1 PUSH1 0x24 CALLDATALOAD PUSH1 0x4 CALLDATALOAD PUSH2 0x3A5D JUMP JUMPDEST PUSH1 0x40 MLOAD SWAP1 PUSH2 0x28AE DUP3 PUSH2 0x3209 JUMP JUMPDEST PUSH1 0x7 DUP3 MSTORE PUSH7 0x14105653515395 PUSH1 0xCA SHL PUSH1 0x20 DUP4 ADD MSTORE PUSH1 0x4 CALLDATALOAD PUSH1 0x0 MSTORE PUSH1 0xD PUSH1 0x20 MSTORE PUSH1 0x40 PUSH1 0x0 KECCAK256 SWAP3 PUSH1 0x40 MLOAD SWAP4 PUSH2 0x28E0 DUP6 PUSH2 0x31EE JUMP JUMPDEST TIMESTAMP DUP6 MSTORE PUSH1 0x20 DUP6 ADD CALLER DUP2 MSTORE PUSH1 0x40 DUP7 ADD SWAP2 PUSH1 0x24 CALLDATALOAD DUP4 MSTORE PUSH1 0x60 DUP8 ADD SWAP4 DUP7 DUP6 MSTORE PUSH1 0x80 DUP9 ADD MSTORE DUP1 SLOAD PUSH1 0x1 PUSH1 0x40 SHL DUP2 LT ISZERO PUSH2 0x58E JUMPI PUSH2 0x291E SWAP2 PUSH1 0x1 DUP3 ADD DUP2 SSTORE PUSH2 0x34BB JUMP JUMPDEST SWAP5 SWAP1 SWAP5 PUSH2 0x2636 JUMPI DUP7 MLOAD DUP6 SSTORE PUSH1 0x1 DUP6 ADD SWAP2 MLOAD AND PUSH1 0x1 PUSH1 0x1 PUSH1 0x60 SHL SUB PUSH1 0xA0 SHL DUP3 SLOAD AND OR SWAP1 SSTORE MLOAD PUSH1 0x2 DUP4 ADD SSTORE MLOAD DUP1 MLOAD SWAP1 PUSH1 0x1 PUSH1 0x1 PUSH1 0x40 SHL SUB DUP3 GT PUSH2 0x58E JUMPI PUSH2 0x2966 PUSH1 0x3 DUP5 ADD SLOAD PUSH2 0x3344 JUMP JUMPDEST PUSH1 0x1F DUP2 GT PUSH2 0x2BCB JUMPI JUMPDEST POP PUSH1 0x20 SWAP1 PUSH1 0x1F DUP4 GT PUSH1 0x1 EQ PUSH2 0x2B56 JUMPI SWAP2 DUP1 PUSH1 0x80 SWAP5 SWAP3 PUSH1 0x4 SWAP5 PUSH1 0x0 SWAP3 PUSH2 0x2B4B JUMPI JUMPDEST POP POP DUP2 PUSH1 0x1 SHL SWAP2 PUSH1 0x0 NOT SWAP1 PUSH1 0x3 SHL SHR NOT AND OR PUSH1 0x3 DUP3 ADD SSTORE JUMPDEST ADD SWAP3 ADD MLOAD SWAP2 DUP3 MLOAD PUSH1 0x1 PUSH1 0x1 PUSH1 0x40 SHL SUB DUP2 GT PUSH2 0x58E JUMPI PUSH2 0x29C6 DUP3 SLOAD PUSH2 0x3344 JUMP JUMPDEST PUSH1 0x1F DUP2 GT PUSH2 0x2B03 JUMPI JUMPDEST POP PUSH1 0x20 PUSH1 0x1F DUP3 GT PUSH1 0x1 EQ PUSH2 0x2A9D JUMPI DUP2 SWAP3 SWAP4 SWAP5 PUSH1 0x0 SWAP3 PUSH2 0x2A92 JUMPI JUMPDEST POP POP DUP2 PUSH1 0x1 SHL SWAP2 PUSH1 0x0 NOT SWAP1 PUSH1 0x3 SHL SHR NOT AND OR SWAP1 SSTORE JUMPDEST PUSH32 0x131C2944EA68313084C40D9074BFD26611DBD83E4C0BC84F646B864548708978 PUSH2 0x2A34 PUSH1 0x40 MLOAD SWAP3 PUSH1 0x40 DUP5 MSTORE PUSH1 0x40 DUP5 ADD SWAP1 PUSH2 0x32F3 JUMP JUMPDEST SWAP2 PUSH1 0x24 CALLDATALOAD PUSH1 0x20 DUP3 ADD MSTORE DUP1 PUSH1 0x4 CALLDATALOAD SWAP4 SUB SWAP1 LOG2 PUSH1 0x4 CALLDATALOAD PUSH1 0x0 MSTORE PUSH1 0xC PUSH1 0x20 MSTORE PUSH1 0x40 PUSH1 0x0 KECCAK256 SLOAD PUSH1 0x40 MLOAD SWAP1 DUP2 MSTORE PUSH1 0x40 PUSH1 0x20 DUP3 ADD MSTORE PUSH1 0x7 PUSH1 0x40 DUP3 ADD MSTORE PUSH7 0x14105653515395 PUSH1 0xCA SHL PUSH1 0x60 DUP3 ADD MSTORE PUSH1 0x0 DUP1 MLOAD PUSH1 0x20 PUSH2 0x3AA9 DUP4 CODECOPY DUP2 MLOAD SWAP2 MSTORE PUSH1 0x80 PUSH1 0x4 CALLDATALOAD SWAP3 LOG2 STOP JUMPDEST ADD MLOAD SWAP1 POP DUP5 DUP1 PUSH2 0x29E9 JUMP JUMPDEST PUSH1 0x1F NOT DUP3 AND SWAP1 DUP4 PUSH1 0x0 MSTORE PUSH1 0x20 PUSH1 0x0 KECCAK256 SWAP2 PUSH1 0x0 JUMPDEST DUP2 DUP2 LT PUSH2 0x2AEB JUMPI POP SWAP6 DUP4 PUSH1 0x1 SWAP6 SWAP7 SWAP8 LT PUSH2 0x2AD2 JUMPI JUMPDEST POP POP POP DUP2 SHL ADD SWAP1 SSTORE PUSH2 0x29FE JUMP JUMPDEST ADD MLOAD PUSH1 0x0 NOT PUSH1 0xF8 DUP5 PUSH1 0x3 SHL AND SHR NOT AND SWAP1 SSTORE DUP5 DUP1 DUP1 PUSH2 0x2AC5 JUMP JUMPDEST SWAP2 SWAP3 PUSH1 0x20 PUSH1 0x1 DUP2 SWAP3 DUP7 DUP12 ADD MLOAD DUP2 SSTORE ADD SWAP5 ADD SWAP3 ADD PUSH2 0x2AB0 JUMP JUMPDEST DUP3 PUSH1 0x0 MSTORE PUSH1 0x20 PUSH1 0x0 KECCAK256 PUSH1 0x1F DUP4 ADD PUSH1 0x5 SHR DUP2 ADD SWAP2 PUSH1 0x20 DUP5 LT PUSH2 0x2B41 JUMPI JUMPDEST PUSH1 0x1F ADD PUSH1 0x5 SHR ADD SWAP1 JUMPDEST DUP2 DUP2 LT PUSH2 0x2B35 JUMPI POP PUSH2 0x29CF JUMP JUMPDEST PUSH1 0x0 DUP2 SSTORE PUSH1 0x1 ADD PUSH2 0x2B28 JUMP JUMPDEST SWAP1 SWAP2 POP DUP2 SWAP1 PUSH2 0x2B1F JUMP JUMPDEST ADD MLOAD SWAP1 POP DUP8 DUP1 PUSH2 0x298F JUMP JUMPDEST SWAP1 PUSH1 0x3 DUP5 ADD PUSH1 0x0 MSTORE PUSH1 0x20 PUSH1 0x0 KECCAK256 SWAP2 PUSH1 0x0 JUMPDEST PUSH1 0x1F NOT DUP6 AND DUP2 LT PUSH2 0x2BB3 JUMPI POP SWAP3 PUSH1 0x80 SWAP5 SWAP3 PUSH1 0x1 SWAP3 PUSH1 0x4 SWAP6 DUP4 PUSH1 0x1F NOT DUP2 AND LT PUSH2 0x2B9A JUMPI JUMPDEST POP POP POP DUP2 SHL ADD PUSH1 0x3 DUP3 ADD SSTORE PUSH2 0x29A7 JUMP JUMPDEST ADD MLOAD PUSH1 0x0 NOT PUSH1 0xF8 DUP5 PUSH1 0x3 SHL AND SHR NOT AND SWAP1 SSTORE DUP8 DUP1 DUP1 PUSH2 0x2B8A JUMP JUMPDEST SWAP2 SWAP3 PUSH1 0x20 PUSH1 0x1 DUP2 SWAP3 DUP7 DUP6 ADD MLOAD DUP2 SSTORE ADD SWAP5 ADD SWAP3 ADD PUSH2 0x2B67 JUMP JUMPDEST PUSH1 0x3 DUP5 ADD PUSH1 0x0 MSTORE PUSH1 0x20 PUSH1 0x0 KECCAK256 PUSH1 0x1F DUP5 ADD PUSH1 0x5 SHR DUP2 ADD PUSH1 0x20 DUP6 LT PUSH2 0x2C0B JUMPI JUMPDEST PUSH1 0x1F DUP4 ADD PUSH1 0x5 SHR DUP3 ADD DUP2 LT PUSH2 0x2BFF JUMPI POP POP PUSH2 0x296F JUMP JUMPDEST PUSH1 0x0 DUP2 SSTORE PUSH1 0x1 ADD PUSH2 0x2BE9 JUMP JUMPDEST POP DUP1 PUSH2 0x2BE9 JUMP JUMPDEST PUSH1 0x40 MLOAD PUSH3 0x461BCD PUSH1 0xE5 SHL DUP2 MSTORE PUSH1 0x20 PUSH1 0x4 DUP3 ADD MSTORE PUSH1 0x17 PUSH1 0x24 DUP3 ADD MSTORE PUSH32 0x4E6F7420617574686F72697A6564206D65726368616E74000000000000000000 PUSH1 0x44 DUP3 ADD MSTORE PUSH1 0x64 SWAP1 REVERT JUMPDEST CALLVALUE PUSH2 0x286 JUMPI PUSH2 0xD5A PUSH2 0x2C68 CALLDATASIZE PUSH2 0x3424 JUMP JUMPDEST SWAP2 PUSH2 0x35E5 JUMP JUMPDEST CALLVALUE PUSH2 0x286 JUMPI PUSH1 0x20 CALLDATASIZE PUSH1 0x3 NOT ADD SLT PUSH2 0x286 JUMPI PUSH1 0x4 CALLDATALOAD PUSH1 0x0 MSTORE PUSH1 0xB PUSH1 0x20 MSTORE PUSH2 0x2CCF PUSH1 0x40 PUSH1 0x0 KECCAK256 PUSH2 0x2C9B DUP2 PUSH2 0x337E JUMP JUMPDEST SWAP1 PUSH1 0x1 DUP2 ADD SLOAD SWAP1 PUSH1 0x2 DUP2 ADD SLOAD SWAP1 PUSH1 0x3 DUP2 ADD SLOAD PUSH1 0x5 PUSH1 0xFF PUSH1 0x4 DUP5 ADD SLOAD AND SWAP3 ADD SLOAD SWAP3 PUSH1 0x40 MLOAD SWAP7 DUP8 SWAP7 PUSH1 0xC0 DUP9 MSTORE PUSH1 0xC0 DUP9 ADD SWAP1 PUSH2 0x32F3 JUMP JUMPDEST SWAP5 PUSH1 0x20 DUP8 ADD MSTORE PUSH1 0x40 DUP7 ADD MSTORE PUSH1 0x60 DUP6 ADD MSTORE ISZERO ISZERO PUSH1 0x80 DUP5 ADD MSTORE PUSH1 0xA0 DUP4 ADD MSTORE SUB SWAP1 RETURN JUMPDEST CALLVALUE PUSH2 0x286 JUMPI PUSH1 0x40 CALLDATASIZE PUSH1 0x3 NOT ADD SLT PUSH2 0x286 JUMPI PUSH2 0x2D08 PUSH2 0x3318 JUMP JUMPDEST PUSH1 0x24 CALLDATALOAD PUSH2 0x2D14 DUP2 PUSH2 0x376B JUMP JUMPDEST CALLER ISZERO ISZERO DUP1 PUSH2 0x2DC3 JUMPI JUMPDEST DUP1 PUSH2 0x2D96 JUMPI JUMPDEST PUSH2 0x2D7E JUMPI PUSH1 0x1 PUSH1 0x1 PUSH1 0xA0 SHL SUB SWAP3 DUP4 AND SWAP3 DUP3 SWAP2 DUP5 SWAP2 AND PUSH32 0x8C5BE1E5EBEC7D5BD14F71427D1E84F3DD0314C0F7B2291E5B200AC8C7C3B925 PUSH1 0x0 DUP1 LOG4 PUSH1 0x0 SWAP1 DUP2 MSTORE PUSH1 0x4 PUSH1 0x20 MSTORE PUSH1 0x40 SWAP1 KECCAK256 DUP1 SLOAD PUSH1 0x1 PUSH1 0x1 PUSH1 0xA0 SHL SUB NOT AND SWAP1 SWAP2 OR SWAP1 SSTORE STOP JUMPDEST PUSH1 0x40 MLOAD PUSH4 0xA9FBF51F PUSH1 0xE0 SHL DUP2 MSTORE CALLER PUSH1 0x4 DUP3 ADD MSTORE PUSH1 0x24 SWAP1 REVERT JUMPDEST POP PUSH1 0x1 DUP1 PUSH1 0xA0 SHL SUB DUP2 AND PUSH1 0x0 MSTORE PUSH1 0x5 PUSH1 0x20 MSTORE PUSH1 0x40 PUSH1 0x0 KECCAK256 CALLER PUSH1 0x0 MSTORE PUSH1 0x20 MSTORE PUSH1 0xFF PUSH1 0x40 PUSH1 0x0 KECCAK256 SLOAD AND ISZERO PUSH2 0x2D23 JUMP JUMPDEST POP PUSH1 0x1 PUSH1 0x1 PUSH1 0xA0 SHL SUB DUP2 AND CALLER EQ ISZERO PUSH2 0x2D1D JUMP JUMPDEST CALLVALUE PUSH2 0x286 JUMPI PUSH1 0x20 CALLDATASIZE PUSH1 0x3 NOT ADD SLT PUSH2 0x286 JUMPI PUSH1 0x4 CALLDATALOAD PUSH2 0x2DF3 DUP2 PUSH2 0x376B JUMP JUMPDEST POP PUSH1 0x0 MSTORE PUSH1 0x4 PUSH1 0x20 MSTORE PUSH1 0x20 PUSH1 0x1 DUP1 PUSH1 0xA0 SHL SUB PUSH1 0x40 PUSH1 0x0 KECCAK256 SLOAD AND PUSH1 0x40 MLOAD SWAP1 DUP2 MSTORE RETURN JUMPDEST CALLVALUE PUSH2 0x286 JUMPI PUSH1 0x0 CALLDATASIZE PUSH1 0x3 NOT ADD SLT PUSH2 0x286 JUMPI PUSH1 0x40 MLOAD PUSH1 0x0 DUP1 SLOAD PUSH2 0x2E35 DUP2 PUSH2 0x3344 JUMP JUMPDEST DUP1 DUP5 MSTORE SWAP1 PUSH1 0x1 SWAP1 DUP2 DUP2 AND SWAP1 DUP2 ISZERO PUSH2 0x145F JUMPI POP PUSH1 0x1 EQ PUSH2 0x2E5E JUMPI PUSH2 0x6FD DUP5 PUSH2 0x13F2 DUP2 DUP7 SUB DUP3 PUSH2 0x323F JUMP JUMPDEST PUSH1 0x0 DUP1 DUP1 MSTORE SWAP3 POP PUSH32 0x290DECD9548B62A8D60345A988386FC84BA6BC95484008F6362F93160EF3E563 JUMPDEST DUP3 DUP5 LT PUSH2 0x2E9F JUMPI POP POP POP DUP2 ADD PUSH1 0x20 ADD PUSH2 0x13F2 DUP3 PUSH2 0x13E2 JUMP JUMPDEST DUP1 SLOAD PUSH1 0x20 DUP6 DUP8 ADD DUP2 ADD SWAP2 SWAP1 SWAP2 MSTORE SWAP1 SWAP4 ADD SWAP3 DUP2 ADD PUSH2 0x2E87 JUMP JUMPDEST CALLVALUE PUSH2 0x286 JUMPI PUSH1 0x80 CALLDATASIZE PUSH1 0x3 NOT ADD SLT PUSH2 0x286 JUMPI PUSH1 0x1 PUSH1 0x1 PUSH1 0x40 SHL SUB PUSH1 0x4 CALLDATALOAD DUP2 DUP2 GT PUSH2 0x286 JUMPI PUSH2 0x2EE8 SWAP1 CALLDATASIZE SWAP1 PUSH1 0x4 ADD PUSH2 0x32B2 JUMP JUMPDEST SWAP1 PUSH2 0x2EF1 PUSH2 0x35B6 JUMP JUMPDEST PUSH2 0x2EF9 PUSH2 0x39B9 JUMP JUMPDEST PUSH1 0x40 MLOAD PUSH1 0x20 DUP2 ADD SWAP1 PUSH2 0x2F2D PUSH1 0x40 DUP3 DUP7 MLOAD PUSH2 0x2F17 DUP2 DUP8 PUSH1 0x20 DUP12 ADD PUSH2 0x32D0 JUMP JUMPDEST DUP2 ADD TIMESTAMP PUSH1 0x20 DUP3 ADD MSTORE SUB PUSH1 0x20 DUP2 ADD DUP5 MSTORE ADD DUP3 PUSH2 0x323F JUMP JUMPDEST MLOAD SWAP1 KECCAK256 SWAP1 PUSH1 0x40 MLOAD PUSH1 0xC0 DUP2 ADD DUP2 DUP2 LT DUP4 DUP3 GT OR PUSH2 0x58E JUMPI PUSH1 0x40 MSTORE DUP4 DUP2 MSTORE PUSH1 0x24 CALLDATALOAD PUSH1 0x20 DUP3 ADD MSTORE PUSH1 0x44 CALLDATALOAD PUSH1 0x40 DUP3 ADD MSTORE PUSH1 0x0 PUSH1 0x60 DUP3 ADD MSTORE PUSH1 0x1 PUSH1 0x80 DUP3 ADD MSTORE PUSH1 0x64 CALLDATALOAD PUSH1 0xA0 DUP3 ADD MSTORE DUP3 PUSH1 0x0 MSTORE PUSH1 0xB PUSH1 0x20 MSTORE PUSH1 0x40 PUSH1 0x0 KECCAK256 SWAP2 DUP2 MLOAD DUP1 MLOAD SWAP2 DUP3 GT PUSH2 0x58E JUMPI PUSH2 0x2F93 DUP5 SLOAD PUSH2 0x3344 JUMP JUMPDEST PUSH1 0x1F DUP2 GT PUSH2 0x3106 JUMPI JUMPDEST POP SWAP2 DUP5 SWAP4 SWAP2 PUSH1 0x20 SWAP7 SWAP4 DUP8 SWAP1 PUSH1 0x1F DUP4 GT PUSH1 0x1 EQ PUSH2 0x3070 JUMPI PUSH32 0xEE37BB5143A14810F72E86FCE895BE08E16090409D2E18F79B308995E39B73D4 SWAP6 SWAP4 DUP4 PUSH2 0x3053 SWAP7 SWAP5 PUSH1 0x5 SWAP5 PUSH1 0xA0 SWAP5 PUSH1 0x0 SWAP3 PUSH2 0x3065 JUMPI JUMPDEST POP POP DUP2 PUSH1 0x1 SHL SWAP2 PUSH1 0x0 NOT SWAP1 PUSH1 0x3 SHL SHR NOT AND OR DUP5 SSTORE JUMPDEST DUP10 DUP2 ADD MLOAD PUSH1 0x1 DUP6 ADD SSTORE PUSH1 0x40 DUP2 ADD MLOAD PUSH1 0x2 DUP6 ADD SSTORE PUSH1 0x60 DUP2 ADD MLOAD PUSH1 0x3 DUP6 ADD SSTORE PUSH2 0x303A PUSH1 0x80 DUP3 ADD MLOAD ISZERO ISZERO PUSH1 0x4 DUP7 ADD SWAP1 PUSH1 0xFF DUP1 NOT DUP4 SLOAD AND SWAP2 ISZERO ISZERO AND OR SWAP1 SSTORE JUMP JUMPDEST ADD MLOAD SWAP2 ADD SSTORE PUSH1 0x40 MLOAD SWAP2 DUP3 SWAP2 PUSH1 0x40 DUP4 MSTORE PUSH1 0x40 DUP4 ADD SWAP1 PUSH2 0x32F3 JUMP JUMPDEST PUSH1 0x44 CALLDATALOAD DUP8 DUP4 ADD MSTORE SUB SWAP1 LOG2 PUSH1 0x40 MLOAD SWAP1 DUP2 MSTORE RETURN JUMPDEST ADD MLOAD SWAP1 POP DUP13 DUP1 PUSH2 0x2FE9 JUMP JUMPDEST SWAP1 DUP5 PUSH1 0x0 MSTORE DUP9 PUSH1 0x0 KECCAK256 SWAP2 PUSH1 0x0 JUMPDEST PUSH1 0x1F NOT DUP6 AND DUP2 LT PUSH2 0x30EC JUMPI POP SWAP4 PUSH1 0x1 DUP5 PUSH1 0x5 SWAP5 PUSH1 0xA0 SWAP5 PUSH32 0xEE37BB5143A14810F72E86FCE895BE08E16090409D2E18F79B308995E39B73D4 SWAP11 SWAP9 PUSH2 0x3053 SWAP11 SWAP9 PUSH1 0x1F NOT DUP2 AND LT PUSH2 0x30D3 JUMPI JUMPDEST POP POP POP DUP2 SHL ADD DUP5 SSTORE PUSH2 0x2FFE JUMP JUMPDEST ADD MLOAD PUSH1 0x0 NOT PUSH1 0xF8 DUP5 PUSH1 0x3 SHL AND SHR NOT AND SWAP1 SSTORE DUP13 DUP1 DUP1 PUSH2 0x30C6 JUMP JUMPDEST DUP2 DUP4 ADD MLOAD DUP5 SSTORE DUP10 SWAP9 POP PUSH1 0x1 SWAP1 SWAP4 ADD SWAP3 SWAP2 DUP11 ADD SWAP2 DUP11 ADD PUSH2 0x307D JUMP JUMPDEST DUP5 PUSH1 0x0 MSTORE PUSH1 0x20 PUSH1 0x0 KECCAK256 PUSH1 0x1F DUP5 ADD PUSH1 0x5 SHR DUP2 ADD SWAP2 PUSH1 0x20 DUP6 LT PUSH2 0x3144 JUMPI JUMPDEST PUSH1 0x1F ADD PUSH1 0x5 SHR ADD SWAP1 JUMPDEST DUP2 DUP2 LT PUSH2 0x3138 JUMPI POP PUSH2 0x2F9C JUMP JUMPDEST PUSH1 0x0 DUP2 SSTORE PUSH1 0x1 ADD PUSH2 0x312B JUMP JUMPDEST SWAP1 SWAP2 POP DUP2 SWAP1 PUSH2 0x3122 JUMP JUMPDEST CALLVALUE PUSH2 0x286 JUMPI PUSH1 0x20 CALLDATASIZE PUSH1 0x3 NOT ADD SLT PUSH2 0x286 JUMPI PUSH1 0x4 CALLDATALOAD SWAP1 PUSH4 0xFFFFFFFF PUSH1 0xE0 SHL DUP3 AND DUP1 SWAP3 SUB PUSH2 0x286 JUMPI PUSH1 0x20 SWAP2 PUSH4 0x24832483 PUSH1 0xE1 SHL DUP2 EQ SWAP1 DUP2 ISZERO PUSH2 0x3190 JUMPI JUMPDEST POP ISZERO ISZERO DUP2 MSTORE RETURN JUMPDEST PUSH4 0x80AC58CD PUSH1 0xE0 SHL DUP2 EQ SWAP2 POP DUP2 ISZERO PUSH2 0x31C2 JUMPI JUMPDEST DUP2 ISZERO PUSH2 0x31B1 JUMPI JUMPDEST POP DUP4 PUSH2 0x3189 JUMP JUMPDEST PUSH4 0x1FFC9A7 PUSH1 0xE0 SHL EQ SWAP1 POP DUP4 PUSH2 0x31AA JUMP JUMPDEST PUSH4 0x5B5E139F PUSH1 0xE0 SHL DUP2 EQ SWAP2 POP PUSH2 0x31A3 JUMP JUMPDEST PUSH1 0xE0 DUP2 ADD SWAP1 DUP2 LT PUSH1 0x1 PUSH1 0x1 PUSH1 0x40 SHL SUB DUP3 GT OR PUSH2 0x58E JUMPI PUSH1 0x40 MSTORE JUMP JUMPDEST PUSH1 0xA0 DUP2 ADD SWAP1 DUP2 LT PUSH1 0x1 PUSH1 0x1 PUSH1 0x40 SHL SUB DUP3 GT OR PUSH2 0x58E JUMPI PUSH1 0x40 MSTORE JUMP JUMPDEST PUSH1 0x40 DUP2 ADD SWAP1 DUP2 LT PUSH1 0x1 PUSH1 0x1 PUSH1 0x40 SHL SUB DUP3 GT OR PUSH2 0x58E JUMPI PUSH1 0x40 MSTORE JUMP JUMPDEST PUSH1 0x20 DUP2 ADD SWAP1 DUP2 LT PUSH1 0x1 PUSH1 0x1 PUSH1 0x40 SHL SUB DUP3 GT OR PUSH2 0x58E JUMPI PUSH1 0x40 MSTORE JUMP JUMPDEST SWAP1 PUSH1 0x1F DUP1 NOT SWAP2 ADD AND DUP2 ADD SWAP1 DUP2 LT PUSH1 0x1 PUSH1 0x1 PUSH1 0x40 SHL SUB DUP3 GT OR PUSH2 0x58E JUMPI PUSH1 0x40 MSTORE JUMP JUMPDEST PUSH1 0x1 PUSH1 0x1 PUSH1 0x40 SHL SUB DUP2 GT PUSH2 0x58E JUMPI PUSH1 0x1F ADD PUSH1 0x1F NOT AND PUSH1 0x20 ADD SWAP1 JUMP JUMPDEST SWAP3 SWAP2 SWAP3 PUSH2 0x3287 DUP3 PUSH2 0x3260 JUMP JUMPDEST SWAP2 PUSH2 0x3295 PUSH1 0x40 MLOAD SWAP4 DUP5 PUSH2 0x323F JUMP JUMPDEST DUP3 SWAP5 DUP2 DUP5 MSTORE DUP2 DUP4 ADD GT PUSH2 0x286 JUMPI DUP3 DUP2 PUSH1 0x20 SWAP4 DUP5 PUSH1 0x0 SWAP7 ADD CALLDATACOPY ADD ADD MSTORE JUMP JUMPDEST SWAP1 DUP1 PUSH1 0x1F DUP4 ADD SLT ISZERO PUSH2 0x286 JUMPI DUP2 PUSH1 0x20 PUSH2 0x32CD SWAP4 CALLDATALOAD SWAP2 ADD PUSH2 0x327B JUMP JUMPDEST SWAP1 JUMP JUMPDEST PUSH1 0x0 JUMPDEST DUP4 DUP2 LT PUSH2 0x32E3 JUMPI POP POP PUSH1 0x0 SWAP2 ADD MSTORE JUMP JUMPDEST DUP2 DUP2 ADD MLOAD DUP4 DUP3 ADD MSTORE PUSH1 0x20 ADD PUSH2 0x32D3 JUMP JUMPDEST SWAP1 PUSH1 0x20 SWAP2 PUSH2 0x330C DUP2 MLOAD DUP1 SWAP3 DUP2 DUP6 MSTORE DUP6 DUP1 DUP7 ADD SWAP2 ADD PUSH2 0x32D0 JUMP JUMPDEST PUSH1 0x1F ADD PUSH1 0x1F NOT AND ADD ADD SWAP1 JUMP JUMPDEST PUSH1 0x4 CALLDATALOAD SWAP1 PUSH1 0x1 PUSH1 0x1 PUSH1 0xA0 SHL SUB DUP3 AND DUP3 SUB PUSH2 0x286 JUMPI JUMP JUMPDEST PUSH1 0x24 CALLDATALOAD SWAP1 PUSH1 0x1 PUSH1 0x1 PUSH1 0xA0 SHL SUB DUP3 AND DUP3 SUB PUSH2 0x286 JUMPI JUMP JUMPDEST SWAP1 PUSH1 0x1 DUP3 DUP2 SHR SWAP3 AND DUP1 ISZERO PUSH2 0x3374 JUMPI JUMPDEST PUSH1 0x20 DUP4 LT EQ PUSH2 0x335E JUMPI JUMP JUMPDEST PUSH4 0x4E487B71 PUSH1 0xE0 SHL PUSH1 0x0 MSTORE PUSH1 0x22 PUSH1 0x4 MSTORE PUSH1 0x24 PUSH1 0x0 REVERT JUMPDEST SWAP2 PUSH1 0x7F AND SWAP2 PUSH2 0x3353 JUMP JUMPDEST SWAP1 PUSH1 0x40 MLOAD SWAP2 DUP3 PUSH1 0x0 DUP3 SLOAD SWAP3 PUSH2 0x3392 DUP5 PUSH2 0x3344 JUMP JUMPDEST SWAP1 DUP2 DUP5 MSTORE PUSH1 0x1 SWAP5 DUP6 DUP2 AND SWAP1 DUP2 PUSH1 0x0 EQ PUSH2 0x3401 JUMPI POP PUSH1 0x1 EQ PUSH2 0x33BE JUMPI JUMPDEST POP POP PUSH2 0x33BC SWAP3 POP SUB DUP4 PUSH2 0x323F JUMP JUMPDEST JUMP JUMPDEST SWAP1 SWAP4 SWAP2 POP PUSH1 0x0 MSTORE PUSH1 0x20 SWAP1 DUP2 PUSH1 0x0 KECCAK256 SWAP4 PUSH1 0x0 SWAP2 JUMPDEST DUP2 DUP4 LT PUSH2 0x33E9 JUMPI POP POP PUSH2 0x33BC SWAP4 POP DUP3 ADD ADD CODESIZE DUP1 PUSH2 0x33AE JUMP JUMPDEST DUP6 SLOAD DUP9 DUP5 ADD DUP6 ADD MSTORE SWAP5 DUP6 ADD SWAP5 DUP8 SWAP5 POP SWAP2 DUP4 ADD SWAP2 PUSH2 0x33D1 JUMP JUMPDEST SWAP2 POP POP PUSH2 0x33BC SWAP5 POP PUSH1 0x20 SWAP3 POP PUSH1 0xFF NOT AND DUP3 DUP5 ADD MSTORE ISZERO ISZERO PUSH1 0x5 SHL DUP3 ADD ADD CODESIZE DUP1 PUSH2 0x33AE JUMP JUMPDEST PUSH1 0x60 SWAP1 PUSH1 0x3 NOT ADD SLT PUSH2 0x286 JUMPI PUSH1 0x1 PUSH1 0x1 PUSH1 0xA0 SHL SUB SWAP1 PUSH1 0x4 CALLDATALOAD DUP3 DUP2 AND DUP2 SUB PUSH2 0x286 JUMPI SWAP2 PUSH1 0x24 CALLDATALOAD SWAP1 DUP2 AND DUP2 SUB PUSH2 0x286 JUMPI SWAP1 PUSH1 0x44 CALLDATALOAD SWAP1 JUMP JUMPDEST SWAP6 SWAP2 SWAP3 SWAP4 PUSH2 0x349D SWAP5 PUSH2 0x3479 PUSH1 0xC0 SWAP8 SWAP4 SWAP11 SWAP10 SWAP11 PUSH1 0xE0 DUP11 MSTORE PUSH1 0xE0 DUP11 ADD SWAP1 PUSH2 0x32F3 JUMP JUMPDEST SWAP5 PUSH1 0x20 DUP10 ADD MSTORE PUSH1 0x40 DUP9 ADD MSTORE PUSH1 0x60 DUP8 ADD MSTORE ISZERO ISZERO PUSH1 0x80 DUP7 ADD MSTORE DUP5 DUP3 SUB PUSH1 0xA0 DUP7 ADD MSTORE PUSH2 0x32F3 JUMP JUMPDEST SWAP4 ISZERO ISZERO SWAP2 ADD MSTORE JUMP JUMPDEST PUSH1 0x40 SWAP1 PUSH1 0x3 NOT ADD SLT PUSH2 0x286 JUMPI PUSH1 0x4 CALLDATALOAD SWAP1 PUSH1 0x24 CALLDATALOAD SWAP1 JUMP JUMPDEST DUP1 SLOAD DUP3 LT ISZERO PUSH2 0x34D7 JUMPI PUSH1 0x0 MSTORE PUSH1 0x5 PUSH1 0x20 PUSH1 0x0 KECCAK256 SWAP2 MUL ADD SWAP1 PUSH1 0x0 SWAP1 JUMP JUMPDEST PUSH4 0x4E487B71 PUSH1 0xE0 SHL PUSH1 0x0 MSTORE PUSH1 0x32 PUSH1 0x4 MSTORE PUSH1 0x24 PUSH1 0x0 REVERT JUMPDEST SWAP4 SWAP1 SWAP3 PUSH2 0x351E SWAP3 PUSH2 0x32CD SWAP7 SWAP5 DUP7 MSTORE PUSH1 0x1 DUP1 PUSH1 0xA0 SHL SUB AND PUSH1 0x20 DUP7 ADD MSTORE PUSH1 0x40 DUP6 ADD MSTORE PUSH1 0xA0 PUSH1 0x60 DUP6 ADD MSTORE PUSH1 0xA0 DUP5 ADD SWAP1 PUSH2 0x32F3 JUMP JUMPDEST SWAP2 PUSH1 0x80 DUP2 DUP5 SUB SWAP2 ADD MSTORE PUSH2 0x32F3 JUMP JUMPDEST SWAP1 PUSH2 0x100 PUSH1 0x3 NOT DUP4 ADD SLT PUSH2 0x286 JUMPI PUSH1 0x4 CALLDATALOAD SWAP2 PUSH1 0x1 PUSH1 0x1 PUSH1 0x40 SHL SUB SWAP2 PUSH1 0x24 CALLDATALOAD DUP4 DUP2 GT PUSH2 0x286 JUMPI DUP3 PUSH2 0x355E SWAP2 PUSH1 0x4 ADD PUSH2 0x32B2 JUMP JUMPDEST SWAP3 PUSH1 0x44 CALLDATALOAD SWAP3 PUSH1 0x64 CALLDATALOAD SWAP3 PUSH1 0x84 CALLDATALOAD SWAP3 PUSH1 0xA4 CALLDATALOAD DUP1 ISZERO ISZERO DUP2 SUB PUSH2 0x286 JUMPI SWAP3 PUSH1 0xC4 CALLDATALOAD SWAP2 DUP3 GT PUSH2 0x286 JUMPI PUSH2 0x358E SWAP2 PUSH1 0x4 ADD PUSH2 0x32B2 JUMP JUMPDEST SWAP1 PUSH1 0xE4 CALLDATALOAD DUP1 ISZERO ISZERO DUP2 SUB PUSH2 0x286 JUMPI SWAP1 JUMP JUMPDEST DUP1 SLOAD DUP3 LT ISZERO PUSH2 0x34D7 JUMPI PUSH1 0x0 MSTORE PUSH1 0x20 PUSH1 0x0 KECCAK256 ADD SWAP1 PUSH1 0x0 SWAP1 JUMP JUMPDEST PUSH1 0x7 SLOAD PUSH1 0x8 SHR PUSH1 0x1 PUSH1 0x1 PUSH1 0xA0 SHL SUB AND CALLER SUB PUSH2 0x35CD JUMPI JUMP JUMPDEST PUSH1 0x40 MLOAD PUSH4 0x118CDAA7 PUSH1 0xE0 SHL DUP2 MSTORE CALLER PUSH1 0x4 DUP3 ADD MSTORE PUSH1 0x24 SWAP1 REVERT JUMPDEST PUSH1 0x1 PUSH1 0x1 PUSH1 0xA0 SHL SUB SWAP2 DUP3 AND SWAP3 SWAP1 SWAP2 DUP4 ISZERO PUSH2 0xB52 JUMPI PUSH1 0x0 SWAP3 DUP3 DUP5 MSTORE DUP3 PUSH1 0x20 SWAP6 PUSH1 0x2 DUP8 MSTORE PUSH1 0x40 SWAP7 DUP5 DUP9 DUP9 KECCAK256 SLOAD AND SWAP7 DUP8 SWAP2 CALLER ISZERO ISZERO DUP1 PUSH2 0x36D5 JUMPI JUMPDEST POP SWAP1 PUSH1 0x2 PUSH32 0xDDF252AD1BE2C89B69C2B068FC378DAA952BA7F163C4A11628F55A4DF523B3EF SWAP3 DUP5 PUSH2 0x36A2 JUMPI JUMPDEST DUP6 DUP4 MSTORE PUSH1 0x3 DUP2 MSTORE DUP12 DUP4 KECCAK256 DUP1 SLOAD PUSH1 0x1 ADD SWAP1 SSTORE DUP7 DUP4 MSTORE MSTORE DUP10 DUP2 KECCAK256 DUP1 SLOAD PUSH1 0x1 PUSH1 0x1 PUSH1 0xA0 SHL SUB NOT AND DUP6 OR SWAP1 SSTORE DUP1 LOG4 AND SWAP3 DUP4 DUP4 SUB PUSH2 0x3681 JUMPI POP POP POP POP JUMP JUMPDEST PUSH1 0x64 SWAP5 POP MLOAD SWAP3 PUSH4 0x64283D7B PUSH1 0xE0 SHL DUP5 MSTORE PUSH1 0x4 DUP5 ADD MSTORE PUSH1 0x24 DUP4 ADD MSTORE PUSH1 0x44 DUP3 ADD MSTORE REVERT JUMPDEST PUSH1 0x0 DUP8 DUP2 MSTORE PUSH1 0x4 PUSH1 0x20 MSTORE PUSH1 0x40 SWAP1 KECCAK256 DUP1 SLOAD PUSH1 0x1 PUSH1 0x1 PUSH1 0xA0 SHL SUB NOT AND SWAP1 SSTORE DUP5 DUP4 MSTORE PUSH1 0x3 DUP2 MSTORE DUP12 DUP4 KECCAK256 DUP1 SLOAD PUSH1 0x0 NOT ADD SWAP1 SSTORE PUSH2 0x3648 JUMP JUMPDEST SWAP2 SWAP4 SWAP5 POP SWAP2 POP DUP1 PUSH2 0x372A JUMPI JUMPDEST ISZERO PUSH2 0x36F1 JUMPI DUP6 SWAP3 SWAP2 DUP8 SWAP2 CODESIZE PUSH2 0x361C JUMP JUMPDEST DUP8 DUP7 DUP9 PUSH2 0x370E JUMPI PUSH1 0x24 SWAP2 MLOAD SWAP1 PUSH4 0x7E273289 PUSH1 0xE0 SHL DUP3 MSTORE PUSH1 0x4 DUP3 ADD MSTORE REVERT JUMPDEST PUSH1 0x44 SWAP2 MLOAD SWAP1 PUSH4 0x177E802F PUSH1 0xE0 SHL DUP3 MSTORE CALLER PUSH1 0x4 DUP4 ADD MSTORE PUSH1 0x24 DUP3 ADD MSTORE REVERT JUMPDEST POP CALLER DUP8 EQ DUP1 ISZERO PUSH2 0x374F JUMPI JUMPDEST DUP1 PUSH2 0x36E1 JUMPI POP DUP6 DUP3 MSTORE PUSH1 0x4 DUP2 MSTORE CALLER DUP6 DUP10 DUP5 KECCAK256 SLOAD AND EQ PUSH2 0x36E1 JUMP JUMPDEST POP DUP7 DUP3 MSTORE PUSH1 0x5 DUP2 MSTORE DUP8 DUP3 KECCAK256 CALLER DUP4 MSTORE DUP2 MSTORE PUSH1 0xFF DUP9 DUP4 KECCAK256 SLOAD AND PUSH2 0x3735 JUMP JUMPDEST PUSH1 0x0 DUP2 DUP2 MSTORE PUSH1 0x2 PUSH1 0x20 MSTORE PUSH1 0x40 SWAP1 KECCAK256 SLOAD PUSH1 0x1 PUSH1 0x1 PUSH1 0xA0 SHL SUB AND SWAP1 DUP2 ISZERO PUSH2 0x378E JUMPI POP SWAP1 JUMP JUMPDEST PUSH1 0x24 SWAP1 PUSH1 0x40 MLOAD SWAP1 PUSH4 0x7E273289 PUSH1 0xE0 SHL DUP3 MSTORE PUSH1 0x4 DUP3 ADD MSTORE REVERT JUMPDEST DUP2 EXTCODESIZE PUSH2 0x37B3 JUMPI JUMPDEST POP POP POP POP JUMP JUMPDEST PUSH1 0x40 MLOAD PUSH4 0xA85BD01 PUSH1 0xE1 SHL DUP1 DUP3 MSTORE CALLER PUSH1 0x4 DUP4 ADD MSTORE PUSH1 0x1 PUSH1 0x1 PUSH1 0xA0 SHL SUB SWAP3 DUP4 AND PUSH1 0x24 DUP4 ADD MSTORE PUSH1 0x44 DUP3 ADD SWAP5 SWAP1 SWAP5 MSTORE PUSH1 0x80 PUSH1 0x64 DUP3 ADD MSTORE PUSH1 0x20 SWAP6 SWAP3 SWAP1 SWAP2 AND SWAP4 SWAP1 SWAP3 SWAP1 DUP4 SWAP1 PUSH2 0x3801 SWAP1 PUSH1 0x84 DUP4 ADD SWAP1 PUSH2 0x32F3 JUMP JUMPDEST SUB SWAP3 DUP6 DUP2 PUSH1 0x0 SWAP6 DUP2 DUP8 DUP10 GAS CALL DUP5 SWAP2 DUP2 PUSH2 0x388C JUMPI JUMPDEST POP PUSH2 0x386F JUMPI POP POP POP RETURNDATASIZE PUSH1 0x0 EQ PUSH2 0x3867 JUMPI RETURNDATASIZE PUSH2 0x382F DUP2 PUSH2 0x3260 JUMP JUMPDEST SWAP1 PUSH2 0x383D PUSH1 0x40 MLOAD SWAP3 DUP4 PUSH2 0x323F JUMP JUMPDEST DUP2 MSTORE DUP1 SWAP2 DUP5 RETURNDATASIZE SWAP3 ADD RETURNDATACOPY DUP1 MLOAD SWAP3 DUP4 PUSH2 0xA81 JUMPI PUSH1 0x40 MLOAD PUSH4 0x32505749 PUSH1 0xE1 SHL DUP2 MSTORE PUSH1 0x4 DUP2 ADD DUP5 SWAP1 MSTORE PUSH1 0x24 SWAP1 REVERT JUMPDEST POP PUSH1 0x60 PUSH2 0xA60 JUMP JUMPDEST SWAP2 SWAP5 POP SWAP2 POP PUSH4 0xFFFFFFFF PUSH1 0xE0 SHL AND SUB PUSH2 0xAAE JUMPI POP CODESIZE DUP1 DUP1 DUP1 PUSH2 0x37AD JUMP JUMPDEST SWAP1 SWAP2 POP DUP7 DUP2 DUP2 RETURNDATASIZE DUP4 GT PUSH2 0x38C9 JUMPI JUMPDEST PUSH2 0x38A4 DUP2 DUP4 PUSH2 0x323F JUMP JUMPDEST DUP2 ADD SUB SLT PUSH2 0x38C5 JUMPI MLOAD PUSH1 0x1 PUSH1 0x1 PUSH1 0xE0 SHL SUB NOT DUP2 AND DUP2 SUB PUSH2 0x38C5 JUMPI SWAP1 CODESIZE PUSH2 0x3815 JUMP JUMPDEST DUP5 DUP1 REVERT JUMPDEST POP RETURNDATASIZE PUSH2 0x389A JUMP JUMPDEST MLOAD ISZERO PUSH2 0x38D8 JUMPI JUMP JUMPDEST PUSH1 0x40 MLOAD PUSH3 0x461BCD PUSH1 0xE5 SHL DUP2 MSTORE PUSH1 0x20 PUSH1 0x4 DUP3 ADD MSTORE PUSH1 0x14 PUSH1 0x24 DUP3 ADD MSTORE PUSH20 0x4E616D652063616E6E6F7420626520656D707479 PUSH1 0x60 SHL PUSH1 0x44 DUP3 ADD MSTORE PUSH1 0x64 SWAP1 REVERT JUMPDEST SWAP1 SWAP2 ISZERO PUSH2 0x396F JUMPI MLOAD ISZERO PUSH2 0x38D8 JUMPI PUSH1 0x64 LT PUSH2 0x392A JUMPI JUMP JUMPDEST PUSH1 0x40 MLOAD PUSH3 0x461BCD PUSH1 0xE5 SHL DUP2 MSTORE PUSH1 0x20 PUSH1 0x4 DUP3 ADD MSTORE PUSH1 0x1B PUSH1 0x24 DUP3 ADD MSTORE PUSH32 0x496E76616C696420646973636F756E742070657263656E746167650000000000 PUSH1 0x44 DUP3 ADD MSTORE PUSH1 0x64 SWAP1 REVERT JUMPDEST PUSH1 0x40 MLOAD PUSH3 0x461BCD PUSH1 0xE5 SHL DUP2 MSTORE PUSH1 0x20 PUSH1 0x4 DUP3 ADD MSTORE PUSH1 0x13 PUSH1 0x24 DUP3 ADD MSTORE PUSH19 0x125B9D985B1A59081D195B5C1B185D19481251 PUSH1 0x6A SHL PUSH1 0x44 DUP3 ADD MSTORE PUSH1 0x64 SWAP1 REVERT JUMPDEST PUSH1 0x0 NOT DUP2 EQ PUSH2 0x264C JUMPI PUSH1 0x1 ADD SWAP1 JUMP JUMPDEST PUSH1 0xFF PUSH1 0x7 SLOAD AND PUSH2 0x39C5 JUMPI JUMP JUMPDEST PUSH1 0x40 MLOAD PUSH4 0xD93C0665 PUSH1 0xE0 SHL DUP2 MSTORE PUSH1 0x4 SWAP1 REVERT JUMPDEST ISZERO PUSH2 0x39DE JUMPI JUMP JUMPDEST PUSH1 0x40 MLOAD PUSH3 0x461BCD PUSH1 0xE5 SHL DUP2 MSTORE PUSH1 0x20 PUSH1 0x4 DUP3 ADD MSTORE PUSH1 0x14 PUSH1 0x24 DUP3 ADD MSTORE PUSH20 0x151BDAD95B88191BD95CC81B9BDD08195E1A5CDD PUSH1 0x62 SHL PUSH1 0x44 DUP3 ADD MSTORE PUSH1 0x64 SWAP1 REVERT JUMPDEST ISZERO PUSH2 0x3A21 JUMPI JUMP JUMPDEST PUSH1 0x40 MLOAD PUSH3 0x461BCD PUSH1 0xE5 SHL DUP2 MSTORE PUSH1 0x20 PUSH1 0x4 DUP3 ADD MSTORE PUSH1 0x14 PUSH1 0x24 DUP3 ADD MSTORE PUSH20 0x496E73756666696369656E742062616C616E6365 PUSH1 0x60 SHL PUSH1 0x44 DUP3 ADD MSTORE PUSH1 0x64 SWAP1 REVERT JUMPDEST PUSH1 0x0 SWAP1 DUP1 DUP3 MSTORE PUSH1 0xC PUSH1 0x20 MSTORE PUSH2 0x3A78 DUP4 PUSH1 0x40 DUP5 KECCAK256 SLOAD LT ISZERO PUSH2 0x3A1A JUMP JUMPDEST DUP2 MSTORE PUSH1 0xC PUSH1 0x20 MSTORE PUSH1 0x40 DUP2 KECCAK256 SWAP1 DUP2 SLOAD SWAP3 DUP4 SUB SWAP3 DUP4 GT PUSH2 0x3A94 JUMPI POP SSTORE JUMP JUMPDEST PUSH4 0x4E487B71 PUSH1 0xE0 SHL DUP2 MSTORE PUSH1 0x11 PUSH1 0x4 MSTORE PUSH1 0x24 SWAP1 REVERT INVALID 0xEC SWAP3 DUP13 0x2F 0xE6 PUSH4 0x2313165F PUSH22 0x4A793AB00B2CDE005B5C7571959D3137D5C4D4AC67C0 REVERT 0xBB CALLVALUE REVERT DUP4 PUSH20 0x25F175BD973A8607230E48718904C92805638B65 SWAP1 PUSH0 PUSH2 0x6D7D LOG2 PUSH5 0x6970667358 0x22 SLT KECCAK256 0xC9 0xFC CALLVALUE GASLIMIT 0xB7 CODECOPY CODECOPY MSTORE8 SHL NUMBER 0x21 SWAP10 ADDRESS 0xE0 0xCE 0x29 0xDD 0x1F SWAP16 0xCA LOG1 DUP7 DUP10 MSTORE 0xCE 0xE9 LOG4 CALLVALUE 0xE7 CODECOPY MSTORE8 0xBC PUSH5 0x736F6C6343 STOP ADDMOD EQ STOP CALLER "},"methodIdentifiers":{"addSupportedToken(address)":"6d69fcaf","addTemplate(uint256,string,uint256,uint256,uint256,bool,string,bool)":"96651ec3","approve(address,uint256)":"095ea7b3","authorizeMerchant(address)":"37ae9c13","authorizedMerchants(address)":"ca2efd38","balanceOf(address)":"70a08231","createEvent(string,uint256,uint256,uint256)":"0374ab0b","events(uint256)":"0b791430","getApproved(uint256)":"081812fc","getTemplate(uint256)":"31543cf4","getTemplateCount()":"5016959a","getTokenEvents(uint256)":"c4754b77","getTransaction(uint256,uint256)":"7303f6ce","getTransactionCount(uint256)":"3de5d0de","initializeDefaultTemplates()":"8af5ae99","isApprovedForAll(address,address)":"e985e9c5","mintFromTemplate(uint256,address,string)":"c58d0686","modifyTemplate(uint256,string,uint256,uint256,uint256,bool,string,bool)":"cdc965cd","name()":"06fdde03","owner()":"8da5cb5b","ownerOf(uint256)":"6352211e","pause()":"8456cb59","paused()":"5c975abb","processPayment(uint256,uint256,string)":"28342133","purchaseEventEntrance(uint256,uint256)":"b701b319","renounceOwnership()":"715018a6","revokeMerchant(address)":"819a701c","safeTransferFrom(address,address,uint256)":"42842e0e","safeTransferFrom(address,address,uint256,bytes)":"b88d4fde","setApprovalForAll(address,bool)":"a22cb465","supportedTokens(address)":"68c4ac26","supportsInterface(bytes4)":"01ffc9a7","symbol()":"95d89b41","templates(uint256)":"bc525652","tokenBalance(uint256)":"49afc6e5","tokenEvents(uint256,uint256)":"a871bd66","tokenURI(uint256)":"c87b56dd","topUpBalance(uint256,uint256,address)":"368a5247","transactions(uint256,uint256)":"4eaf9db6","transferFrom(address,address,uint256)":"23b872dd","transferOwnership(address)":"f2fde38b","unpause()":"3f4ba83a"}},"storageLayout":{"storage":[{"astId":968,"contract":"contracts/v2/WaveXNFTV2.sol:WaveXNFTV2","label":"_name","offset":0,"slot":"0","type":"t_string_storage"},{"astId":970,"contract":"contracts/v2/WaveXNFTV2.sol:WaveXNFTV2","label":"_symbol","offset":0,"slot":"1","type":"t_string_storage"},{"astId":974,"contract":"contracts/v2/WaveXNFTV2.sol:WaveXNFTV2","label":"_owners","offset":0,"slot":"2","type":"t_mapping(t_uint256,t_address)"},{"astId":978,"contract":"contracts/v2/WaveXNFTV2.sol:WaveXNFTV2","label":"_balances","offset":0,"slot":"3","type":"t_mapping(t_address,t_uint256)"},{"astId":982,"contract":"contracts/v2/WaveXNFTV2.sol:WaveXNFTV2","label":"_tokenApprovals","offset":0,"slot":"4","type":"t_mapping(t_uint256,t_address)"},{"astId":988,"contract":"contracts/v2/WaveXNFTV2.sol:WaveXNFTV2","label":"_operatorApprovals","offset":0,"slot":"5","type":"t_mapping(t_address,t_mapping(t_address,t_bool))"},{"astId":2107,"contract":"contracts/v2/WaveXNFTV2.sol:WaveXNFTV2","label":"_tokenURIs","offset":0,"slot":"6","type":"t_mapping(t_uint256,t_string_storage)"},{"astId":2272,"contract":"contracts/v2/WaveXNFTV2.sol:WaveXNFTV2","label":"_paused","offset":0,"slot":"7","type":"t_bool"},{"astId":8,"contract":"contracts/v2/WaveXNFTV2.sol:WaveXNFTV2","label":"_owner","offset":1,"slot":"7","type":"t_address"},{"astId":5221,"contract":"contracts/v2/WaveXNFTV2.sol:WaveXNFTV2","label":"_tokenIds","offset":0,"slot":"8","type":"t_uint256"},{"astId":5223,"contract":"contracts/v2/WaveXNFTV2.sol:WaveXNFTV2","label":"_templateIds","offset":0,"slot":"9","type":"t_uint256"},{"astId":5228,"contract":"contracts/v2/WaveXNFTV2.sol:WaveXNFTV2","label":"templates","offset":0,"slot":"10","type":"t_mapping(t_uint256,t_struct(Template)4043_storage)"},{"astId":5233,"contract":"contracts/v2/WaveXNFTV2.sol:WaveXNFTV2","label":"events","offset":0,"slot":"11","type":"t_mapping(t_uint256,t_struct(Event)4056_storage)"},{"astId":5237,"contract":"contracts/v2/WaveXNFTV2.sol:WaveXNFTV2","label":"tokenBalance","offset":0,"slot":"12","type":"t_mapping(t_uint256,t_uint256)"},{"astId":5243,"contract":"contracts/v2/WaveXNFTV2.sol:WaveXNFTV2","label":"transactions","offset":0,"slot":"13","type":"t_mapping(t_uint256,t_array(t_struct(Transaction)4067_storage)dyn_storage)"},{"astId":5248,"contract":"contracts/v2/WaveXNFTV2.sol:WaveXNFTV2","label":"tokenEvents","offset":0,"slot":"14","type":"t_mapping(t_uint256,t_array(t_uint256)dyn_storage)"},{"astId":5252,"contract":"contracts/v2/WaveXNFTV2.sol:WaveXNFTV2","label":"authorizedMerchants","offset":0,"slot":"15","type":"t_mapping(t_address,t_bool)"},{"astId":5256,"contract":"contracts/v2/WaveXNFTV2.sol:WaveXNFTV2","label":"supportedTokens","offset":0,"slot":"16","type":"t_mapping(t_address,t_bool)"}],"types":{"t_address":{"encoding":"inplace","label":"address","numberOfBytes":"20"},"t_array(t_struct(Transaction)4067_storage)dyn_storage":{"base":"t_struct(Transaction)4067_storage","encoding":"dynamic_array","label":"struct IWaveXNFTV2.Transaction[]","numberOfBytes":"32"},"t_array(t_uint256)dyn_storage":{"base":"t_uint256","encoding":"dynamic_array","label":"uint256[]","numberOfBytes":"32"},"t_bool":{"encoding":"inplace","label":"bool","numberOfBytes":"1"},"t_mapping(t_address,t_bool)":{"encoding":"mapping","key":"t_address","label":"mapping(address => bool)","numberOfBytes":"32","value":"t_bool"},"t_mapping(t_address,t_mapping(t_address,t_bool))":{"encoding":"mapping","key":"t_address","label":"mapping(address => mapping(address => bool))","numberOfBytes":"32","value":"t_mapping(t_address,t_bool)"},"t_mapping(t_address,t_uint256)":{"encoding":"mapping","key":"t_address","label":"mapping(address => uint256)","numberOfBytes":"32","value":"t_uint256"},"t_mapping(t_uint256,t_address)":{"encoding":"mapping","key":"t_uint256","label":"mapping(uint256 => address)","numberOfBytes":"32","value":"t_address"},"t_mapping(t_uint256,t_array(t_struct(Transaction)4067_storage)dyn_storage)":{"encoding":"mapping","key":"t_uint256","label":"mapping(uint256 => struct IWaveXNFTV2.Transaction[])","numberOfBytes":"32","value":"t_array(t_struct(Transaction)4067_storage)dyn_storage"},"t_mapping(t_uint256,t_array(t_uint256)dyn_storage)":{"encoding":"mapping","key":"t_uint256","label":"mapping(uint256 => uint256[])","numberOfBytes":"32","value":"t_array(t_uint256)dyn_storage"},"t_mapping(t_uint256,t_string_storage)":{"encoding":"mapping","key":"t_uint256","label":"mapping(uint256 => string)","numberOfBytes":"32","value":"t_string_storage"},"t_mapping(t_uint256,t_struct(Event)4056_storage)":{"encoding":"mapping","key":"t_uint256","label":"mapping(uint256 => struct IWaveXNFTV2.Event)","numberOfBytes":"32","value":"t_struct(Event)4056_storage"},"t_mapping(t_uint256,t_struct(Template)4043_storage)":{"encoding":"mapping","key":"t_uint256","label":"mapping(uint256 => struct IWaveXNFTV2.Template)","numberOfBytes":"32","value":"t_struct(Template)4043_storage"},"t_mapping(t_uint256,t_uint256)":{"encoding":"mapping","key":"t_uint256","label":"mapping(uint256 => uint256)","numberOfBytes":"32","value":"t_uint256"},"t_string_storage":{"encoding":"bytes","label":"string","numberOfBytes":"32"},"t_struct(Event)4056_storage":{"encoding":"inplace","label":"struct IWaveXNFTV2.Event","members":[{"astId":4045,"contract":"contracts/v2/WaveXNFTV2.sol:WaveXNFTV2","label":"name","offset":0,"slot":"0","type":"t_string_storage"},{"astId":4047,"contract":"contracts/v2/WaveXNFTV2.sol:WaveXNFTV2","label":"price","offset":0,"slot":"1","type":"t_uint256"},{"astId":4049,"contract":"contracts/v2/WaveXNFTV2.sol:WaveXNFTV2","label":"capacity","offset":0,"slot":"2","type":"t_uint256"},{"astId":4051,"contract":"contracts/v2/WaveXNFTV2.sol:WaveXNFTV2","label":"soldCount","offset":0,"slot":"3","type":"t_uint256"},{"astId":4053,"contract":"contracts/v2/WaveXNFTV2.sol:WaveXNFTV2","label":"active","offset":0,"slot":"4","type":"t_bool"},{"astId":4055,"contract":"contracts/v2/WaveXNFTV2.sol:WaveXNFTV2","label":"eventType","offset":0,"slot":"5","type":"t_uint256"}],"numberOfBytes":"192"},"t_struct(Template)4043_storage":{"encoding":"inplace","label":"struct IWaveXNFTV2.Template","members":[{"astId":4030,"contract":"contracts/v2/WaveXNFTV2.sol:WaveXNFTV2","label":"name","offset":0,"slot":"0","type":"t_string_storage"},{"astId":4032,"contract":"contracts/v2/WaveXNFTV2.sol:WaveXNFTV2","label":"baseBalance","offset":0,"slot":"1","type":"t_uint256"},{"astId":4034,"contract":"contracts/v2/WaveXNFTV2.sol:WaveXNFTV2","label":"price","offset":0,"slot":"2","type":"t_uint256"},{"astId":4036,"contract":"contracts/v2/WaveXNFTV2.sol:WaveXNFTV2","label":"discount","offset":0,"slot":"3","type":"t_uint256"},{"astId":4038,"contract":"contracts/v2/WaveXNFTV2.sol:WaveXNFTV2","label":"isVIP","offset":0,"slot":"4","type":"t_bool"},{"astId":4040,"contract":"contracts/v2/WaveXNFTV2.sol:WaveXNFTV2","label":"metadataURI","offset":0,"slot":"5","type":"t_string_storage"},{"astId":4042,"contract":"contracts/v2/WaveXNFTV2.sol:WaveXNFTV2","label":"active","offset":0,"slot":"6","type":"t_bool"}],"numberOfBytes":"224"},"t_struct(Transaction)4067_storage":{"encoding":"inplace","label":"struct IWaveXNFTV2.Transaction","members":[{"astId":4058,"contract":"contracts/v2/WaveXNFTV2.sol:WaveXNFTV2","label":"timestamp","offset":0,"slot":"0","type":"t_uint256"},{"astId":4060,"contract":"contracts/v2/WaveXNFTV2.sol:WaveXNFTV2","label":"merchant","offset":0,"slot":"1","type":"t_address"},{"astId":4062,"contract":"contracts/v2/WaveXNFTV2.sol:WaveXNFTV2","label":"amount","offset":0,"slot":"2","type":"t_uint256"},{"astId":4064,"contract":"contracts/v2/WaveXNFTV2.sol:WaveXNFTV2","label":"transactionType","offset":0,"slot":"3","type":"t_string_storage"},{"astId":4066,"contract":"contracts/v2/WaveXNFTV2.sol:WaveXNFTV2","label":"metadata","offset":0,"slot":"4","type":"t_string_storage"}],"numberOfBytes":"160"},"t_uint256":{"encoding":"inplace","label":"uint256","numberOfBytes":"32"}}}}}}