{"contracts/v2/WaveXNFTV2Updated.sol":{"WaveXNFTV2Updated":{"abi":[{"inputs":[],"stateMutability":"nonpayable","type":"constructor"},{"inputs":[{"internalType":"address","name":"sender","type":"address"},{"internalType":"uint256","name":"tokenId","type":"uint256"},{"internalType":"address","name":"owner","type":"address"}],"name":"ERC721IncorrectOwner","type":"error"},{"inputs":[{"internalType":"address","name":"operator","type":"address"},{"internalType":"uint256","name":"tokenId","type":"uint256"}],"name":"ERC721InsufficientApproval","type":"error"},{"inputs":[{"internalType":"address","name":"approver","type":"address"}],"name":"ERC721InvalidApprover","type":"error"},{"inputs":[{"internalType":"address","name":"operator","type":"address"}],"name":"ERC721InvalidOperator","type":"error"},{"inputs":[{"internalType":"address","name":"owner","type":"address"}],"name":"ERC721InvalidOwner","type":"error"},{"inputs":[{"internalType":"address","name":"receiver","type":"address"}],"name":"ERC721InvalidReceiver","type":"error"},{"inputs":[{"internalType":"address","name":"sender","type":"address"}],"name":"ERC721InvalidSender","type":"error"},{"inputs":[{"internalType":"uint256","name":"tokenId","type":"uint256"}],"name":"ERC721NonexistentToken","type":"error"},{"inputs":[],"name":"EnforcedPause","type":"error"},{"inputs":[],"name":"ExpectedPause","type":"error"},{"inputs":[{"internalType":"address","name":"owner","type":"address"}],"name":"OwnableInvalidOwner","type":"error"},{"inputs":[{"internalType":"address","name":"account","type":"address"}],"name":"OwnableUnauthorizedAccount","type":"error"},{"anonymous":false,"inputs":[{"indexed":true,"internalType":"address","name":"owner","type":"address"},{"indexed":true,"internalType":"address","name":"approved","type":"address"},{"indexed":true,"internalType":"uint256","name":"tokenId","type":"uint256"}],"name":"Approval","type":"event"},{"anonymous":false,"inputs":[{"indexed":true,"internalType":"address","name":"owner","type":"address"},{"indexed":true,"internalType":"address","name":"operator","type":"address"},{"indexed":false,"internalType":"bool","name":"approved","type":"bool"}],"name":"ApprovalForAll","type":"event"},{"anonymous":false,"inputs":[{"indexed":true,"internalType":"uint256","name":"tokenId","type":"uint256"},{"indexed":false,"internalType":"uint256","name":"newBalance","type":"uint256"},{"indexed":false,"internalType":"string","name":"updateType","type":"string"}],"name":"BalanceUpdated","type":"event"},{"anonymous":false,"inputs":[{"indexed":false,"internalType":"uint256","name":"_fromTokenId","type":"uint256"},{"indexed":false,"internalType":"uint256","name":"_toTokenId","type":"uint256"}],"name":"BatchMetadataUpdate","type":"event"},{"anonymous":false,"inputs":[{"indexed":true,"internalType":"uint256","name":"eventId","type":"uint256"},{"indexed":true,"internalType":"uint256","name":"tokenId","type":"uint256"}],"name":"EventCheckedIn","type":"event"},{"anonymous":false,"inputs":[{"indexed":true,"internalType":"uint256","name":"eventId","type":"uint256"},{"indexed":false,"internalType":"string","name":"name","type":"string"},{"indexed":false,"internalType":"uint256","name":"capacity","type":"uint256"}],"name":"EventCreated","type":"event"},{"anonymous":false,"inputs":[{"indexed":true,"internalType":"uint256","name":"tokenId","type":"uint256"},{"indexed":true,"internalType":"uint256","name":"eventId","type":"uint256"}],"name":"EventPurchased","type":"event"},{"anonymous":false,"inputs":[{"indexed":false,"internalType":"uint256","name":"_tokenId","type":"uint256"}],"name":"MetadataUpdate","type":"event"},{"anonymous":false,"inputs":[{"indexed":true,"internalType":"address","name":"previousOwner","type":"address"},{"indexed":true,"internalType":"address","name":"newOwner","type":"address"}],"name":"OwnershipTransferred","type":"event"},{"anonymous":false,"inputs":[{"indexed":false,"internalType":"address","name":"account","type":"address"}],"name":"Paused","type":"event"},{"anonymous":false,"inputs":[{"indexed":true,"internalType":"address","name":"tokenAddress","type":"address"}],"name":"SupportedTokenAdded","type":"event"},{"anonymous":false,"inputs":[{"indexed":true,"internalType":"uint256","name":"templateId","type":"uint256"},{"indexed":false,"internalType":"string","name":"name","type":"string"},{"indexed":false,"internalType":"uint256","name":"baseBalance","type":"uint256"},{"indexed":false,"internalType":"uint256","name":"price","type":"uint256"},{"indexed":false,"internalType":"uint256","name":"discount","type":"uint256"},{"indexed":false,"internalType":"bool","name":"isVIP","type":"bool"},{"indexed":false,"internalType":"string","name":"metadataURI","type":"string"},{"indexed":false,"internalType":"bool","name":"active","type":"bool"}],"name":"TemplateCreated","type":"event"},{"anonymous":false,"inputs":[{"indexed":true,"internalType":"uint256","name":"templateId","type":"uint256"},{"indexed":false,"internalType":"string","name":"name","type":"string"},{"indexed":false,"internalType":"uint256","name":"baseBalance","type":"uint256"},{"indexed":false,"internalType":"uint256","name":"price","type":"uint256"},{"indexed":false,"internalType":"uint256","name":"discount","type":"uint256"},{"indexed":false,"internalType":"bool","name":"isVIP","type":"bool"},{"indexed":false,"internalType":"string","name":"metadataURI","type":"string"},{"indexed":false,"internalType":"bool","name":"active","type":"bool"}],"name":"TemplateUpdated","type":"event"},{"anonymous":false,"inputs":[{"indexed":true,"internalType":"uint256","name":"tokenId","type":"uint256"},{"indexed":false,"internalType":"string","name":"transactionType","type":"string"},{"indexed":false,"internalType":"uint256","name":"amount","type":"uint256"}],"name":"TransactionProcessed","type":"event"},{"anonymous":false,"inputs":[{"indexed":true,"internalType":"uint256","name":"tokenId","type":"uint256"},{"indexed":false,"internalType":"string","name":"transactionType","type":"string"},{"indexed":false,"internalType":"uint256","name":"amount","type":"uint256"}],"name":"TransactionRecorded","type":"event"},{"anonymous":false,"inputs":[{"indexed":true,"internalType":"address","name":"from","type":"address"},{"indexed":true,"internalType":"address","name":"to","type":"address"},{"indexed":true,"internalType":"uint256","name":"tokenId","type":"uint256"}],"name":"Transfer","type":"event"},{"anonymous":false,"inputs":[{"indexed":false,"internalType":"address","name":"account","type":"address"}],"name":"Unpaused","type":"event"},{"inputs":[{"internalType":"address","name":"tokenAddress","type":"address"}],"name":"addSupportedToken","outputs":[],"stateMutability":"nonpayable","type":"function"},{"inputs":[{"internalType":"uint256","name":"templateId","type":"uint256"},{"internalType":"string","name":"name","type":"string"},{"internalType":"uint256","name":"baseBalance","type":"uint256"},{"internalType":"uint256","name":"price","type":"uint256"},{"internalType":"uint256","name":"discount","type":"uint256"},{"internalType":"bool","name":"isVIP","type":"bool"},{"internalType":"string","name":"metadataURI","type":"string"},{"internalType":"bool","name":"active","type":"bool"}],"name":"addTemplate","outputs":[],"stateMutability":"nonpayable","type":"function"},{"inputs":[{"internalType":"address","name":"to","type":"address"},{"internalType":"uint256","name":"tokenId","type":"uint256"}],"name":"approve","outputs":[],"stateMutability":"nonpayable","type":"function"},{"inputs":[{"internalType":"address","name":"merchant","type":"address"}],"name":"authorizeMerchant","outputs":[],"stateMutability":"nonpayable","type":"function"},{"inputs":[{"internalType":"address","name":"","type":"address"}],"name":"authorizedMerchants","outputs":[{"internalType":"bool","name":"","type":"bool"}],"stateMutability":"view","type":"function"},{"inputs":[{"internalType":"address","name":"owner","type":"address"}],"name":"balanceOf","outputs":[{"internalType":"uint256","name":"","type":"uint256"}],"stateMutability":"view","type":"function"},{"inputs":[{"internalType":"uint256","name":"tokenId","type":"uint256"},{"internalType":"uint256","name":"eventId","type":"uint256"}],"name":"checkInEvent","outputs":[],"stateMutability":"nonpayable","type":"function"},{"inputs":[{"internalType":"string","name":"name","type":"string"},{"internalType":"uint256","name":"price","type":"uint256"},{"internalType":"uint256","name":"capacity","type":"uint256"},{"internalType":"uint256","name":"eventType","type":"uint256"}],"name":"createEvent","outputs":[{"internalType":"uint256","name":"","type":"uint256"}],"stateMutability":"nonpayable","type":"function"},{"inputs":[{"internalType":"uint256","name":"","type":"uint256"},{"internalType":"uint256","name":"","type":"uint256"}],"name":"eventCheckIns","outputs":[{"internalType":"bool","name":"","type":"bool"}],"stateMutability":"view","type":"function"},{"inputs":[{"internalType":"uint256","name":"","type":"uint256"}],"name":"events","outputs":[{"internalType":"string","name":"name","type":"string"},{"internalType":"uint256","name":"price","type":"uint256"},{"internalType":"uint256","name":"capacity","type":"uint256"},{"internalType":"uint256","name":"soldCount","type":"uint256"},{"internalType":"bool","name":"active","type":"bool"},{"internalType":"uint256","name":"eventType","type":"uint256"}],"stateMutability":"view","type":"function"},{"inputs":[{"internalType":"uint256","name":"tokenId","type":"uint256"}],"name":"getApproved","outputs":[{"internalType":"address","name":"","type":"address"}],"stateMutability":"view","type":"function"},{"inputs":[{"internalType":"uint256","name":"templateId","type":"uint256"}],"name":"getTemplate","outputs":[{"internalType":"string","name":"name","type":"string"},{"internalType":"uint256","name":"baseBalance","type":"uint256"},{"internalType":"uint256","name":"price","type":"uint256"},{"internalType":"uint256","name":"discount","type":"uint256"},{"internalType":"bool","name":"isVIP","type":"bool"},{"internalType":"string","name":"metadataURI","type":"string"},{"internalType":"bool","name":"active","type":"bool"}],"stateMutability":"view","type":"function"},{"inputs":[],"name":"getTemplateCount","outputs":[{"internalType":"uint256","name":"","type":"uint256"}],"stateMutability":"view","type":"function"},{"inputs":[{"internalType":"uint256","name":"tokenId","type":"uint256"}],"name":"getTokenEvents","outputs":[{"internalType":"uint256[]","name":"","type":"uint256[]"}],"stateMutability":"view","type":"function"},{"inputs":[],"name":"initializeDefaultTemplates","outputs":[],"stateMutability":"nonpayable","type":"function"},{"inputs":[{"internalType":"address","name":"owner","type":"address"},{"internalType":"address","name":"operator","type":"address"}],"name":"isApprovedForAll","outputs":[{"internalType":"bool","name":"","type":"bool"}],"stateMutability":"view","type":"function"},{"inputs":[{"internalType":"uint256","name":"eventId","type":"uint256"},{"internalType":"uint256","name":"tokenId","type":"uint256"}],"name":"isCheckedIn","outputs":[{"internalType":"bool","name":"","type":"bool"}],"stateMutability":"view","type":"function"},{"inputs":[{"internalType":"uint256","name":"templateId","type":"uint256"},{"internalType":"address","name":"to","type":"address"},{"internalType":"string","name":"uri","type":"string"}],"name":"mintFromTemplate","outputs":[{"internalType":"uint256","name":"","type":"uint256"}],"stateMutability":"nonpayable","type":"function"},{"inputs":[],"name":"name","outputs":[{"internalType":"string","name":"","type":"string"}],"stateMutability":"view","type":"function"},{"inputs":[],"name":"owner","outputs":[{"internalType":"address","name":"","type":"address"}],"stateMutability":"view","type":"function"},{"inputs":[{"internalType":"uint256","name":"tokenId","type":"uint256"}],"name":"ownerOf","outputs":[{"internalType":"address","name":"","type":"address"}],"stateMutability":"view","type":"function"},{"inputs":[],"name":"paused","outputs":[{"internalType":"bool","name":"","type":"bool"}],"stateMutability":"view","type":"function"},{"inputs":[{"internalType":"uint256","name":"tokenId","type":"uint256"},{"internalType":"uint256","name":"amount","type":"uint256"},{"internalType":"string","name":"metadata","type":"string"}],"name":"processPayment","outputs":[],"stateMutability":"nonpayable","type":"function"},{"inputs":[{"internalType":"uint256","name":"tokenId","type":"uint256"},{"internalType":"uint256","name":"eventId","type":"uint256"}],"name":"purchaseEventEntrance","outputs":[],"stateMutability":"nonpayable","type":"function"},{"inputs":[],"name":"renounceOwnership","outputs":[],"stateMutability":"nonpayable","type":"function"},{"inputs":[{"internalType":"address","name":"merchant","type":"address"}],"name":"revokeMerchant","outputs":[],"stateMutability":"nonpayable","type":"function"},{"inputs":[{"internalType":"address","name":"from","type":"address"},{"internalType":"address","name":"to","type":"address"},{"internalType":"uint256","name":"tokenId","type":"uint256"}],"name":"safeTransferFrom","outputs":[],"stateMutability":"nonpayable","type":"function"},{"inputs":[{"internalType":"address","name":"from","type":"address"},{"internalType":"address","name":"to","type":"address"},{"internalType":"uint256","name":"tokenId","type":"uint256"},{"internalType":"bytes","name":"data","type":"bytes"}],"name":"safeTransferFrom","outputs":[],"stateMutability":"nonpayable","type":"function"},{"inputs":[{"internalType":"address","name":"operator","type":"address"},{"internalType":"bool","name":"approved","type":"bool"}],"name":"setApprovalForAll","outputs":[],"stateMutability":"nonpayable","type":"function"},{"inputs":[{"internalType":"address","name":"","type":"address"}],"name":"supportedTokens","outputs":[{"internalType":"bool","name":"","type":"bool"}],"stateMutability":"view","type":"function"},{"inputs":[{"internalType":"bytes4","name":"interfaceId","type":"bytes4"}],"name":"supportsInterface","outputs":[{"internalType":"bool","name":"","type":"bool"}],"stateMutability":"view","type":"function"},{"inputs":[],"name":"symbol","outputs":[{"internalType":"string","name":"","type":"string"}],"stateMutability":"view","type":"function"},{"inputs":[{"internalType":"uint256","name":"","type":"uint256"}],"name":"templates","outputs":[{"internalType":"string","name":"name","type":"string"},{"internalType":"uint256","name":"baseBalance","type":"uint256"},{"internalType":"uint256","name":"price","type":"uint256"},{"internalType":"uint256","name":"discount","type":"uint256"},{"internalType":"bool","name":"isVIP","type":"bool"},{"internalType":"string","name":"metadataURI","type":"string"},{"internalType":"bool","name":"active","type":"bool"}],"stateMutability":"view","type":"function"},{"inputs":[{"internalType":"uint256","name":"","type":"uint256"}],"name":"tokenBalance","outputs":[{"internalType":"uint256","name":"","type":"uint256"}],"stateMutability":"view","type":"function"},{"inputs":[{"internalType":"uint256","name":"","type":"uint256"},{"internalType":"uint256","name":"","type":"uint256"}],"name":"tokenEvents","outputs":[{"internalType":"uint256","name":"","type":"uint256"}],"stateMutability":"view","type":"function"},{"inputs":[{"internalType":"uint256","name":"tokenId","type":"uint256"}],"name":"tokenURI","outputs":[{"internalType":"string","name":"","type":"string"}],"stateMutability":"view","type":"function"},{"inputs":[{"internalType":"uint256","name":"","type":"uint256"},{"internalType":"uint256","name":"","type":"uint256"}],"name":"transactions","outputs":[{"internalType":"uint256","name":"timestamp","type":"uint256"},{"internalType":"address","name":"merchant","type":"address"},{"internalType":"uint256","name":"amount","type":"uint256"},{"internalType":"string","name":"transactionType","type":"string"},{"internalType":"string","name":"metadata","type":"string"}],"stateMutability":"view","type":"function"},{"inputs":[{"internalType":"address","name":"from","type":"address"},{"internalType":"address","name":"to","type":"address"},{"internalType":"uint256","name":"tokenId","type":"uint256"}],"name":"transferFrom","outputs":[],"stateMutability":"nonpayable","type":"function"},{"inputs":[{"internalType":"address","name":"newOwner","type":"address"}],"name":"transferOwnership","outputs":[],"stateMutability":"nonpayable","type":"function"}],"evm":{"bytecode":{"linkReferences":{},"object":"60806040523480156200001157600080fd5b50336040518060400160405280600c81526020016b2bb0bb32ac1027232a102b1960a11b815250604051806040016040528060068152602001652ba0ab22ac1960d11b8152508160009081620000689190620001c4565b506001620000778282620001c4565b50506007805460ff19169055506001600160a01b038116620000b357604051631e4fbdf760e01b81526000600482015260240160405180910390fd5b620000be81620000c5565b5062000290565b600780546001600160a01b03838116610100818102610100600160a81b031985161790945560405193909204169182907f8be0079c531659141344cd1fd0a4f28419497f9722a3daafe3b4186f6b6457e090600090a35050565b634e487b7160e01b600052604160045260246000fd5b600181811c908216806200014a57607f821691505b6020821081036200016b57634e487b7160e01b600052602260045260246000fd5b50919050565b601f821115620001bf57600081815260208120601f850160051c810160208610156200019a5750805b601f850160051c820191505b81811015620001bb57828155600101620001a6565b5050505b505050565b81516001600160401b03811115620001e057620001e06200011f565b620001f881620001f1845462000135565b8462000171565b602080601f831160018114620002305760008415620002175750858301515b600019600386901b1c1916600185901b178555620001bb565b600085815260208120601f198616915b82811015620002615788860151825594840194600190910190840162000240565b5085821015620002805787850151600019600388901b60f8161c191681555b5050505050600190811b01905550565b612f6180620002a06000396000f3fe608060405234801561001057600080fd5b506004361061023d5760003560e01c806370a082311161013b578063a871bd66116100b8578063c58d06861161007c578063c58d06861461056c578063c87b56dd1461057f578063ca2efd3814610592578063e985e9c5146105b5578063f2fde38b146105c857600080fd5b8063a871bd6614610500578063b701b31914610513578063b88d4fde14610526578063bc52565214610539578063c4754b771461054c57600080fd5b80638af5ae99116100ff5780638af5ae99146104b45780638da5cb5b146104bc57806395d89b41146104d257806396651ec3146104da578063a22cb465146104ed57600080fd5b806370a0823114610445578063715018a61461045857806373deb9fd14610460578063772a9c551461048e578063819a701c146104a157600080fd5b806337ae9c13116101c95780635c975abb1161018d5780635c975abb146103c35780636352211e146103ce57806368c4ac26146103e15780636d69fcaf14610404578063706cf3a01461041757600080fd5b806337ae9c131461035157806342842e0e1461036457806349afc6e5146103775780634eaf9db6146103975780635016959a146103bb57600080fd5b8063095ea7b311610210578063095ea7b3146102cb5780630b791430146102e057806323b872dd14610305578063283421331461031857806331543cf41461032b57600080fd5b806301ffc9a7146102425780630374ab0b1461026a57806306fdde031461028b578063081812fc146102a0575b600080fd5b6102556102503660046126ae565b6105db565b60405190151581526020015b60405180910390f35b61027d610278366004612777565b6105ec565b604051908152602001610261565b610293610615565b604051610261919061281b565b6102b36102ae36600461282e565b6106a7565b6040516001600160a01b039091168152602001610261565b6102de6102d9366004612863565b6106d0565b005b6102f36102ee36600461282e565b6106df565b6040516102619695949392919061288d565b6102de6103133660046128cb565b6107a0565b6102de610326366004612907565b610830565b61033e61033936600461282e565b6109bd565b6040516102619796959493929190612957565b6102de61035f3660046129ad565b610bd7565b6102de6103723660046128cb565b610c03565b61027d61038536600461282e565b600c6020526000908152604090205481565b6103aa6103a53660046129c8565b610c23565b6040516102619594939291906129ea565b60095461027d565b60075460ff16610255565b6102b36103dc36600461282e565b610d8d565b6102556103ef3660046129ad565b60106020526000908152604090205460ff1681565b6102de6104123660046129ad565b610d98565b6102556104253660046129c8565b600091825260116020908152604080842092845291905290205460ff1690565b61027d6104533660046129ad565b610e3a565b6102de610e82565b61025561046e3660046129c8565b601160209081526000928352604080842090915290825290205460ff1681565b6102de61049c3660046129c8565b610e96565b6102de6104af3660046129ad565b611031565b6102de61105a565b60075461010090046001600160a01b03166102b3565b61029361116d565b6102de6104e8366004612a45565b61117c565b6102de6104fb366004612af1565b61119e565b61027d61050e3660046129c8565b6111a9565b6102de6105213660046129c8565b6111da565b6102de610534366004612b24565b611348565b61033e61054736600461282e565b61135f565b61055f61055a36600461282e565b6114b4565b6040516102619190612ba0565b61027d61057a366004612be4565b611516565b61029361058d36600461282e565b611620565b6102556105a03660046129ad565b600f6020526000908152604090205460ff1681565b6102556105c3366004612c25565b61162b565b6102de6105d63660046129ad565b611659565b60006105e682611697565b92915050565b60006105f66116bc565b6105fe6116ef565b61060c600b86868686611713565b95945050505050565b60606000805461062490612c4f565b80601f016020809104026020016040519081016040528092919081815260200182805461065090612c4f565b801561069d5780601f106106725761010080835404028352916020019161069d565b820191906000526020600020905b81548152906001019060200180831161068057829003601f168201915b5050505050905090565b60006106b282611811565b506000828152600460205260409020546001600160a01b03166105e6565b6106db82823361184a565b5050565b600b602052600090815260409020805481906106fa90612c4f565b80601f016020809104026020016040519081016040528092919081815260200182805461072690612c4f565b80156107735780601f1061074857610100808354040283529160200191610773565b820191906000526020600020905b81548152906001019060200180831161075657829003601f168201915b505050506001830154600284015460038501546004860154600590960154949592949193509160ff169086565b6001600160a01b0382166107cf57604051633250574960e11b8152600060048201526024015b60405180910390fd5b60006107dc838333611857565b9050836001600160a01b0316816001600160a01b03161461082a576040516364283d7b60e01b81526001600160a01b03808616600483015260248201849052821660448201526064016107c6565b50505050565b6108386116ef565b6000838152600260205260409020546001600160a01b031661086c5760405162461bcd60e51b81526004016107c690612c89565b336000908152600f602052604090205460ff166108cb5760405162461bcd60e51b815260206004820152601760248201527f4e6f7420617574686f72697a6564206d65726368616e7400000000000000000060448201526064016107c6565b6000838152600c60205260409020548211156108f95760405162461bcd60e51b81526004016107c690612cb7565b6000838152600c602052604081208054849290610917908490612cfb565b9250508190555061094c600d843385604051806040016040528060078152602001661410565351539560ca1b81525086611950565b827fec928c2fe6632313165f754a793ab00b2cde005b5c7571959d3137d5c4d4ac67600c6000868152602001908152602001600020546040516109b0918152604060208201819052600790820152661410565351539560ca1b606082015260800190565b60405180910390a2505050565b60606000806000806060600080600a60008a81526020019081526020016000206040518060e00160405290816000820180546109f890612c4f565b80601f0160208091040260200160405190810160405280929190818152602001828054610a2490612c4f565b8015610a715780601f10610a4657610100808354040283529160200191610a71565b820191906000526020600020905b815481529060010190602001808311610a5457829003601f168201915b5050509183525050600182015460208201526002820154604082015260038201546060820152600482015460ff161515608082015260058201805460a090920191610abb90612c4f565b80601f0160208091040260200160405190810160405280929190818152602001828054610ae790612c4f565b8015610b345780601f10610b0957610100808354040283529160200191610b34565b820191906000526020600020905b815481529060010190602001808311610b1757829003601f168201915b50505091835250506006919091015460ff161515602090910152805151909150610ba05760405162461bcd60e51b815260206004820152601760248201527f54656d706c61746520646f6573206e6f7420657869737400000000000000000060448201526064016107c6565b8051602082015160408301516060840151608085015160a086015160c090960151949e939d50919b50995097509195509350915050565b610bdf6116bc565b6001600160a01b03166000908152600f60205260409020805460ff19166001179055565b610c1e83838360405180602001604052806000815250611348565b505050565b600d6020528160005260406000208181548110610c3f57600080fd5b600091825260209091206005909102018054600182015460028301546003840180549396506001600160a01b0390921694509291610c7c90612c4f565b80601f0160208091040260200160405190810160405280929190818152602001828054610ca890612c4f565b8015610cf55780601f10610cca57610100808354040283529160200191610cf5565b820191906000526020600020905b815481529060010190602001808311610cd857829003601f168201915b505050505090806004018054610d0a90612c4f565b80601f0160208091040260200160405190810160405280929190818152602001828054610d3690612c4f565b8015610d835780601f10610d5857610100808354040283529160200191610d83565b820191906000526020600020905b815481529060010190602001808311610d6657829003601f168201915b5050505050905085565b60006105e682611811565b610da06116bc565b6001600160a01b038116610dee5760405162461bcd60e51b8152602060048201526015602482015274496e76616c696420746f6b656e206164647265737360581b60448201526064016107c6565b6001600160a01b038116600081815260106020526040808220805460ff19166001179055517fd1be2e90bd3d24839d9dd94ad871068e1f9688b02fa43f2a62c9975dfa9de2d79190a250565b60006001600160a01b038216610e66576040516322718ad960e21b8152600060048201526024016107c6565b506001600160a01b031660009081526003602052604090205490565b610e8a6116bc565b610e946000611a38565b565b610e9e6116ef565b6000828152600260205260409020546001600160a01b0316610ed25760405162461bcd60e51b81526004016107c690612c89565b6000818152600b60205260409020610eed9060118385611a92565b506000828152600e6020908152604080832080548251818502810185019093528083528493830182828015610f4157602002820191906000526020600020905b815481526020019060010190808311610f2d575b5050505050905060005b8151811015610f8f5783828281518110610f6757610f67612d0e565b602002602001015103610f7d5760019250610f8f565b80610f8781612d24565b915050610f4b565b5081610fdd5760405162461bcd60e51b815260206004820152601860248201527f4e6f207469636b657420666f722074686973206576656e74000000000000000060448201526064016107c6565b6000838152601160209081526040808320878452909152808220805460ff1916600117905551859185917fad1954bc16d14df3fe44b8af75e0265eeb77d5be9e1bd0413f0eac16e1e37f6e9190a350505050565b6110396116bc565b6001600160a01b03166000908152600f60205260409020805460ff19169055565b6110626116bc565b6001600052600a6020527fbbc70db1b6c7afd11e79c0fb0051300458f1a3acb8ee9789d9b6b26c61ad9bc854156110db5760405162461bcd60e51b815260206004820152601d60248201527f54656d706c6174657320616c726561647920696e697469616c697a656400000060448201526064016107c6565b61112260016040518060400160405280600481526020016311dbdb1960e21b815250683635c9adc5dea0000080600080604051806020016040528060008152506001611b44565b610e94600260405180604001604052806008815260200167506c6174696e756d60c01b81525068a2a15d09519be0000080600080604051806020016040528060008152506001611b44565b60606001805461062490612c4f565b6111846116bc565b6111948888888888888888611b44565b5050505050505050565b6106db338383611cc8565b600e60205281600052604060002081815481106111c557600080fd5b90600052602060002001600091509150505481565b6111e26116ef565b6000828152600260205260409020546001600160a01b03166112165760405162461bcd60e51b81526004016107c690612c89565b6000818152600b60209081526040808320858452600c9092529091205461123d9190611d67565b611261600c83600b6000858152602001908152602001600020600101546001611e16565b6000818152600b6020526040812060030180549161127e83612d24565b90915550506000828152600e60209081526040808320805460018101825590845291832090910183905551829184917f41d60c8cad3c4e044896e072fb848c8f5d2e3e91c87a22a93d930c35aa1924039190a3817fec928c2fe6632313165f754a793ab00b2cde005b5c7571959d3137d5c4d4ac67600c60008581526020019081526020016000205460405161133c918152604060208201819052600e908201526d4556454e545f505552434841534560901b606082015260800190565b60405180910390a25050565b6113538484846107a0565b61082a84848484611e9c565b600a6020526000908152604090208054819061137a90612c4f565b80601f01602080910402602001604051908101604052809291908181526020018280546113a690612c4f565b80156113f35780601f106113c8576101008083540402835291602001916113f3565b820191906000526020600020905b8154815290600101906020018083116113d657829003601f168201915b50505060018401546002850154600386015460048701546005880180549798949793965091945060ff16929161142890612c4f565b80601f016020809104026020016040519081016040528092919081815260200182805461145490612c4f565b80156114a15780601f10611476576101008083540402835291602001916114a1565b820191906000526020600020905b81548152906001019060200180831161148457829003601f168201915b5050506006909301549192505060ff1687565b6000818152600e602090815260409182902080548351818402810184019094528084526060939283018282801561150a57602002820191906000526020600020905b8154815260200190600101908083116114f6575b50505050509050919050565b60006115206116ef565b6000848152600a602052604090206006015460ff166115775760405162461bcd60e51b815260206004820152601360248201527254656d706c617465206e6f742061637469766560681b60448201526064016107c6565b6008805490600061158783612d24565b90915550506008546115998482611fc5565b6115a38184611fdf565b6000858152600a6020818152604080842060010154858552600c83528185208190559389905291815281519283528201819052600490820152631352539560e21b606082015281907fec928c2fe6632313165f754a793ab00b2cde005b5c7571959d3137d5c4d4ac679060800160405180910390a2949350505050565b60606105e68261202f565b6001600160a01b03918216600090815260056020908152604080832093909416825291909152205460ff1690565b6116616116bc565b6001600160a01b03811661168b57604051631e4fbdf760e01b8152600060048201526024016107c6565b61169481611a38565b50565b60006001600160e01b03198216632483248360e11b14806105e657506105e682612140565b6007546001600160a01b03610100909104163314610e945760405163118cdaa760e01b81523360048201526024016107c6565b60075460ff1615610e945760405163d93c066560e01b815260040160405180910390fd5b6000808542604051602001611729929190612d3d565b60408051601f19818403018152828252805160209182012060c0840183528984528382018990528383018890526000606085018190526001608086015260a08501889052818152918b905291902082519193509081906117899082612dad565b5060208201516001820155604080830151600283015560608301516003830155608083015160048301805460ff191691151591909117905560a0909201516005909101555181907fee37bb5143a14810f72e86fce895be08e16090409d2e18f79b308995e39b73d4906117ff9089908890612e6d565b60405180910390a29695505050505050565b6000818152600260205260408120546001600160a01b0316806105e657604051637e27328960e01b8152600481018490526024016107c6565b610c1e8383836001612190565b6000828152600260205260408120546001600160a01b039081169083161561188457611884818486612296565b6001600160a01b038116156118c2576118a1600085600080612190565b6001600160a01b038116600090815260036020526040902080546000190190555b6001600160a01b038516156118f1576001600160a01b0385166000908152600360205260409020805460010190555b60008481526002602052604080822080546001600160a01b0319166001600160a01b0389811691821790925591518793918516917fddf252ad1be2c89b69c2b068fc378daa952ba7f163c4a11628f55a4df523b3ef91a4949350505050565b600085815260208781526040808320815160a0810183524281526001600160a01b038981168286019081529382018981526060830189815260808401899052845460018082018755958952969097208351600590970201958655935192850180546001600160a01b031916939091169290921790915590516002830155915160038201906119de9082612dad565b50608082015160048201906119f39082612dad565b505050847f131c2944ea68313084c40d9074bfd26611dbd83e4c0bc84f646b8645487089788385604051611a28929190612e6d565b60405180910390a2505050505050565b600780546001600160a01b03838116610100818102610100600160a81b031985161790945560405193909204169182907f8be0079c531659141344cd1fd0a4f28419497f9722a3daafe3b4186f6b6457e090600090a35050565b600484015460009060ff16611adc5760405162461bcd60e51b815260206004820152601060248201526f4576656e74206e6f742061637469766560801b60448201526064016107c6565b60008381526020858152604080832085845290915290205460ff1615611b395760405162461bcd60e51b815260206004820152601260248201527120b63932b0b23c9031b432b1b5b2b21034b760711b60448201526064016107c6565b506001949350505050565b611b4f87858a6122fa565b6000888152600a602052604090206001015415611bae5760405162461bcd60e51b815260206004820152601760248201527f54656d706c61746520616c72656164792065786973747300000000000000000060448201526064016107c6565b6040805160e081018252888152602080820189905281830188905260608201879052851515608083015260a0820185905283151560c083015260008b8152600a9091529190912081518190611c039082612dad565b50602082015160018201556040820151600282015560608201516003820155608082015160048201805460ff191691151591909117905560a08201516005820190611c4e9082612dad565b5060c091909101516006909101805460ff1916911515919091179055600954881115611c7a5760098890555b877fc0fdbb34fd837325f175bd973a8607230e48718904c92805638b65905f616d7d88888888888888604051611cb69796959493929190612957565b60405180910390a25050505050505050565b6001600160a01b038216611cfa57604051630b61174360e31b81526001600160a01b03831660048201526024016107c6565b6001600160a01b03838116600081815260056020908152604080832094871680845294825291829020805460ff191686151590811790915591519182527f17307eab39ab6107e8899845ad3d59bd9653f200f220920489ca2b5937696c31910160405180910390a3505050565b600482015460ff16611dae5760405162461bcd60e51b815260206004820152601060248201526f4576656e74206e6f742061637469766560801b60448201526064016107c6565b8160020154826003015410611df25760405162461bcd60e51b815260206004820152600a602482015269115d995b9d08199d5b1b60b21b60448201526064016107c6565b81600101548110156106db5760405162461bcd60e51b81526004016107c690612cb7565b8015611e7357600083815260208590526040902054821115611e4a5760405162461bcd60e51b81526004016107c690612cb7565b60008381526020859052604081208054849290611e68908490612cfb565b9091555061082a9050565b60008381526020859052604081208054849290611e91908490612e8f565b909155505050505050565b6001600160a01b0383163b1561082a57604051630a85bd0160e11b81526001600160a01b0384169063150b7a0290611ede903390889087908790600401612ea2565b6020604051808303816000875af1925050508015611f19575060408051601f3d908101601f19168201909252611f1691810190612edf565b60015b611f82573d808015611f47576040519150601f19603f3d011682016040523d82523d6000602084013e611f4c565b606091505b508051600003611f7a57604051633250574960e11b81526001600160a01b03851660048201526024016107c6565b805181602001fd5b6001600160e01b03198116630a85bd0160e11b14611fbe57604051633250574960e11b81526001600160a01b03851660048201526024016107c6565b5050505050565b6106db8282604051806020016040528060008152506123d9565b6000828152600660205260409020611ff78282612dad565b506040518281527ff8e1a15aba9398e019f0b49df1a4fde98ee17ae345cb5f6b5e2c27f5033e8ce79060200160405180910390a15050565b606061203a82611811565b506000828152600660205260408120805461205490612c4f565b80601f016020809104026020016040519081016040528092919081815260200182805461208090612c4f565b80156120cd5780601f106120a2576101008083540402835291602001916120cd565b820191906000526020600020905b8154815290600101906020018083116120b057829003601f168201915b5050505050905060006120eb60408051602081019091526000815290565b905080516000036120fd575092915050565b81511561212f578082604051602001612117929190612efc565b60405160208183030381529060405292505050919050565b612138846123f0565b949350505050565b60006001600160e01b031982166380ac58cd60e01b148061217157506001600160e01b03198216635b5e139f60e01b145b806105e657506301ffc9a760e01b6001600160e01b03198316146105e6565b80806121a457506001600160a01b03821615155b156122665760006121b484611811565b90506001600160a01b038316158015906121e05750826001600160a01b0316816001600160a01b031614155b80156121f357506121f1818461162b565b155b1561221c5760405163a9fbf51f60e01b81526001600160a01b03841660048201526024016107c6565b81156122645783856001600160a01b0316826001600160a01b03167f8c5be1e5ebec7d5bd14f71427d1e84f3dd0314c0f7b2291e5b200ac8c7c3b92560405160405180910390a45b505b5050600090815260046020526040902080546001600160a01b0319166001600160a01b0392909216919091179055565b6122a1838383612465565b610c1e576001600160a01b0383166122cf57604051637e27328960e01b8152600481018290526024016107c6565b60405163177e802f60e01b81526001600160a01b0383166004820152602481018290526044016107c6565b600081116123405760405162461bcd60e51b8152602060048201526013602482015272125b9d985b1a59081d195b5c1b185d19481251606a1b60448201526064016107c6565b60008351116123885760405162461bcd60e51b81526020600482015260146024820152734e616d652063616e6e6f7420626520656d70747960601b60448201526064016107c6565b6064821115610c1e5760405162461bcd60e51b815260206004820152601b60248201527f496e76616c696420646973636f756e742070657263656e74616765000000000060448201526064016107c6565b6123e383836124c8565b610c1e6000848484611e9c565b60606123fb82611811565b50600061241360408051602081019091526000815290565b90506000815111612433576040518060200160405280600081525061245e565b8061243d8461252d565b60405160200161244e929190612efc565b6040516020818303038152906040525b9392505050565b60006001600160a01b038316158015906121385750826001600160a01b0316846001600160a01b0316148061249f575061249f848461162b565b806121385750506000908152600460205260409020546001600160a01b03908116911614919050565b6001600160a01b0382166124f257604051633250574960e11b8152600060048201526024016107c6565b600061250083836000611857565b90506001600160a01b03811615610c1e576040516339e3563760e11b8152600060048201526024016107c6565b6060600061253a836125c0565b600101905060008167ffffffffffffffff81111561255a5761255a6126cb565b6040519080825280601f01601f191660200182016040528015612584576020820181803683370190505b5090508181016020015b600019016f181899199a1a9b1b9c1cb0b131b232b360811b600a86061a8153600a850494508461258e57509392505050565b60008072184f03e93ff9f4daa797ed6e38ed64bf6a1f0160401b83106125ff5772184f03e93ff9f4daa797ed6e38ed64bf6a1f0160401b830492506040015b6d04ee2d6d415b85acef8100000000831061262b576d04ee2d6d415b85acef8100000000830492506020015b662386f26fc10000831061264957662386f26fc10000830492506010015b6305f5e1008310612661576305f5e100830492506008015b612710831061267557612710830492506004015b60648310612687576064830492506002015b600a83106105e65760010192915050565b6001600160e01b03198116811461169457600080fd5b6000602082840312156126c057600080fd5b813561245e81612698565b634e487b7160e01b600052604160045260246000fd5b600067ffffffffffffffff808411156126fc576126fc6126cb565b604051601f8501601f19908116603f01168101908282118183101715612724576127246126cb565b8160405280935085815286868601111561273d57600080fd5b858560208301376000602087830101525050509392505050565b600082601f83011261276857600080fd5b61245e838335602085016126e1565b6000806000806080858703121561278d57600080fd5b843567ffffffffffffffff8111156127a457600080fd5b6127b087828801612757565b97602087013597506040870135966060013595509350505050565b60005b838110156127e65781810151838201526020016127ce565b50506000910152565b600081518084526128078160208601602086016127cb565b601f01601f19169290920160200192915050565b60208152600061245e60208301846127ef565b60006020828403121561284057600080fd5b5035919050565b80356001600160a01b038116811461285e57600080fd5b919050565b6000806040838503121561287657600080fd5b61287f83612847565b946020939093013593505050565b60c0815260006128a060c08301896127ef565b602083019790975250604081019490945260608401929092521515608083015260a090910152919050565b6000806000606084860312156128e057600080fd5b6128e984612847565b92506128f760208501612847565b9150604084013590509250925092565b60008060006060848603121561291c57600080fd5b8335925060208401359150604084013567ffffffffffffffff81111561294157600080fd5b61294d86828701612757565b9150509250925092565b60e08152600061296a60e083018a6127ef565b886020840152876040840152866060840152851515608084015282810360a084015261299681866127ef565b91505082151560c083015298975050505050505050565b6000602082840312156129bf57600080fd5b61245e82612847565b600080604083850312156129db57600080fd5b50508035926020909101359150565b85815260018060a01b038516602082015283604082015260a060608201526000612a1760a08301856127ef565b8281036080840152612a2981856127ef565b98975050505050505050565b8035801515811461285e57600080fd5b600080600080600080600080610100898b031215612a6257600080fd5b88359750602089013567ffffffffffffffff80821115612a8157600080fd5b612a8d8c838d01612757565b985060408b0135975060608b0135965060808b01359550612ab060a08c01612a35565b945060c08b0135915080821115612ac657600080fd5b50612ad38b828c01612757565b925050612ae260e08a01612a35565b90509295985092959890939650565b60008060408385031215612b0457600080fd5b612b0d83612847565b9150612b1b60208401612a35565b90509250929050565b60008060008060808587031215612b3a57600080fd5b612b4385612847565b9350612b5160208601612847565b925060408501359150606085013567ffffffffffffffff811115612b7457600080fd5b8501601f81018713612b8557600080fd5b612b94878235602084016126e1565b91505092959194509250565b6020808252825182820181905260009190848201906040850190845b81811015612bd857835183529284019291840191600101612bbc565b50909695505050505050565b600080600060608486031215612bf957600080fd5b83359250612c0960208501612847565b9150604084013567ffffffffffffffff81111561294157600080fd5b60008060408385031215612c3857600080fd5b612c4183612847565b9150612b1b60208401612847565b600181811c90821680612c6357607f821691505b602082108103612c8357634e487b7160e01b600052602260045260246000fd5b50919050565b602080825260149082015273151bdad95b88191bd95cc81b9bdd08195e1a5cdd60621b604082015260600190565b602080825260149082015273496e73756666696369656e742062616c616e636560601b604082015260600190565b634e487b7160e01b600052601160045260246000fd5b818103818111156105e6576105e6612ce5565b634e487b7160e01b600052603260045260246000fd5b600060018201612d3657612d36612ce5565b5060010190565b60008351612d4f8184602088016127cb565b9190910191825250602001919050565b601f821115610c1e57600081815260208120601f850160051c81016020861015612d865750805b601f850160051c820191505b81811015612da557828155600101612d92565b505050505050565b815167ffffffffffffffff811115612dc757612dc76126cb565b612ddb81612dd58454612c4f565b84612d5f565b602080601f831160018114612e105760008415612df85750858301515b600019600386901b1c1916600185901b178555612da5565b600085815260208120601f198616915b82811015612e3f57888601518255948401946001909101908401612e20565b5085821015612e5d5787850151600019600388901b60f8161c191681555b5050505050600190811b01905550565b604081526000612e8060408301856127ef565b90508260208301529392505050565b808201808211156105e6576105e6612ce5565b6001600160a01b0385811682528416602082015260408101839052608060608201819052600090612ed5908301846127ef565b9695505050505050565b600060208284031215612ef157600080fd5b815161245e81612698565b60008351612f0e8184602088016127cb565b835190830190612f228183602088016127cb565b0194935050505056fea26469706673582212209c439260d41bed6a54c323b85840b957389015019e7ed3433b2fcfe7dca563e764736f6c63430008140033","opcodes":"PUSH1 0x80 PUSH1 0x40 MSTORE CALLVALUE DUP1 ISZERO PUSH3 0x11 JUMPI PUSH1 0x0 DUP1 REVERT JUMPDEST POP CALLER PUSH1 0x40 MLOAD DUP1 PUSH1 0x40 ADD PUSH1 0x40 MSTORE DUP1 PUSH1 0xC DUP2 MSTORE PUSH1 0x20 ADD PUSH12 0x2BB0BB32AC1027232A102B19 PUSH1 0xA1 SHL DUP2 MSTORE POP PUSH1 0x40 MLOAD DUP1 PUSH1 0x40 ADD PUSH1 0x40 MSTORE DUP1 PUSH1 0x6 DUP2 MSTORE PUSH1 0x20 ADD PUSH6 0x2BA0AB22AC19 PUSH1 0xD1 SHL DUP2 MSTORE POP DUP2 PUSH1 0x0 SWAP1 DUP2 PUSH3 0x68 SWAP2 SWAP1 PUSH3 0x1C4 JUMP JUMPDEST POP PUSH1 0x1 PUSH3 0x77 DUP3 DUP3 PUSH3 0x1C4 JUMP JUMPDEST POP POP PUSH1 0x7 DUP1 SLOAD PUSH1 0xFF NOT AND SWAP1 SSTORE POP PUSH1 0x1 PUSH1 0x1 PUSH1 0xA0 SHL SUB DUP2 AND PUSH3 0xB3 JUMPI PUSH1 0x40 MLOAD PUSH4 0x1E4FBDF7 PUSH1 0xE0 SHL DUP2 MSTORE PUSH1 0x0 PUSH1 0x4 DUP3 ADD MSTORE PUSH1 0x24 ADD PUSH1 0x40 MLOAD DUP1 SWAP2 SUB SWAP1 REVERT JUMPDEST PUSH3 0xBE DUP2 PUSH3 0xC5 JUMP JUMPDEST POP PUSH3 0x290 JUMP JUMPDEST PUSH1 0x7 DUP1 SLOAD PUSH1 0x1 PUSH1 0x1 PUSH1 0xA0 SHL SUB DUP4 DUP2 AND PUSH2 0x100 DUP2 DUP2 MUL PUSH2 0x100 PUSH1 0x1 PUSH1 0xA8 SHL SUB NOT DUP6 AND OR SWAP1 SWAP5 SSTORE PUSH1 0x40 MLOAD SWAP4 SWAP1 SWAP3 DIV AND SWAP2 DUP3 SWAP1 PUSH32 0x8BE0079C531659141344CD1FD0A4F28419497F9722A3DAAFE3B4186F6B6457E0 SWAP1 PUSH1 0x0 SWAP1 LOG3 POP POP JUMP JUMPDEST PUSH4 0x4E487B71 PUSH1 0xE0 SHL PUSH1 0x0 MSTORE PUSH1 0x41 PUSH1 0x4 MSTORE PUSH1 0x24 PUSH1 0x0 REVERT JUMPDEST PUSH1 0x1 DUP2 DUP2 SHR SWAP1 DUP3 AND DUP1 PUSH3 0x14A JUMPI PUSH1 0x7F DUP3 AND SWAP2 POP JUMPDEST PUSH1 0x20 DUP3 LT DUP2 SUB PUSH3 0x16B JUMPI PUSH4 0x4E487B71 PUSH1 0xE0 SHL PUSH1 0x0 MSTORE PUSH1 0x22 PUSH1 0x4 MSTORE PUSH1 0x24 PUSH1 0x0 REVERT JUMPDEST POP SWAP2 SWAP1 POP JUMP JUMPDEST PUSH1 0x1F DUP3 GT ISZERO PUSH3 0x1BF JUMPI PUSH1 0x0 DUP2 DUP2 MSTORE PUSH1 0x20 DUP2 KECCAK256 PUSH1 0x1F DUP6 ADD PUSH1 0x5 SHR DUP2 ADD PUSH1 0x20 DUP7 LT ISZERO PUSH3 0x19A JUMPI POP DUP1 JUMPDEST PUSH1 0x1F DUP6 ADD PUSH1 0x5 SHR DUP3 ADD SWAP2 POP JUMPDEST DUP2 DUP2 LT ISZERO PUSH3 0x1BB JUMPI DUP3 DUP2 SSTORE PUSH1 0x1 ADD PUSH3 0x1A6 JUMP JUMPDEST POP POP POP JUMPDEST POP POP POP JUMP JUMPDEST DUP2 MLOAD PUSH1 0x1 PUSH1 0x1 PUSH1 0x40 SHL SUB DUP2 GT ISZERO PUSH3 0x1E0 JUMPI PUSH3 0x1E0 PUSH3 0x11F JUMP JUMPDEST PUSH3 0x1F8 DUP2 PUSH3 0x1F1 DUP5 SLOAD PUSH3 0x135 JUMP JUMPDEST DUP5 PUSH3 0x171 JUMP JUMPDEST PUSH1 0x20 DUP1 PUSH1 0x1F DUP4 GT PUSH1 0x1 DUP2 EQ PUSH3 0x230 JUMPI PUSH1 0x0 DUP5 ISZERO PUSH3 0x217 JUMPI POP DUP6 DUP4 ADD MLOAD JUMPDEST PUSH1 0x0 NOT PUSH1 0x3 DUP7 SWAP1 SHL SHR NOT AND PUSH1 0x1 DUP6 SWAP1 SHL OR DUP6 SSTORE PUSH3 0x1BB JUMP JUMPDEST PUSH1 0x0 DUP6 DUP2 MSTORE PUSH1 0x20 DUP2 KECCAK256 PUSH1 0x1F NOT DUP7 AND SWAP2 JUMPDEST DUP3 DUP2 LT ISZERO PUSH3 0x261 JUMPI DUP9 DUP7 ADD MLOAD DUP3 SSTORE SWAP5 DUP5 ADD SWAP5 PUSH1 0x1 SWAP1 SWAP2 ADD SWAP1 DUP5 ADD PUSH3 0x240 JUMP JUMPDEST POP DUP6 DUP3 LT ISZERO PUSH3 0x280 JUMPI DUP8 DUP6 ADD MLOAD PUSH1 0x0 NOT PUSH1 0x3 DUP9 SWAP1 SHL PUSH1 0xF8 AND SHR NOT AND DUP2 SSTORE JUMPDEST POP POP POP POP POP PUSH1 0x1 SWAP1 DUP2 SHL ADD SWAP1 SSTORE POP JUMP JUMPDEST PUSH2 0x2F61 DUP1 PUSH3 0x2A0 PUSH1 0x0 CODECOPY PUSH1 0x0 RETURN INVALID PUSH1 0x80 PUSH1 0x40 MSTORE CALLVALUE DUP1 ISZERO PUSH2 0x10 JUMPI PUSH1 0x0 DUP1 REVERT JUMPDEST POP PUSH1 0x4 CALLDATASIZE LT PUSH2 0x23D JUMPI PUSH1 0x0 CALLDATALOAD PUSH1 0xE0 SHR DUP1 PUSH4 0x70A08231 GT PUSH2 0x13B JUMPI DUP1 PUSH4 0xA871BD66 GT PUSH2 0xB8 JUMPI DUP1 PUSH4 0xC58D0686 GT PUSH2 0x7C JUMPI DUP1 PUSH4 0xC58D0686 EQ PUSH2 0x56C JUMPI DUP1 PUSH4 0xC87B56DD EQ PUSH2 0x57F JUMPI DUP1 PUSH4 0xCA2EFD38 EQ PUSH2 0x592 JUMPI DUP1 PUSH4 0xE985E9C5 EQ PUSH2 0x5B5 JUMPI DUP1 PUSH4 0xF2FDE38B EQ PUSH2 0x5C8 JUMPI PUSH1 0x0 DUP1 REVERT JUMPDEST DUP1 PUSH4 0xA871BD66 EQ PUSH2 0x500 JUMPI DUP1 PUSH4 0xB701B319 EQ PUSH2 0x513 JUMPI DUP1 PUSH4 0xB88D4FDE EQ PUSH2 0x526 JUMPI DUP1 PUSH4 0xBC525652 EQ PUSH2 0x539 JUMPI DUP1 PUSH4 0xC4754B77 EQ PUSH2 0x54C JUMPI PUSH1 0x0 DUP1 REVERT JUMPDEST DUP1 PUSH4 0x8AF5AE99 GT PUSH2 0xFF JUMPI DUP1 PUSH4 0x8AF5AE99 EQ PUSH2 0x4B4 JUMPI DUP1 PUSH4 0x8DA5CB5B EQ PUSH2 0x4BC JUMPI DUP1 PUSH4 0x95D89B41 EQ PUSH2 0x4D2 JUMPI DUP1 PUSH4 0x96651EC3 EQ PUSH2 0x4DA JUMPI DUP1 PUSH4 0xA22CB465 EQ PUSH2 0x4ED JUMPI PUSH1 0x0 DUP1 REVERT JUMPDEST DUP1 PUSH4 0x70A08231 EQ PUSH2 0x445 JUMPI DUP1 PUSH4 0x715018A6 EQ PUSH2 0x458 JUMPI DUP1 PUSH4 0x73DEB9FD EQ PUSH2 0x460 JUMPI DUP1 PUSH4 0x772A9C55 EQ PUSH2 0x48E JUMPI DUP1 PUSH4 0x819A701C EQ PUSH2 0x4A1 JUMPI PUSH1 0x0 DUP1 REVERT JUMPDEST DUP1 PUSH4 0x37AE9C13 GT PUSH2 0x1C9 JUMPI DUP1 PUSH4 0x5C975ABB GT PUSH2 0x18D JUMPI DUP1 PUSH4 0x5C975ABB EQ PUSH2 0x3C3 JUMPI DUP1 PUSH4 0x6352211E EQ PUSH2 0x3CE JUMPI DUP1 PUSH4 0x68C4AC26 EQ PUSH2 0x3E1 JUMPI DUP1 PUSH4 0x6D69FCAF EQ PUSH2 0x404 JUMPI DUP1 PUSH4 0x706CF3A0 EQ PUSH2 0x417 JUMPI PUSH1 0x0 DUP1 REVERT JUMPDEST DUP1 PUSH4 0x37AE9C13 EQ PUSH2 0x351 JUMPI DUP1 PUSH4 0x42842E0E EQ PUSH2 0x364 JUMPI DUP1 PUSH4 0x49AFC6E5 EQ PUSH2 0x377 JUMPI DUP1 PUSH4 0x4EAF9DB6 EQ PUSH2 0x397 JUMPI DUP1 PUSH4 0x5016959A EQ PUSH2 0x3BB JUMPI PUSH1 0x0 DUP1 REVERT JUMPDEST DUP1 PUSH4 0x95EA7B3 GT PUSH2 0x210 JUMPI DUP1 PUSH4 0x95EA7B3 EQ PUSH2 0x2CB JUMPI DUP1 PUSH4 0xB791430 EQ PUSH2 0x2E0 JUMPI DUP1 PUSH4 0x23B872DD EQ PUSH2 0x305 JUMPI DUP1 PUSH4 0x28342133 EQ PUSH2 0x318 JUMPI DUP1 PUSH4 0x31543CF4 EQ PUSH2 0x32B JUMPI PUSH1 0x0 DUP1 REVERT JUMPDEST DUP1 PUSH4 0x1FFC9A7 EQ PUSH2 0x242 JUMPI DUP1 PUSH4 0x374AB0B EQ PUSH2 0x26A JUMPI DUP1 PUSH4 0x6FDDE03 EQ PUSH2 0x28B JUMPI DUP1 PUSH4 0x81812FC EQ PUSH2 0x2A0 JUMPI JUMPDEST PUSH1 0x0 DUP1 REVERT JUMPDEST PUSH2 0x255 PUSH2 0x250 CALLDATASIZE PUSH1 0x4 PUSH2 0x26AE JUMP JUMPDEST PUSH2 0x5DB JUMP JUMPDEST PUSH1 0x40 MLOAD SWAP1 ISZERO ISZERO DUP2 MSTORE PUSH1 0x20 ADD JUMPDEST PUSH1 0x40 MLOAD DUP1 SWAP2 SUB SWAP1 RETURN JUMPDEST PUSH2 0x27D PUSH2 0x278 CALLDATASIZE PUSH1 0x4 PUSH2 0x2777 JUMP JUMPDEST PUSH2 0x5EC JUMP JUMPDEST PUSH1 0x40 MLOAD SWAP1 DUP2 MSTORE PUSH1 0x20 ADD PUSH2 0x261 JUMP JUMPDEST PUSH2 0x293 PUSH2 0x615 JUMP JUMPDEST PUSH1 0x40 MLOAD PUSH2 0x261 SWAP2 SWAP1 PUSH2 0x281B JUMP JUMPDEST PUSH2 0x2B3 PUSH2 0x2AE CALLDATASIZE PUSH1 0x4 PUSH2 0x282E JUMP JUMPDEST PUSH2 0x6A7 JUMP JUMPDEST PUSH1 0x40 MLOAD PUSH1 0x1 PUSH1 0x1 PUSH1 0xA0 SHL SUB SWAP1 SWAP2 AND DUP2 MSTORE PUSH1 0x20 ADD PUSH2 0x261 JUMP JUMPDEST PUSH2 0x2DE PUSH2 0x2D9 CALLDATASIZE PUSH1 0x4 PUSH2 0x2863 JUMP JUMPDEST PUSH2 0x6D0 JUMP JUMPDEST STOP JUMPDEST PUSH2 0x2F3 PUSH2 0x2EE CALLDATASIZE PUSH1 0x4 PUSH2 0x282E JUMP JUMPDEST PUSH2 0x6DF JUMP JUMPDEST PUSH1 0x40 MLOAD PUSH2 0x261 SWAP7 SWAP6 SWAP5 SWAP4 SWAP3 SWAP2 SWAP1 PUSH2 0x288D JUMP JUMPDEST PUSH2 0x2DE PUSH2 0x313 CALLDATASIZE PUSH1 0x4 PUSH2 0x28CB JUMP JUMPDEST PUSH2 0x7A0 JUMP JUMPDEST PUSH2 0x2DE PUSH2 0x326 CALLDATASIZE PUSH1 0x4 PUSH2 0x2907 JUMP JUMPDEST PUSH2 0x830 JUMP JUMPDEST PUSH2 0x33E PUSH2 0x339 CALLDATASIZE PUSH1 0x4 PUSH2 0x282E JUMP JUMPDEST PUSH2 0x9BD JUMP JUMPDEST PUSH1 0x40 MLOAD PUSH2 0x261 SWAP8 SWAP7 SWAP6 SWAP5 SWAP4 SWAP3 SWAP2 SWAP1 PUSH2 0x2957 JUMP JUMPDEST PUSH2 0x2DE PUSH2 0x35F CALLDATASIZE PUSH1 0x4 PUSH2 0x29AD JUMP JUMPDEST PUSH2 0xBD7 JUMP JUMPDEST PUSH2 0x2DE PUSH2 0x372 CALLDATASIZE PUSH1 0x4 PUSH2 0x28CB JUMP JUMPDEST PUSH2 0xC03 JUMP JUMPDEST PUSH2 0x27D PUSH2 0x385 CALLDATASIZE PUSH1 0x4 PUSH2 0x282E JUMP JUMPDEST PUSH1 0xC PUSH1 0x20 MSTORE PUSH1 0x0 SWAP1 DUP2 MSTORE PUSH1 0x40 SWAP1 KECCAK256 SLOAD DUP2 JUMP JUMPDEST PUSH2 0x3AA PUSH2 0x3A5 CALLDATASIZE PUSH1 0x4 PUSH2 0x29C8 JUMP JUMPDEST PUSH2 0xC23 JUMP JUMPDEST PUSH1 0x40 MLOAD PUSH2 0x261 SWAP6 SWAP5 SWAP4 SWAP3 SWAP2 SWAP1 PUSH2 0x29EA JUMP JUMPDEST PUSH1 0x9 SLOAD PUSH2 0x27D JUMP JUMPDEST PUSH1 0x7 SLOAD PUSH1 0xFF AND PUSH2 0x255 JUMP JUMPDEST PUSH2 0x2B3 PUSH2 0x3DC CALLDATASIZE PUSH1 0x4 PUSH2 0x282E JUMP JUMPDEST PUSH2 0xD8D JUMP JUMPDEST PUSH2 0x255 PUSH2 0x3EF CALLDATASIZE PUSH1 0x4 PUSH2 0x29AD JUMP JUMPDEST PUSH1 0x10 PUSH1 0x20 MSTORE PUSH1 0x0 SWAP1 DUP2 MSTORE PUSH1 0x40 SWAP1 KECCAK256 SLOAD PUSH1 0xFF AND DUP2 JUMP JUMPDEST PUSH2 0x2DE PUSH2 0x412 CALLDATASIZE PUSH1 0x4 PUSH2 0x29AD JUMP JUMPDEST PUSH2 0xD98 JUMP JUMPDEST PUSH2 0x255 PUSH2 0x425 CALLDATASIZE PUSH1 0x4 PUSH2 0x29C8 JUMP JUMPDEST PUSH1 0x0 SWAP2 DUP3 MSTORE PUSH1 0x11 PUSH1 0x20 SWAP1 DUP2 MSTORE PUSH1 0x40 DUP1 DUP5 KECCAK256 SWAP3 DUP5 MSTORE SWAP2 SWAP1 MSTORE SWAP1 KECCAK256 SLOAD PUSH1 0xFF AND SWAP1 JUMP JUMPDEST PUSH2 0x27D PUSH2 0x453 CALLDATASIZE PUSH1 0x4 PUSH2 0x29AD JUMP JUMPDEST PUSH2 0xE3A JUMP JUMPDEST PUSH2 0x2DE PUSH2 0xE82 JUMP JUMPDEST PUSH2 0x255 PUSH2 0x46E CALLDATASIZE PUSH1 0x4 PUSH2 0x29C8 JUMP JUMPDEST PUSH1 0x11 PUSH1 0x20 SWAP1 DUP2 MSTORE PUSH1 0x0 SWAP3 DUP4 MSTORE PUSH1 0x40 DUP1 DUP5 KECCAK256 SWAP1 SWAP2 MSTORE SWAP1 DUP3 MSTORE SWAP1 KECCAK256 SLOAD PUSH1 0xFF AND DUP2 JUMP JUMPDEST PUSH2 0x2DE PUSH2 0x49C CALLDATASIZE PUSH1 0x4 PUSH2 0x29C8 JUMP JUMPDEST PUSH2 0xE96 JUMP JUMPDEST PUSH2 0x2DE PUSH2 0x4AF CALLDATASIZE PUSH1 0x4 PUSH2 0x29AD JUMP JUMPDEST PUSH2 0x1031 JUMP JUMPDEST PUSH2 0x2DE PUSH2 0x105A JUMP JUMPDEST PUSH1 0x7 SLOAD PUSH2 0x100 SWAP1 DIV PUSH1 0x1 PUSH1 0x1 PUSH1 0xA0 SHL SUB AND PUSH2 0x2B3 JUMP JUMPDEST PUSH2 0x293 PUSH2 0x116D JUMP JUMPDEST PUSH2 0x2DE PUSH2 0x4E8 CALLDATASIZE PUSH1 0x4 PUSH2 0x2A45 JUMP JUMPDEST PUSH2 0x117C JUMP JUMPDEST PUSH2 0x2DE PUSH2 0x4FB CALLDATASIZE PUSH1 0x4 PUSH2 0x2AF1 JUMP JUMPDEST PUSH2 0x119E JUMP JUMPDEST PUSH2 0x27D PUSH2 0x50E CALLDATASIZE PUSH1 0x4 PUSH2 0x29C8 JUMP JUMPDEST PUSH2 0x11A9 JUMP JUMPDEST PUSH2 0x2DE PUSH2 0x521 CALLDATASIZE PUSH1 0x4 PUSH2 0x29C8 JUMP JUMPDEST PUSH2 0x11DA JUMP JUMPDEST PUSH2 0x2DE PUSH2 0x534 CALLDATASIZE PUSH1 0x4 PUSH2 0x2B24 JUMP JUMPDEST PUSH2 0x1348 JUMP JUMPDEST PUSH2 0x33E PUSH2 0x547 CALLDATASIZE PUSH1 0x4 PUSH2 0x282E JUMP JUMPDEST PUSH2 0x135F JUMP JUMPDEST PUSH2 0x55F PUSH2 0x55A CALLDATASIZE PUSH1 0x4 PUSH2 0x282E JUMP JUMPDEST PUSH2 0x14B4 JUMP JUMPDEST PUSH1 0x40 MLOAD PUSH2 0x261 SWAP2 SWAP1 PUSH2 0x2BA0 JUMP JUMPDEST PUSH2 0x27D PUSH2 0x57A CALLDATASIZE PUSH1 0x4 PUSH2 0x2BE4 JUMP JUMPDEST PUSH2 0x1516 JUMP JUMPDEST PUSH2 0x293 PUSH2 0x58D CALLDATASIZE PUSH1 0x4 PUSH2 0x282E JUMP JUMPDEST PUSH2 0x1620 JUMP JUMPDEST PUSH2 0x255 PUSH2 0x5A0 CALLDATASIZE PUSH1 0x4 PUSH2 0x29AD JUMP JUMPDEST PUSH1 0xF PUSH1 0x20 MSTORE PUSH1 0x0 SWAP1 DUP2 MSTORE PUSH1 0x40 SWAP1 KECCAK256 SLOAD PUSH1 0xFF AND DUP2 JUMP JUMPDEST PUSH2 0x255 PUSH2 0x5C3 CALLDATASIZE PUSH1 0x4 PUSH2 0x2C25 JUMP JUMPDEST PUSH2 0x162B JUMP JUMPDEST PUSH2 0x2DE PUSH2 0x5D6 CALLDATASIZE PUSH1 0x4 PUSH2 0x29AD JUMP JUMPDEST PUSH2 0x1659 JUMP JUMPDEST PUSH1 0x0 PUSH2 0x5E6 DUP3 PUSH2 0x1697 JUMP JUMPDEST SWAP3 SWAP2 POP POP JUMP JUMPDEST PUSH1 0x0 PUSH2 0x5F6 PUSH2 0x16BC JUMP JUMPDEST PUSH2 0x5FE PUSH2 0x16EF JUMP JUMPDEST PUSH2 0x60C PUSH1 0xB DUP7 DUP7 DUP7 DUP7 PUSH2 0x1713 JUMP JUMPDEST SWAP6 SWAP5 POP POP POP POP POP JUMP JUMPDEST PUSH1 0x60 PUSH1 0x0 DUP1 SLOAD PUSH2 0x624 SWAP1 PUSH2 0x2C4F JUMP JUMPDEST DUP1 PUSH1 0x1F ADD PUSH1 0x20 DUP1 SWAP2 DIV MUL PUSH1 0x20 ADD PUSH1 0x40 MLOAD SWAP1 DUP2 ADD PUSH1 0x40 MSTORE DUP1 SWAP3 SWAP2 SWAP1 DUP2 DUP2 MSTORE PUSH1 0x20 ADD DUP3 DUP1 SLOAD PUSH2 0x650 SWAP1 PUSH2 0x2C4F JUMP JUMPDEST DUP1 ISZERO PUSH2 0x69D JUMPI DUP1 PUSH1 0x1F LT PUSH2 0x672 JUMPI PUSH2 0x100 DUP1 DUP4 SLOAD DIV MUL DUP4 MSTORE SWAP2 PUSH1 0x20 ADD SWAP2 PUSH2 0x69D JUMP JUMPDEST DUP3 ADD SWAP2 SWAP1 PUSH1 0x0 MSTORE PUSH1 0x20 PUSH1 0x0 KECCAK256 SWAP1 JUMPDEST DUP2 SLOAD DUP2 MSTORE SWAP1 PUSH1 0x1 ADD SWAP1 PUSH1 0x20 ADD DUP1 DUP4 GT PUSH2 0x680 JUMPI DUP3 SWAP1 SUB PUSH1 0x1F AND DUP3 ADD SWAP2 JUMPDEST POP POP POP POP POP SWAP1 POP SWAP1 JUMP JUMPDEST PUSH1 0x0 PUSH2 0x6B2 DUP3 PUSH2 0x1811 JUMP JUMPDEST POP PUSH1 0x0 DUP3 DUP2 MSTORE PUSH1 0x4 PUSH1 0x20 MSTORE PUSH1 0x40 SWAP1 KECCAK256 SLOAD PUSH1 0x1 PUSH1 0x1 PUSH1 0xA0 SHL SUB AND PUSH2 0x5E6 JUMP JUMPDEST PUSH2 0x6DB DUP3 DUP3 CALLER PUSH2 0x184A JUMP JUMPDEST POP POP JUMP JUMPDEST PUSH1 0xB PUSH1 0x20 MSTORE PUSH1 0x0 SWAP1 DUP2 MSTORE PUSH1 0x40 SWAP1 KECCAK256 DUP1 SLOAD DUP2 SWAP1 PUSH2 0x6FA SWAP1 PUSH2 0x2C4F JUMP JUMPDEST DUP1 PUSH1 0x1F ADD PUSH1 0x20 DUP1 SWAP2 DIV MUL PUSH1 0x20 ADD PUSH1 0x40 MLOAD SWAP1 DUP2 ADD PUSH1 0x40 MSTORE DUP1 SWAP3 SWAP2 SWAP1 DUP2 DUP2 MSTORE PUSH1 0x20 ADD DUP3 DUP1 SLOAD PUSH2 0x726 SWAP1 PUSH2 0x2C4F JUMP JUMPDEST DUP1 ISZERO PUSH2 0x773 JUMPI DUP1 PUSH1 0x1F LT PUSH2 0x748 JUMPI PUSH2 0x100 DUP1 DUP4 SLOAD DIV MUL DUP4 MSTORE SWAP2 PUSH1 0x20 ADD SWAP2 PUSH2 0x773 JUMP JUMPDEST DUP3 ADD SWAP2 SWAP1 PUSH1 0x0 MSTORE PUSH1 0x20 PUSH1 0x0 KECCAK256 SWAP1 JUMPDEST DUP2 SLOAD DUP2 MSTORE SWAP1 PUSH1 0x1 ADD SWAP1 PUSH1 0x20 ADD DUP1 DUP4 GT PUSH2 0x756 JUMPI DUP3 SWAP1 SUB PUSH1 0x1F AND DUP3 ADD SWAP2 JUMPDEST POP POP POP POP PUSH1 0x1 DUP4 ADD SLOAD PUSH1 0x2 DUP5 ADD SLOAD PUSH1 0x3 DUP6 ADD SLOAD PUSH1 0x4 DUP7 ADD SLOAD PUSH1 0x5 SWAP1 SWAP7 ADD SLOAD SWAP5 SWAP6 SWAP3 SWAP5 SWAP2 SWAP4 POP SWAP2 PUSH1 0xFF AND SWAP1 DUP7 JUMP JUMPDEST PUSH1 0x1 PUSH1 0x1 PUSH1 0xA0 SHL SUB DUP3 AND PUSH2 0x7CF JUMPI PUSH1 0x40 MLOAD PUSH4 0x32505749 PUSH1 0xE1 SHL DUP2 MSTORE PUSH1 0x0 PUSH1 0x4 DUP3 ADD MSTORE PUSH1 0x24 ADD JUMPDEST PUSH1 0x40 MLOAD DUP1 SWAP2 SUB SWAP1 REVERT JUMPDEST PUSH1 0x0 PUSH2 0x7DC DUP4 DUP4 CALLER PUSH2 0x1857 JUMP JUMPDEST SWAP1 POP DUP4 PUSH1 0x1 PUSH1 0x1 PUSH1 0xA0 SHL SUB AND DUP2 PUSH1 0x1 PUSH1 0x1 PUSH1 0xA0 SHL SUB AND EQ PUSH2 0x82A JUMPI PUSH1 0x40 MLOAD PUSH4 0x64283D7B PUSH1 0xE0 SHL DUP2 MSTORE PUSH1 0x1 PUSH1 0x1 PUSH1 0xA0 SHL SUB DUP1 DUP7 AND PUSH1 0x4 DUP4 ADD MSTORE PUSH1 0x24 DUP3 ADD DUP5 SWAP1 MSTORE DUP3 AND PUSH1 0x44 DUP3 ADD MSTORE PUSH1 0x64 ADD PUSH2 0x7C6 JUMP JUMPDEST POP POP POP POP JUMP JUMPDEST PUSH2 0x838 PUSH2 0x16EF JUMP JUMPDEST PUSH1 0x0 DUP4 DUP2 MSTORE PUSH1 0x2 PUSH1 0x20 MSTORE PUSH1 0x40 SWAP1 KECCAK256 SLOAD PUSH1 0x1 PUSH1 0x1 PUSH1 0xA0 SHL SUB AND PUSH2 0x86C JUMPI PUSH1 0x40 MLOAD PUSH3 0x461BCD PUSH1 0xE5 SHL DUP2 MSTORE PUSH1 0x4 ADD PUSH2 0x7C6 SWAP1 PUSH2 0x2C89 JUMP JUMPDEST CALLER PUSH1 0x0 SWAP1 DUP2 MSTORE PUSH1 0xF PUSH1 0x20 MSTORE PUSH1 0x40 SWAP1 KECCAK256 SLOAD PUSH1 0xFF AND PUSH2 0x8CB JUMPI PUSH1 0x40 MLOAD PUSH3 0x461BCD PUSH1 0xE5 SHL DUP2 MSTORE PUSH1 0x20 PUSH1 0x4 DUP3 ADD MSTORE PUSH1 0x17 PUSH1 0x24 DUP3 ADD MSTORE PUSH32 0x4E6F7420617574686F72697A6564206D65726368616E74000000000000000000 PUSH1 0x44 DUP3 ADD MSTORE PUSH1 0x64 ADD PUSH2 0x7C6 JUMP JUMPDEST PUSH1 0x0 DUP4 DUP2 MSTORE PUSH1 0xC PUSH1 0x20 MSTORE PUSH1 0x40 SWAP1 KECCAK256 SLOAD DUP3 GT ISZERO PUSH2 0x8F9 JUMPI PUSH1 0x40 MLOAD PUSH3 0x461BCD PUSH1 0xE5 SHL DUP2 MSTORE PUSH1 0x4 ADD PUSH2 0x7C6 SWAP1 PUSH2 0x2CB7 JUMP JUMPDEST PUSH1 0x0 DUP4 DUP2 MSTORE PUSH1 0xC PUSH1 0x20 MSTORE PUSH1 0x40 DUP2 KECCAK256 DUP1 SLOAD DUP5 SWAP3 SWAP1 PUSH2 0x917 SWAP1 DUP5 SWAP1 PUSH2 0x2CFB JUMP JUMPDEST SWAP3 POP POP DUP2 SWAP1 SSTORE POP PUSH2 0x94C PUSH1 0xD DUP5 CALLER DUP6 PUSH1 0x40 MLOAD DUP1 PUSH1 0x40 ADD PUSH1 0x40 MSTORE DUP1 PUSH1 0x7 DUP2 MSTORE PUSH1 0x20 ADD PUSH7 0x14105653515395 PUSH1 0xCA SHL DUP2 MSTORE POP DUP7 PUSH2 0x1950 JUMP JUMPDEST DUP3 PUSH32 0xEC928C2FE6632313165F754A793AB00B2CDE005B5C7571959D3137D5C4D4AC67 PUSH1 0xC PUSH1 0x0 DUP7 DUP2 MSTORE PUSH1 0x20 ADD SWAP1 DUP2 MSTORE PUSH1 0x20 ADD PUSH1 0x0 KECCAK256 SLOAD PUSH1 0x40 MLOAD PUSH2 0x9B0 SWAP2 DUP2 MSTORE PUSH1 0x40 PUSH1 0x20 DUP3 ADD DUP2 SWAP1 MSTORE PUSH1 0x7 SWAP1 DUP3 ADD MSTORE PUSH7 0x14105653515395 PUSH1 0xCA SHL PUSH1 0x60 DUP3 ADD MSTORE PUSH1 0x80 ADD SWAP1 JUMP JUMPDEST PUSH1 0x40 MLOAD DUP1 SWAP2 SUB SWAP1 LOG2 POP POP POP JUMP JUMPDEST PUSH1 0x60 PUSH1 0x0 DUP1 PUSH1 0x0 DUP1 PUSH1 0x60 PUSH1 0x0 DUP1 PUSH1 0xA PUSH1 0x0 DUP11 DUP2 MSTORE PUSH1 0x20 ADD SWAP1 DUP2 MSTORE PUSH1 0x20 ADD PUSH1 0x0 KECCAK256 PUSH1 0x40 MLOAD DUP1 PUSH1 0xE0 ADD PUSH1 0x40 MSTORE SWAP1 DUP2 PUSH1 0x0 DUP3 ADD DUP1 SLOAD PUSH2 0x9F8 SWAP1 PUSH2 0x2C4F JUMP JUMPDEST DUP1 PUSH1 0x1F ADD PUSH1 0x20 DUP1 SWAP2 DIV MUL PUSH1 0x20 ADD PUSH1 0x40 MLOAD SWAP1 DUP2 ADD PUSH1 0x40 MSTORE DUP1 SWAP3 SWAP2 SWAP1 DUP2 DUP2 MSTORE PUSH1 0x20 ADD DUP3 DUP1 SLOAD PUSH2 0xA24 SWAP1 PUSH2 0x2C4F JUMP JUMPDEST DUP1 ISZERO PUSH2 0xA71 JUMPI DUP1 PUSH1 0x1F LT PUSH2 0xA46 JUMPI PUSH2 0x100 DUP1 DUP4 SLOAD DIV MUL DUP4 MSTORE SWAP2 PUSH1 0x20 ADD SWAP2 PUSH2 0xA71 JUMP JUMPDEST DUP3 ADD SWAP2 SWAP1 PUSH1 0x0 MSTORE PUSH1 0x20 PUSH1 0x0 KECCAK256 SWAP1 JUMPDEST DUP2 SLOAD DUP2 MSTORE SWAP1 PUSH1 0x1 ADD SWAP1 PUSH1 0x20 ADD DUP1 DUP4 GT PUSH2 0xA54 JUMPI DUP3 SWAP1 SUB PUSH1 0x1F AND DUP3 ADD SWAP2 JUMPDEST POP POP POP SWAP2 DUP4 MSTORE POP POP PUSH1 0x1 DUP3 ADD SLOAD PUSH1 0x20 DUP3 ADD MSTORE PUSH1 0x2 DUP3 ADD SLOAD PUSH1 0x40 DUP3 ADD MSTORE PUSH1 0x3 DUP3 ADD SLOAD PUSH1 0x60 DUP3 ADD MSTORE PUSH1 0x4 DUP3 ADD SLOAD PUSH1 0xFF AND ISZERO ISZERO PUSH1 0x80 DUP3 ADD MSTORE PUSH1 0x5 DUP3 ADD DUP1 SLOAD PUSH1 0xA0 SWAP1 SWAP3 ADD SWAP2 PUSH2 0xABB SWAP1 PUSH2 0x2C4F JUMP JUMPDEST DUP1 PUSH1 0x1F ADD PUSH1 0x20 DUP1 SWAP2 DIV MUL PUSH1 0x20 ADD PUSH1 0x40 MLOAD SWAP1 DUP2 ADD PUSH1 0x40 MSTORE DUP1 SWAP3 SWAP2 SWAP1 DUP2 DUP2 MSTORE PUSH1 0x20 ADD DUP3 DUP1 SLOAD PUSH2 0xAE7 SWAP1 PUSH2 0x2C4F JUMP JUMPDEST DUP1 ISZERO PUSH2 0xB34 JUMPI DUP1 PUSH1 0x1F LT PUSH2 0xB09 JUMPI PUSH2 0x100 DUP1 DUP4 SLOAD DIV MUL DUP4 MSTORE SWAP2 PUSH1 0x20 ADD SWAP2 PUSH2 0xB34 JUMP JUMPDEST DUP3 ADD SWAP2 SWAP1 PUSH1 0x0 MSTORE PUSH1 0x20 PUSH1 0x0 KECCAK256 SWAP1 JUMPDEST DUP2 SLOAD DUP2 MSTORE SWAP1 PUSH1 0x1 ADD SWAP1 PUSH1 0x20 ADD DUP1 DUP4 GT PUSH2 0xB17 JUMPI DUP3 SWAP1 SUB PUSH1 0x1F AND DUP3 ADD SWAP2 JUMPDEST POP POP POP SWAP2 DUP4 MSTORE POP POP PUSH1 0x6 SWAP2 SWAP1 SWAP2 ADD SLOAD PUSH1 0xFF AND ISZERO ISZERO PUSH1 0x20 SWAP1 SWAP2 ADD MSTORE DUP1 MLOAD MLOAD SWAP1 SWAP2 POP PUSH2 0xBA0 JUMPI PUSH1 0x40 MLOAD PUSH3 0x461BCD PUSH1 0xE5 SHL DUP2 MSTORE PUSH1 0x20 PUSH1 0x4 DUP3 ADD MSTORE PUSH1 0x17 PUSH1 0x24 DUP3 ADD MSTORE PUSH32 0x54656D706C61746520646F6573206E6F74206578697374000000000000000000 PUSH1 0x44 DUP3 ADD MSTORE PUSH1 0x64 ADD PUSH2 0x7C6 JUMP JUMPDEST DUP1 MLOAD PUSH1 0x20 DUP3 ADD MLOAD PUSH1 0x40 DUP4 ADD MLOAD PUSH1 0x60 DUP5 ADD MLOAD PUSH1 0x80 DUP6 ADD MLOAD PUSH1 0xA0 DUP7 ADD MLOAD PUSH1 0xC0 SWAP1 SWAP7 ADD MLOAD SWAP5 SWAP15 SWAP4 SWAP14 POP SWAP2 SWAP12 POP SWAP10 POP SWAP8 POP SWAP2 SWAP6 POP SWAP4 POP SWAP2 POP POP JUMP JUMPDEST PUSH2 0xBDF PUSH2 0x16BC JUMP JUMPDEST PUSH1 0x1 PUSH1 0x1 PUSH1 0xA0 SHL SUB AND PUSH1 0x0 SWAP1 DUP2 MSTORE PUSH1 0xF PUSH1 0x20 MSTORE PUSH1 0x40 SWAP1 KECCAK256 DUP1 SLOAD PUSH1 0xFF NOT AND PUSH1 0x1 OR SWAP1 SSTORE JUMP JUMPDEST PUSH2 0xC1E DUP4 DUP4 DUP4 PUSH1 0x40 MLOAD DUP1 PUSH1 0x20 ADD PUSH1 0x40 MSTORE DUP1 PUSH1 0x0 DUP2 MSTORE POP PUSH2 0x1348 JUMP JUMPDEST POP POP POP JUMP JUMPDEST PUSH1 0xD PUSH1 0x20 MSTORE DUP2 PUSH1 0x0 MSTORE PUSH1 0x40 PUSH1 0x0 KECCAK256 DUP2 DUP2 SLOAD DUP2 LT PUSH2 0xC3F JUMPI PUSH1 0x0 DUP1 REVERT JUMPDEST PUSH1 0x0 SWAP2 DUP3 MSTORE PUSH1 0x20 SWAP1 SWAP2 KECCAK256 PUSH1 0x5 SWAP1 SWAP2 MUL ADD DUP1 SLOAD PUSH1 0x1 DUP3 ADD SLOAD PUSH1 0x2 DUP4 ADD SLOAD PUSH1 0x3 DUP5 ADD DUP1 SLOAD SWAP4 SWAP7 POP PUSH1 0x1 PUSH1 0x1 PUSH1 0xA0 SHL SUB SWAP1 SWAP3 AND SWAP5 POP SWAP3 SWAP2 PUSH2 0xC7C SWAP1 PUSH2 0x2C4F JUMP JUMPDEST DUP1 PUSH1 0x1F ADD PUSH1 0x20 DUP1 SWAP2 DIV MUL PUSH1 0x20 ADD PUSH1 0x40 MLOAD SWAP1 DUP2 ADD PUSH1 0x40 MSTORE DUP1 SWAP3 SWAP2 SWAP1 DUP2 DUP2 MSTORE PUSH1 0x20 ADD DUP3 DUP1 SLOAD PUSH2 0xCA8 SWAP1 PUSH2 0x2C4F JUMP JUMPDEST DUP1 ISZERO PUSH2 0xCF5 JUMPI DUP1 PUSH1 0x1F LT PUSH2 0xCCA JUMPI PUSH2 0x100 DUP1 DUP4 SLOAD DIV MUL DUP4 MSTORE SWAP2 PUSH1 0x20 ADD SWAP2 PUSH2 0xCF5 JUMP JUMPDEST DUP3 ADD SWAP2 SWAP1 PUSH1 0x0 MSTORE PUSH1 0x20 PUSH1 0x0 KECCAK256 SWAP1 JUMPDEST DUP2 SLOAD DUP2 MSTORE SWAP1 PUSH1 0x1 ADD SWAP1 PUSH1 0x20 ADD DUP1 DUP4 GT PUSH2 0xCD8 JUMPI DUP3 SWAP1 SUB PUSH1 0x1F AND DUP3 ADD SWAP2 JUMPDEST POP POP POP POP POP SWAP1 DUP1 PUSH1 0x4 ADD DUP1 SLOAD PUSH2 0xD0A SWAP1 PUSH2 0x2C4F JUMP JUMPDEST DUP1 PUSH1 0x1F ADD PUSH1 0x20 DUP1 SWAP2 DIV MUL PUSH1 0x20 ADD PUSH1 0x40 MLOAD SWAP1 DUP2 ADD PUSH1 0x40 MSTORE DUP1 SWAP3 SWAP2 SWAP1 DUP2 DUP2 MSTORE PUSH1 0x20 ADD DUP3 DUP1 SLOAD PUSH2 0xD36 SWAP1 PUSH2 0x2C4F JUMP JUMPDEST DUP1 ISZERO PUSH2 0xD83 JUMPI DUP1 PUSH1 0x1F LT PUSH2 0xD58 JUMPI PUSH2 0x100 DUP1 DUP4 SLOAD DIV MUL DUP4 MSTORE SWAP2 PUSH1 0x20 ADD SWAP2 PUSH2 0xD83 JUMP JUMPDEST DUP3 ADD SWAP2 SWAP1 PUSH1 0x0 MSTORE PUSH1 0x20 PUSH1 0x0 KECCAK256 SWAP1 JUMPDEST DUP2 SLOAD DUP2 MSTORE SWAP1 PUSH1 0x1 ADD SWAP1 PUSH1 0x20 ADD DUP1 DUP4 GT PUSH2 0xD66 JUMPI DUP3 SWAP1 SUB PUSH1 0x1F AND DUP3 ADD SWAP2 JUMPDEST POP POP POP POP POP SWAP1 POP DUP6 JUMP JUMPDEST PUSH1 0x0 PUSH2 0x5E6 DUP3 PUSH2 0x1811 JUMP JUMPDEST PUSH2 0xDA0 PUSH2 0x16BC JUMP JUMPDEST PUSH1 0x1 PUSH1 0x1 PUSH1 0xA0 SHL SUB DUP2 AND PUSH2 0xDEE JUMPI PUSH1 0x40 MLOAD PUSH3 0x461BCD PUSH1 0xE5 SHL DUP2 MSTORE PUSH1 0x20 PUSH1 0x4 DUP3 ADD MSTORE PUSH1 0x15 PUSH1 0x24 DUP3 ADD MSTORE PUSH21 0x496E76616C696420746F6B656E2061646472657373 PUSH1 0x58 SHL PUSH1 0x44 DUP3 ADD MSTORE PUSH1 0x64 ADD PUSH2 0x7C6 JUMP JUMPDEST PUSH1 0x1 PUSH1 0x1 PUSH1 0xA0 SHL SUB DUP2 AND PUSH1 0x0 DUP2 DUP2 MSTORE PUSH1 0x10 PUSH1 0x20 MSTORE PUSH1 0x40 DUP1 DUP3 KECCAK256 DUP1 SLOAD PUSH1 0xFF NOT AND PUSH1 0x1 OR SWAP1 SSTORE MLOAD PUSH32 0xD1BE2E90BD3D24839D9DD94AD871068E1F9688B02FA43F2A62C9975DFA9DE2D7 SWAP2 SWAP1 LOG2 POP JUMP JUMPDEST PUSH1 0x0 PUSH1 0x1 PUSH1 0x1 PUSH1 0xA0 SHL SUB DUP3 AND PUSH2 0xE66 JUMPI PUSH1 0x40 MLOAD PUSH4 0x22718AD9 PUSH1 0xE2 SHL DUP2 MSTORE PUSH1 0x0 PUSH1 0x4 DUP3 ADD MSTORE PUSH1 0x24 ADD PUSH2 0x7C6 JUMP JUMPDEST POP PUSH1 0x1 PUSH1 0x1 PUSH1 0xA0 SHL SUB AND PUSH1 0x0 SWAP1 DUP2 MSTORE PUSH1 0x3 PUSH1 0x20 MSTORE PUSH1 0x40 SWAP1 KECCAK256 SLOAD SWAP1 JUMP JUMPDEST PUSH2 0xE8A PUSH2 0x16BC JUMP JUMPDEST PUSH2 0xE94 PUSH1 0x0 PUSH2 0x1A38 JUMP JUMPDEST JUMP JUMPDEST PUSH2 0xE9E PUSH2 0x16EF JUMP JUMPDEST PUSH1 0x0 DUP3 DUP2 MSTORE PUSH1 0x2 PUSH1 0x20 MSTORE PUSH1 0x40 SWAP1 KECCAK256 SLOAD PUSH1 0x1 PUSH1 0x1 PUSH1 0xA0 SHL SUB AND PUSH2 0xED2 JUMPI PUSH1 0x40 MLOAD PUSH3 0x461BCD PUSH1 0xE5 SHL DUP2 MSTORE PUSH1 0x4 ADD PUSH2 0x7C6 SWAP1 PUSH2 0x2C89 JUMP JUMPDEST PUSH1 0x0 DUP2 DUP2 MSTORE PUSH1 0xB PUSH1 0x20 MSTORE PUSH1 0x40 SWAP1 KECCAK256 PUSH2 0xEED SWAP1 PUSH1 0x11 DUP4 DUP6 PUSH2 0x1A92 JUMP JUMPDEST POP PUSH1 0x0 DUP3 DUP2 MSTORE PUSH1 0xE PUSH1 0x20 SWAP1 DUP2 MSTORE PUSH1 0x40 DUP1 DUP4 KECCAK256 DUP1 SLOAD DUP3 MLOAD DUP2 DUP6 MUL DUP2 ADD DUP6 ADD SWAP1 SWAP4 MSTORE DUP1 DUP4 MSTORE DUP5 SWAP4 DUP4 ADD DUP3 DUP3 DUP1 ISZERO PUSH2 0xF41 JUMPI PUSH1 0x20 MUL DUP3 ADD SWAP2 SWAP1 PUSH1 0x0 MSTORE PUSH1 0x20 PUSH1 0x0 KECCAK256 SWAP1 JUMPDEST DUP2 SLOAD DUP2 MSTORE PUSH1 0x20 ADD SWAP1 PUSH1 0x1 ADD SWAP1 DUP1 DUP4 GT PUSH2 0xF2D JUMPI JUMPDEST POP POP POP POP POP SWAP1 POP PUSH1 0x0 JUMPDEST DUP2 MLOAD DUP2 LT ISZERO PUSH2 0xF8F JUMPI DUP4 DUP3 DUP3 DUP2 MLOAD DUP2 LT PUSH2 0xF67 JUMPI PUSH2 0xF67 PUSH2 0x2D0E JUMP JUMPDEST PUSH1 0x20 MUL PUSH1 0x20 ADD ADD MLOAD SUB PUSH2 0xF7D JUMPI PUSH1 0x1 SWAP3 POP PUSH2 0xF8F JUMP JUMPDEST DUP1 PUSH2 0xF87 DUP2 PUSH2 0x2D24 JUMP JUMPDEST SWAP2 POP POP PUSH2 0xF4B JUMP JUMPDEST POP DUP2 PUSH2 0xFDD JUMPI PUSH1 0x40 MLOAD PUSH3 0x461BCD PUSH1 0xE5 SHL DUP2 MSTORE PUSH1 0x20 PUSH1 0x4 DUP3 ADD MSTORE PUSH1 0x18 PUSH1 0x24 DUP3 ADD MSTORE PUSH32 0x4E6F207469636B657420666F722074686973206576656E740000000000000000 PUSH1 0x44 DUP3 ADD MSTORE PUSH1 0x64 ADD PUSH2 0x7C6 JUMP JUMPDEST PUSH1 0x0 DUP4 DUP2 MSTORE PUSH1 0x11 PUSH1 0x20 SWAP1 DUP2 MSTORE PUSH1 0x40 DUP1 DUP4 KECCAK256 DUP8 DUP5 MSTORE SWAP1 SWAP2 MSTORE DUP1 DUP3 KECCAK256 DUP1 SLOAD PUSH1 0xFF NOT AND PUSH1 0x1 OR SWAP1 SSTORE MLOAD DUP6 SWAP2 DUP6 SWAP2 PUSH32 0xAD1954BC16D14DF3FE44B8AF75E0265EEB77D5BE9E1BD0413F0EAC16E1E37F6E SWAP2 SWAP1 LOG3 POP POP POP POP JUMP JUMPDEST PUSH2 0x1039 PUSH2 0x16BC JUMP JUMPDEST PUSH1 0x1 PUSH1 0x1 PUSH1 0xA0 SHL SUB AND PUSH1 0x0 SWAP1 DUP2 MSTORE PUSH1 0xF PUSH1 0x20 MSTORE PUSH1 0x40 SWAP1 KECCAK256 DUP1 SLOAD PUSH1 0xFF NOT AND SWAP1 SSTORE JUMP JUMPDEST PUSH2 0x1062 PUSH2 0x16BC JUMP JUMPDEST PUSH1 0x1 PUSH1 0x0 MSTORE PUSH1 0xA PUSH1 0x20 MSTORE PUSH32 0xBBC70DB1B6C7AFD11E79C0FB0051300458F1A3ACB8EE9789D9B6B26C61AD9BC8 SLOAD ISZERO PUSH2 0x10DB JUMPI PUSH1 0x40 MLOAD PUSH3 0x461BCD PUSH1 0xE5 SHL DUP2 MSTORE PUSH1 0x20 PUSH1 0x4 DUP3 ADD MSTORE PUSH1 0x1D PUSH1 0x24 DUP3 ADD MSTORE PUSH32 0x54656D706C6174657320616C726561647920696E697469616C697A6564000000 PUSH1 0x44 DUP3 ADD MSTORE PUSH1 0x64 ADD PUSH2 0x7C6 JUMP JUMPDEST PUSH2 0x1122 PUSH1 0x1 PUSH1 0x40 MLOAD DUP1 PUSH1 0x40 ADD PUSH1 0x40 MSTORE DUP1 PUSH1 0x4 DUP2 MSTORE PUSH1 0x20 ADD PUSH4 0x11DBDB19 PUSH1 0xE2 SHL DUP2 MSTORE POP PUSH9 0x3635C9ADC5DEA00000 DUP1 PUSH1 0x0 DUP1 PUSH1 0x40 MLOAD DUP1 PUSH1 0x20 ADD PUSH1 0x40 MSTORE DUP1 PUSH1 0x0 DUP2 MSTORE POP PUSH1 0x1 PUSH2 0x1B44 JUMP JUMPDEST PUSH2 0xE94 PUSH1 0x2 PUSH1 0x40 MLOAD DUP1 PUSH1 0x40 ADD PUSH1 0x40 MSTORE DUP1 PUSH1 0x8 DUP2 MSTORE PUSH1 0x20 ADD PUSH8 0x506C6174696E756D PUSH1 0xC0 SHL DUP2 MSTORE POP PUSH9 0xA2A15D09519BE00000 DUP1 PUSH1 0x0 DUP1 PUSH1 0x40 MLOAD DUP1 PUSH1 0x20 ADD PUSH1 0x40 MSTORE DUP1 PUSH1 0x0 DUP2 MSTORE POP PUSH1 0x1 PUSH2 0x1B44 JUMP JUMPDEST PUSH1 0x60 PUSH1 0x1 DUP1 SLOAD PUSH2 0x624 SWAP1 PUSH2 0x2C4F JUMP JUMPDEST PUSH2 0x1184 PUSH2 0x16BC JUMP JUMPDEST PUSH2 0x1194 DUP9 DUP9 DUP9 DUP9 DUP9 DUP9 DUP9 DUP9 PUSH2 0x1B44 JUMP JUMPDEST POP POP POP POP POP POP POP POP JUMP JUMPDEST PUSH2 0x6DB CALLER DUP4 DUP4 PUSH2 0x1CC8 JUMP JUMPDEST PUSH1 0xE PUSH1 0x20 MSTORE DUP2 PUSH1 0x0 MSTORE PUSH1 0x40 PUSH1 0x0 KECCAK256 DUP2 DUP2 SLOAD DUP2 LT PUSH2 0x11C5 JUMPI PUSH1 0x0 DUP1 REVERT JUMPDEST SWAP1 PUSH1 0x0 MSTORE PUSH1 0x20 PUSH1 0x0 KECCAK256 ADD PUSH1 0x0 SWAP2 POP SWAP2 POP POP SLOAD DUP2 JUMP JUMPDEST PUSH2 0x11E2 PUSH2 0x16EF JUMP JUMPDEST PUSH1 0x0 DUP3 DUP2 MSTORE PUSH1 0x2 PUSH1 0x20 MSTORE PUSH1 0x40 SWAP1 KECCAK256 SLOAD PUSH1 0x1 PUSH1 0x1 PUSH1 0xA0 SHL SUB AND PUSH2 0x1216 JUMPI PUSH1 0x40 MLOAD PUSH3 0x461BCD PUSH1 0xE5 SHL DUP2 MSTORE PUSH1 0x4 ADD PUSH2 0x7C6 SWAP1 PUSH2 0x2C89 JUMP JUMPDEST PUSH1 0x0 DUP2 DUP2 MSTORE PUSH1 0xB PUSH1 0x20 SWAP1 DUP2 MSTORE PUSH1 0x40 DUP1 DUP4 KECCAK256 DUP6 DUP5 MSTORE PUSH1 0xC SWAP1 SWAP3 MSTORE SWAP1 SWAP2 KECCAK256 SLOAD PUSH2 0x123D SWAP2 SWAP1 PUSH2 0x1D67 JUMP JUMPDEST PUSH2 0x1261 PUSH1 0xC DUP4 PUSH1 0xB PUSH1 0x0 DUP6 DUP2 MSTORE PUSH1 0x20 ADD SWAP1 DUP2 MSTORE PUSH1 0x20 ADD PUSH1 0x0 KECCAK256 PUSH1 0x1 ADD SLOAD PUSH1 0x1 PUSH2 0x1E16 JUMP JUMPDEST PUSH1 0x0 DUP2 DUP2 MSTORE PUSH1 0xB PUSH1 0x20 MSTORE PUSH1 0x40 DUP2 KECCAK256 PUSH1 0x3 ADD DUP1 SLOAD SWAP2 PUSH2 0x127E DUP4 PUSH2 0x2D24 JUMP JUMPDEST SWAP1 SWAP2 SSTORE POP POP PUSH1 0x0 DUP3 DUP2 MSTORE PUSH1 0xE PUSH1 0x20 SWAP1 DUP2 MSTORE PUSH1 0x40 DUP1 DUP4 KECCAK256 DUP1 SLOAD PUSH1 0x1 DUP2 ADD DUP3 SSTORE SWAP1 DUP5 MSTORE SWAP2 DUP4 KECCAK256 SWAP1 SWAP2 ADD DUP4 SWAP1 SSTORE MLOAD DUP3 SWAP2 DUP5 SWAP2 PUSH32 0x41D60C8CAD3C4E044896E072FB848C8F5D2E3E91C87A22A93D930C35AA192403 SWAP2 SWAP1 LOG3 DUP2 PUSH32 0xEC928C2FE6632313165F754A793AB00B2CDE005B5C7571959D3137D5C4D4AC67 PUSH1 0xC PUSH1 0x0 DUP6 DUP2 MSTORE PUSH1 0x20 ADD SWAP1 DUP2 MSTORE PUSH1 0x20 ADD PUSH1 0x0 KECCAK256 SLOAD PUSH1 0x40 MLOAD PUSH2 0x133C SWAP2 DUP2 MSTORE PUSH1 0x40 PUSH1 0x20 DUP3 ADD DUP2 SWAP1 MSTORE PUSH1 0xE SWAP1 DUP3 ADD MSTORE PUSH14 0x4556454E545F5055524348415345 PUSH1 0x90 SHL PUSH1 0x60 DUP3 ADD MSTORE PUSH1 0x80 ADD SWAP1 JUMP JUMPDEST PUSH1 0x40 MLOAD DUP1 SWAP2 SUB SWAP1 LOG2 POP POP JUMP JUMPDEST PUSH2 0x1353 DUP5 DUP5 DUP5 PUSH2 0x7A0 JUMP JUMPDEST PUSH2 0x82A DUP5 DUP5 DUP5 DUP5 PUSH2 0x1E9C JUMP JUMPDEST PUSH1 0xA PUSH1 0x20 MSTORE PUSH1 0x0 SWAP1 DUP2 MSTORE PUSH1 0x40 SWAP1 KECCAK256 DUP1 SLOAD DUP2 SWAP1 PUSH2 0x137A SWAP1 PUSH2 0x2C4F JUMP JUMPDEST DUP1 PUSH1 0x1F ADD PUSH1 0x20 DUP1 SWAP2 DIV MUL PUSH1 0x20 ADD PUSH1 0x40 MLOAD SWAP1 DUP2 ADD PUSH1 0x40 MSTORE DUP1 SWAP3 SWAP2 SWAP1 DUP2 DUP2 MSTORE PUSH1 0x20 ADD DUP3 DUP1 SLOAD PUSH2 0x13A6 SWAP1 PUSH2 0x2C4F JUMP JUMPDEST DUP1 ISZERO PUSH2 0x13F3 JUMPI DUP1 PUSH1 0x1F LT PUSH2 0x13C8 JUMPI PUSH2 0x100 DUP1 DUP4 SLOAD DIV MUL DUP4 MSTORE SWAP2 PUSH1 0x20 ADD SWAP2 PUSH2 0x13F3 JUMP JUMPDEST DUP3 ADD SWAP2 SWAP1 PUSH1 0x0 MSTORE PUSH1 0x20 PUSH1 0x0 KECCAK256 SWAP1 JUMPDEST DUP2 SLOAD DUP2 MSTORE SWAP1 PUSH1 0x1 ADD SWAP1 PUSH1 0x20 ADD DUP1 DUP4 GT PUSH2 0x13D6 JUMPI DUP3 SWAP1 SUB PUSH1 0x1F AND DUP3 ADD SWAP2 JUMPDEST POP POP POP PUSH1 0x1 DUP5 ADD SLOAD PUSH1 0x2 DUP6 ADD SLOAD PUSH1 0x3 DUP7 ADD SLOAD PUSH1 0x4 DUP8 ADD SLOAD PUSH1 0x5 DUP9 ADD DUP1 SLOAD SWAP8 SWAP9 SWAP5 SWAP8 SWAP4 SWAP7 POP SWAP2 SWAP5 POP PUSH1 0xFF AND SWAP3 SWAP2 PUSH2 0x1428 SWAP1 PUSH2 0x2C4F JUMP JUMPDEST DUP1 PUSH1 0x1F ADD PUSH1 0x20 DUP1 SWAP2 DIV MUL PUSH1 0x20 ADD PUSH1 0x40 MLOAD SWAP1 DUP2 ADD PUSH1 0x40 MSTORE DUP1 SWAP3 SWAP2 SWAP1 DUP2 DUP2 MSTORE PUSH1 0x20 ADD DUP3 DUP1 SLOAD PUSH2 0x1454 SWAP1 PUSH2 0x2C4F JUMP JUMPDEST DUP1 ISZERO PUSH2 0x14A1 JUMPI DUP1 PUSH1 0x1F LT PUSH2 0x1476 JUMPI PUSH2 0x100 DUP1 DUP4 SLOAD DIV MUL DUP4 MSTORE SWAP2 PUSH1 0x20 ADD SWAP2 PUSH2 0x14A1 JUMP JUMPDEST DUP3 ADD SWAP2 SWAP1 PUSH1 0x0 MSTORE PUSH1 0x20 PUSH1 0x0 KECCAK256 SWAP1 JUMPDEST DUP2 SLOAD DUP2 MSTORE SWAP1 PUSH1 0x1 ADD SWAP1 PUSH1 0x20 ADD DUP1 DUP4 GT PUSH2 0x1484 JUMPI DUP3 SWAP1 SUB PUSH1 0x1F AND DUP3 ADD SWAP2 JUMPDEST POP POP POP PUSH1 0x6 SWAP1 SWAP4 ADD SLOAD SWAP2 SWAP3 POP POP PUSH1 0xFF AND DUP8 JUMP JUMPDEST PUSH1 0x0 DUP2 DUP2 MSTORE PUSH1 0xE PUSH1 0x20 SWAP1 DUP2 MSTORE PUSH1 0x40 SWAP2 DUP3 SWAP1 KECCAK256 DUP1 SLOAD DUP4 MLOAD DUP2 DUP5 MUL DUP2 ADD DUP5 ADD SWAP1 SWAP5 MSTORE DUP1 DUP5 MSTORE PUSH1 0x60 SWAP4 SWAP3 DUP4 ADD DUP3 DUP3 DUP1 ISZERO PUSH2 0x150A JUMPI PUSH1 0x20 MUL DUP3 ADD SWAP2 SWAP1 PUSH1 0x0 MSTORE PUSH1 0x20 PUSH1 0x0 KECCAK256 SWAP1 JUMPDEST DUP2 SLOAD DUP2 MSTORE PUSH1 0x20 ADD SWAP1 PUSH1 0x1 ADD SWAP1 DUP1 DUP4 GT PUSH2 0x14F6 JUMPI JUMPDEST POP POP POP POP POP SWAP1 POP SWAP2 SWAP1 POP JUMP JUMPDEST PUSH1 0x0 PUSH2 0x1520 PUSH2 0x16EF JUMP JUMPDEST PUSH1 0x0 DUP5 DUP2 MSTORE PUSH1 0xA PUSH1 0x20 MSTORE PUSH1 0x40 SWAP1 KECCAK256 PUSH1 0x6 ADD SLOAD PUSH1 0xFF AND PUSH2 0x1577 JUMPI PUSH1 0x40 MLOAD PUSH3 0x461BCD PUSH1 0xE5 SHL DUP2 MSTORE PUSH1 0x20 PUSH1 0x4 DUP3 ADD MSTORE PUSH1 0x13 PUSH1 0x24 DUP3 ADD MSTORE PUSH19 0x54656D706C617465206E6F7420616374697665 PUSH1 0x68 SHL PUSH1 0x44 DUP3 ADD MSTORE PUSH1 0x64 ADD PUSH2 0x7C6 JUMP JUMPDEST PUSH1 0x8 DUP1 SLOAD SWAP1 PUSH1 0x0 PUSH2 0x1587 DUP4 PUSH2 0x2D24 JUMP JUMPDEST SWAP1 SWAP2 SSTORE POP POP PUSH1 0x8 SLOAD PUSH2 0x1599 DUP5 DUP3 PUSH2 0x1FC5 JUMP JUMPDEST PUSH2 0x15A3 DUP2 DUP5 PUSH2 0x1FDF JUMP JUMPDEST PUSH1 0x0 DUP6 DUP2 MSTORE PUSH1 0xA PUSH1 0x20 DUP2 DUP2 MSTORE PUSH1 0x40 DUP1 DUP5 KECCAK256 PUSH1 0x1 ADD SLOAD DUP6 DUP6 MSTORE PUSH1 0xC DUP4 MSTORE DUP2 DUP6 KECCAK256 DUP2 SWAP1 SSTORE SWAP4 DUP10 SWAP1 MSTORE SWAP2 DUP2 MSTORE DUP2 MLOAD SWAP3 DUP4 MSTORE DUP3 ADD DUP2 SWAP1 MSTORE PUSH1 0x4 SWAP1 DUP3 ADD MSTORE PUSH4 0x13525395 PUSH1 0xE2 SHL PUSH1 0x60 DUP3 ADD MSTORE DUP2 SWAP1 PUSH32 0xEC928C2FE6632313165F754A793AB00B2CDE005B5C7571959D3137D5C4D4AC67 SWAP1 PUSH1 0x80 ADD PUSH1 0x40 MLOAD DUP1 SWAP2 SUB SWAP1 LOG2 SWAP5 SWAP4 POP POP POP POP JUMP JUMPDEST PUSH1 0x60 PUSH2 0x5E6 DUP3 PUSH2 0x202F JUMP JUMPDEST PUSH1 0x1 PUSH1 0x1 PUSH1 0xA0 SHL SUB SWAP2 DUP3 AND PUSH1 0x0 SWAP1 DUP2 MSTORE PUSH1 0x5 PUSH1 0x20 SWAP1 DUP2 MSTORE PUSH1 0x40 DUP1 DUP4 KECCAK256 SWAP4 SWAP1 SWAP5 AND DUP3 MSTORE SWAP2 SWAP1 SWAP2 MSTORE KECCAK256 SLOAD PUSH1 0xFF AND SWAP1 JUMP JUMPDEST PUSH2 0x1661 PUSH2 0x16BC JUMP JUMPDEST PUSH1 0x1 PUSH1 0x1 PUSH1 0xA0 SHL SUB DUP2 AND PUSH2 0x168B JUMPI PUSH1 0x40 MLOAD PUSH4 0x1E4FBDF7 PUSH1 0xE0 SHL DUP2 MSTORE PUSH1 0x0 PUSH1 0x4 DUP3 ADD MSTORE PUSH1 0x24 ADD PUSH2 0x7C6 JUMP JUMPDEST PUSH2 0x1694 DUP2 PUSH2 0x1A38 JUMP JUMPDEST POP JUMP JUMPDEST PUSH1 0x0 PUSH1 0x1 PUSH1 0x1 PUSH1 0xE0 SHL SUB NOT DUP3 AND PUSH4 0x24832483 PUSH1 0xE1 SHL EQ DUP1 PUSH2 0x5E6 JUMPI POP PUSH2 0x5E6 DUP3 PUSH2 0x2140 JUMP JUMPDEST PUSH1 0x7 SLOAD PUSH1 0x1 PUSH1 0x1 PUSH1 0xA0 SHL SUB PUSH2 0x100 SWAP1 SWAP2 DIV AND CALLER EQ PUSH2 0xE94 JUMPI PUSH1 0x40 MLOAD PUSH4 0x118CDAA7 PUSH1 0xE0 SHL DUP2 MSTORE CALLER PUSH1 0x4 DUP3 ADD MSTORE PUSH1 0x24 ADD PUSH2 0x7C6 JUMP JUMPDEST PUSH1 0x7 SLOAD PUSH1 0xFF AND ISZERO PUSH2 0xE94 JUMPI PUSH1 0x40 MLOAD PUSH4 0xD93C0665 PUSH1 0xE0 SHL DUP2 MSTORE PUSH1 0x4 ADD PUSH1 0x40 MLOAD DUP1 SWAP2 SUB SWAP1 REVERT JUMPDEST PUSH1 0x0 DUP1 DUP6 TIMESTAMP PUSH1 0x40 MLOAD PUSH1 0x20 ADD PUSH2 0x1729 SWAP3 SWAP2 SWAP1 PUSH2 0x2D3D JUMP JUMPDEST PUSH1 0x40 DUP1 MLOAD PUSH1 0x1F NOT DUP2 DUP5 SUB ADD DUP2 MSTORE DUP3 DUP3 MSTORE DUP1 MLOAD PUSH1 0x20 SWAP2 DUP3 ADD KECCAK256 PUSH1 0xC0 DUP5 ADD DUP4 MSTORE DUP10 DUP5 MSTORE DUP4 DUP3 ADD DUP10 SWAP1 MSTORE DUP4 DUP4 ADD DUP9 SWAP1 MSTORE PUSH1 0x0 PUSH1 0x60 DUP6 ADD DUP2 SWAP1 MSTORE PUSH1 0x1 PUSH1 0x80 DUP7 ADD MSTORE PUSH1 0xA0 DUP6 ADD DUP9 SWAP1 MSTORE DUP2 DUP2 MSTORE SWAP2 DUP12 SWAP1 MSTORE SWAP2 SWAP1 KECCAK256 DUP3 MLOAD SWAP2 SWAP4 POP SWAP1 DUP2 SWAP1 PUSH2 0x1789 SWAP1 DUP3 PUSH2 0x2DAD JUMP JUMPDEST POP PUSH1 0x20 DUP3 ADD MLOAD PUSH1 0x1 DUP3 ADD SSTORE PUSH1 0x40 DUP1 DUP4 ADD MLOAD PUSH1 0x2 DUP4 ADD SSTORE PUSH1 0x60 DUP4 ADD MLOAD PUSH1 0x3 DUP4 ADD SSTORE PUSH1 0x80 DUP4 ADD MLOAD PUSH1 0x4 DUP4 ADD DUP1 SLOAD PUSH1 0xFF NOT AND SWAP2 ISZERO ISZERO SWAP2 SWAP1 SWAP2 OR SWAP1 SSTORE PUSH1 0xA0 SWAP1 SWAP3 ADD MLOAD PUSH1 0x5 SWAP1 SWAP2 ADD SSTORE MLOAD DUP2 SWAP1 PUSH32 0xEE37BB5143A14810F72E86FCE895BE08E16090409D2E18F79B308995E39B73D4 SWAP1 PUSH2 0x17FF SWAP1 DUP10 SWAP1 DUP9 SWAP1 PUSH2 0x2E6D JUMP JUMPDEST PUSH1 0x40 MLOAD DUP1 SWAP2 SUB SWAP1 LOG2 SWAP7 SWAP6 POP POP POP POP POP POP JUMP JUMPDEST PUSH1 0x0 DUP2 DUP2 MSTORE PUSH1 0x2 PUSH1 0x20 MSTORE PUSH1 0x40 DUP2 KECCAK256 SLOAD PUSH1 0x1 PUSH1 0x1 PUSH1 0xA0 SHL SUB AND DUP1 PUSH2 0x5E6 JUMPI PUSH1 0x40 MLOAD PUSH4 0x7E273289 PUSH1 0xE0 SHL DUP2 MSTORE PUSH1 0x4 DUP2 ADD DUP5 SWAP1 MSTORE PUSH1 0x24 ADD PUSH2 0x7C6 JUMP JUMPDEST PUSH2 0xC1E DUP4 DUP4 DUP4 PUSH1 0x1 PUSH2 0x2190 JUMP JUMPDEST PUSH1 0x0 DUP3 DUP2 MSTORE PUSH1 0x2 PUSH1 0x20 MSTORE PUSH1 0x40 DUP2 KECCAK256 SLOAD PUSH1 0x1 PUSH1 0x1 PUSH1 0xA0 SHL SUB SWAP1 DUP2 AND SWAP1 DUP4 AND ISZERO PUSH2 0x1884 JUMPI PUSH2 0x1884 DUP2 DUP5 DUP7 PUSH2 0x2296 JUMP JUMPDEST PUSH1 0x1 PUSH1 0x1 PUSH1 0xA0 SHL SUB DUP2 AND ISZERO PUSH2 0x18C2 JUMPI PUSH2 0x18A1 PUSH1 0x0 DUP6 PUSH1 0x0 DUP1 PUSH2 0x2190 JUMP JUMPDEST PUSH1 0x1 PUSH1 0x1 PUSH1 0xA0 SHL SUB DUP2 AND PUSH1 0x0 SWAP1 DUP2 MSTORE PUSH1 0x3 PUSH1 0x20 MSTORE PUSH1 0x40 SWAP1 KECCAK256 DUP1 SLOAD PUSH1 0x0 NOT ADD SWAP1 SSTORE JUMPDEST PUSH1 0x1 PUSH1 0x1 PUSH1 0xA0 SHL SUB DUP6 AND ISZERO PUSH2 0x18F1 JUMPI PUSH1 0x1 PUSH1 0x1 PUSH1 0xA0 SHL SUB DUP6 AND PUSH1 0x0 SWAP1 DUP2 MSTORE PUSH1 0x3 PUSH1 0x20 MSTORE PUSH1 0x40 SWAP1 KECCAK256 DUP1 SLOAD PUSH1 0x1 ADD SWAP1 SSTORE JUMPDEST PUSH1 0x0 DUP5 DUP2 MSTORE PUSH1 0x2 PUSH1 0x20 MSTORE PUSH1 0x40 DUP1 DUP3 KECCAK256 DUP1 SLOAD PUSH1 0x1 PUSH1 0x1 PUSH1 0xA0 SHL SUB NOT AND PUSH1 0x1 PUSH1 0x1 PUSH1 0xA0 SHL SUB DUP10 DUP2 AND SWAP2 DUP3 OR SWAP1 SWAP3 SSTORE SWAP2 MLOAD DUP8 SWAP4 SWAP2 DUP6 AND SWAP2 PUSH32 0xDDF252AD1BE2C89B69C2B068FC378DAA952BA7F163C4A11628F55A4DF523B3EF SWAP2 LOG4 SWAP5 SWAP4 POP POP POP POP JUMP JUMPDEST PUSH1 0x0 DUP6 DUP2 MSTORE PUSH1 0x20 DUP8 DUP2 MSTORE PUSH1 0x40 DUP1 DUP4 KECCAK256 DUP2 MLOAD PUSH1 0xA0 DUP2 ADD DUP4 MSTORE TIMESTAMP DUP2 MSTORE PUSH1 0x1 PUSH1 0x1 PUSH1 0xA0 SHL SUB DUP10 DUP2 AND DUP3 DUP7 ADD SWAP1 DUP2 MSTORE SWAP4 DUP3 ADD DUP10 DUP2 MSTORE PUSH1 0x60 DUP4 ADD DUP10 DUP2 MSTORE PUSH1 0x80 DUP5 ADD DUP10 SWAP1 MSTORE DUP5 SLOAD PUSH1 0x1 DUP1 DUP3 ADD DUP8 SSTORE SWAP6 DUP10 MSTORE SWAP7 SWAP1 SWAP8 KECCAK256 DUP4 MLOAD PUSH1 0x5 SWAP1 SWAP8 MUL ADD SWAP6 DUP7 SSTORE SWAP4 MLOAD SWAP3 DUP6 ADD DUP1 SLOAD PUSH1 0x1 PUSH1 0x1 PUSH1 0xA0 SHL SUB NOT AND SWAP4 SWAP1 SWAP2 AND SWAP3 SWAP1 SWAP3 OR SWAP1 SWAP2 SSTORE SWAP1 MLOAD PUSH1 0x2 DUP4 ADD SSTORE SWAP2 MLOAD PUSH1 0x3 DUP3 ADD SWAP1 PUSH2 0x19DE SWAP1 DUP3 PUSH2 0x2DAD JUMP JUMPDEST POP PUSH1 0x80 DUP3 ADD MLOAD PUSH1 0x4 DUP3 ADD SWAP1 PUSH2 0x19F3 SWAP1 DUP3 PUSH2 0x2DAD JUMP JUMPDEST POP POP POP DUP5 PUSH32 0x131C2944EA68313084C40D9074BFD26611DBD83E4C0BC84F646B864548708978 DUP4 DUP6 PUSH1 0x40 MLOAD PUSH2 0x1A28 SWAP3 SWAP2 SWAP1 PUSH2 0x2E6D JUMP JUMPDEST PUSH1 0x40 MLOAD DUP1 SWAP2 SUB SWAP1 LOG2 POP POP POP POP POP POP JUMP JUMPDEST PUSH1 0x7 DUP1 SLOAD PUSH1 0x1 PUSH1 0x1 PUSH1 0xA0 SHL SUB DUP4 DUP2 AND PUSH2 0x100 DUP2 DUP2 MUL PUSH2 0x100 PUSH1 0x1 PUSH1 0xA8 SHL SUB NOT DUP6 AND OR SWAP1 SWAP5 SSTORE PUSH1 0x40 MLOAD SWAP4 SWAP1 SWAP3 DIV AND SWAP2 DUP3 SWAP1 PUSH32 0x8BE0079C531659141344CD1FD0A4F28419497F9722A3DAAFE3B4186F6B6457E0 SWAP1 PUSH1 0x0 SWAP1 LOG3 POP POP JUMP JUMPDEST PUSH1 0x4 DUP5 ADD SLOAD PUSH1 0x0 SWAP1 PUSH1 0xFF AND PUSH2 0x1ADC JUMPI PUSH1 0x40 MLOAD PUSH3 0x461BCD PUSH1 0xE5 SHL DUP2 MSTORE PUSH1 0x20 PUSH1 0x4 DUP3 ADD MSTORE PUSH1 0x10 PUSH1 0x24 DUP3 ADD MSTORE PUSH16 0x4576656E74206E6F7420616374697665 PUSH1 0x80 SHL PUSH1 0x44 DUP3 ADD MSTORE PUSH1 0x64 ADD PUSH2 0x7C6 JUMP JUMPDEST PUSH1 0x0 DUP4 DUP2 MSTORE PUSH1 0x20 DUP6 DUP2 MSTORE PUSH1 0x40 DUP1 DUP4 KECCAK256 DUP6 DUP5 MSTORE SWAP1 SWAP2 MSTORE SWAP1 KECCAK256 SLOAD PUSH1 0xFF AND ISZERO PUSH2 0x1B39 JUMPI PUSH1 0x40 MLOAD PUSH3 0x461BCD PUSH1 0xE5 SHL DUP2 MSTORE PUSH1 0x20 PUSH1 0x4 DUP3 ADD MSTORE PUSH1 0x12 PUSH1 0x24 DUP3 ADD MSTORE PUSH18 0x20B63932B0B23C9031B432B1B5B2B21034B7 PUSH1 0x71 SHL PUSH1 0x44 DUP3 ADD MSTORE PUSH1 0x64 ADD PUSH2 0x7C6 JUMP JUMPDEST POP PUSH1 0x1 SWAP5 SWAP4 POP POP POP POP JUMP JUMPDEST PUSH2 0x1B4F DUP8 DUP6 DUP11 PUSH2 0x22FA JUMP JUMPDEST PUSH1 0x0 DUP9 DUP2 MSTORE PUSH1 0xA PUSH1 0x20 MSTORE PUSH1 0x40 SWAP1 KECCAK256 PUSH1 0x1 ADD SLOAD ISZERO PUSH2 0x1BAE JUMPI PUSH1 0x40 MLOAD PUSH3 0x461BCD PUSH1 0xE5 SHL DUP2 MSTORE PUSH1 0x20 PUSH1 0x4 DUP3 ADD MSTORE PUSH1 0x17 PUSH1 0x24 DUP3 ADD MSTORE PUSH32 0x54656D706C61746520616C726561647920657869737473000000000000000000 PUSH1 0x44 DUP3 ADD MSTORE PUSH1 0x64 ADD PUSH2 0x7C6 JUMP JUMPDEST PUSH1 0x40 DUP1 MLOAD PUSH1 0xE0 DUP2 ADD DUP3 MSTORE DUP9 DUP2 MSTORE PUSH1 0x20 DUP1 DUP3 ADD DUP10 SWAP1 MSTORE DUP2 DUP4 ADD DUP9 SWAP1 MSTORE PUSH1 0x60 DUP3 ADD DUP8 SWAP1 MSTORE DUP6 ISZERO ISZERO PUSH1 0x80 DUP4 ADD MSTORE PUSH1 0xA0 DUP3 ADD DUP6 SWAP1 MSTORE DUP4 ISZERO ISZERO PUSH1 0xC0 DUP4 ADD MSTORE PUSH1 0x0 DUP12 DUP2 MSTORE PUSH1 0xA SWAP1 SWAP2 MSTORE SWAP2 SWAP1 SWAP2 KECCAK256 DUP2 MLOAD DUP2 SWAP1 PUSH2 0x1C03 SWAP1 DUP3 PUSH2 0x2DAD JUMP JUMPDEST POP PUSH1 0x20 DUP3 ADD MLOAD PUSH1 0x1 DUP3 ADD SSTORE PUSH1 0x40 DUP3 ADD MLOAD PUSH1 0x2 DUP3 ADD SSTORE PUSH1 0x60 DUP3 ADD MLOAD PUSH1 0x3 DUP3 ADD SSTORE PUSH1 0x80 DUP3 ADD MLOAD PUSH1 0x4 DUP3 ADD DUP1 SLOAD PUSH1 0xFF NOT AND SWAP2 ISZERO ISZERO SWAP2 SWAP1 SWAP2 OR SWAP1 SSTORE PUSH1 0xA0 DUP3 ADD MLOAD PUSH1 0x5 DUP3 ADD SWAP1 PUSH2 0x1C4E SWAP1 DUP3 PUSH2 0x2DAD JUMP JUMPDEST POP PUSH1 0xC0 SWAP2 SWAP1 SWAP2 ADD MLOAD PUSH1 0x6 SWAP1 SWAP2 ADD DUP1 SLOAD PUSH1 0xFF NOT AND SWAP2 ISZERO ISZERO SWAP2 SWAP1 SWAP2 OR SWAP1 SSTORE PUSH1 0x9 SLOAD DUP9 GT ISZERO PUSH2 0x1C7A JUMPI PUSH1 0x9 DUP9 SWAP1 SSTORE JUMPDEST DUP8 PUSH32 0xC0FDBB34FD837325F175BD973A8607230E48718904C92805638B65905F616D7D DUP9 DUP9 DUP9 DUP9 DUP9 DUP9 DUP9 PUSH1 0x40 MLOAD PUSH2 0x1CB6 SWAP8 SWAP7 SWAP6 SWAP5 SWAP4 SWAP3 SWAP2 SWAP1 PUSH2 0x2957 JUMP JUMPDEST PUSH1 0x40 MLOAD DUP1 SWAP2 SUB SWAP1 LOG2 POP POP POP POP POP POP POP POP JUMP JUMPDEST PUSH1 0x1 PUSH1 0x1 PUSH1 0xA0 SHL SUB DUP3 AND PUSH2 0x1CFA JUMPI PUSH1 0x40 MLOAD PUSH4 0xB611743 PUSH1 0xE3 SHL DUP2 MSTORE PUSH1 0x1 PUSH1 0x1 PUSH1 0xA0 SHL SUB DUP4 AND PUSH1 0x4 DUP3 ADD MSTORE PUSH1 0x24 ADD PUSH2 0x7C6 JUMP JUMPDEST PUSH1 0x1 PUSH1 0x1 PUSH1 0xA0 SHL SUB DUP4 DUP2 AND PUSH1 0x0 DUP2 DUP2 MSTORE PUSH1 0x5 PUSH1 0x20 SWAP1 DUP2 MSTORE PUSH1 0x40 DUP1 DUP4 KECCAK256 SWAP5 DUP8 AND DUP1 DUP5 MSTORE SWAP5 DUP3 MSTORE SWAP2 DUP3 SWAP1 KECCAK256 DUP1 SLOAD PUSH1 0xFF NOT AND DUP7 ISZERO ISZERO SWAP1 DUP2 OR SWAP1 SWAP2 SSTORE SWAP2 MLOAD SWAP2 DUP3 MSTORE PUSH32 0x17307EAB39AB6107E8899845AD3D59BD9653F200F220920489CA2B5937696C31 SWAP2 ADD PUSH1 0x40 MLOAD DUP1 SWAP2 SUB SWAP1 LOG3 POP POP POP JUMP JUMPDEST PUSH1 0x4 DUP3 ADD SLOAD PUSH1 0xFF AND PUSH2 0x1DAE JUMPI PUSH1 0x40 MLOAD PUSH3 0x461BCD PUSH1 0xE5 SHL DUP2 MSTORE PUSH1 0x20 PUSH1 0x4 DUP3 ADD MSTORE PUSH1 0x10 PUSH1 0x24 DUP3 ADD MSTORE PUSH16 0x4576656E74206E6F7420616374697665 PUSH1 0x80 SHL PUSH1 0x44 DUP3 ADD MSTORE PUSH1 0x64 ADD PUSH2 0x7C6 JUMP JUMPDEST DUP2 PUSH1 0x2 ADD SLOAD DUP3 PUSH1 0x3 ADD SLOAD LT PUSH2 0x1DF2 JUMPI PUSH1 0x40 MLOAD PUSH3 0x461BCD PUSH1 0xE5 SHL DUP2 MSTORE PUSH1 0x20 PUSH1 0x4 DUP3 ADD MSTORE PUSH1 0xA PUSH1 0x24 DUP3 ADD MSTORE PUSH10 0x115D995B9D08199D5B1B PUSH1 0xB2 SHL PUSH1 0x44 DUP3 ADD MSTORE PUSH1 0x64 ADD PUSH2 0x7C6 JUMP JUMPDEST DUP2 PUSH1 0x1 ADD SLOAD DUP2 LT ISZERO PUSH2 0x6DB JUMPI PUSH1 0x40 MLOAD PUSH3 0x461BCD PUSH1 0xE5 SHL DUP2 MSTORE PUSH1 0x4 ADD PUSH2 0x7C6 SWAP1 PUSH2 0x2CB7 JUMP JUMPDEST DUP1 ISZERO PUSH2 0x1E73 JUMPI PUSH1 0x0 DUP4 DUP2 MSTORE PUSH1 0x20 DUP6 SWAP1 MSTORE PUSH1 0x40 SWAP1 KECCAK256 SLOAD DUP3 GT ISZERO PUSH2 0x1E4A JUMPI PUSH1 0x40 MLOAD PUSH3 0x461BCD PUSH1 0xE5 SHL DUP2 MSTORE PUSH1 0x4 ADD PUSH2 0x7C6 SWAP1 PUSH2 0x2CB7 JUMP JUMPDEST PUSH1 0x0 DUP4 DUP2 MSTORE PUSH1 0x20 DUP6 SWAP1 MSTORE PUSH1 0x40 DUP2 KECCAK256 DUP1 SLOAD DUP5 SWAP3 SWAP1 PUSH2 0x1E68 SWAP1 DUP5 SWAP1 PUSH2 0x2CFB JUMP JUMPDEST SWAP1 SWAP2 SSTORE POP PUSH2 0x82A SWAP1 POP JUMP JUMPDEST PUSH1 0x0 DUP4 DUP2 MSTORE PUSH1 0x20 DUP6 SWAP1 MSTORE PUSH1 0x40 DUP2 KECCAK256 DUP1 SLOAD DUP5 SWAP3 SWAP1 PUSH2 0x1E91 SWAP1 DUP5 SWAP1 PUSH2 0x2E8F JUMP JUMPDEST SWAP1 SWAP2 SSTORE POP POP POP POP POP POP JUMP JUMPDEST PUSH1 0x1 PUSH1 0x1 PUSH1 0xA0 SHL SUB DUP4 AND EXTCODESIZE ISZERO PUSH2 0x82A JUMPI PUSH1 0x40 MLOAD PUSH4 0xA85BD01 PUSH1 0xE1 SHL DUP2 MSTORE PUSH1 0x1 PUSH1 0x1 PUSH1 0xA0 SHL SUB DUP5 AND SWAP1 PUSH4 0x150B7A02 SWAP1 PUSH2 0x1EDE SWAP1 CALLER SWAP1 DUP9 SWAP1 DUP8 SWAP1 DUP8 SWAP1 PUSH1 0x4 ADD PUSH2 0x2EA2 JUMP JUMPDEST PUSH1 0x20 PUSH1 0x40 MLOAD DUP1 DUP4 SUB DUP2 PUSH1 0x0 DUP8 GAS CALL SWAP3 POP POP POP DUP1 ISZERO PUSH2 0x1F19 JUMPI POP PUSH1 0x40 DUP1 MLOAD PUSH1 0x1F RETURNDATASIZE SWAP1 DUP2 ADD PUSH1 0x1F NOT AND DUP3 ADD SWAP1 SWAP3 MSTORE PUSH2 0x1F16 SWAP2 DUP2 ADD SWAP1 PUSH2 0x2EDF JUMP JUMPDEST PUSH1 0x1 JUMPDEST PUSH2 0x1F82 JUMPI RETURNDATASIZE DUP1 DUP1 ISZERO PUSH2 0x1F47 JUMPI PUSH1 0x40 MLOAD SWAP2 POP PUSH1 0x1F NOT PUSH1 0x3F RETURNDATASIZE ADD AND DUP3 ADD PUSH1 0x40 MSTORE RETURNDATASIZE DUP3 MSTORE RETURNDATASIZE PUSH1 0x0 PUSH1 0x20 DUP5 ADD RETURNDATACOPY PUSH2 0x1F4C JUMP JUMPDEST PUSH1 0x60 SWAP2 POP JUMPDEST POP DUP1 MLOAD PUSH1 0x0 SUB PUSH2 0x1F7A JUMPI PUSH1 0x40 MLOAD PUSH4 0x32505749 PUSH1 0xE1 SHL DUP2 MSTORE PUSH1 0x1 PUSH1 0x1 PUSH1 0xA0 SHL SUB DUP6 AND PUSH1 0x4 DUP3 ADD MSTORE PUSH1 0x24 ADD PUSH2 0x7C6 JUMP JUMPDEST DUP1 MLOAD DUP2 PUSH1 0x20 ADD REVERT JUMPDEST PUSH1 0x1 PUSH1 0x1 PUSH1 0xE0 SHL SUB NOT DUP2 AND PUSH4 0xA85BD01 PUSH1 0xE1 SHL EQ PUSH2 0x1FBE JUMPI PUSH1 0x40 MLOAD PUSH4 0x32505749 PUSH1 0xE1 SHL DUP2 MSTORE PUSH1 0x1 PUSH1 0x1 PUSH1 0xA0 SHL SUB DUP6 AND PUSH1 0x4 DUP3 ADD MSTORE PUSH1 0x24 ADD PUSH2 0x7C6 JUMP JUMPDEST POP POP POP POP POP JUMP JUMPDEST PUSH2 0x6DB DUP3 DUP3 PUSH1 0x40 MLOAD DUP1 PUSH1 0x20 ADD PUSH1 0x40 MSTORE DUP1 PUSH1 0x0 DUP2 MSTORE POP PUSH2 0x23D9 JUMP JUMPDEST PUSH1 0x0 DUP3 DUP2 MSTORE PUSH1 0x6 PUSH1 0x20 MSTORE PUSH1 0x40 SWAP1 KECCAK256 PUSH2 0x1FF7 DUP3 DUP3 PUSH2 0x2DAD JUMP JUMPDEST POP PUSH1 0x40 MLOAD DUP3 DUP2 MSTORE PUSH32 0xF8E1A15ABA9398E019F0B49DF1A4FDE98EE17AE345CB5F6B5E2C27F5033E8CE7 SWAP1 PUSH1 0x20 ADD PUSH1 0x40 MLOAD DUP1 SWAP2 SUB SWAP1 LOG1 POP POP JUMP JUMPDEST PUSH1 0x60 PUSH2 0x203A DUP3 PUSH2 0x1811 JUMP JUMPDEST POP PUSH1 0x0 DUP3 DUP2 MSTORE PUSH1 0x6 PUSH1 0x20 MSTORE PUSH1 0x40 DUP2 KECCAK256 DUP1 SLOAD PUSH2 0x2054 SWAP1 PUSH2 0x2C4F JUMP JUMPDEST DUP1 PUSH1 0x1F ADD PUSH1 0x20 DUP1 SWAP2 DIV MUL PUSH1 0x20 ADD PUSH1 0x40 MLOAD SWAP1 DUP2 ADD PUSH1 0x40 MSTORE DUP1 SWAP3 SWAP2 SWAP1 DUP2 DUP2 MSTORE PUSH1 0x20 ADD DUP3 DUP1 SLOAD PUSH2 0x2080 SWAP1 PUSH2 0x2C4F JUMP JUMPDEST DUP1 ISZERO PUSH2 0x20CD JUMPI DUP1 PUSH1 0x1F LT PUSH2 0x20A2 JUMPI PUSH2 0x100 DUP1 DUP4 SLOAD DIV MUL DUP4 MSTORE SWAP2 PUSH1 0x20 ADD SWAP2 PUSH2 0x20CD JUMP JUMPDEST DUP3 ADD SWAP2 SWAP1 PUSH1 0x0 MSTORE PUSH1 0x20 PUSH1 0x0 KECCAK256 SWAP1 JUMPDEST DUP2 SLOAD DUP2 MSTORE SWAP1 PUSH1 0x1 ADD SWAP1 PUSH1 0x20 ADD DUP1 DUP4 GT PUSH2 0x20B0 JUMPI DUP3 SWAP1 SUB PUSH1 0x1F AND DUP3 ADD SWAP2 JUMPDEST POP POP POP POP POP SWAP1 POP PUSH1 0x0 PUSH2 0x20EB PUSH1 0x40 DUP1 MLOAD PUSH1 0x20 DUP2 ADD SWAP1 SWAP2 MSTORE PUSH1 0x0 DUP2 MSTORE SWAP1 JUMP JUMPDEST SWAP1 POP DUP1 MLOAD PUSH1 0x0 SUB PUSH2 0x20FD JUMPI POP SWAP3 SWAP2 POP POP JUMP JUMPDEST DUP2 MLOAD ISZERO PUSH2 0x212F JUMPI DUP1 DUP3 PUSH1 0x40 MLOAD PUSH1 0x20 ADD PUSH2 0x2117 SWAP3 SWAP2 SWAP1 PUSH2 0x2EFC JUMP JUMPDEST PUSH1 0x40 MLOAD PUSH1 0x20 DUP2 DUP4 SUB SUB DUP2 MSTORE SWAP1 PUSH1 0x40 MSTORE SWAP3 POP POP POP SWAP2 SWAP1 POP JUMP JUMPDEST PUSH2 0x2138 DUP5 PUSH2 0x23F0 JUMP JUMPDEST SWAP5 SWAP4 POP POP POP POP JUMP JUMPDEST PUSH1 0x0 PUSH1 0x1 PUSH1 0x1 PUSH1 0xE0 SHL SUB NOT DUP3 AND PUSH4 0x80AC58CD PUSH1 0xE0 SHL EQ DUP1 PUSH2 0x2171 JUMPI POP PUSH1 0x1 PUSH1 0x1 PUSH1 0xE0 SHL SUB NOT DUP3 AND PUSH4 0x5B5E139F PUSH1 0xE0 SHL EQ JUMPDEST DUP1 PUSH2 0x5E6 JUMPI POP PUSH4 0x1FFC9A7 PUSH1 0xE0 SHL PUSH1 0x1 PUSH1 0x1 PUSH1 0xE0 SHL SUB NOT DUP4 AND EQ PUSH2 0x5E6 JUMP JUMPDEST DUP1 DUP1 PUSH2 0x21A4 JUMPI POP PUSH1 0x1 PUSH1 0x1 PUSH1 0xA0 SHL SUB DUP3 AND ISZERO ISZERO JUMPDEST ISZERO PUSH2 0x2266 JUMPI PUSH1 0x0 PUSH2 0x21B4 DUP5 PUSH2 0x1811 JUMP JUMPDEST SWAP1 POP PUSH1 0x1 PUSH1 0x1 PUSH1 0xA0 SHL SUB DUP4 AND ISZERO DUP1 ISZERO SWAP1 PUSH2 0x21E0 JUMPI POP DUP3 PUSH1 0x1 PUSH1 0x1 PUSH1 0xA0 SHL SUB AND DUP2 PUSH1 0x1 PUSH1 0x1 PUSH1 0xA0 SHL SUB AND EQ ISZERO JUMPDEST DUP1 ISZERO PUSH2 0x21F3 JUMPI POP PUSH2 0x21F1 DUP2 DUP5 PUSH2 0x162B JUMP JUMPDEST ISZERO JUMPDEST ISZERO PUSH2 0x221C JUMPI PUSH1 0x40 MLOAD PUSH4 0xA9FBF51F PUSH1 0xE0 SHL DUP2 MSTORE PUSH1 0x1 PUSH1 0x1 PUSH1 0xA0 SHL SUB DUP5 AND PUSH1 0x4 DUP3 ADD MSTORE PUSH1 0x24 ADD PUSH2 0x7C6 JUMP JUMPDEST DUP2 ISZERO PUSH2 0x2264 JUMPI DUP4 DUP6 PUSH1 0x1 PUSH1 0x1 PUSH1 0xA0 SHL SUB AND DUP3 PUSH1 0x1 PUSH1 0x1 PUSH1 0xA0 SHL SUB AND PUSH32 0x8C5BE1E5EBEC7D5BD14F71427D1E84F3DD0314C0F7B2291E5B200AC8C7C3B925 PUSH1 0x40 MLOAD PUSH1 0x40 MLOAD DUP1 SWAP2 SUB SWAP1 LOG4 JUMPDEST POP JUMPDEST POP POP PUSH1 0x0 SWAP1 DUP2 MSTORE PUSH1 0x4 PUSH1 0x20 MSTORE PUSH1 0x40 SWAP1 KECCAK256 DUP1 SLOAD PUSH1 0x1 PUSH1 0x1 PUSH1 0xA0 SHL SUB NOT AND PUSH1 0x1 PUSH1 0x1 PUSH1 0xA0 SHL SUB SWAP3 SWAP1 SWAP3 AND SWAP2 SWAP1 SWAP2 OR SWAP1 SSTORE JUMP JUMPDEST PUSH2 0x22A1 DUP4 DUP4 DUP4 PUSH2 0x2465 JUMP JUMPDEST PUSH2 0xC1E JUMPI PUSH1 0x1 PUSH1 0x1 PUSH1 0xA0 SHL SUB DUP4 AND PUSH2 0x22CF JUMPI PUSH1 0x40 MLOAD PUSH4 0x7E273289 PUSH1 0xE0 SHL DUP2 MSTORE PUSH1 0x4 DUP2 ADD DUP3 SWAP1 MSTORE PUSH1 0x24 ADD PUSH2 0x7C6 JUMP JUMPDEST PUSH1 0x40 MLOAD PUSH4 0x177E802F PUSH1 0xE0 SHL DUP2 MSTORE PUSH1 0x1 PUSH1 0x1 PUSH1 0xA0 SHL SUB DUP4 AND PUSH1 0x4 DUP3 ADD MSTORE PUSH1 0x24 DUP2 ADD DUP3 SWAP1 MSTORE PUSH1 0x44 ADD PUSH2 0x7C6 JUMP JUMPDEST PUSH1 0x0 DUP2 GT PUSH2 0x2340 JUMPI PUSH1 0x40 MLOAD PUSH3 0x461BCD PUSH1 0xE5 SHL DUP2 MSTORE PUSH1 0x20 PUSH1 0x4 DUP3 ADD MSTORE PUSH1 0x13 PUSH1 0x24 DUP3 ADD MSTORE PUSH19 0x125B9D985B1A59081D195B5C1B185D19481251 PUSH1 0x6A SHL PUSH1 0x44 DUP3 ADD MSTORE PUSH1 0x64 ADD PUSH2 0x7C6 JUMP JUMPDEST PUSH1 0x0 DUP4 MLOAD GT PUSH2 0x2388 JUMPI PUSH1 0x40 MLOAD PUSH3 0x461BCD PUSH1 0xE5 SHL DUP2 MSTORE PUSH1 0x20 PUSH1 0x4 DUP3 ADD MSTORE PUSH1 0x14 PUSH1 0x24 DUP3 ADD MSTORE PUSH20 0x4E616D652063616E6E6F7420626520656D707479 PUSH1 0x60 SHL PUSH1 0x44 DUP3 ADD MSTORE PUSH1 0x64 ADD PUSH2 0x7C6 JUMP JUMPDEST PUSH1 0x64 DUP3 GT ISZERO PUSH2 0xC1E JUMPI PUSH1 0x40 MLOAD PUSH3 0x461BCD PUSH1 0xE5 SHL DUP2 MSTORE PUSH1 0x20 PUSH1 0x4 DUP3 ADD MSTORE PUSH1 0x1B PUSH1 0x24 DUP3 ADD MSTORE PUSH32 0x496E76616C696420646973636F756E742070657263656E746167650000000000 PUSH1 0x44 DUP3 ADD MSTORE PUSH1 0x64 ADD PUSH2 0x7C6 JUMP JUMPDEST PUSH2 0x23E3 DUP4 DUP4 PUSH2 0x24C8 JUMP JUMPDEST PUSH2 0xC1E PUSH1 0x0 DUP5 DUP5 DUP5 PUSH2 0x1E9C JUMP JUMPDEST PUSH1 0x60 PUSH2 0x23FB DUP3 PUSH2 0x1811 JUMP JUMPDEST POP PUSH1 0x0 PUSH2 0x2413 PUSH1 0x40 DUP1 MLOAD PUSH1 0x20 DUP2 ADD SWAP1 SWAP2 MSTORE PUSH1 0x0 DUP2 MSTORE SWAP1 JUMP JUMPDEST SWAP1 POP PUSH1 0x0 DUP2 MLOAD GT PUSH2 0x2433 JUMPI PUSH1 0x40 MLOAD DUP1 PUSH1 0x20 ADD PUSH1 0x40 MSTORE DUP1 PUSH1 0x0 DUP2 MSTORE POP PUSH2 0x245E JUMP JUMPDEST DUP1 PUSH2 0x243D DUP5 PUSH2 0x252D JUMP JUMPDEST PUSH1 0x40 MLOAD PUSH1 0x20 ADD PUSH2 0x244E SWAP3 SWAP2 SWAP1 PUSH2 0x2EFC JUMP JUMPDEST PUSH1 0x40 MLOAD PUSH1 0x20 DUP2 DUP4 SUB SUB DUP2 MSTORE SWAP1 PUSH1 0x40 MSTORE JUMPDEST SWAP4 SWAP3 POP POP POP JUMP JUMPDEST PUSH1 0x0 PUSH1 0x1 PUSH1 0x1 PUSH1 0xA0 SHL SUB DUP4 AND ISZERO DUP1 ISZERO SWAP1 PUSH2 0x2138 JUMPI POP DUP3 PUSH1 0x1 PUSH1 0x1 PUSH1 0xA0 SHL SUB AND DUP5 PUSH1 0x1 PUSH1 0x1 PUSH1 0xA0 SHL SUB AND EQ DUP1 PUSH2 0x249F JUMPI POP PUSH2 0x249F DUP5 DUP5 PUSH2 0x162B JUMP JUMPDEST DUP1 PUSH2 0x2138 JUMPI POP POP PUSH1 0x0 SWAP1 DUP2 MSTORE PUSH1 0x4 PUSH1 0x20 MSTORE PUSH1 0x40 SWAP1 KECCAK256 SLOAD PUSH1 0x1 PUSH1 0x1 PUSH1 0xA0 SHL SUB SWAP1 DUP2 AND SWAP2 AND EQ SWAP2 SWAP1 POP JUMP JUMPDEST PUSH1 0x1 PUSH1 0x1 PUSH1 0xA0 SHL SUB DUP3 AND PUSH2 0x24F2 JUMPI PUSH1 0x40 MLOAD PUSH4 0x32505749 PUSH1 0xE1 SHL DUP2 MSTORE PUSH1 0x0 PUSH1 0x4 DUP3 ADD MSTORE PUSH1 0x24 ADD PUSH2 0x7C6 JUMP JUMPDEST PUSH1 0x0 PUSH2 0x2500 DUP4 DUP4 PUSH1 0x0 PUSH2 0x1857 JUMP JUMPDEST SWAP1 POP PUSH1 0x1 PUSH1 0x1 PUSH1 0xA0 SHL SUB DUP2 AND ISZERO PUSH2 0xC1E JUMPI PUSH1 0x40 MLOAD PUSH4 0x39E35637 PUSH1 0xE1 SHL DUP2 MSTORE PUSH1 0x0 PUSH1 0x4 DUP3 ADD MSTORE PUSH1 0x24 ADD PUSH2 0x7C6 JUMP JUMPDEST PUSH1 0x60 PUSH1 0x0 PUSH2 0x253A DUP4 PUSH2 0x25C0 JUMP JUMPDEST PUSH1 0x1 ADD SWAP1 POP PUSH1 0x0 DUP2 PUSH8 0xFFFFFFFFFFFFFFFF DUP2 GT ISZERO PUSH2 0x255A JUMPI PUSH2 0x255A PUSH2 0x26CB JUMP JUMPDEST PUSH1 0x40 MLOAD SWAP1 DUP1 DUP3 MSTORE DUP1 PUSH1 0x1F ADD PUSH1 0x1F NOT AND PUSH1 0x20 ADD DUP3 ADD PUSH1 0x40 MSTORE DUP1 ISZERO PUSH2 0x2584 JUMPI PUSH1 0x20 DUP3 ADD DUP2 DUP1 CALLDATASIZE DUP4 CALLDATACOPY ADD SWAP1 POP JUMPDEST POP SWAP1 POP DUP2 DUP2 ADD PUSH1 0x20 ADD JUMPDEST PUSH1 0x0 NOT ADD PUSH16 0x181899199A1A9B1B9C1CB0B131B232B3 PUSH1 0x81 SHL PUSH1 0xA DUP7 MOD BYTE DUP2 MSTORE8 PUSH1 0xA DUP6 DIV SWAP5 POP DUP5 PUSH2 0x258E JUMPI POP SWAP4 SWAP3 POP POP POP JUMP JUMPDEST PUSH1 0x0 DUP1 PUSH19 0x184F03E93FF9F4DAA797ED6E38ED64BF6A1F01 PUSH1 0x40 SHL DUP4 LT PUSH2 0x25FF JUMPI PUSH19 0x184F03E93FF9F4DAA797ED6E38ED64BF6A1F01 PUSH1 0x40 SHL DUP4 DIV SWAP3 POP PUSH1 0x40 ADD JUMPDEST PUSH14 0x4EE2D6D415B85ACEF8100000000 DUP4 LT PUSH2 0x262B JUMPI PUSH14 0x4EE2D6D415B85ACEF8100000000 DUP4 DIV SWAP3 POP PUSH1 0x20 ADD JUMPDEST PUSH7 0x2386F26FC10000 DUP4 LT PUSH2 0x2649 JUMPI PUSH7 0x2386F26FC10000 DUP4 DIV SWAP3 POP PUSH1 0x10 ADD JUMPDEST PUSH4 0x5F5E100 DUP4 LT PUSH2 0x2661 JUMPI PUSH4 0x5F5E100 DUP4 DIV SWAP3 POP PUSH1 0x8 ADD JUMPDEST PUSH2 0x2710 DUP4 LT PUSH2 0x2675 JUMPI PUSH2 0x2710 DUP4 DIV SWAP3 POP PUSH1 0x4 ADD JUMPDEST PUSH1 0x64 DUP4 LT PUSH2 0x2687 JUMPI PUSH1 0x64 DUP4 DIV SWAP3 POP PUSH1 0x2 ADD JUMPDEST PUSH1 0xA DUP4 LT PUSH2 0x5E6 JUMPI PUSH1 0x1 ADD SWAP3 SWAP2 POP POP JUMP JUMPDEST PUSH1 0x1 PUSH1 0x1 PUSH1 0xE0 SHL SUB NOT DUP2 AND DUP2 EQ PUSH2 0x1694 JUMPI PUSH1 0x0 DUP1 REVERT JUMPDEST PUSH1 0x0 PUSH1 0x20 DUP3 DUP5 SUB SLT ISZERO PUSH2 0x26C0 JUMPI PUSH1 0x0 DUP1 REVERT JUMPDEST DUP2 CALLDATALOAD PUSH2 0x245E DUP2 PUSH2 0x2698 JUMP JUMPDEST PUSH4 0x4E487B71 PUSH1 0xE0 SHL PUSH1 0x0 MSTORE PUSH1 0x41 PUSH1 0x4 MSTORE PUSH1 0x24 PUSH1 0x0 REVERT JUMPDEST PUSH1 0x0 PUSH8 0xFFFFFFFFFFFFFFFF DUP1 DUP5 GT ISZERO PUSH2 0x26FC JUMPI PUSH2 0x26FC PUSH2 0x26CB JUMP JUMPDEST PUSH1 0x40 MLOAD PUSH1 0x1F DUP6 ADD PUSH1 0x1F NOT SWAP1 DUP2 AND PUSH1 0x3F ADD AND DUP2 ADD SWAP1 DUP3 DUP3 GT DUP2 DUP4 LT OR ISZERO PUSH2 0x2724 JUMPI PUSH2 0x2724 PUSH2 0x26CB JUMP JUMPDEST DUP2 PUSH1 0x40 MSTORE DUP1 SWAP4 POP DUP6 DUP2 MSTORE DUP7 DUP7 DUP7 ADD GT ISZERO PUSH2 0x273D JUMPI PUSH1 0x0 DUP1 REVERT JUMPDEST DUP6 DUP6 PUSH1 0x20 DUP4 ADD CALLDATACOPY PUSH1 0x0 PUSH1 0x20 DUP8 DUP4 ADD ADD MSTORE POP POP POP SWAP4 SWAP3 POP POP POP JUMP JUMPDEST PUSH1 0x0 DUP3 PUSH1 0x1F DUP4 ADD SLT PUSH2 0x2768 JUMPI PUSH1 0x0 DUP1 REVERT JUMPDEST PUSH2 0x245E DUP4 DUP4 CALLDATALOAD PUSH1 0x20 DUP6 ADD PUSH2 0x26E1 JUMP JUMPDEST PUSH1 0x0 DUP1 PUSH1 0x0 DUP1 PUSH1 0x80 DUP6 DUP8 SUB SLT ISZERO PUSH2 0x278D JUMPI PUSH1 0x0 DUP1 REVERT JUMPDEST DUP5 CALLDATALOAD PUSH8 0xFFFFFFFFFFFFFFFF DUP2 GT ISZERO PUSH2 0x27A4 JUMPI PUSH1 0x0 DUP1 REVERT JUMPDEST PUSH2 0x27B0 DUP8 DUP3 DUP9 ADD PUSH2 0x2757 JUMP JUMPDEST SWAP8 PUSH1 0x20 DUP8 ADD CALLDATALOAD SWAP8 POP PUSH1 0x40 DUP8 ADD CALLDATALOAD SWAP7 PUSH1 0x60 ADD CALLDATALOAD SWAP6 POP SWAP4 POP POP POP POP JUMP JUMPDEST PUSH1 0x0 JUMPDEST DUP4 DUP2 LT ISZERO PUSH2 0x27E6 JUMPI DUP2 DUP2 ADD MLOAD DUP4 DUP3 ADD MSTORE PUSH1 0x20 ADD PUSH2 0x27CE JUMP JUMPDEST POP POP PUSH1 0x0 SWAP2 ADD MSTORE JUMP JUMPDEST PUSH1 0x0 DUP2 MLOAD DUP1 DUP5 MSTORE PUSH2 0x2807 DUP2 PUSH1 0x20 DUP7 ADD PUSH1 0x20 DUP7 ADD PUSH2 0x27CB JUMP JUMPDEST PUSH1 0x1F ADD PUSH1 0x1F NOT AND SWAP3 SWAP1 SWAP3 ADD PUSH1 0x20 ADD SWAP3 SWAP2 POP POP JUMP JUMPDEST PUSH1 0x20 DUP2 MSTORE PUSH1 0x0 PUSH2 0x245E PUSH1 0x20 DUP4 ADD DUP5 PUSH2 0x27EF JUMP JUMPDEST PUSH1 0x0 PUSH1 0x20 DUP3 DUP5 SUB SLT ISZERO PUSH2 0x2840 JUMPI PUSH1 0x0 DUP1 REVERT JUMPDEST POP CALLDATALOAD SWAP2 SWAP1 POP JUMP JUMPDEST DUP1 CALLDATALOAD PUSH1 0x1 PUSH1 0x1 PUSH1 0xA0 SHL SUB DUP2 AND DUP2 EQ PUSH2 0x285E JUMPI PUSH1 0x0 DUP1 REVERT JUMPDEST SWAP2 SWAP1 POP JUMP JUMPDEST PUSH1 0x0 DUP1 PUSH1 0x40 DUP4 DUP6 SUB SLT ISZERO PUSH2 0x2876 JUMPI PUSH1 0x0 DUP1 REVERT JUMPDEST PUSH2 0x287F DUP4 PUSH2 0x2847 JUMP JUMPDEST SWAP5 PUSH1 0x20 SWAP4 SWAP1 SWAP4 ADD CALLDATALOAD SWAP4 POP POP POP JUMP JUMPDEST PUSH1 0xC0 DUP2 MSTORE PUSH1 0x0 PUSH2 0x28A0 PUSH1 0xC0 DUP4 ADD DUP10 PUSH2 0x27EF JUMP JUMPDEST PUSH1 0x20 DUP4 ADD SWAP8 SWAP1 SWAP8 MSTORE POP PUSH1 0x40 DUP2 ADD SWAP5 SWAP1 SWAP5 MSTORE PUSH1 0x60 DUP5 ADD SWAP3 SWAP1 SWAP3 MSTORE ISZERO ISZERO PUSH1 0x80 DUP4 ADD MSTORE PUSH1 0xA0 SWAP1 SWAP2 ADD MSTORE SWAP2 SWAP1 POP JUMP JUMPDEST PUSH1 0x0 DUP1 PUSH1 0x0 PUSH1 0x60 DUP5 DUP7 SUB SLT ISZERO PUSH2 0x28E0 JUMPI PUSH1 0x0 DUP1 REVERT JUMPDEST PUSH2 0x28E9 DUP5 PUSH2 0x2847 JUMP JUMPDEST SWAP3 POP PUSH2 0x28F7 PUSH1 0x20 DUP6 ADD PUSH2 0x2847 JUMP JUMPDEST SWAP2 POP PUSH1 0x40 DUP5 ADD CALLDATALOAD SWAP1 POP SWAP3 POP SWAP3 POP SWAP3 JUMP JUMPDEST PUSH1 0x0 DUP1 PUSH1 0x0 PUSH1 0x60 DUP5 DUP7 SUB SLT ISZERO PUSH2 0x291C JUMPI PUSH1 0x0 DUP1 REVERT JUMPDEST DUP4 CALLDATALOAD SWAP3 POP PUSH1 0x20 DUP5 ADD CALLDATALOAD SWAP2 POP PUSH1 0x40 DUP5 ADD CALLDATALOAD PUSH8 0xFFFFFFFFFFFFFFFF DUP2 GT ISZERO PUSH2 0x2941 JUMPI PUSH1 0x0 DUP1 REVERT JUMPDEST PUSH2 0x294D DUP7 DUP3 DUP8 ADD PUSH2 0x2757 JUMP JUMPDEST SWAP2 POP POP SWAP3 POP SWAP3 POP SWAP3 JUMP JUMPDEST PUSH1 0xE0 DUP2 MSTORE PUSH1 0x0 PUSH2 0x296A PUSH1 0xE0 DUP4 ADD DUP11 PUSH2 0x27EF JUMP JUMPDEST DUP9 PUSH1 0x20 DUP5 ADD MSTORE DUP8 PUSH1 0x40 DUP5 ADD MSTORE DUP7 PUSH1 0x60 DUP5 ADD MSTORE DUP6 ISZERO ISZERO PUSH1 0x80 DUP5 ADD MSTORE DUP3 DUP2 SUB PUSH1 0xA0 DUP5 ADD MSTORE PUSH2 0x2996 DUP2 DUP7 PUSH2 0x27EF JUMP JUMPDEST SWAP2 POP POP DUP3 ISZERO ISZERO PUSH1 0xC0 DUP4 ADD MSTORE SWAP9 SWAP8 POP POP POP POP POP POP POP POP JUMP JUMPDEST PUSH1 0x0 PUSH1 0x20 DUP3 DUP5 SUB SLT ISZERO PUSH2 0x29BF JUMPI PUSH1 0x0 DUP1 REVERT JUMPDEST PUSH2 0x245E DUP3 PUSH2 0x2847 JUMP JUMPDEST PUSH1 0x0 DUP1 PUSH1 0x40 DUP4 DUP6 SUB SLT ISZERO PUSH2 0x29DB JUMPI PUSH1 0x0 DUP1 REVERT JUMPDEST POP POP DUP1 CALLDATALOAD SWAP3 PUSH1 0x20 SWAP1 SWAP2 ADD CALLDATALOAD SWAP2 POP JUMP JUMPDEST DUP6 DUP2 MSTORE PUSH1 0x1 DUP1 PUSH1 0xA0 SHL SUB DUP6 AND PUSH1 0x20 DUP3 ADD MSTORE DUP4 PUSH1 0x40 DUP3 ADD MSTORE PUSH1 0xA0 PUSH1 0x60 DUP3 ADD MSTORE PUSH1 0x0 PUSH2 0x2A17 PUSH1 0xA0 DUP4 ADD DUP6 PUSH2 0x27EF JUMP JUMPDEST DUP3 DUP2 SUB PUSH1 0x80 DUP5 ADD MSTORE PUSH2 0x2A29 DUP2 DUP6 PUSH2 0x27EF JUMP JUMPDEST SWAP9 SWAP8 POP POP POP POP POP POP POP POP JUMP JUMPDEST DUP1 CALLDATALOAD DUP1 ISZERO ISZERO DUP2 EQ PUSH2 0x285E JUMPI PUSH1 0x0 DUP1 REVERT JUMPDEST PUSH1 0x0 DUP1 PUSH1 0x0 DUP1 PUSH1 0x0 DUP1 PUSH1 0x0 DUP1 PUSH2 0x100 DUP10 DUP12 SUB SLT ISZERO PUSH2 0x2A62 JUMPI PUSH1 0x0 DUP1 REVERT JUMPDEST DUP9 CALLDATALOAD SWAP8 POP PUSH1 0x20 DUP10 ADD CALLDATALOAD PUSH8 0xFFFFFFFFFFFFFFFF DUP1 DUP3 GT ISZERO PUSH2 0x2A81 JUMPI PUSH1 0x0 DUP1 REVERT JUMPDEST PUSH2 0x2A8D DUP13 DUP4 DUP14 ADD PUSH2 0x2757 JUMP JUMPDEST SWAP9 POP PUSH1 0x40 DUP12 ADD CALLDATALOAD SWAP8 POP PUSH1 0x60 DUP12 ADD CALLDATALOAD SWAP7 POP PUSH1 0x80 DUP12 ADD CALLDATALOAD SWAP6 POP PUSH2 0x2AB0 PUSH1 0xA0 DUP13 ADD PUSH2 0x2A35 JUMP JUMPDEST SWAP5 POP PUSH1 0xC0 DUP12 ADD CALLDATALOAD SWAP2 POP DUP1 DUP3 GT ISZERO PUSH2 0x2AC6 JUMPI PUSH1 0x0 DUP1 REVERT JUMPDEST POP PUSH2 0x2AD3 DUP12 DUP3 DUP13 ADD PUSH2 0x2757 JUMP JUMPDEST SWAP3 POP POP PUSH2 0x2AE2 PUSH1 0xE0 DUP11 ADD PUSH2 0x2A35 JUMP JUMPDEST SWAP1 POP SWAP3 SWAP6 SWAP9 POP SWAP3 SWAP6 SWAP9 SWAP1 SWAP4 SWAP7 POP JUMP JUMPDEST PUSH1 0x0 DUP1 PUSH1 0x40 DUP4 DUP6 SUB SLT ISZERO PUSH2 0x2B04 JUMPI PUSH1 0x0 DUP1 REVERT JUMPDEST PUSH2 0x2B0D DUP4 PUSH2 0x2847 JUMP JUMPDEST SWAP2 POP PUSH2 0x2B1B PUSH1 0x20 DUP5 ADD PUSH2 0x2A35 JUMP JUMPDEST SWAP1 POP SWAP3 POP SWAP3 SWAP1 POP JUMP JUMPDEST PUSH1 0x0 DUP1 PUSH1 0x0 DUP1 PUSH1 0x80 DUP6 DUP8 SUB SLT ISZERO PUSH2 0x2B3A JUMPI PUSH1 0x0 DUP1 REVERT JUMPDEST PUSH2 0x2B43 DUP6 PUSH2 0x2847 JUMP JUMPDEST SWAP4 POP PUSH2 0x2B51 PUSH1 0x20 DUP7 ADD PUSH2 0x2847 JUMP JUMPDEST SWAP3 POP PUSH1 0x40 DUP6 ADD CALLDATALOAD SWAP2 POP PUSH1 0x60 DUP6 ADD CALLDATALOAD PUSH8 0xFFFFFFFFFFFFFFFF DUP2 GT ISZERO PUSH2 0x2B74 JUMPI PUSH1 0x0 DUP1 REVERT JUMPDEST DUP6 ADD PUSH1 0x1F DUP2 ADD DUP8 SGT PUSH2 0x2B85 JUMPI PUSH1 0x0 DUP1 REVERT JUMPDEST PUSH2 0x2B94 DUP8 DUP3 CALLDATALOAD PUSH1 0x20 DUP5 ADD PUSH2 0x26E1 JUMP JUMPDEST SWAP2 POP POP SWAP3 SWAP6 SWAP2 SWAP5 POP SWAP3 POP JUMP JUMPDEST PUSH1 0x20 DUP1 DUP3 MSTORE DUP3 MLOAD DUP3 DUP3 ADD DUP2 SWAP1 MSTORE PUSH1 0x0 SWAP2 SWAP1 DUP5 DUP3 ADD SWAP1 PUSH1 0x40 DUP6 ADD SWAP1 DUP5 JUMPDEST DUP2 DUP2 LT ISZERO PUSH2 0x2BD8 JUMPI DUP4 MLOAD DUP4 MSTORE SWAP3 DUP5 ADD SWAP3 SWAP2 DUP5 ADD SWAP2 PUSH1 0x1 ADD PUSH2 0x2BBC JUMP JUMPDEST POP SWAP1 SWAP7 SWAP6 POP POP POP POP POP POP JUMP JUMPDEST PUSH1 0x0 DUP1 PUSH1 0x0 PUSH1 0x60 DUP5 DUP7 SUB SLT ISZERO PUSH2 0x2BF9 JUMPI PUSH1 0x0 DUP1 REVERT JUMPDEST DUP4 CALLDATALOAD SWAP3 POP PUSH2 0x2C09 PUSH1 0x20 DUP6 ADD PUSH2 0x2847 JUMP JUMPDEST SWAP2 POP PUSH1 0x40 DUP5 ADD CALLDATALOAD PUSH8 0xFFFFFFFFFFFFFFFF DUP2 GT ISZERO PUSH2 0x2941 JUMPI PUSH1 0x0 DUP1 REVERT JUMPDEST PUSH1 0x0 DUP1 PUSH1 0x40 DUP4 DUP6 SUB SLT ISZERO PUSH2 0x2C38 JUMPI PUSH1 0x0 DUP1 REVERT JUMPDEST PUSH2 0x2C41 DUP4 PUSH2 0x2847 JUMP JUMPDEST SWAP2 POP PUSH2 0x2B1B PUSH1 0x20 DUP5 ADD PUSH2 0x2847 JUMP JUMPDEST PUSH1 0x1 DUP2 DUP2 SHR SWAP1 DUP3 AND DUP1 PUSH2 0x2C63 JUMPI PUSH1 0x7F DUP3 AND SWAP2 POP JUMPDEST PUSH1 0x20 DUP3 LT DUP2 SUB PUSH2 0x2C83 JUMPI PUSH4 0x4E487B71 PUSH1 0xE0 SHL PUSH1 0x0 MSTORE PUSH1 0x22 PUSH1 0x4 MSTORE PUSH1 0x24 PUSH1 0x0 REVERT JUMPDEST POP SWAP2 SWAP1 POP JUMP JUMPDEST PUSH1 0x20 DUP1 DUP3 MSTORE PUSH1 0x14 SWAP1 DUP3 ADD MSTORE PUSH20 0x151BDAD95B88191BD95CC81B9BDD08195E1A5CDD PUSH1 0x62 SHL PUSH1 0x40 DUP3 ADD MSTORE PUSH1 0x60 ADD SWAP1 JUMP JUMPDEST PUSH1 0x20 DUP1 DUP3 MSTORE PUSH1 0x14 SWAP1 DUP3 ADD MSTORE PUSH20 0x496E73756666696369656E742062616C616E6365 PUSH1 0x60 SHL PUSH1 0x40 DUP3 ADD MSTORE PUSH1 0x60 ADD SWAP1 JUMP JUMPDEST PUSH4 0x4E487B71 PUSH1 0xE0 SHL PUSH1 0x0 MSTORE PUSH1 0x11 PUSH1 0x4 MSTORE PUSH1 0x24 PUSH1 0x0 REVERT JUMPDEST DUP2 DUP2 SUB DUP2 DUP2 GT ISZERO PUSH2 0x5E6 JUMPI PUSH2 0x5E6 PUSH2 0x2CE5 JUMP JUMPDEST PUSH4 0x4E487B71 PUSH1 0xE0 SHL PUSH1 0x0 MSTORE PUSH1 0x32 PUSH1 0x4 MSTORE PUSH1 0x24 PUSH1 0x0 REVERT JUMPDEST PUSH1 0x0 PUSH1 0x1 DUP3 ADD PUSH2 0x2D36 JUMPI PUSH2 0x2D36 PUSH2 0x2CE5 JUMP JUMPDEST POP PUSH1 0x1 ADD SWAP1 JUMP JUMPDEST PUSH1 0x0 DUP4 MLOAD PUSH2 0x2D4F DUP2 DUP5 PUSH1 0x20 DUP9 ADD PUSH2 0x27CB JUMP JUMPDEST SWAP2 SWAP1 SWAP2 ADD SWAP2 DUP3 MSTORE POP PUSH1 0x20 ADD SWAP2 SWAP1 POP JUMP JUMPDEST PUSH1 0x1F DUP3 GT ISZERO PUSH2 0xC1E JUMPI PUSH1 0x0 DUP2 DUP2 MSTORE PUSH1 0x20 DUP2 KECCAK256 PUSH1 0x1F DUP6 ADD PUSH1 0x5 SHR DUP2 ADD PUSH1 0x20 DUP7 LT ISZERO PUSH2 0x2D86 JUMPI POP DUP1 JUMPDEST PUSH1 0x1F DUP6 ADD PUSH1 0x5 SHR DUP3 ADD SWAP2 POP JUMPDEST DUP2 DUP2 LT ISZERO PUSH2 0x2DA5 JUMPI DUP3 DUP2 SSTORE PUSH1 0x1 ADD PUSH2 0x2D92 JUMP JUMPDEST POP POP POP POP POP POP JUMP JUMPDEST DUP2 MLOAD PUSH8 0xFFFFFFFFFFFFFFFF DUP2 GT ISZERO PUSH2 0x2DC7 JUMPI PUSH2 0x2DC7 PUSH2 0x26CB JUMP JUMPDEST PUSH2 0x2DDB DUP2 PUSH2 0x2DD5 DUP5 SLOAD PUSH2 0x2C4F JUMP JUMPDEST DUP5 PUSH2 0x2D5F JUMP JUMPDEST PUSH1 0x20 DUP1 PUSH1 0x1F DUP4 GT PUSH1 0x1 DUP2 EQ PUSH2 0x2E10 JUMPI PUSH1 0x0 DUP5 ISZERO PUSH2 0x2DF8 JUMPI POP DUP6 DUP4 ADD MLOAD JUMPDEST PUSH1 0x0 NOT PUSH1 0x3 DUP7 SWAP1 SHL SHR NOT AND PUSH1 0x1 DUP6 SWAP1 SHL OR DUP6 SSTORE PUSH2 0x2DA5 JUMP JUMPDEST PUSH1 0x0 DUP6 DUP2 MSTORE PUSH1 0x20 DUP2 KECCAK256 PUSH1 0x1F NOT DUP7 AND SWAP2 JUMPDEST DUP3 DUP2 LT ISZERO PUSH2 0x2E3F JUMPI DUP9 DUP7 ADD MLOAD DUP3 SSTORE SWAP5 DUP5 ADD SWAP5 PUSH1 0x1 SWAP1 SWAP2 ADD SWAP1 DUP5 ADD PUSH2 0x2E20 JUMP JUMPDEST POP DUP6 DUP3 LT ISZERO PUSH2 0x2E5D JUMPI DUP8 DUP6 ADD MLOAD PUSH1 0x0 NOT PUSH1 0x3 DUP9 SWAP1 SHL PUSH1 0xF8 AND SHR NOT AND DUP2 SSTORE JUMPDEST POP POP POP POP POP PUSH1 0x1 SWAP1 DUP2 SHL ADD SWAP1 SSTORE POP JUMP JUMPDEST PUSH1 0x40 DUP2 MSTORE PUSH1 0x0 PUSH2 0x2E80 PUSH1 0x40 DUP4 ADD DUP6 PUSH2 0x27EF JUMP JUMPDEST SWAP1 POP DUP3 PUSH1 0x20 DUP4 ADD MSTORE SWAP4 SWAP3 POP POP POP JUMP JUMPDEST DUP1 DUP3 ADD DUP1 DUP3 GT ISZERO PUSH2 0x5E6 JUMPI PUSH2 0x5E6 PUSH2 0x2CE5 JUMP JUMPDEST PUSH1 0x1 PUSH1 0x1 PUSH1 0xA0 SHL SUB DUP6 DUP2 AND DUP3 MSTORE DUP5 AND PUSH1 0x20 DUP3 ADD MSTORE PUSH1 0x40 DUP2 ADD DUP4 SWAP1 MSTORE PUSH1 0x80 PUSH1 0x60 DUP3 ADD DUP2 SWAP1 MSTORE PUSH1 0x0 SWAP1 PUSH2 0x2ED5 SWAP1 DUP4 ADD DUP5 PUSH2 0x27EF JUMP JUMPDEST SWAP7 SWAP6 POP POP POP POP POP POP JUMP JUMPDEST PUSH1 0x0 PUSH1 0x20 DUP3 DUP5 SUB SLT ISZERO PUSH2 0x2EF1 JUMPI PUSH1 0x0 DUP1 REVERT JUMPDEST DUP2 MLOAD PUSH2 0x245E DUP2 PUSH2 0x2698 JUMP JUMPDEST PUSH1 0x0 DUP4 MLOAD PUSH2 0x2F0E DUP2 DUP5 PUSH1 0x20 DUP9 ADD PUSH2 0x27CB JUMP JUMPDEST DUP4 MLOAD SWAP1 DUP4 ADD SWAP1 PUSH2 0x2F22 DUP2 DUP4 PUSH1 0x20 DUP9 ADD PUSH2 0x27CB JUMP JUMPDEST ADD SWAP5 SWAP4 POP POP POP POP JUMP INVALID LOG2 PUSH5 0x6970667358 0x22 SLT KECCAK256 SWAP13 NUMBER SWAP3 PUSH1 0xD4 SHL 0xED PUSH11 0x54C323B85840B957389015 ADD SWAP15 PUSH31 0xD3433B2FCFE7DCA563E764736F6C6343000814003300000000000000000000 "},"methodIdentifiers":{"addSupportedToken(address)":"6d69fcaf","addTemplate(uint256,string,uint256,uint256,uint256,bool,string,bool)":"96651ec3","approve(address,uint256)":"095ea7b3","authorizeMerchant(address)":"37ae9c13","authorizedMerchants(address)":"ca2efd38","balanceOf(address)":"70a08231","checkInEvent(uint256,uint256)":"772a9c55","createEvent(string,uint256,uint256,uint256)":"0374ab0b","eventCheckIns(uint256,uint256)":"73deb9fd","events(uint256)":"0b791430","getApproved(uint256)":"081812fc","getTemplate(uint256)":"31543cf4","getTemplateCount()":"5016959a","getTokenEvents(uint256)":"c4754b77","initializeDefaultTemplates()":"8af5ae99","isApprovedForAll(address,address)":"e985e9c5","isCheckedIn(uint256,uint256)":"706cf3a0","mintFromTemplate(uint256,address,string)":"c58d0686","name()":"06fdde03","owner()":"8da5cb5b","ownerOf(uint256)":"6352211e","paused()":"5c975abb","processPayment(uint256,uint256,string)":"28342133","purchaseEventEntrance(uint256,uint256)":"b701b319","renounceOwnership()":"715018a6","revokeMerchant(address)":"819a701c","safeTransferFrom(address,address,uint256)":"42842e0e","safeTransferFrom(address,address,uint256,bytes)":"b88d4fde","setApprovalForAll(address,bool)":"a22cb465","supportedTokens(address)":"68c4ac26","supportsInterface(bytes4)":"01ffc9a7","symbol()":"95d89b41","templates(uint256)":"bc525652","tokenBalance(uint256)":"49afc6e5","tokenEvents(uint256,uint256)":"a871bd66","tokenURI(uint256)":"c87b56dd","transactions(uint256,uint256)":"4eaf9db6","transferFrom(address,address,uint256)":"23b872dd","transferOwnership(address)":"f2fde38b"}},"storageLayout":{"storage":[{"astId":427,"contract":"contracts/v2/WaveXNFTV2Updated.sol:WaveXNFTV2Updated","label":"_name","offset":0,"slot":"0","type":"t_string_storage"},{"astId":429,"contract":"contracts/v2/WaveXNFTV2Updated.sol:WaveXNFTV2Updated","label":"_symbol","offset":0,"slot":"1","type":"t_string_storage"},{"astId":433,"contract":"contracts/v2/WaveXNFTV2Updated.sol:WaveXNFTV2Updated","label":"_owners","offset":0,"slot":"2","type":"t_mapping(t_uint256,t_address)"},{"astId":437,"contract":"contracts/v2/WaveXNFTV2Updated.sol:WaveXNFTV2Updated","label":"_balances","offset":0,"slot":"3","type":"t_mapping(t_address,t_uint256)"},{"astId":441,"contract":"contracts/v2/WaveXNFTV2Updated.sol:WaveXNFTV2Updated","label":"_tokenApprovals","offset":0,"slot":"4","type":"t_mapping(t_uint256,t_address)"},{"astId":447,"contract":"contracts/v2/WaveXNFTV2Updated.sol:WaveXNFTV2Updated","label":"_operatorApprovals","offset":0,"slot":"5","type":"t_mapping(t_address,t_mapping(t_address,t_bool))"},{"astId":1566,"contract":"contracts/v2/WaveXNFTV2Updated.sol:WaveXNFTV2Updated","label":"_tokenURIs","offset":0,"slot":"6","type":"t_mapping(t_uint256,t_string_storage)"},{"astId":1731,"contract":"contracts/v2/WaveXNFTV2Updated.sol:WaveXNFTV2Updated","label":"_paused","offset":0,"slot":"7","type":"t_bool"},{"astId":8,"contract":"contracts/v2/WaveXNFTV2Updated.sol:WaveXNFTV2Updated","label":"_owner","offset":1,"slot":"7","type":"t_address"},{"astId":3779,"contract":"contracts/v2/WaveXNFTV2Updated.sol:WaveXNFTV2Updated","label":"_tokenIds","offset":0,"slot":"8","type":"t_uint256"},{"astId":3781,"contract":"contracts/v2/WaveXNFTV2Updated.sol:WaveXNFTV2Updated","label":"_templateIds","offset":0,"slot":"9","type":"t_uint256"},{"astId":3786,"contract":"contracts/v2/WaveXNFTV2Updated.sol:WaveXNFTV2Updated","label":"templates","offset":0,"slot":"10","type":"t_mapping(t_uint256,t_struct(Template)3306_storage)"},{"astId":3791,"contract":"contracts/v2/WaveXNFTV2Updated.sol:WaveXNFTV2Updated","label":"events","offset":0,"slot":"11","type":"t_mapping(t_uint256,t_struct(Event)3319_storage)"},{"astId":3795,"contract":"contracts/v2/WaveXNFTV2Updated.sol:WaveXNFTV2Updated","label":"tokenBalance","offset":0,"slot":"12","type":"t_mapping(t_uint256,t_uint256)"},{"astId":3801,"contract":"contracts/v2/WaveXNFTV2Updated.sol:WaveXNFTV2Updated","label":"transactions","offset":0,"slot":"13","type":"t_mapping(t_uint256,t_array(t_struct(Transaction)3330_storage)dyn_storage)"},{"astId":3806,"contract":"contracts/v2/WaveXNFTV2Updated.sol:WaveXNFTV2Updated","label":"tokenEvents","offset":0,"slot":"14","type":"t_mapping(t_uint256,t_array(t_uint256)dyn_storage)"},{"astId":3810,"contract":"contracts/v2/WaveXNFTV2Updated.sol:WaveXNFTV2Updated","label":"authorizedMerchants","offset":0,"slot":"15","type":"t_mapping(t_address,t_bool)"},{"astId":3814,"contract":"contracts/v2/WaveXNFTV2Updated.sol:WaveXNFTV2Updated","label":"supportedTokens","offset":0,"slot":"16","type":"t_mapping(t_address,t_bool)"},{"astId":3820,"contract":"contracts/v2/WaveXNFTV2Updated.sol:WaveXNFTV2Updated","label":"eventCheckIns","offset":0,"slot":"17","type":"t_mapping(t_uint256,t_mapping(t_uint256,t_bool))"}],"types":{"t_address":{"encoding":"inplace","label":"address","numberOfBytes":"20"},"t_array(t_struct(Transaction)3330_storage)dyn_storage":{"base":"t_struct(Transaction)3330_storage","encoding":"dynamic_array","label":"struct IWaveXNFTV2Updated.Transaction[]","numberOfBytes":"32"},"t_array(t_uint256)dyn_storage":{"base":"t_uint256","encoding":"dynamic_array","label":"uint256[]","numberOfBytes":"32"},"t_bool":{"encoding":"inplace","label":"bool","numberOfBytes":"1"},"t_mapping(t_address,t_bool)":{"encoding":"mapping","key":"t_address","label":"mapping(address => bool)","numberOfBytes":"32","value":"t_bool"},"t_mapping(t_address,t_mapping(t_address,t_bool))":{"encoding":"mapping","key":"t_address","label":"mapping(address => mapping(address => bool))","numberOfBytes":"32","value":"t_mapping(t_address,t_bool)"},"t_mapping(t_address,t_uint256)":{"encoding":"mapping","key":"t_address","label":"mapping(address => uint256)","numberOfBytes":"32","value":"t_uint256"},"t_mapping(t_uint256,t_address)":{"encoding":"mapping","key":"t_uint256","label":"mapping(uint256 => address)","numberOfBytes":"32","value":"t_address"},"t_mapping(t_uint256,t_array(t_struct(Transaction)3330_storage)dyn_storage)":{"encoding":"mapping","key":"t_uint256","label":"mapping(uint256 => struct IWaveXNFTV2Updated.Transaction[])","numberOfBytes":"32","value":"t_array(t_struct(Transaction)3330_storage)dyn_storage"},"t_mapping(t_uint256,t_array(t_uint256)dyn_storage)":{"encoding":"mapping","key":"t_uint256","label":"mapping(uint256 => uint256[])","numberOfBytes":"32","value":"t_array(t_uint256)dyn_storage"},"t_mapping(t_uint256,t_bool)":{"encoding":"mapping","key":"t_uint256","label":"mapping(uint256 => bool)","numberOfBytes":"32","value":"t_bool"},"t_mapping(t_uint256,t_mapping(t_uint256,t_bool))":{"encoding":"mapping","key":"t_uint256","label":"mapping(uint256 => mapping(uint256 => bool))","numberOfBytes":"32","value":"t_mapping(t_uint256,t_bool)"},"t_mapping(t_uint256,t_string_storage)":{"encoding":"mapping","key":"t_uint256","label":"mapping(uint256 => string)","numberOfBytes":"32","value":"t_string_storage"},"t_mapping(t_uint256,t_struct(Event)3319_storage)":{"encoding":"mapping","key":"t_uint256","label":"mapping(uint256 => struct IWaveXNFTV2Updated.Event)","numberOfBytes":"32","value":"t_struct(Event)3319_storage"},"t_mapping(t_uint256,t_struct(Template)3306_storage)":{"encoding":"mapping","key":"t_uint256","label":"mapping(uint256 => struct IWaveXNFTV2Updated.Template)","numberOfBytes":"32","value":"t_struct(Template)3306_storage"},"t_mapping(t_uint256,t_uint256)":{"encoding":"mapping","key":"t_uint256","label":"mapping(uint256 => uint256)","numberOfBytes":"32","value":"t_uint256"},"t_string_storage":{"encoding":"bytes","label":"string","numberOfBytes":"32"},"t_struct(Event)3319_storage":{"encoding":"inplace","label":"struct IWaveXNFTV2Updated.Event","members":[{"astId":3308,"contract":"contracts/v2/WaveXNFTV2Updated.sol:WaveXNFTV2Updated","label":"name","offset":0,"slot":"0","type":"t_string_storage"},{"astId":3310,"contract":"contracts/v2/WaveXNFTV2Updated.sol:WaveXNFTV2Updated","label":"price","offset":0,"slot":"1","type":"t_uint256"},{"astId":3312,"contract":"contracts/v2/WaveXNFTV2Updated.sol:WaveXNFTV2Updated","label":"capacity","offset":0,"slot":"2","type":"t_uint256"},{"astId":3314,"contract":"contracts/v2/WaveXNFTV2Updated.sol:WaveXNFTV2Updated","label":"soldCount","offset":0,"slot":"3","type":"t_uint256"},{"astId":3316,"contract":"contracts/v2/WaveXNFTV2Updated.sol:WaveXNFTV2Updated","label":"active","offset":0,"slot":"4","type":"t_bool"},{"astId":3318,"contract":"contracts/v2/WaveXNFTV2Updated.sol:WaveXNFTV2Updated","label":"eventType","offset":0,"slot":"5","type":"t_uint256"}],"numberOfBytes":"192"},"t_struct(Template)3306_storage":{"encoding":"inplace","label":"struct IWaveXNFTV2Updated.Template","members":[{"astId":3293,"contract":"contracts/v2/WaveXNFTV2Updated.sol:WaveXNFTV2Updated","label":"name","offset":0,"slot":"0","type":"t_string_storage"},{"astId":3295,"contract":"contracts/v2/WaveXNFTV2Updated.sol:WaveXNFTV2Updated","label":"baseBalance","offset":0,"slot":"1","type":"t_uint256"},{"astId":3297,"contract":"contracts/v2/WaveXNFTV2Updated.sol:WaveXNFTV2Updated","label":"price","offset":0,"slot":"2","type":"t_uint256"},{"astId":3299,"contract":"contracts/v2/WaveXNFTV2Updated.sol:WaveXNFTV2Updated","label":"discount","offset":0,"slot":"3","type":"t_uint256"},{"astId":3301,"contract":"contracts/v2/WaveXNFTV2Updated.sol:WaveXNFTV2Updated","label":"isVIP","offset":0,"slot":"4","type":"t_bool"},{"astId":3303,"contract":"contracts/v2/WaveXNFTV2Updated.sol:WaveXNFTV2Updated","label":"metadataURI","offset":0,"slot":"5","type":"t_string_storage"},{"astId":3305,"contract":"contracts/v2/WaveXNFTV2Updated.sol:WaveXNFTV2Updated","label":"active","offset":0,"slot":"6","type":"t_bool"}],"numberOfBytes":"224"},"t_struct(Transaction)3330_storage":{"encoding":"inplace","label":"struct IWaveXNFTV2Updated.Transaction","members":[{"astId":3321,"contract":"contracts/v2/WaveXNFTV2Updated.sol:WaveXNFTV2Updated","label":"timestamp","offset":0,"slot":"0","type":"t_uint256"},{"astId":3323,"contract":"contracts/v2/WaveXNFTV2Updated.sol:WaveXNFTV2Updated","label":"merchant","offset":0,"slot":"1","type":"t_address"},{"astId":3325,"contract":"contracts/v2/WaveXNFTV2Updated.sol:WaveXNFTV2Updated","label":"amount","offset":0,"slot":"2","type":"t_uint256"},{"astId":3327,"contract":"contracts/v2/WaveXNFTV2Updated.sol:WaveXNFTV2Updated","label":"transactionType","offset":0,"slot":"3","type":"t_string_storage"},{"astId":3329,"contract":"contracts/v2/WaveXNFTV2Updated.sol:WaveXNFTV2Updated","label":"metadata","offset":0,"slot":"4","type":"t_string_storage"}],"numberOfBytes":"160"},"t_uint256":{"encoding":"inplace","label":"uint256","numberOfBytes":"32"}}}}}}