{
  "_format": "hh-sol-artifact-1",
  "contractName": "WaveXNFTV2Updated",
  "sourceName": "contracts/v2/WaveXNFTV2Updated.sol",
  "abi": [
    {
      "inputs": [],
      "stateMutability": "nonpayable",
      "type": "constructor"
    },
    {
      "inputs": [
        {
          "internalType": "address",
          "name": "sender",
          "type": "address"
        },
        {
          "internalType": "uint256",
          "name": "tokenId",
          "type": "uint256"
        },
        {
          "internalType": "address",
          "name": "owner",
          "type": "address"
        }
      ],
      "name": "ERC721IncorrectOwner",
      "type": "error"
    },
    {
      "inputs": [
        {
          "internalType": "address",
          "name": "operator",
          "type": "address"
        },
        {
          "internalType": "uint256",
          "name": "tokenId",
          "type": "uint256"
        }
      ],
      "name": "ERC721InsufficientApproval",
      "type": "error"
    },
    {
      "inputs": [
        {
          "internalType": "address",
          "name": "approver",
          "type": "address"
        }
      ],
      "name": "ERC721InvalidApprover",
      "type": "error"
    },
    {
      "inputs": [
        {
          "internalType": "address",
          "name": "operator",
          "type": "address"
        }
      ],
      "name": "ERC721InvalidOperator",
      "type": "error"
    },
    {
      "inputs": [
        {
          "internalType": "address",
          "name": "owner",
          "type": "address"
        }
      ],
      "name": "ERC721InvalidOwner",
      "type": "error"
    },
    {
      "inputs": [
        {
          "internalType": "address",
          "name": "receiver",
          "type": "address"
        }
      ],
      "name": "ERC721InvalidReceiver",
      "type": "error"
    },
    {
      "inputs": [
        {
          "internalType": "address",
          "name": "sender",
          "type": "address"
        }
      ],
      "name": "ERC721InvalidSender",
      "type": "error"
    },
    {
      "inputs": [
        {
          "internalType": "uint256",
          "name": "tokenId",
          "type": "uint256"
        }
      ],
      "name": "ERC721NonexistentToken",
      "type": "error"
    },
    {
      "inputs": [],
      "name": "EnforcedPause",
      "type": "error"
    },
    {
      "inputs": [],
      "name": "ExpectedPause",
      "type": "error"
    },
    {
      "inputs": [
        {
          "internalType": "address",
          "name": "owner",
          "type": "address"
        }
      ],
      "name": "OwnableInvalidOwner",
      "type": "error"
    },
    {
      "inputs": [
        {
          "internalType": "address",
          "name": "account",
          "type": "address"
        }
      ],
      "name": "OwnableUnauthorizedAccount",
      "type": "error"
    },
    {
      "anonymous": false,
      "inputs": [
        {
          "indexed": true,
          "internalType": "address",
          "name": "owner",
          "type": "address"
        },
        {
          "indexed": true,
          "internalType": "address",
          "name": "approved",
          "type": "address"
        },
        {
          "indexed": true,
          "internalType": "uint256",
          "name": "tokenId",
          "type": "uint256"
        }
      ],
      "name": "Approval",
      "type": "event"
    },
    {
      "anonymous": false,
      "inputs": [
        {
          "indexed": true,
          "internalType": "address",
          "name": "owner",
          "type": "address"
        },
        {
          "indexed": true,
          "internalType": "address",
          "name": "operator",
          "type": "address"
        },
        {
          "indexed": false,
          "internalType": "bool",
          "name": "approved",
          "type": "bool"
        }
      ],
      "name": "ApprovalForAll",
      "type": "event"
    },
    {
      "anonymous": false,
      "inputs": [
        {
          "indexed": true,
          "internalType": "uint256",
          "name": "tokenId",
          "type": "uint256"
        },
        {
          "indexed": false,
          "internalType": "uint256",
          "name": "newBalance",
          "type": "uint256"
        },
        {
          "indexed": false,
          "internalType": "string",
          "name": "updateType",
          "type": "string"
        }
      ],
      "name": "BalanceUpdated",
      "type": "event"
    },
    {
      "anonymous": false,
      "inputs": [
        {
          "indexed": false,
          "internalType": "uint256",
          "name": "_fromTokenId",
          "type": "uint256"
        },
        {
          "indexed": false,
          "internalType": "uint256",
          "name": "_toTokenId",
          "type": "uint256"
        }
      ],
      "name": "BatchMetadataUpdate",
      "type": "event"
    },
    {
      "anonymous": false,
      "inputs": [
        {
          "indexed": true,
          "internalType": "uint256",
          "name": "eventId",
          "type": "uint256"
        },
        {
          "indexed": true,
          "internalType": "uint256",
          "name": "tokenId",
          "type": "uint256"
        }
      ],
      "name": "EventCheckedIn",
      "type": "event"
    },
    {
      "anonymous": false,
      "inputs": [
        {
          "indexed": true,
          "internalType": "uint256",
          "name": "eventId",
          "type": "uint256"
        },
        {
          "indexed": false,
          "internalType": "string",
          "name": "name",
          "type": "string"
        },
        {
          "indexed": false,
          "internalType": "uint256",
          "name": "capacity",
          "type": "uint256"
        }
      ],
      "name": "EventCreated",
      "type": "event"
    },
    {
      "anonymous": false,
      "inputs": [
        {
          "indexed": true,
          "internalType": "uint256",
          "name": "tokenId",
          "type": "uint256"
        },
        {
          "indexed": true,
          "internalType": "uint256",
          "name": "eventId",
          "type": "uint256"
        }
      ],
      "name": "EventPurchased",
      "type": "event"
    },
    {
      "anonymous": false,
      "inputs": [
        {
          "indexed": false,
          "internalType": "uint256",
          "name": "_tokenId",
          "type": "uint256"
        }
      ],
      "name": "MetadataUpdate",
      "type": "event"
    },
    {
      "anonymous": false,
      "inputs": [
        {
          "indexed": true,
          "internalType": "address",
          "name": "previousOwner",
          "type": "address"
        },
        {
          "indexed": true,
          "internalType": "address",
          "name": "newOwner",
          "type": "address"
        }
      ],
      "name": "OwnershipTransferred",
      "type": "event"
    },
    {
      "anonymous": false,
      "inputs": [
        {
          "indexed": false,
          "internalType": "address",
          "name": "account",
          "type": "address"
        }
      ],
      "name": "Paused",
      "type": "event"
    },
    {
      "anonymous": false,
      "inputs": [
        {
          "indexed": true,
          "internalType": "address",
          "name": "tokenAddress",
          "type": "address"
        }
      ],
      "name": "SupportedTokenAdded",
      "type": "event"
    },
    {
      "anonymous": false,
      "inputs": [
        {
          "indexed": true,
          "internalType": "uint256",
          "name": "templateId",
          "type": "uint256"
        },
        {
          "indexed": false,
          "internalType": "string",
          "name": "name",
          "type": "string"
        },
        {
          "indexed": false,
          "internalType": "uint256",
          "name": "baseBalance",
          "type": "uint256"
        },
        {
          "indexed": false,
          "internalType": "uint256",
          "name": "price",
          "type": "uint256"
        },
        {
          "indexed": false,
          "internalType": "uint256",
          "name": "discount",
          "type": "uint256"
        },
        {
          "indexed": false,
          "internalType": "bool",
          "name": "isVIP",
          "type": "bool"
        },
        {
          "indexed": false,
          "internalType": "string",
          "name": "metadataURI",
          "type": "string"
        },
        {
          "indexed": false,
          "internalType": "bool",
          "name": "active",
          "type": "bool"
        }
      ],
      "name": "TemplateCreated",
      "type": "event"
    },
    {
      "anonymous": false,
      "inputs": [
        {
          "indexed": true,
          "internalType": "uint256",
          "name": "templateId",
          "type": "uint256"
        },
        {
          "indexed": false,
          "internalType": "string",
          "name": "name",
          "type": "string"
        },
        {
          "indexed": false,
          "internalType": "uint256",
          "name": "baseBalance",
          "type": "uint256"
        },
        {
          "indexed": false,
          "internalType": "uint256",
          "name": "price",
          "type": "uint256"
        },
        {
          "indexed": false,
          "internalType": "uint256",
          "name": "discount",
          "type": "uint256"
        },
        {
          "indexed": false,
          "internalType": "bool",
          "name": "isVIP",
          "type": "bool"
        },
        {
          "indexed": false,
          "internalType": "string",
          "name": "metadataURI",
          "type": "string"
        },
        {
          "indexed": false,
          "internalType": "bool",
          "name": "active",
          "type": "bool"
        }
      ],
      "name": "TemplateUpdated",
      "type": "event"
    },
    {
      "anonymous": false,
      "inputs": [
        {
          "indexed": true,
          "internalType": "uint256",
          "name": "tokenId",
          "type": "uint256"
        },
        {
          "indexed": false,
          "internalType": "string",
          "name": "transactionType",
          "type": "string"
        },
        {
          "indexed": false,
          "internalType": "uint256",
          "name": "amount",
          "type": "uint256"
        }
      ],
      "name": "TransactionProcessed",
      "type": "event"
    },
    {
      "anonymous": false,
      "inputs": [
        {
          "indexed": true,
          "internalType": "uint256",
          "name": "tokenId",
          "type": "uint256"
        },
        {
          "indexed": false,
          "internalType": "string",
          "name": "transactionType",
          "type": "string"
        },
        {
          "indexed": false,
          "internalType": "uint256",
          "name": "amount",
          "type": "uint256"
        }
      ],
      "name": "TransactionRecorded",
      "type": "event"
    },
    {
      "anonymous": false,
      "inputs": [
        {
          "indexed": true,
          "internalType": "address",
          "name": "from",
          "type": "address"
        },
        {
          "indexed": true,
          "internalType": "address",
          "name": "to",
          "type": "address"
        },
        {
          "indexed": true,
          "internalType": "uint256",
          "name": "tokenId",
          "type": "uint256"
        }
      ],
      "name": "Transfer",
      "type": "event"
    },
    {
      "anonymous": false,
      "inputs": [
        {
          "indexed": false,
          "internalType": "address",
          "name": "account",
          "type": "address"
        }
      ],
      "name": "Unpaused",
      "type": "event"
    },
    {
      "inputs": [
        {
          "internalType": "address",
          "name": "tokenAddress",
          "type": "address"
        }
      ],
      "name": "addSupportedToken",
      "outputs": [],
      "stateMutability": "nonpayable",
      "type": "function"
    },
    {
      "inputs": [
        {
          "internalType": "uint256",
          "name": "templateId",
          "type": "uint256"
        },
        {
          "internalType": "string",
          "name": "name",
          "type": "string"
        },
        {
          "internalType": "uint256",
          "name": "baseBalance",
          "type": "uint256"
        },
        {
          "internalType": "uint256",
          "name": "price",
          "type": "uint256"
        },
        {
          "internalType": "uint256",
          "name": "discount",
          "type": "uint256"
        },
        {
          "internalType": "bool",
          "name": "isVIP",
          "type": "bool"
        },
        {
          "internalType": "string",
          "name": "metadataURI",
          "type": "string"
        },
        {
          "internalType": "bool",
          "name": "active",
          "type": "bool"
        }
      ],
      "name": "addTemplate",
      "outputs": [],
      "stateMutability": "nonpayable",
      "type": "function"
    },
    {
      "inputs": [
        {
          "internalType": "address",
          "name": "to",
          "type": "address"
        },
        {
          "internalType": "uint256",
          "name": "tokenId",
          "type": "uint256"
        }
      ],
      "name": "approve",
      "outputs": [],
      "stateMutability": "nonpayable",
      "type": "function"
    },
    {
      "inputs": [
        {
          "internalType": "address",
          "name": "merchant",
          "type": "address"
        }
      ],
      "name": "authorizeMerchant",
      "outputs": [],
      "stateMutability": "nonpayable",
      "type": "function"
    },
    {
      "inputs": [
        {
          "internalType": "address",
          "name": "",
          "type": "address"
        }
      ],
      "name": "authorizedMerchants",
      "outputs": [
        {
          "internalType": "bool",
          "name": "",
          "type": "bool"
        }
      ],
      "stateMutability": "view",
      "type": "function"
    },
    {
      "inputs": [
        {
          "internalType": "address",
          "name": "owner",
          "type": "address"
        }
      ],
      "name": "balanceOf",
      "outputs": [
        {
          "internalType": "uint256",
          "name": "",
          "type": "uint256"
        }
      ],
      "stateMutability": "view",
      "type": "function"
    },
    {
      "inputs": [
        {
          "internalType": "uint256",
          "name": "tokenId",
          "type": "uint256"
        },
        {
          "internalType": "uint256",
          "name": "eventId",
          "type": "uint256"
        }
      ],
      "name": "checkInEvent",
      "outputs": [],
      "stateMutability": "nonpayable",
      "type": "function"
    },
    {
      "inputs": [
        {
          "internalType": "string",
          "name": "name",
          "type": "string"
        },
        {
          "internalType": "uint256",
          "name": "price",
          "type": "uint256"
        },
        {
          "internalType": "uint256",
          "name": "capacity",
          "type": "uint256"
        },
        {
          "internalType": "uint256",
          "name": "eventType",
          "type": "uint256"
        }
      ],
      "name": "createEvent",
      "outputs": [
        {
          "internalType": "uint256",
          "name": "",
          "type": "uint256"
        }
      ],
      "stateMutability": "nonpayable",
      "type": "function"
    },
    {
      "inputs": [
        {
          "internalType": "uint256",
          "name": "",
          "type": "uint256"
        },
        {
          "internalType": "uint256",
          "name": "",
          "type": "uint256"
        }
      ],
      "name": "eventCheckIns",
      "outputs": [
        {
          "internalType": "bool",
          "name": "",
          "type": "bool"
        }
      ],
      "stateMutability": "view",
      "type": "function"
    },
    {
      "inputs": [
        {
          "internalType": "uint256",
          "name": "",
          "type": "uint256"
        }
      ],
      "name": "events",
      "outputs": [
        {
          "internalType": "string",
          "name": "name",
          "type": "string"
        },
        {
          "internalType": "uint256",
          "name": "price",
          "type": "uint256"
        },
        {
          "internalType": "uint256",
          "name": "capacity",
          "type": "uint256"
        },
        {
          "internalType": "uint256",
          "name": "soldCount",
          "type": "uint256"
        },
        {
          "internalType": "bool",
          "name": "active",
          "type": "bool"
        },
        {
          "internalType": "uint256",
          "name": "eventType",
          "type": "uint256"
        }
      ],
      "stateMutability": "view",
      "type": "function"
    },
    {
      "inputs": [
        {
          "internalType": "uint256",
          "name": "tokenId",
          "type": "uint256"
        }
      ],
      "name": "getApproved",
      "outputs": [
        {
          "internalType": "address",
          "name": "",
          "type": "address"
        }
      ],
      "stateMutability": "view",
      "type": "function"
    },
    {
      "inputs": [
        {
          "internalType": "uint256",
          "name": "templateId",
          "type": "uint256"
        }
      ],
      "name": "getTemplate",
      "outputs": [
        {
          "internalType": "string",
          "name": "name",
          "type": "string"
        },
        {
          "internalType": "uint256",
          "name": "baseBalance",
          "type": "uint256"
        },
        {
          "internalType": "uint256",
          "name": "price",
          "type": "uint256"
        },
        {
          "internalType": "uint256",
          "name": "discount",
          "type": "uint256"
        },
        {
          "internalType": "bool",
          "name": "isVIP",
          "type": "bool"
        },
        {
          "internalType": "string",
          "name": "metadataURI",
          "type": "string"
        },
        {
          "internalType": "bool",
          "name": "active",
          "type": "bool"
        }
      ],
      "stateMutability": "view",
      "type": "function"
    },
    {
      "inputs": [],
      "name": "getTemplateCount",
      "outputs": [
        {
          "internalType": "uint256",
          "name": "",
          "type": "uint256"
        }
      ],
      "stateMutability": "view",
      "type": "function"
    },
    {
      "inputs": [
        {
          "internalType": "uint256",
          "name": "tokenId",
          "type": "uint256"
        }
      ],
      "name": "getTokenEvents",
      "outputs": [
        {
          "internalType": "uint256[]",
          "name": "",
          "type": "uint256[]"
        }
      ],
      "stateMutability": "view",
      "type": "function"
    },
    {
      "inputs": [],
      "name": "initializeDefaultTemplates",
      "outputs": [],
      "stateMutability": "nonpayable",
      "type": "function"
    },
    {
      "inputs": [
        {
          "internalType": "address",
          "name": "owner",
          "type": "address"
        },
        {
          "internalType": "address",
          "name": "operator",
          "type": "address"
        }
      ],
      "name": "isApprovedForAll",
      "outputs": [
        {
          "internalType": "bool",
          "name": "",
          "type": "bool"
        }
      ],
      "stateMutability": "view",
      "type": "function"
    },
    {
      "inputs": [
        {
          "internalType": "uint256",
          "name": "eventId",
          "type": "uint256"
        },
        {
          "internalType": "uint256",
          "name": "tokenId",
          "type": "uint256"
        }
      ],
      "name": "isCheckedIn",
      "outputs": [
        {
          "internalType": "bool",
          "name": "",
          "type": "bool"
        }
      ],
      "stateMutability": "view",
      "type": "function"
    },
    {
      "inputs": [
        {
          "internalType": "uint256",
          "name": "templateId",
          "type": "uint256"
        },
        {
          "internalType": "address",
          "name": "to",
          "type": "address"
        },
        {
          "internalType": "string",
          "name": "uri",
          "type": "string"
        }
      ],
      "name": "mintFromTemplate",
      "outputs": [
        {
          "internalType": "uint256",
          "name": "",
          "type": "uint256"
        }
      ],
      "stateMutability": "nonpayable",
      "type": "function"
    },
    {
      "inputs": [],
      "name": "name",
      "outputs": [
        {
          "internalType": "string",
          "name": "",
          "type": "string"
        }
      ],
      "stateMutability": "view",
      "type": "function"
    },
    {
      "inputs": [],
      "name": "owner",
      "outputs": [
        {
          "internalType": "address",
          "name": "",
          "type": "address"
        }
      ],
      "stateMutability": "view",
      "type": "function"
    },
    {
      "inputs": [
        {
          "internalType": "uint256",
          "name": "tokenId",
          "type": "uint256"
        }
      ],
      "name": "ownerOf",
      "outputs": [
        {
          "internalType": "address",
          "name": "",
          "type": "address"
        }
      ],
      "stateMutability": "view",
      "type": "function"
    },
    {
      "inputs": [],
      "name": "paused",
      "outputs": [
        {
          "internalType": "bool",
          "name": "",
          "type": "bool"
        }
      ],
      "stateMutability": "view",
      "type": "function"
    },
    {
      "inputs": [
        {
          "internalType": "uint256",
          "name": "tokenId",
          "type": "uint256"
        },
        {
          "internalType": "uint256",
          "name": "amount",
          "type": "uint256"
        },
        {
          "internalType": "string",
          "name": "metadata",
          "type": "string"
        }
      ],
      "name": "processPayment",
      "outputs": [],
      "stateMutability": "nonpayable",
      "type": "function"
    },
    {
      "inputs": [
        {
          "internalType": "uint256",
          "name": "tokenId",
          "type": "uint256"
        },
        {
          "internalType": "uint256",
          "name": "eventId",
          "type": "uint256"
        }
      ],
      "name": "purchaseEventEntrance",
      "outputs": [],
      "stateMutability": "nonpayable",
      "type": "function"
    },
    {
      "inputs": [],
      "name": "renounceOwnership",
      "outputs": [],
      "stateMutability": "nonpayable",
      "type": "function"
    },
    {
      "inputs": [
        {
          "internalType": "address",
          "name": "merchant",
          "type": "address"
        }
      ],
      "name": "revokeMerchant",
      "outputs": [],
      "stateMutability": "nonpayable",
      "type": "function"
    },
    {
      "inputs": [
        {
          "internalType": "address",
          "name": "from",
          "type": "address"
        },
        {
          "internalType": "address",
          "name": "to",
          "type": "address"
        },
        {
          "internalType": "uint256",
          "name": "tokenId",
          "type": "uint256"
        }
      ],
      "name": "safeTransferFrom",
      "outputs": [],
      "stateMutability": "nonpayable",
      "type": "function"
    },
    {
      "inputs": [
        {
          "internalType": "address",
          "name": "from",
          "type": "address"
        },
        {
          "internalType": "address",
          "name": "to",
          "type": "address"
        },
        {
          "internalType": "uint256",
          "name": "tokenId",
          "type": "uint256"
        },
        {
          "internalType": "bytes",
          "name": "data",
          "type": "bytes"
        }
      ],
      "name": "safeTransferFrom",
      "outputs": [],
      "stateMutability": "nonpayable",
      "type": "function"
    },
    {
      "inputs": [
        {
          "internalType": "address",
          "name": "operator",
          "type": "address"
        },
        {
          "internalType": "bool",
          "name": "approved",
          "type": "bool"
        }
      ],
      "name": "setApprovalForAll",
      "outputs": [],
      "stateMutability": "nonpayable",
      "type": "function"
    },
    {
      "inputs": [
        {
          "internalType": "address",
          "name": "",
          "type": "address"
        }
      ],
      "name": "supportedTokens",
      "outputs": [
        {
          "internalType": "bool",
          "name": "",
          "type": "bool"
        }
      ],
      "stateMutability": "view",
      "type": "function"
    },
    {
      "inputs": [
        {
          "internalType": "bytes4",
          "name": "interfaceId",
          "type": "bytes4"
        }
      ],
      "name": "supportsInterface",
      "outputs": [
        {
          "internalType": "bool",
          "name": "",
          "type": "bool"
        }
      ],
      "stateMutability": "view",
      "type": "function"
    },
    {
      "inputs": [],
      "name": "symbol",
      "outputs": [
        {
          "internalType": "string",
          "name": "",
          "type": "string"
        }
      ],
      "stateMutability": "view",
      "type": "function"
    },
    {
      "inputs": [
        {
          "internalType": "uint256",
          "name": "",
          "type": "uint256"
        }
      ],
      "name": "templates",
      "outputs": [
        {
          "internalType": "string",
          "name": "name",
          "type": "string"
        },
        {
          "internalType": "uint256",
          "name": "baseBalance",
          "type": "uint256"
        },
        {
          "internalType": "uint256",
          "name": "price",
          "type": "uint256"
        },
        {
          "internalType": "uint256",
          "name": "discount",
          "type": "uint256"
        },
        {
          "internalType": "bool",
          "name": "isVIP",
          "type": "bool"
        },
        {
          "internalType": "string",
          "name": "metadataURI",
          "type": "string"
        },
        {
          "internalType": "bool",
          "name": "active",
          "type": "bool"
        }
      ],
      "stateMutability": "view",
      "type": "function"
    },
    {
      "inputs": [
        {
          "internalType": "uint256",
          "name": "",
          "type": "uint256"
        }
      ],
      "name": "tokenBalance",
      "outputs": [
        {
          "internalType": "uint256",
          "name": "",
          "type": "uint256"
        }
      ],
      "stateMutability": "view",
      "type": "function"
    },
    {
      "inputs": [
        {
          "internalType": "uint256",
          "name": "",
          "type": "uint256"
        },
        {
          "internalType": "uint256",
          "name": "",
          "type": "uint256"
        }
      ],
      "name": "tokenEvents",
      "outputs": [
        {
          "internalType": "uint256",
          "name": "",
          "type": "uint256"
        }
      ],
      "stateMutability": "view",
      "type": "function"
    },
    {
      "inputs": [
        {
          "internalType": "uint256",
          "name": "tokenId",
          "type": "uint256"
        }
      ],
      "name": "tokenURI",
      "outputs": [
        {
          "internalType": "string",
          "name": "",
          "type": "string"
        }
      ],
      "stateMutability": "view",
      "type": "function"
    },
    {
      "inputs": [
        {
          "internalType": "uint256",
          "name": "",
          "type": "uint256"
        },
        {
          "internalType": "uint256",
          "name": "",
          "type": "uint256"
        }
      ],
      "name": "transactions",
      "outputs": [
        {
          "internalType": "uint256",
          "name": "timestamp",
          "type": "uint256"
        },
        {
          "internalType": "address",
          "name": "merchant",
          "type": "address"
        },
        {
          "internalType": "uint256",
          "name": "amount",
          "type": "uint256"
        },
        {
          "internalType": "string",
          "name": "transactionType",
          "type": "string"
        },
        {
          "internalType": "string",
          "name": "metadata",
          "type": "string"
        }
      ],
      "stateMutability": "view",
      "type": "function"
    },
    {
      "inputs": [
        {
          "internalType": "address",
          "name": "from",
          "type": "address"
        },
        {
          "internalType": "address",
          "name": "to",
          "type": "address"
        },
        {
          "internalType": "uint256",
          "name": "tokenId",
          "type": "uint256"
        }
      ],
      "name": "transferFrom",
      "outputs": [],
      "stateMutability": "nonpayable",
      "type": "function"
    },
    {
      "inputs": [
        {
          "internalType": "address",
          "name": "newOwner",
          "type": "address"
        }
      ],
      "name": "transferOwnership",
      "outputs": [],
      "stateMutability": "nonpayable",
      "type": "function"
    }
  ],
  "bytecode": "0x60806040523480156200001157600080fd5b50336040518060400160405280600c81526020016b2bb0bb32ac1027232a102b1960a11b815250604051806040016040528060068152602001652ba0ab22ac1960d11b8152508160009081620000689190620001c4565b506001620000778282620001c4565b50506007805460ff19169055506001600160a01b038116620000b357604051631e4fbdf760e01b81526000600482015260240160405180910390fd5b620000be81620000c5565b5062000290565b600780546001600160a01b03838116610100818102610100600160a81b031985161790945560405193909204169182907f8be0079c531659141344cd1fd0a4f28419497f9722a3daafe3b4186f6b6457e090600090a35050565b634e487b7160e01b600052604160045260246000fd5b600181811c908216806200014a57607f821691505b6020821081036200016b57634e487b7160e01b600052602260045260246000fd5b50919050565b601f821115620001bf57600081815260208120601f850160051c810160208610156200019a5750805b601f850160051c820191505b81811015620001bb57828155600101620001a6565b5050505b505050565b81516001600160401b03811115620001e057620001e06200011f565b620001f881620001f1845462000135565b8462000171565b602080601f831160018114620002305760008415620002175750858301515b600019600386901b1c1916600185901b178555620001bb565b600085815260208120601f198616915b82811015620002615788860151825594840194600190910190840162000240565b5085821015620002805787850151600019600388901b60f8161c191681555b5050505050600190811b01905550565b612f6180620002a06000396000f3fe608060405234801561001057600080fd5b506004361061023d5760003560e01c806370a082311161013b578063a871bd66116100b8578063c58d06861161007c578063c58d06861461056c578063c87b56dd1461057f578063ca2efd3814610592578063e985e9c5146105b5578063f2fde38b146105c857600080fd5b8063a871bd6614610500578063b701b31914610513578063b88d4fde14610526578063bc52565214610539578063c4754b771461054c57600080fd5b80638af5ae99116100ff5780638af5ae99146104b45780638da5cb5b146104bc57806395d89b41146104d257806396651ec3146104da578063a22cb465146104ed57600080fd5b806370a0823114610445578063715018a61461045857806373deb9fd14610460578063772a9c551461048e578063819a701c146104a157600080fd5b806337ae9c13116101c95780635c975abb1161018d5780635c975abb146103c35780636352211e146103ce57806368c4ac26146103e15780636d69fcaf14610404578063706cf3a01461041757600080fd5b806337ae9c131461035157806342842e0e1461036457806349afc6e5146103775780634eaf9db6146103975780635016959a146103bb57600080fd5b8063095ea7b311610210578063095ea7b3146102cb5780630b791430146102e057806323b872dd14610305578063283421331461031857806331543cf41461032b57600080fd5b806301ffc9a7146102425780630374ab0b1461026a57806306fdde031461028b578063081812fc146102a0575b600080fd5b6102556102503660046126ae565b6105db565b60405190151581526020015b60405180910390f35b61027d610278366004612777565b6105ec565b604051908152602001610261565b610293610615565b604051610261919061281b565b6102b36102ae36600461282e565b6106a7565b6040516001600160a01b039091168152602001610261565b6102de6102d9366004612863565b6106d0565b005b6102f36102ee36600461282e565b6106df565b6040516102619695949392919061288d565b6102de6103133660046128cb565b6107a0565b6102de610326366004612907565b610830565b61033e61033936600461282e565b6109bd565b6040516102619796959493929190612957565b6102de61035f3660046129ad565b610bd7565b6102de6103723660046128cb565b610c03565b61027d61038536600461282e565b600c6020526000908152604090205481565b6103aa6103a53660046129c8565b610c23565b6040516102619594939291906129ea565b60095461027d565b60075460ff16610255565b6102b36103dc36600461282e565b610d8d565b6102556103ef3660046129ad565b60106020526000908152604090205460ff1681565b6102de6104123660046129ad565b610d98565b6102556104253660046129c8565b600091825260116020908152604080842092845291905290205460ff1690565b61027d6104533660046129ad565b610e3a565b6102de610e82565b61025561046e3660046129c8565b601160209081526000928352604080842090915290825290205460ff1681565b6102de61049c3660046129c8565b610e96565b6102de6104af3660046129ad565b611031565b6102de61105a565b60075461010090046001600160a01b03166102b3565b61029361116d565b6102de6104e8366004612a45565b61117c565b6102de6104fb366004612af1565b61119e565b61027d61050e3660046129c8565b6111a9565b6102de6105213660046129c8565b6111da565b6102de610534366004612b24565b611348565b61033e61054736600461282e565b61135f565b61055f61055a36600461282e565b6114b4565b6040516102619190612ba0565b61027d61057a366004612be4565b611516565b61029361058d36600461282e565b611620565b6102556105a03660046129ad565b600f6020526000908152604090205460ff1681565b6102556105c3366004612c25565b61162b565b6102de6105d63660046129ad565b611659565b60006105e682611697565b92915050565b60006105f66116bc565b6105fe6116ef565b61060c600b86868686611713565b95945050505050565b60606000805461062490612c4f565b80601f016020809104026020016040519081016040528092919081815260200182805461065090612c4f565b801561069d5780601f106106725761010080835404028352916020019161069d565b820191906000526020600020905b81548152906001019060200180831161068057829003601f168201915b5050505050905090565b60006106b282611811565b506000828152600460205260409020546001600160a01b03166105e6565b6106db82823361184a565b5050565b600b602052600090815260409020805481906106fa90612c4f565b80601f016020809104026020016040519081016040528092919081815260200182805461072690612c4f565b80156107735780601f1061074857610100808354040283529160200191610773565b820191906000526020600020905b81548152906001019060200180831161075657829003601f168201915b505050506001830154600284015460038501546004860154600590960154949592949193509160ff169086565b6001600160a01b0382166107cf57604051633250574960e11b8152600060048201526024015b60405180910390fd5b60006107dc838333611857565b9050836001600160a01b0316816001600160a01b03161461082a576040516364283d7b60e01b81526001600160a01b03808616600483015260248201849052821660448201526064016107c6565b50505050565b6108386116ef565b6000838152600260205260409020546001600160a01b031661086c5760405162461bcd60e51b81526004016107c690612c89565b336000908152600f602052604090205460ff166108cb5760405162461bcd60e51b815260206004820152601760248201527f4e6f7420617574686f72697a6564206d65726368616e7400000000000000000060448201526064016107c6565b6000838152600c60205260409020548211156108f95760405162461bcd60e51b81526004016107c690612cb7565b6000838152600c602052604081208054849290610917908490612cfb565b9250508190555061094c600d843385604051806040016040528060078152602001661410565351539560ca1b81525086611950565b827fec928c2fe6632313165f754a793ab00b2cde005b5c7571959d3137d5c4d4ac67600c6000868152602001908152602001600020546040516109b0918152604060208201819052600790820152661410565351539560ca1b606082015260800190565b60405180910390a2505050565b60606000806000806060600080600a60008a81526020019081526020016000206040518060e00160405290816000820180546109f890612c4f565b80601f0160208091040260200160405190810160405280929190818152602001828054610a2490612c4f565b8015610a715780601f10610a4657610100808354040283529160200191610a71565b820191906000526020600020905b815481529060010190602001808311610a5457829003601f168201915b5050509183525050600182015460208201526002820154604082015260038201546060820152600482015460ff161515608082015260058201805460a090920191610abb90612c4f565b80601f0160208091040260200160405190810160405280929190818152602001828054610ae790612c4f565b8015610b345780601f10610b0957610100808354040283529160200191610b34565b820191906000526020600020905b815481529060010190602001808311610b1757829003601f168201915b50505091835250506006919091015460ff161515602090910152805151909150610ba05760405162461bcd60e51b815260206004820152601760248201527f54656d706c61746520646f6573206e6f7420657869737400000000000000000060448201526064016107c6565b8051602082015160408301516060840151608085015160a086015160c090960151949e939d50919b50995097509195509350915050565b610bdf6116bc565b6001600160a01b03166000908152600f60205260409020805460ff19166001179055565b610c1e83838360405180602001604052806000815250611348565b505050565b600d6020528160005260406000208181548110610c3f57600080fd5b600091825260209091206005909102018054600182015460028301546003840180549396506001600160a01b0390921694509291610c7c90612c4f565b80601f0160208091040260200160405190810160405280929190818152602001828054610ca890612c4f565b8015610cf55780601f10610cca57610100808354040283529160200191610cf5565b820191906000526020600020905b815481529060010190602001808311610cd857829003601f168201915b505050505090806004018054610d0a90612c4f565b80601f0160208091040260200160405190810160405280929190818152602001828054610d3690612c4f565b8015610d835780601f10610d5857610100808354040283529160200191610d83565b820191906000526020600020905b815481529060010190602001808311610d6657829003601f168201915b5050505050905085565b60006105e682611811565b610da06116bc565b6001600160a01b038116610dee5760405162461bcd60e51b8152602060048201526015602482015274496e76616c696420746f6b656e206164647265737360581b60448201526064016107c6565b6001600160a01b038116600081815260106020526040808220805460ff19166001179055517fd1be2e90bd3d24839d9dd94ad871068e1f9688b02fa43f2a62c9975dfa9de2d79190a250565b60006001600160a01b038216610e66576040516322718ad960e21b8152600060048201526024016107c6565b506001600160a01b031660009081526003602052604090205490565b610e8a6116bc565b610e946000611a38565b565b610e9e6116ef565b6000828152600260205260409020546001600160a01b0316610ed25760405162461bcd60e51b81526004016107c690612c89565b6000818152600b60205260409020610eed9060118385611a92565b506000828152600e6020908152604080832080548251818502810185019093528083528493830182828015610f4157602002820191906000526020600020905b815481526020019060010190808311610f2d575b5050505050905060005b8151811015610f8f5783828281518110610f6757610f67612d0e565b602002602001015103610f7d5760019250610f8f565b80610f8781612d24565b915050610f4b565b5081610fdd5760405162461bcd60e51b815260206004820152601860248201527f4e6f207469636b657420666f722074686973206576656e74000000000000000060448201526064016107c6565b6000838152601160209081526040808320878452909152808220805460ff1916600117905551859185917fad1954bc16d14df3fe44b8af75e0265eeb77d5be9e1bd0413f0eac16e1e37f6e9190a350505050565b6110396116bc565b6001600160a01b03166000908152600f60205260409020805460ff19169055565b6110626116bc565b6001600052600a6020527fbbc70db1b6c7afd11e79c0fb0051300458f1a3acb8ee9789d9b6b26c61ad9bc854156110db5760405162461bcd60e51b815260206004820152601d60248201527f54656d706c6174657320616c726561647920696e697469616c697a656400000060448201526064016107c6565b61112260016040518060400160405280600481526020016311dbdb1960e21b815250683635c9adc5dea0000080600080604051806020016040528060008152506001611b44565b610e94600260405180604001604052806008815260200167506c6174696e756d60c01b81525068a2a15d09519be0000080600080604051806020016040528060008152506001611b44565b60606001805461062490612c4f565b6111846116bc565b6111948888888888888888611b44565b5050505050505050565b6106db338383611cc8565b600e60205281600052604060002081815481106111c557600080fd5b90600052602060002001600091509150505481565b6111e26116ef565b6000828152600260205260409020546001600160a01b03166112165760405162461bcd60e51b81526004016107c690612c89565b6000818152600b60209081526040808320858452600c9092529091205461123d9190611d67565b611261600c83600b6000858152602001908152602001600020600101546001611e16565b6000818152600b6020526040812060030180549161127e83612d24565b90915550506000828152600e60209081526040808320805460018101825590845291832090910183905551829184917f41d60c8cad3c4e044896e072fb848c8f5d2e3e91c87a22a93d930c35aa1924039190a3817fec928c2fe6632313165f754a793ab00b2cde005b5c7571959d3137d5c4d4ac67600c60008581526020019081526020016000205460405161133c918152604060208201819052600e908201526d4556454e545f505552434841534560901b606082015260800190565b60405180910390a25050565b6113538484846107a0565b61082a84848484611e9c565b600a6020526000908152604090208054819061137a90612c4f565b80601f01602080910402602001604051908101604052809291908181526020018280546113a690612c4f565b80156113f35780601f106113c8576101008083540402835291602001916113f3565b820191906000526020600020905b8154815290600101906020018083116113d657829003601f168201915b50505060018401546002850154600386015460048701546005880180549798949793965091945060ff16929161142890612c4f565b80601f016020809104026020016040519081016040528092919081815260200182805461145490612c4f565b80156114a15780601f10611476576101008083540402835291602001916114a1565b820191906000526020600020905b81548152906001019060200180831161148457829003601f168201915b5050506006909301549192505060ff1687565b6000818152600e602090815260409182902080548351818402810184019094528084526060939283018282801561150a57602002820191906000526020600020905b8154815260200190600101908083116114f6575b50505050509050919050565b60006115206116ef565b6000848152600a602052604090206006015460ff166115775760405162461bcd60e51b815260206004820152601360248201527254656d706c617465206e6f742061637469766560681b60448201526064016107c6565b6008805490600061158783612d24565b90915550506008546115998482611fc5565b6115a38184611fdf565b6000858152600a6020818152604080842060010154858552600c83528185208190559389905291815281519283528201819052600490820152631352539560e21b606082015281907fec928c2fe6632313165f754a793ab00b2cde005b5c7571959d3137d5c4d4ac679060800160405180910390a2949350505050565b60606105e68261202f565b6001600160a01b03918216600090815260056020908152604080832093909416825291909152205460ff1690565b6116616116bc565b6001600160a01b03811661168b57604051631e4fbdf760e01b8152600060048201526024016107c6565b61169481611a38565b50565b60006001600160e01b03198216632483248360e11b14806105e657506105e682612140565b6007546001600160a01b03610100909104163314610e945760405163118cdaa760e01b81523360048201526024016107c6565b60075460ff1615610e945760405163d93c066560e01b815260040160405180910390fd5b6000808542604051602001611729929190612d3d565b60408051601f19818403018152828252805160209182012060c0840183528984528382018990528383018890526000606085018190526001608086015260a08501889052818152918b905291902082519193509081906117899082612dad565b5060208201516001820155604080830151600283015560608301516003830155608083015160048301805460ff191691151591909117905560a0909201516005909101555181907fee37bb5143a14810f72e86fce895be08e16090409d2e18f79b308995e39b73d4906117ff9089908890612e6d565b60405180910390a29695505050505050565b6000818152600260205260408120546001600160a01b0316806105e657604051637e27328960e01b8152600481018490526024016107c6565b610c1e8383836001612190565b6000828152600260205260408120546001600160a01b039081169083161561188457611884818486612296565b6001600160a01b038116156118c2576118a1600085600080612190565b6001600160a01b038116600090815260036020526040902080546000190190555b6001600160a01b038516156118f1576001600160a01b0385166000908152600360205260409020805460010190555b60008481526002602052604080822080546001600160a01b0319166001600160a01b0389811691821790925591518793918516917fddf252ad1be2c89b69c2b068fc378daa952ba7f163c4a11628f55a4df523b3ef91a4949350505050565b600085815260208781526040808320815160a0810183524281526001600160a01b038981168286019081529382018981526060830189815260808401899052845460018082018755958952969097208351600590970201958655935192850180546001600160a01b031916939091169290921790915590516002830155915160038201906119de9082612dad565b50608082015160048201906119f39082612dad565b505050847f131c2944ea68313084c40d9074bfd26611dbd83e4c0bc84f646b8645487089788385604051611a28929190612e6d565b60405180910390a2505050505050565b600780546001600160a01b03838116610100818102610100600160a81b031985161790945560405193909204169182907f8be0079c531659141344cd1fd0a4f28419497f9722a3daafe3b4186f6b6457e090600090a35050565b600484015460009060ff16611adc5760405162461bcd60e51b815260206004820152601060248201526f4576656e74206e6f742061637469766560801b60448201526064016107c6565b60008381526020858152604080832085845290915290205460ff1615611b395760405162461bcd60e51b815260206004820152601260248201527120b63932b0b23c9031b432b1b5b2b21034b760711b60448201526064016107c6565b506001949350505050565b611b4f87858a6122fa565b6000888152600a602052604090206001015415611bae5760405162461bcd60e51b815260206004820152601760248201527f54656d706c61746520616c72656164792065786973747300000000000000000060448201526064016107c6565b6040805160e081018252888152602080820189905281830188905260608201879052851515608083015260a0820185905283151560c083015260008b8152600a9091529190912081518190611c039082612dad565b50602082015160018201556040820151600282015560608201516003820155608082015160048201805460ff191691151591909117905560a08201516005820190611c4e9082612dad565b5060c091909101516006909101805460ff1916911515919091179055600954881115611c7a5760098890555b877fc0fdbb34fd837325f175bd973a8607230e48718904c92805638b65905f616d7d88888888888888604051611cb69796959493929190612957565b60405180910390a25050505050505050565b6001600160a01b038216611cfa57604051630b61174360e31b81526001600160a01b03831660048201526024016107c6565b6001600160a01b03838116600081815260056020908152604080832094871680845294825291829020805460ff191686151590811790915591519182527f17307eab39ab6107e8899845ad3d59bd9653f200f220920489ca2b5937696c31910160405180910390a3505050565b600482015460ff16611dae5760405162461bcd60e51b815260206004820152601060248201526f4576656e74206e6f742061637469766560801b60448201526064016107c6565b8160020154826003015410611df25760405162461bcd60e51b815260206004820152600a602482015269115d995b9d08199d5b1b60b21b60448201526064016107c6565b81600101548110156106db5760405162461bcd60e51b81526004016107c690612cb7565b8015611e7357600083815260208590526040902054821115611e4a5760405162461bcd60e51b81526004016107c690612cb7565b60008381526020859052604081208054849290611e68908490612cfb565b9091555061082a9050565b60008381526020859052604081208054849290611e91908490612e8f565b909155505050505050565b6001600160a01b0383163b1561082a57604051630a85bd0160e11b81526001600160a01b0384169063150b7a0290611ede903390889087908790600401612ea2565b6020604051808303816000875af1925050508015611f19575060408051601f3d908101601f19168201909252611f1691810190612edf565b60015b611f82573d808015611f47576040519150601f19603f3d011682016040523d82523d6000602084013e611f4c565b606091505b508051600003611f7a57604051633250574960e11b81526001600160a01b03851660048201526024016107c6565b805181602001fd5b6001600160e01b03198116630a85bd0160e11b14611fbe57604051633250574960e11b81526001600160a01b03851660048201526024016107c6565b5050505050565b6106db8282604051806020016040528060008152506123d9565b6000828152600660205260409020611ff78282612dad565b506040518281527ff8e1a15aba9398e019f0b49df1a4fde98ee17ae345cb5f6b5e2c27f5033e8ce79060200160405180910390a15050565b606061203a82611811565b506000828152600660205260408120805461205490612c4f565b80601f016020809104026020016040519081016040528092919081815260200182805461208090612c4f565b80156120cd5780601f106120a2576101008083540402835291602001916120cd565b820191906000526020600020905b8154815290600101906020018083116120b057829003601f168201915b5050505050905060006120eb60408051602081019091526000815290565b905080516000036120fd575092915050565b81511561212f578082604051602001612117929190612efc565b60405160208183030381529060405292505050919050565b612138846123f0565b949350505050565b60006001600160e01b031982166380ac58cd60e01b148061217157506001600160e01b03198216635b5e139f60e01b145b806105e657506301ffc9a760e01b6001600160e01b03198316146105e6565b80806121a457506001600160a01b03821615155b156122665760006121b484611811565b90506001600160a01b038316158015906121e05750826001600160a01b0316816001600160a01b031614155b80156121f357506121f1818461162b565b155b1561221c5760405163a9fbf51f60e01b81526001600160a01b03841660048201526024016107c6565b81156122645783856001600160a01b0316826001600160a01b03167f8c5be1e5ebec7d5bd14f71427d1e84f3dd0314c0f7b2291e5b200ac8c7c3b92560405160405180910390a45b505b5050600090815260046020526040902080546001600160a01b0319166001600160a01b0392909216919091179055565b6122a1838383612465565b610c1e576001600160a01b0383166122cf57604051637e27328960e01b8152600481018290526024016107c6565b60405163177e802f60e01b81526001600160a01b0383166004820152602481018290526044016107c6565b600081116123405760405162461bcd60e51b8152602060048201526013602482015272125b9d985b1a59081d195b5c1b185d19481251606a1b60448201526064016107c6565b60008351116123885760405162461bcd60e51b81526020600482015260146024820152734e616d652063616e6e6f7420626520656d70747960601b60448201526064016107c6565b6064821115610c1e5760405162461bcd60e51b815260206004820152601b60248201527f496e76616c696420646973636f756e742070657263656e74616765000000000060448201526064016107c6565b6123e383836124c8565b610c1e6000848484611e9c565b60606123fb82611811565b50600061241360408051602081019091526000815290565b90506000815111612433576040518060200160405280600081525061245e565b8061243d8461252d565b60405160200161244e929190612efc565b6040516020818303038152906040525b9392505050565b60006001600160a01b038316158015906121385750826001600160a01b0316846001600160a01b0316148061249f575061249f848461162b565b806121385750506000908152600460205260409020546001600160a01b03908116911614919050565b6001600160a01b0382166124f257604051633250574960e11b8152600060048201526024016107c6565b600061250083836000611857565b90506001600160a01b03811615610c1e576040516339e3563760e11b8152600060048201526024016107c6565b6060600061253a836125c0565b600101905060008167ffffffffffffffff81111561255a5761255a6126cb565b6040519080825280601f01601f191660200182016040528015612584576020820181803683370190505b5090508181016020015b600019016f181899199a1a9b1b9c1cb0b131b232b360811b600a86061a8153600a850494508461258e57509392505050565b60008072184f03e93ff9f4daa797ed6e38ed64bf6a1f0160401b83106125ff5772184f03e93ff9f4daa797ed6e38ed64bf6a1f0160401b830492506040015b6d04ee2d6d415b85acef8100000000831061262b576d04ee2d6d415b85acef8100000000830492506020015b662386f26fc10000831061264957662386f26fc10000830492506010015b6305f5e1008310612661576305f5e100830492506008015b612710831061267557612710830492506004015b60648310612687576064830492506002015b600a83106105e65760010192915050565b6001600160e01b03198116811461169457600080fd5b6000602082840312156126c057600080fd5b813561245e81612698565b634e487b7160e01b600052604160045260246000fd5b600067ffffffffffffffff808411156126fc576126fc6126cb565b604051601f8501601f19908116603f01168101908282118183101715612724576127246126cb565b8160405280935085815286868601111561273d57600080fd5b858560208301376000602087830101525050509392505050565b600082601f83011261276857600080fd5b61245e838335602085016126e1565b6000806000806080858703121561278d57600080fd5b843567ffffffffffffffff8111156127a457600080fd5b6127b087828801612757565b97602087013597506040870135966060013595509350505050565b60005b838110156127e65781810151838201526020016127ce565b50506000910152565b600081518084526128078160208601602086016127cb565b601f01601f19169290920160200192915050565b60208152600061245e60208301846127ef565b60006020828403121561284057600080fd5b5035919050565b80356001600160a01b038116811461285e57600080fd5b919050565b6000806040838503121561287657600080fd5b61287f83612847565b946020939093013593505050565b60c0815260006128a060c08301896127ef565b602083019790975250604081019490945260608401929092521515608083015260a090910152919050565b6000806000606084860312156128e057600080fd5b6128e984612847565b92506128f760208501612847565b9150604084013590509250925092565b60008060006060848603121561291c57600080fd5b8335925060208401359150604084013567ffffffffffffffff81111561294157600080fd5b61294d86828701612757565b9150509250925092565b60e08152600061296a60e083018a6127ef565b886020840152876040840152866060840152851515608084015282810360a084015261299681866127ef565b91505082151560c083015298975050505050505050565b6000602082840312156129bf57600080fd5b61245e82612847565b600080604083850312156129db57600080fd5b50508035926020909101359150565b85815260018060a01b038516602082015283604082015260a060608201526000612a1760a08301856127ef565b8281036080840152612a2981856127ef565b98975050505050505050565b8035801515811461285e57600080fd5b600080600080600080600080610100898b031215612a6257600080fd5b88359750602089013567ffffffffffffffff80821115612a8157600080fd5b612a8d8c838d01612757565b985060408b0135975060608b0135965060808b01359550612ab060a08c01612a35565b945060c08b0135915080821115612ac657600080fd5b50612ad38b828c01612757565b925050612ae260e08a01612a35565b90509295985092959890939650565b60008060408385031215612b0457600080fd5b612b0d83612847565b9150612b1b60208401612a35565b90509250929050565b60008060008060808587031215612b3a57600080fd5b612b4385612847565b9350612b5160208601612847565b925060408501359150606085013567ffffffffffffffff811115612b7457600080fd5b8501601f81018713612b8557600080fd5b612b94878235602084016126e1565b91505092959194509250565b6020808252825182820181905260009190848201906040850190845b81811015612bd857835183529284019291840191600101612bbc565b50909695505050505050565b600080600060608486031215612bf957600080fd5b83359250612c0960208501612847565b9150604084013567ffffffffffffffff81111561294157600080fd5b60008060408385031215612c3857600080fd5b612c4183612847565b9150612b1b60208401612847565b600181811c90821680612c6357607f821691505b602082108103612c8357634e487b7160e01b600052602260045260246000fd5b50919050565b602080825260149082015273151bdad95b88191bd95cc81b9bdd08195e1a5cdd60621b604082015260600190565b602080825260149082015273496e73756666696369656e742062616c616e636560601b604082015260600190565b634e487b7160e01b600052601160045260246000fd5b818103818111156105e6576105e6612ce5565b634e487b7160e01b600052603260045260246000fd5b600060018201612d3657612d36612ce5565b5060010190565b60008351612d4f8184602088016127cb565b9190910191825250602001919050565b601f821115610c1e57600081815260208120601f850160051c81016020861015612d865750805b601f850160051c820191505b81811015612da557828155600101612d92565b505050505050565b815167ffffffffffffffff811115612dc757612dc76126cb565b612ddb81612dd58454612c4f565b84612d5f565b602080601f831160018114612e105760008415612df85750858301515b600019600386901b1c1916600185901b178555612da5565b600085815260208120601f198616915b82811015612e3f57888601518255948401946001909101908401612e20565b5085821015612e5d5787850151600019600388901b60f8161c191681555b5050505050600190811b01905550565b604081526000612e8060408301856127ef565b90508260208301529392505050565b808201808211156105e6576105e6612ce5565b6001600160a01b0385811682528416602082015260408101839052608060608201819052600090612ed5908301846127ef565b9695505050505050565b600060208284031215612ef157600080fd5b815161245e81612698565b60008351612f0e8184602088016127cb565b835190830190612f228183602088016127cb565b0194935050505056fea26469706673582212209c439260d41bed6a54c323b85840b957389015019e7ed3433b2fcfe7dca563e764736f6c63430008140033",
  "linkReferences": {},
  "deployedLinkReferences": {}
}