{
  "_format": "hh-sol-artifact-1",
  "contractName": "WaveXNFTV3",
  "sourceName": "contracts/v3/WaveXNFTV3.sol",
  "abi": [
    {
      "inputs": [],
      "stateMutability": "nonpayable",
      "type": "constructor"
    },
    {
      "inputs": [
        {
          "internalType": "address",
          "name": "sender",
          "type": "address"
        },
        {
          "internalType": "uint256",
          "name": "tokenId",
          "type": "uint256"
        },
        {
          "internalType": "address",
          "name": "owner",
          "type": "address"
        }
      ],
      "name": "ERC721IncorrectOwner",
      "type": "error"
    },
    {
      "inputs": [
        {
          "internalType": "address",
          "name": "operator",
          "type": "address"
        },
        {
          "internalType": "uint256",
          "name": "tokenId",
          "type": "uint256"
        }
      ],
      "name": "ERC721InsufficientApproval",
      "type": "error"
    },
    {
      "inputs": [
        {
          "internalType": "address",
          "name": "approver",
          "type": "address"
        }
      ],
      "name": "ERC721InvalidApprover",
      "type": "error"
    },
    {
      "inputs": [
        {
          "internalType": "address",
          "name": "operator",
          "type": "address"
        }
      ],
      "name": "ERC721InvalidOperator",
      "type": "error"
    },
    {
      "inputs": [
        {
          "internalType": "address",
          "name": "owner",
          "type": "address"
        }
      ],
      "name": "ERC721InvalidOwner",
      "type": "error"
    },
    {
      "inputs": [
        {
          "internalType": "address",
          "name": "receiver",
          "type": "address"
        }
      ],
      "name": "ERC721InvalidReceiver",
      "type": "error"
    },
    {
      "inputs": [
        {
          "internalType": "address",
          "name": "sender",
          "type": "address"
        }
      ],
      "name": "ERC721InvalidSender",
      "type": "error"
    },
    {
      "inputs": [
        {
          "internalType": "uint256",
          "name": "tokenId",
          "type": "uint256"
        }
      ],
      "name": "ERC721NonexistentToken",
      "type": "error"
    },
    {
      "inputs": [],
      "name": "EnforcedPause",
      "type": "error"
    },
    {
      "inputs": [],
      "name": "ExpectedPause",
      "type": "error"
    },
    {
      "inputs": [
        {
          "internalType": "address",
          "name": "owner",
          "type": "address"
        }
      ],
      "name": "OwnableInvalidOwner",
      "type": "error"
    },
    {
      "inputs": [
        {
          "internalType": "address",
          "name": "account",
          "type": "address"
        }
      ],
      "name": "OwnableUnauthorizedAccount",
      "type": "error"
    },
    {
      "anonymous": false,
      "inputs": [
        {
          "indexed": true,
          "internalType": "address",
          "name": "owner",
          "type": "address"
        },
        {
          "indexed": true,
          "internalType": "address",
          "name": "approved",
          "type": "address"
        },
        {
          "indexed": true,
          "internalType": "uint256",
          "name": "tokenId",
          "type": "uint256"
        }
      ],
      "name": "Approval",
      "type": "event"
    },
    {
      "anonymous": false,
      "inputs": [
        {
          "indexed": true,
          "internalType": "address",
          "name": "owner",
          "type": "address"
        },
        {
          "indexed": true,
          "internalType": "address",
          "name": "operator",
          "type": "address"
        },
        {
          "indexed": false,
          "internalType": "bool",
          "name": "approved",
          "type": "bool"
        }
      ],
      "name": "ApprovalForAll",
      "type": "event"
    },
    {
      "anonymous": false,
      "inputs": [
        {
          "indexed": true,
          "internalType": "uint256",
          "name": "tokenId",
          "type": "uint256"
        },
        {
          "indexed": false,
          "internalType": "uint256",
          "name": "newBalance",
          "type": "uint256"
        },
        {
          "indexed": false,
          "internalType": "string",
          "name": "updateType",
          "type": "string"
        }
      ],
      "name": "BalanceUpdated",
      "type": "event"
    },
    {
      "anonymous": false,
      "inputs": [
        {
          "indexed": false,
          "internalType": "uint256",
          "name": "_fromTokenId",
          "type": "uint256"
        },
        {
          "indexed": false,
          "internalType": "uint256",
          "name": "_toTokenId",
          "type": "uint256"
        }
      ],
      "name": "BatchMetadataUpdate",
      "type": "event"
    },
    {
      "anonymous": false,
      "inputs": [
        {
          "indexed": true,
          "internalType": "uint256",
          "name": "eventId",
          "type": "uint256"
        },
        {
          "indexed": false,
          "internalType": "string",
          "name": "name",
          "type": "string"
        },
        {
          "indexed": false,
          "internalType": "uint256",
          "name": "capacity",
          "type": "uint256"
        }
      ],
      "name": "EventCreated",
      "type": "event"
    },
    {
      "anonymous": false,
      "inputs": [
        {
          "indexed": true,
          "internalType": "uint256",
          "name": "tokenId",
          "type": "uint256"
        },
        {
          "indexed": true,
          "internalType": "uint256",
          "name": "eventId",
          "type": "uint256"
        }
      ],
      "name": "EventPurchased",
      "type": "event"
    },
    {
      "anonymous": false,
      "inputs": [
        {
          "indexed": false,
          "internalType": "uint256",
          "name": "_tokenId",
          "type": "uint256"
        }
      ],
      "name": "MetadataUpdate",
      "type": "event"
    },
    {
      "anonymous": false,
      "inputs": [
        {
          "indexed": true,
          "internalType": "address",
          "name": "previousOwner",
          "type": "address"
        },
        {
          "indexed": true,
          "internalType": "address",
          "name": "newOwner",
          "type": "address"
        }
      ],
      "name": "OwnershipTransferred",
      "type": "event"
    },
    {
      "anonymous": false,
      "inputs": [
        {
          "indexed": false,
          "internalType": "address",
          "name": "account",
          "type": "address"
        }
      ],
      "name": "Paused",
      "type": "event"
    },
    {
      "anonymous": false,
      "inputs": [
        {
          "indexed": true,
          "internalType": "uint256",
          "name": "templateId",
          "type": "uint256"
        },
        {
          "indexed": false,
          "internalType": "address",
          "name": "tokenAddress",
          "type": "address"
        }
      ],
      "name": "PaymentTokenSet",
      "type": "event"
    },
    {
      "anonymous": false,
      "inputs": [
        {
          "indexed": true,
          "internalType": "address",
          "name": "tokenAddress",
          "type": "address"
        }
      ],
      "name": "SupportedTokenAdded",
      "type": "event"
    },
    {
      "anonymous": false,
      "inputs": [
        {
          "indexed": true,
          "internalType": "uint256",
          "name": "templateId",
          "type": "uint256"
        },
        {
          "indexed": false,
          "internalType": "string",
          "name": "name",
          "type": "string"
        },
        {
          "indexed": false,
          "internalType": "uint256",
          "name": "baseBalance",
          "type": "uint256"
        },
        {
          "indexed": false,
          "internalType": "uint256",
          "name": "price",
          "type": "uint256"
        },
        {
          "indexed": false,
          "internalType": "uint256",
          "name": "discount",
          "type": "uint256"
        },
        {
          "indexed": false,
          "internalType": "bool",
          "name": "isVIP",
          "type": "bool"
        },
        {
          "indexed": false,
          "internalType": "string",
          "name": "metadataURI",
          "type": "string"
        },
        {
          "indexed": false,
          "internalType": "bool",
          "name": "active",
          "type": "bool"
        }
      ],
      "name": "TemplateCreated",
      "type": "event"
    },
    {
      "anonymous": false,
      "inputs": [
        {
          "indexed": true,
          "internalType": "uint256",
          "name": "templateId",
          "type": "uint256"
        },
        {
          "indexed": false,
          "internalType": "string",
          "name": "name",
          "type": "string"
        },
        {
          "indexed": false,
          "internalType": "uint256",
          "name": "baseBalance",
          "type": "uint256"
        },
        {
          "indexed": false,
          "internalType": "uint256",
          "name": "price",
          "type": "uint256"
        },
        {
          "indexed": false,
          "internalType": "uint256",
          "name": "discount",
          "type": "uint256"
        },
        {
          "indexed": false,
          "internalType": "bool",
          "name": "isVIP",
          "type": "bool"
        },
        {
          "indexed": false,
          "internalType": "string",
          "name": "metadataURI",
          "type": "string"
        },
        {
          "indexed": false,
          "internalType": "bool",
          "name": "active",
          "type": "bool"
        }
      ],
      "name": "TemplateUpdated",
      "type": "event"
    },
    {
      "anonymous": false,
      "inputs": [
        {
          "indexed": true,
          "internalType": "uint256",
          "name": "tokenId",
          "type": "uint256"
        },
        {
          "indexed": true,
          "internalType": "uint256",
          "name": "eventId",
          "type": "uint256"
        },
        {
          "indexed": false,
          "internalType": "address",
          "name": "validator",
          "type": "address"
        }
      ],
      "name": "TicketUsed",
      "type": "event"
    },
    {
      "anonymous": false,
      "inputs": [
        {
          "indexed": true,
          "internalType": "uint256",
          "name": "tokenId",
          "type": "uint256"
        },
        {
          "indexed": false,
          "internalType": "string",
          "name": "newUri",
          "type": "string"
        }
      ],
      "name": "TokenURIUpdated",
      "type": "event"
    },
    {
      "anonymous": false,
      "inputs": [
        {
          "indexed": true,
          "internalType": "uint256",
          "name": "tokenId",
          "type": "uint256"
        },
        {
          "indexed": false,
          "internalType": "string",
          "name": "transactionType",
          "type": "string"
        },
        {
          "indexed": false,
          "internalType": "uint256",
          "name": "amount",
          "type": "uint256"
        }
      ],
      "name": "TransactionProcessed",
      "type": "event"
    },
    {
      "anonymous": false,
      "inputs": [
        {
          "indexed": true,
          "internalType": "uint256",
          "name": "tokenId",
          "type": "uint256"
        },
        {
          "indexed": false,
          "internalType": "string",
          "name": "transactionType",
          "type": "string"
        },
        {
          "indexed": false,
          "internalType": "uint256",
          "name": "amount",
          "type": "uint256"
        }
      ],
      "name": "TransactionRecorded",
      "type": "event"
    },
    {
      "anonymous": false,
      "inputs": [
        {
          "indexed": true,
          "internalType": "address",
          "name": "from",
          "type": "address"
        },
        {
          "indexed": true,
          "internalType": "address",
          "name": "to",
          "type": "address"
        },
        {
          "indexed": true,
          "internalType": "uint256",
          "name": "tokenId",
          "type": "uint256"
        }
      ],
      "name": "Transfer",
      "type": "event"
    },
    {
      "anonymous": false,
      "inputs": [
        {
          "indexed": false,
          "internalType": "address",
          "name": "account",
          "type": "address"
        }
      ],
      "name": "Unpaused",
      "type": "event"
    },
    {
      "inputs": [
        {
          "internalType": "address",
          "name": "tokenAddress",
          "type": "address"
        }
      ],
      "name": "addSupportedToken",
      "outputs": [],
      "stateMutability": "nonpayable",
      "type": "function"
    },
    {
      "inputs": [
        {
          "internalType": "uint256",
          "name": "templateId",
          "type": "uint256"
        },
        {
          "internalType": "string",
          "name": "name",
          "type": "string"
        },
        {
          "internalType": "uint256",
          "name": "baseBalance",
          "type": "uint256"
        },
        {
          "internalType": "uint256",
          "name": "price",
          "type": "uint256"
        },
        {
          "internalType": "uint256",
          "name": "discount",
          "type": "uint256"
        },
        {
          "internalType": "bool",
          "name": "isVIP",
          "type": "bool"
        },
        {
          "internalType": "string",
          "name": "metadataURI",
          "type": "string"
        },
        {
          "internalType": "bool",
          "name": "active",
          "type": "bool"
        }
      ],
      "name": "addTemplate",
      "outputs": [],
      "stateMutability": "nonpayable",
      "type": "function"
    },
    {
      "inputs": [
        {
          "internalType": "address",
          "name": "to",
          "type": "address"
        },
        {
          "internalType": "uint256",
          "name": "tokenId",
          "type": "uint256"
        }
      ],
      "name": "approve",
      "outputs": [],
      "stateMutability": "nonpayable",
      "type": "function"
    },
    {
      "inputs": [
        {
          "internalType": "address",
          "name": "merchant",
          "type": "address"
        }
      ],
      "name": "authorizeMerchant",
      "outputs": [],
      "stateMutability": "nonpayable",
      "type": "function"
    },
    {
      "inputs": [
        {
          "internalType": "address",
          "name": "",
          "type": "address"
        }
      ],
      "name": "authorizedMerchants",
      "outputs": [
        {
          "internalType": "bool",
          "name": "",
          "type": "bool"
        }
      ],
      "stateMutability": "view",
      "type": "function"
    },
    {
      "inputs": [
        {
          "internalType": "address",
          "name": "owner",
          "type": "address"
        }
      ],
      "name": "balanceOf",
      "outputs": [
        {
          "internalType": "uint256",
          "name": "",
          "type": "uint256"
        }
      ],
      "stateMutability": "view",
      "type": "function"
    },
    {
      "inputs": [
        {
          "internalType": "string",
          "name": "name",
          "type": "string"
        },
        {
          "internalType": "uint256",
          "name": "price",
          "type": "uint256"
        },
        {
          "internalType": "uint256",
          "name": "capacity",
          "type": "uint256"
        },
        {
          "internalType": "uint256",
          "name": "eventType",
          "type": "uint256"
        }
      ],
      "name": "createEvent",
      "outputs": [
        {
          "internalType": "uint256",
          "name": "",
          "type": "uint256"
        }
      ],
      "stateMutability": "nonpayable",
      "type": "function"
    },
    {
      "inputs": [
        {
          "internalType": "uint256",
          "name": "",
          "type": "uint256"
        }
      ],
      "name": "events",
      "outputs": [
        {
          "internalType": "string",
          "name": "name",
          "type": "string"
        },
        {
          "internalType": "uint256",
          "name": "price",
          "type": "uint256"
        },
        {
          "internalType": "uint256",
          "name": "capacity",
          "type": "uint256"
        },
        {
          "internalType": "uint256",
          "name": "soldCount",
          "type": "uint256"
        },
        {
          "internalType": "bool",
          "name": "active",
          "type": "bool"
        },
        {
          "internalType": "uint256",
          "name": "eventType",
          "type": "uint256"
        }
      ],
      "stateMutability": "view",
      "type": "function"
    },
    {
      "inputs": [
        {
          "internalType": "uint256",
          "name": "tokenId",
          "type": "uint256"
        }
      ],
      "name": "getApproved",
      "outputs": [
        {
          "internalType": "address",
          "name": "",
          "type": "address"
        }
      ],
      "stateMutability": "view",
      "type": "function"
    },
    {
      "inputs": [
        {
          "internalType": "uint256",
          "name": "templateId",
          "type": "uint256"
        }
      ],
      "name": "getTemplate",
      "outputs": [
        {
          "internalType": "string",
          "name": "name",
          "type": "string"
        },
        {
          "internalType": "uint256",
          "name": "baseBalance",
          "type": "uint256"
        },
        {
          "internalType": "uint256",
          "name": "price",
          "type": "uint256"
        },
        {
          "internalType": "uint256",
          "name": "discount",
          "type": "uint256"
        },
        {
          "internalType": "bool",
          "name": "isVIP",
          "type": "bool"
        },
        {
          "internalType": "string",
          "name": "metadataURI",
          "type": "string"
        },
        {
          "internalType": "bool",
          "name": "active",
          "type": "bool"
        }
      ],
      "stateMutability": "view",
      "type": "function"
    },
    {
      "inputs": [],
      "name": "getTemplateCount",
      "outputs": [
        {
          "internalType": "uint256",
          "name": "",
          "type": "uint256"
        }
      ],
      "stateMutability": "view",
      "type": "function"
    },
    {
      "inputs": [
        {
          "internalType": "uint256",
          "name": "tokenId",
          "type": "uint256"
        },
        {
          "internalType": "uint256",
          "name": "eventId",
          "type": "uint256"
        }
      ],
      "name": "getTicketStatus",
      "outputs": [
        {
          "internalType": "bool",
          "name": "exists",
          "type": "bool"
        },
        {
          "internalType": "bool",
          "name": "used",
          "type": "bool"
        },
        {
          "internalType": "uint256",
          "name": "usedTimestamp",
          "type": "uint256"
        },
        {
          "internalType": "address",
          "name": "checkedBy",
          "type": "address"
        }
      ],
      "stateMutability": "view",
      "type": "function"
    },
    {
      "inputs": [
        {
          "internalType": "uint256",
          "name": "tokenId",
          "type": "uint256"
        }
      ],
      "name": "getTokenEvents",
      "outputs": [
        {
          "internalType": "uint256[]",
          "name": "",
          "type": "uint256[]"
        }
      ],
      "stateMutability": "view",
      "type": "function"
    },
    {
      "inputs": [
        {
          "internalType": "uint256",
          "name": "tokenId",
          "type": "uint256"
        }
      ],
      "name": "getTokenTemplate",
      "outputs": [
        {
          "internalType": "uint256",
          "name": "templateId",
          "type": "uint256"
        },
        {
          "internalType": "string",
          "name": "name",
          "type": "string"
        },
        {
          "internalType": "uint256",
          "name": "baseBalance",
          "type": "uint256"
        },
        {
          "internalType": "uint256",
          "name": "price",
          "type": "uint256"
        },
        {
          "internalType": "uint256",
          "name": "discount",
          "type": "uint256"
        },
        {
          "internalType": "bool",
          "name": "isVIP",
          "type": "bool"
        },
        {
          "internalType": "string",
          "name": "metadataURI",
          "type": "string"
        },
        {
          "internalType": "bool",
          "name": "active",
          "type": "bool"
        }
      ],
      "stateMutability": "view",
      "type": "function"
    },
    {
      "inputs": [
        {
          "internalType": "uint256",
          "name": "tokenId",
          "type": "uint256"
        },
        {
          "internalType": "uint256",
          "name": "index",
          "type": "uint256"
        }
      ],
      "name": "getTransaction",
      "outputs": [
        {
          "internalType": "uint256",
          "name": "timestamp",
          "type": "uint256"
        },
        {
          "internalType": "address",
          "name": "merchant",
          "type": "address"
        },
        {
          "internalType": "uint256",
          "name": "amount",
          "type": "uint256"
        },
        {
          "internalType": "string",
          "name": "transactionType",
          "type": "string"
        },
        {
          "internalType": "string",
          "name": "metadata",
          "type": "string"
        }
      ],
      "stateMutability": "view",
      "type": "function"
    },
    {
      "inputs": [
        {
          "internalType": "uint256",
          "name": "tokenId",
          "type": "uint256"
        }
      ],
      "name": "getTransactionCount",
      "outputs": [
        {
          "internalType": "uint256",
          "name": "",
          "type": "uint256"
        }
      ],
      "stateMutability": "view",
      "type": "function"
    },
    {
      "inputs": [],
      "name": "initializeDefaultTemplates",
      "outputs": [],
      "stateMutability": "nonpayable",
      "type": "function"
    },
    {
      "inputs": [
        {
          "internalType": "address",
          "name": "owner",
          "type": "address"
        },
        {
          "internalType": "address",
          "name": "operator",
          "type": "address"
        }
      ],
      "name": "isApprovedForAll",
      "outputs": [
        {
          "internalType": "bool",
          "name": "",
          "type": "bool"
        }
      ],
      "stateMutability": "view",
      "type": "function"
    },
    {
      "inputs": [
        {
          "internalType": "uint256",
          "name": "templateId",
          "type": "uint256"
        },
        {
          "internalType": "address",
          "name": "to",
          "type": "address"
        },
        {
          "internalType": "string",
          "name": "uri",
          "type": "string"
        },
        {
          "internalType": "address",
          "name": "paymentToken",
          "type": "address"
        }
      ],
      "name": "mintFromTemplate",
      "outputs": [
        {
          "internalType": "uint256",
          "name": "",
          "type": "uint256"
        }
      ],
      "stateMutability": "nonpayable",
      "type": "function"
    },
    {
      "inputs": [
        {
          "internalType": "uint256",
          "name": "templateId",
          "type": "uint256"
        },
        {
          "internalType": "string",
          "name": "name",
          "type": "string"
        },
        {
          "internalType": "uint256",
          "name": "baseBalance",
          "type": "uint256"
        },
        {
          "internalType": "uint256",
          "name": "price",
          "type": "uint256"
        },
        {
          "internalType": "uint256",
          "name": "discount",
          "type": "uint256"
        },
        {
          "internalType": "bool",
          "name": "isVIP",
          "type": "bool"
        },
        {
          "internalType": "string",
          "name": "metadataURI",
          "type": "string"
        },
        {
          "internalType": "bool",
          "name": "active",
          "type": "bool"
        }
      ],
      "name": "modifyTemplate",
      "outputs": [],
      "stateMutability": "nonpayable",
      "type": "function"
    },
    {
      "inputs": [],
      "name": "name",
      "outputs": [
        {
          "internalType": "string",
          "name": "",
          "type": "string"
        }
      ],
      "stateMutability": "view",
      "type": "function"
    },
    {
      "inputs": [],
      "name": "owner",
      "outputs": [
        {
          "internalType": "address",
          "name": "",
          "type": "address"
        }
      ],
      "stateMutability": "view",
      "type": "function"
    },
    {
      "inputs": [
        {
          "internalType": "uint256",
          "name": "tokenId",
          "type": "uint256"
        }
      ],
      "name": "ownerOf",
      "outputs": [
        {
          "internalType": "address",
          "name": "",
          "type": "address"
        }
      ],
      "stateMutability": "view",
      "type": "function"
    },
    {
      "inputs": [],
      "name": "pause",
      "outputs": [],
      "stateMutability": "nonpayable",
      "type": "function"
    },
    {
      "inputs": [],
      "name": "paused",
      "outputs": [
        {
          "internalType": "bool",
          "name": "",
          "type": "bool"
        }
      ],
      "stateMutability": "view",
      "type": "function"
    },
    {
      "inputs": [
        {
          "internalType": "uint256",
          "name": "tokenId",
          "type": "uint256"
        },
        {
          "internalType": "uint256",
          "name": "amount",
          "type": "uint256"
        },
        {
          "internalType": "string",
          "name": "metadata",
          "type": "string"
        }
      ],
      "name": "processPayment",
      "outputs": [],
      "stateMutability": "nonpayable",
      "type": "function"
    },
    {
      "inputs": [
        {
          "internalType": "uint256",
          "name": "tokenId",
          "type": "uint256"
        },
        {
          "internalType": "uint256",
          "name": "eventId",
          "type": "uint256"
        }
      ],
      "name": "purchaseEventEntrance",
      "outputs": [],
      "stateMutability": "nonpayable",
      "type": "function"
    },
    {
      "inputs": [],
      "name": "renounceOwnership",
      "outputs": [],
      "stateMutability": "nonpayable",
      "type": "function"
    },
    {
      "inputs": [
        {
          "internalType": "address",
          "name": "merchant",
          "type": "address"
        }
      ],
      "name": "revokeMerchant",
      "outputs": [],
      "stateMutability": "nonpayable",
      "type": "function"
    },
    {
      "inputs": [
        {
          "internalType": "address",
          "name": "from",
          "type": "address"
        },
        {
          "internalType": "address",
          "name": "to",
          "type": "address"
        },
        {
          "internalType": "uint256",
          "name": "tokenId",
          "type": "uint256"
        }
      ],
      "name": "safeTransferFrom",
      "outputs": [],
      "stateMutability": "nonpayable",
      "type": "function"
    },
    {
      "inputs": [
        {
          "internalType": "address",
          "name": "from",
          "type": "address"
        },
        {
          "internalType": "address",
          "name": "to",
          "type": "address"
        },
        {
          "internalType": "uint256",
          "name": "tokenId",
          "type": "uint256"
        },
        {
          "internalType": "bytes",
          "name": "data",
          "type": "bytes"
        }
      ],
      "name": "safeTransferFrom",
      "outputs": [],
      "stateMutability": "nonpayable",
      "type": "function"
    },
    {
      "inputs": [
        {
          "internalType": "address",
          "name": "operator",
          "type": "address"
        },
        {
          "internalType": "bool",
          "name": "approved",
          "type": "bool"
        }
      ],
      "name": "setApprovalForAll",
      "outputs": [],
      "stateMutability": "nonpayable",
      "type": "function"
    },
    {
      "inputs": [
        {
          "internalType": "uint256",
          "name": "templateId",
          "type": "uint256"
        },
        {
          "internalType": "address",
          "name": "tokenAddress",
          "type": "address"
        }
      ],
      "name": "setTemplatePaymentToken",
      "outputs": [],
      "stateMutability": "nonpayable",
      "type": "function"
    },
    {
      "inputs": [
        {
          "internalType": "address",
          "name": "validator",
          "type": "address"
        },
        {
          "internalType": "bool",
          "name": "status",
          "type": "bool"
        }
      ],
      "name": "setTicketValidator",
      "outputs": [],
      "stateMutability": "nonpayable",
      "type": "function"
    },
    {
      "inputs": [
        {
          "internalType": "address",
          "name": "",
          "type": "address"
        }
      ],
      "name": "supportedTokens",
      "outputs": [
        {
          "internalType": "bool",
          "name": "",
          "type": "bool"
        }
      ],
      "stateMutability": "view",
      "type": "function"
    },
    {
      "inputs": [
        {
          "internalType": "bytes4",
          "name": "interfaceId",
          "type": "bytes4"
        }
      ],
      "name": "supportsInterface",
      "outputs": [
        {
          "internalType": "bool",
          "name": "",
          "type": "bool"
        }
      ],
      "stateMutability": "view",
      "type": "function"
    },
    {
      "inputs": [],
      "name": "symbol",
      "outputs": [
        {
          "internalType": "string",
          "name": "",
          "type": "string"
        }
      ],
      "stateMutability": "view",
      "type": "function"
    },
    {
      "inputs": [
        {
          "internalType": "uint256",
          "name": "",
          "type": "uint256"
        }
      ],
      "name": "templatePaymentTokens",
      "outputs": [
        {
          "internalType": "address",
          "name": "",
          "type": "address"
        }
      ],
      "stateMutability": "view",
      "type": "function"
    },
    {
      "inputs": [
        {
          "internalType": "uint256",
          "name": "",
          "type": "uint256"
        }
      ],
      "name": "templates",
      "outputs": [
        {
          "internalType": "string",
          "name": "name",
          "type": "string"
        },
        {
          "internalType": "uint256",
          "name": "baseBalance",
          "type": "uint256"
        },
        {
          "internalType": "uint256",
          "name": "price",
          "type": "uint256"
        },
        {
          "internalType": "uint256",
          "name": "discount",
          "type": "uint256"
        },
        {
          "internalType": "bool",
          "name": "isVIP",
          "type": "bool"
        },
        {
          "internalType": "string",
          "name": "metadataURI",
          "type": "string"
        },
        {
          "internalType": "bool",
          "name": "active",
          "type": "bool"
        }
      ],
      "stateMutability": "view",
      "type": "function"
    },
    {
      "inputs": [
        {
          "internalType": "address",
          "name": "",
          "type": "address"
        }
      ],
      "name": "ticketValidators",
      "outputs": [
        {
          "internalType": "bool",
          "name": "",
          "type": "bool"
        }
      ],
      "stateMutability": "view",
      "type": "function"
    },
    {
      "inputs": [
        {
          "internalType": "uint256",
          "name": "",
          "type": "uint256"
        }
      ],
      "name": "tokenBalance",
      "outputs": [
        {
          "internalType": "uint256",
          "name": "",
          "type": "uint256"
        }
      ],
      "stateMutability": "view",
      "type": "function"
    },
    {
      "inputs": [
        {
          "internalType": "uint256",
          "name": "",
          "type": "uint256"
        },
        {
          "internalType": "uint256",
          "name": "",
          "type": "uint256"
        }
      ],
      "name": "tokenEvents",
      "outputs": [
        {
          "internalType": "uint256",
          "name": "",
          "type": "uint256"
        }
      ],
      "stateMutability": "view",
      "type": "function"
    },
    {
      "inputs": [
        {
          "internalType": "uint256",
          "name": "",
          "type": "uint256"
        }
      ],
      "name": "tokenTemplateIds",
      "outputs": [
        {
          "internalType": "uint256",
          "name": "",
          "type": "uint256"
        }
      ],
      "stateMutability": "view",
      "type": "function"
    },
    {
      "inputs": [
        {
          "internalType": "uint256",
          "name": "tokenId",
          "type": "uint256"
        }
      ],
      "name": "tokenURI",
      "outputs": [
        {
          "internalType": "string",
          "name": "",
          "type": "string"
        }
      ],
      "stateMutability": "view",
      "type": "function"
    },
    {
      "inputs": [
        {
          "internalType": "uint256",
          "name": "tokenId",
          "type": "uint256"
        },
        {
          "internalType": "uint256",
          "name": "amount",
          "type": "uint256"
        },
        {
          "internalType": "address",
          "name": "paymentToken",
          "type": "address"
        }
      ],
      "name": "topUpBalance",
      "outputs": [],
      "stateMutability": "nonpayable",
      "type": "function"
    },
    {
      "inputs": [
        {
          "internalType": "uint256",
          "name": "",
          "type": "uint256"
        },
        {
          "internalType": "uint256",
          "name": "",
          "type": "uint256"
        }
      ],
      "name": "transactions",
      "outputs": [
        {
          "internalType": "uint256",
          "name": "timestamp",
          "type": "uint256"
        },
        {
          "internalType": "address",
          "name": "merchant",
          "type": "address"
        },
        {
          "internalType": "uint256",
          "name": "amount",
          "type": "uint256"
        },
        {
          "internalType": "string",
          "name": "transactionType",
          "type": "string"
        },
        {
          "internalType": "string",
          "name": "metadata",
          "type": "string"
        }
      ],
      "stateMutability": "view",
      "type": "function"
    },
    {
      "inputs": [
        {
          "internalType": "address",
          "name": "from",
          "type": "address"
        },
        {
          "internalType": "address",
          "name": "to",
          "type": "address"
        },
        {
          "internalType": "uint256",
          "name": "tokenId",
          "type": "uint256"
        }
      ],
      "name": "transferFrom",
      "outputs": [],
      "stateMutability": "nonpayable",
      "type": "function"
    },
    {
      "inputs": [
        {
          "internalType": "address",
          "name": "newOwner",
          "type": "address"
        }
      ],
      "name": "transferOwnership",
      "outputs": [],
      "stateMutability": "nonpayable",
      "type": "function"
    },
    {
      "inputs": [],
      "name": "unpause",
      "outputs": [],
      "stateMutability": "nonpayable",
      "type": "function"
    },
    {
      "inputs": [
        {
          "internalType": "uint256",
          "name": "tokenId",
          "type": "uint256"
        },
        {
          "internalType": "string",
          "name": "newUri",
          "type": "string"
        }
      ],
      "name": "updateTokenURI",
      "outputs": [],
      "stateMutability": "nonpayable",
      "type": "function"
    },
    {
      "inputs": [
        {
          "internalType": "uint256",
          "name": "tokenId",
          "type": "uint256"
        },
        {
          "internalType": "uint256",
          "name": "eventId",
          "type": "uint256"
        }
      ],
      "name": "validateTicket",
      "outputs": [
        {
          "internalType": "bool",
          "name": "",
          "type": "bool"
        }
      ],
      "stateMutability": "nonpayable",
      "type": "function"
    }
  ],
  "bytecode": "0x6080346200038d576001600160401b039060408181018381118382101762000377578152600c82526020916b5761766558204e465420563360a01b838201528151938285018581108282111762000377578352600685526557415645583360d01b84860152815181811162000377576000948554916001948584811c941680156200036c575b8385101462000358578190601f9485811162000305575b508390858311600114620002a157899262000295575b5050600019600383901b1c191690851b1786555b8651928311620002815783548481811c9116801562000276575b8282101462000262578281116200021a575b5080918311600114620001b3575084958293949592620001a7575b5050600019600383901b1c191690821b1790555b60075490331562000190576001600160a81b0319821633600881811b610100600160a81b0316929092176007559151939192901c6001600160a01b0316907f8be0079c531659141344cd1fd0a4f28419497f9722a3daafe3b4186f6b6457e09080a3614a509081620003938239f35b51631e4fbdf760e01b815260048101839052602490fd5b0151905038806200010d565b90601f198316968487528287209287905b89821062000202575050838596979810620001e8575b505050811b01905562000121565b015160001960f88460031b161c19169055388080620001da565b808785968294968601518155019501930190620001c4565b8487528187208380860160051c82019284871062000258575b0160051c019085905b8281106200024c575050620000f2565b8881550185906200023c565b9250819262000233565b634e487b7160e01b87526022600452602487fd5b90607f1690620000e0565b634e487b7160e01b86526041600452602486fd5b015190503880620000b2565b898052848a208894509190601f1984168b5b87828210620002ee5750508411620002d4575b505050811b018655620000c6565b015160001960f88460031b161c19169055388080620002c6565b8385015186558b97909501949384019301620002b3565b9091508880528389208580850160051c8201928686106200034e575b918991869594930160051c01915b8281106200033f5750506200009c565b8b81558594508991016200032f565b9250819262000321565b634e487b7160e01b88526022600452602488fd5b93607f169362000085565b634e487b7160e01b600052604160045260246000fd5b600080fdfe608080604052600436101561001357600080fd5b60003560e01c90816301ffc9a714613ce3575080630374ab0b14613a4c578063042ab9b31461393357806306fdde0314613890578063081812fc14613852578063095ea7b31461376b5780630b791430146136ea57806318e97fd11461365e57806323b872dd14613647578063283421331461321057806331543cf41461310b578063368a524714612c3357806337ae9c1314612bee5780633de5d0de14612bc25780633f4ba83a14612b5857806342842e0e14612b2a57806349afc6e514612afe5780634a07325414612ad25780634eaf9db614612a645780635016959a14612a4657806357d802bd1461298257806359e7d872146128db5780635c975abb146128b85780636352211e1461288857806368c4ac26146128495780636d69fcaf146127d457806370a082311461277b578063715018a61461271a5780637303f6ce1461267f578063737b61ad1461264057806373b7d05c1461260c578063819a701c146125ca5780638456cb59146125705780638729a9d9146124cf5780638af5ae991461151c5780638da5cb5b146114ef57806395d89b411461141057806396651ec314611085578063a22cb46514610fda578063a871bd6614610f9b578063b6300ef314610f5d578063b701b31914610d8a578063b88d4fde14610d1e578063bc52565214610cb6578063c4754b7714610c10578063c87b56dd14610bb3578063ca2efd3814610b74578063cdc965cd146107f0578063e985e9c51461079a578063f2fde38b146107015763f50f80621461025057600080fd5b346105a85760803660031901126105a85760043561026c613ec3565b906044356001600160401b0381116105a85761028c903690600401613e47565b916001600160a01b039160643583811691908290036105a8576102ad614854565b80600052602094600a865260ff60066040600020015416156106c65781600052600a8652604060002092604051936102e485613d68565b6102ed81613f13565b855260018101549488810195865260c060ff60066002850154946040850195865260038101546060860152826004820154161515608086015261033260058201613f13565b60a0860152015416151591015280511561068857516040516323b872dd60e01b81523360048201523060248201526044810191909152908790829060649082906000905af190811561067c5760009161064f575b501561061957610397600854614474565b9384600855604051906103a982613db9565b6000825286811696871561060057866000526002895260406000205416868882151592836105cd575b600082815260038d5260408082208054600101905584825260028e52812080546001600160a01b031916841790557fddf252ad1be2c89b69c2b068fc378daa952ba7f163c4a11628f55a4df523b3ef9080a46105b4573b610492575b8685806000805160206149db8339815191526080888861044e89866146df565b84600052601487526040600020558051600c87526040600020555160405190815260408682015260046040820152631352539560e21b6060820152a2604051908152f35b6040518781806104cb630a85bd0160e11b95868352336004840152600060248401528a6044840152608060648401526084830190613e88565b038160008b5af16000918161056f575b506105375787873d15610530573d6104f281613df5565b906105006040519283613dd4565b81523d60008483013e5b8051928361052b57604051633250574960e11b815260048101849052602490fd5b019050fd5b606061050a565b63ffffffff60e09793949596971b1603610557575083929190608061042e565b60249060405190633250574960e11b82526004820152fd5b9091508881813d83116105ad575b6105878183613dd4565b810103126105a857516001600160e01b0319811681036105a85790386104db565b600080fd5b503d61057d565b6040516339e3563760e11b815260006004820152602490fd5b60008381526004602052604080822080546001600160a01b031916905582825260038e52902080546000190190556103d2565b604051633250574960e11b815260006004820152602490fd5b60405162461bcd60e51b815260048101879052600e60248201526d14185e5b595b9d0819985a5b195960921b6044820152606490fd5b61066f9150873d8911610675575b6106678183613dd4565b810190614934565b38610386565b503d61065d565b6040513d6000823e3d90fd5b60405162461bcd60e51b815260048101899052601660248201527515195b5c1b185d19481c1c9a58d9481b9bdd081cd95d60521b6044820152606490fd5b60405162461bcd60e51b815260048101879052601360248201527254656d706c617465206e6f742061637469766560681b6044820152606490fd5b346105a85760203660031901126105a85761071a613ead565b61072261415a565b6001600160a01b038181169182156107815760078054610100600160a81b03198116600893841b610100600160a81b031617909155901c167f8be0079c531659141344cd1fd0a4f28419497f9722a3daafe3b4186f6b6457e0600080a3005b604051631e4fbdf760e01b815260006004820152602490fd5b346105a85760403660031901126105a8576107b3613ead565b6107bb613ec3565b9060018060a01b03809116600052600560205260406000209116600052602052602060ff604060002054166040519015158152f35b346105a8576107fe366140d0565b96959361080c93919361415a565b61081787838761463b565b60405161082381613d68565b85815286602082015281604082015282606082015283151560808201528460a082015288151560c082015287600052600a60205260406000209080518051906001600160401b038211610a9d57819061087c8554613ed9565b601f8111610b24575b50602090601f8311600114610abe57600092610ab3575b50508160011b916000199060031b1c19161782555b6020810151600183015560408101516002830155606081015160038301556108ee60808201511515600484019060ff801983541691151516179055565b60a08101518051906001600160401b038211610a9d576109116005850154613ed9565b601f8111610a56575b50602090601f83116001146109b35760c07fff92d45b846f70a381c6b12925794910c7d5a97f58898ac2a2dae8e48fdbda639c9d98969484610997956109a39c9a98956006956000926109a8575b50508160011b916000199060031b1c19161760058501555b0151151591019060ff801983541691151516179055565b60405197889788613fee565b0390a2005b015190503880610968565b906005850160005260206000209160005b601f1985168110610a3e57507fff92d45b846f70a381c6b12925794910c7d5a97f58898ac2a2dae8e48fdbda639c9d9896946001856109a39c9a989560069560c09561099799601f19811610610a25575b505050811b016005850155610980565b015160001960f88460031b161c19169055388080610a15565b919260206001819286850151815501940192016109c4565b600585016000526020600020601f840160051c810160208510610a96575b601f830160051c82018110610a8a57505061091a565b60008155600101610a74565b5080610a74565b634e487b7160e01b600052604160045260246000fd5b015190508c8061089c565b6000868152602081209350601f198516905b818110610b0c5750908460019594939210610af3575b505050811b0182556108b1565b015160001960f88460031b161c191690558c8080610ae6565b92936020600181928786015181550195019301610ad0565b909150846000526020600020601f840160051c810160208510610b6d575b90849392915b601f830160051c82018110610b5e575050610885565b60008155859450600101610b48565b5080610b42565b346105a85760203660031901126105a8576001600160a01b03610b95613ead565b16600052600f602052602060ff604060002054166040519015158152f35b346105a85760203660031901126105a857600435610bd08161430f565b506000526006602052610c0c610be96040600020613f13565b6000604051610bf781613db9565b52604051918291602083526020830190613e88565b0390f35b346105a8576020806003193601126105a857600435600052600e8152604060002060405190818382549182815201908192600052846000209060005b86828210610ca2578686610c6282880383613dd4565b604051928392818401908285525180915260408401929160005b828110610c8b57505050500390f35b835185528695509381019392810192600101610c7c565b835485529093019260019283019201610c4c565b346105a85760203660031901126105a857600435600052600a6020526040600020610ce081613f13565b610c0c600183015492600281015490600381015460ff6004830154169060ff6006610d0d60058601613f13565b940154169360405197889788613fee565b346105a85760803660031901126105a857610d37613ead565b610d3f613ec3565b90604435606435926001600160401b0384116105a857366023850112156105a857610d77610d88943690602481600401359101613e10565b92610d83838383614189565b61434a565b005b346105a857610d983661403a565b610da0614854565b8160005260209060028252610dc360018060a01b0360406000205416151561469c565b80600052600b8252604060002083600052600c83526040600020549060ff60048201541615610f2557600381015460028201541115610ef357906001610e0c920154111561494c565b80600052600b8252610e266001604060002001548461498f565b80600052600b82526003604060002001610e408154614474565b905582600052600e82526040600020908154600160401b811015610a9d576000805160206149db83398151915293610e82826080956001604095018155614142565b81549060031b9085821b91600019901b1916179055815192867f41d60c8cad3c4e044896e072fb848c8f5d2e3e91c87a22a93d930c35aa192403600080a385600052600c815281600020548352820152600e60408201526d4556454e545f505552434841534560901b6060820152a2005b60405162461bcd60e51b815260048101859052600a602482015269115d995b9d08199d5b1b60b21b6044820152606490fd5b60405162461bcd60e51b815260048101859052601060248201526f4576656e74206e6f742061637469766560801b6044820152606490fd5b346105a8576080610f76610f703661403a565b9061449f565b6040805194151585529215156020850152918301526001600160a01b03166060820152f35b346105a857610fa93661403a565b90600052600e602052604060002080548210156105a857602091610fcc91614142565b90546040519160031b1c8152f35b346105a85760403660031901126105a857610ff3613ead565b610ffb6140c1565b6001600160a01b0390911690811561106c5733600052600560205260406000208260005260205261103c8160406000209060ff801983541691151516179055565b60405190151581527f17307eab39ab6107e8899845ad3d59bd9653f200f220920489ca2b5937696c3160203392a3005b604051630b61174360e31b815260048101839052602490fd5b346105a857611093366140d0565b9695936110a193919361415a565b6110ac87838761463b565b86600052600a6020526001604060002001546113cb576040516110ce81613d68565b85815286602082015281604082015282606082015283151560808201528460a082015288151560c082015287600052600a60205260406000209080518051906001600160401b038211610a9d5781906111278554613ed9565b601f811161137b575b50602090601f83116001146113155760009261130a575b50508160011b916000199060031b1c19161782555b60208101516001830155604081015160028301556060810151600383015561119960808201511515600484019060ff801983541691151516179055565b60a08101518051906001600160401b038211610a9d576111bc6005850154613ed9565b601f81116112c3575b50602090601f831160011461124c5760c06000805160206149fb8339815191529c9d9896948461122e956109a39c9a98956006956000926109a85750508160011b916000199060031b1c19161760058501550151151591019060ff801983541691151516179055565b6009548a116112435760405197889788613fee565b89600955610997565b906005850160005260206000209160005b601f19851681106112ab57506000805160206149fb8339815191529c9d9896946001856109a39c9a989560069560c09561122e99601f19811610610a2557505050811b016005850155610980565b9192602060018192868501518155019401920161125d565b600585016000526020600020601f840160051c810160208510611303575b601f830160051c820181106112f75750506111c5565b600081556001016112e1565b50806112e1565b015190508c80611147565b6000868152602081209350601f198516905b818110611363575090846001959493921061134a575b505050811b01825561115c565b015160001960f88460031b161c191690558c808061133d565b92936020600181928786015181550195019301611327565b909150846000526020600020601f840160051c8101602085106113c4575b90849392915b601f830160051c820181106113b5575050611130565b6000815585945060010161139f565b5080611399565b60405162461bcd60e51b815260206004820152601760248201527f54656d706c61746520616c7265616479206578697374730000000000000000006044820152606490fd5b346105a85760003660031901126105a8576040516000600180549061143482613ed9565b808552918181169081156114c8575060011461146f575b610c0c8461145b81860382613dd4565b604051918291602083526020830190613e88565b600081815292507fb10e2d527612073b26eecdfd717e6a320cf44b4afac2b0732d9fcbe2b7fa0cf65b8284106114b057505050810160200161145b8261144b565b80546020858701810191909152909301928101611498565b60ff191660208087019190915292151560051b8501909201925061145b915083905061144b565b346105a85760003660031901126105a85760075460405160089190911c6001600160a01b03168152602090f35b346105a85760003660031901126105a85761153561415a565b6001600052600a6020527fbbc70db1b6c7afd11e79c0fb0051300458f1a3acb8ee9789d9b6b26c61ad9bc85461248a5760405161157181613d9e565b600481526311dbdb1960e21b602082015260405161158e81613db9565b6000815261159b826145f7565b6001600052600a6020527fbbc70db1b6c7afd11e79c0fb0051300458f1a3acb8ee9789d9b6b26c61ad9bc8546113cb576040516115d781613d68565b82815268a2a15d09519be00000602082015268a2a15d09519be00000604082015260006060820152600060808201528160a0820152600160c08201526001600052600a60205260406000209080518051906001600160401b038211610a9d5781906116428554613ed9565b601f811161243a575b50602090601f83116001146123ce576000926123c3575b50508160011b916000199060031b1c19161782555b6020810151600183015560408101516002830155606081015160038301556116b460808201511515600484019060ff801983541691151516179055565b60a08101518051906001600160401b038211610a9d576116d76005850154613ed9565b601f811161237c575b50602090601f83116001146123055761176894600660c060019996866117a2976000805160206149fb8339815191529b9761174a976000926122fa575b5050600019600383901b1c1916908c1b1760058501550151151591019060ff801983541691151516179055565b6009548611611e17575b60405193849360e0855260e0850190613e88565b9068a2a15d09519be00000602085015268a2a15d09519be000006040850152600060608501526000608085015283820360a0850152613e88565b8460c08301520390a26040516117b781613d9e565b6008815267506c6174696e756d60c01b60208201526040516117d881613db9565b600081526117e5826145f7565b6002600052600a6020527fbff4442b8ed600beeb8e26b1279a0f0d14c6edfaec26d968ee13c86f7d4c2ba9546113cb5760405161182181613d68565b82815269010f0cf064dd59200000602082015269010f0cf064dd59200000604082015260006060820152600060808201528160a0820152600160c08201526002600052600a60205260406000209080518051906001600160401b038211610a9d57819061188e8554613ed9565b601f81116122aa575b50602090601f831160011461223e57600092612233575b50508160011b916000199060031b1c19161782555b60208101516001830155604081015160028301556060810151600383015561190060808201511515600484019060ff801983541691151516179055565b60a08101518051906001600160401b038211610a9d576119236005850154613ed9565b601f81116121ec575b50602090601f83116001146121745761199694600660c060029996866119d2976000805160206149fb8339815191529b9761174a97600092611e205750508160011b916000199060031b1c19161760058501550151151591019060ff801983541691151516179055565b9069010f0cf064dd59200000602085015269010f0cf064dd592000006040850152600060608501526000608085015283820360a0850152613e88565b600160c08301520390a26040516119e881613d9e565b6005815264426c61636b60d81b6020820152604051611a0681613db9565b60008152611a13826145f7565b6003600052600a6020527fa856840544dc26124927add067d799967eac11be13e14d82cc281ea46fa3975a546113cb57604051611a4f81613d68565b828152683635c9adc5dea000006020820152683635c9adc5dea00000604082015260006060820152600060808201528160a0820152600160c08201526003600052600a60205260406000209080518051906001600160401b038211610a9d578190611aba8554613ed9565b601f8111612124575b50602090601f83116001146120b8576000926120ad575b50508160011b916000199060031b1c19161782555b602081015160018301556040810151600283015560608101516003830155611b2c60808201511515600484019060ff801983541691151516179055565b60a08101518051906001600160401b038211610a9d57611b4f6005850154613ed9565b601f8111612066575b50602090601f8311600114611fd557611bc294600660c06003999686611bfc976000805160206149fb8339815191529b9761174a97600092611fca575b50508160011b91600019908e1b1c19161760058501550151151591019060ff801983541691151516179055565b90683635c9adc5dea000006020850152683635c9adc5dea000006040850152600060608501526000608085015283820360a0850152613e88565b600160c08301520390a2604051611c1281613d9e565b600a8152694576656e74427269746560b01b6020820152604051611c3581613db9565b60008152611c42826145f7565b6004600052600a6020527fe1eb2b2161a492c07c5a334e48012567cba93ec021043f53c1955516a3c5a842546113cb57604051611c7e81613d68565b828152600060208201526000604082015260006060820152600060808201528160a0820152600160c08201526004600052600a60205260406000209080518051906001600160401b038211610a9d578190611cd98554613ed9565b601f8111611f7a575b50602090601f8311600114611f0e57600092611f03575b50508160011b916000199060031b1c19161782555b602081015160018301556040810151600283015560608101516003830155611d4b60808201511515600484019060ff801983541691151516179055565b60a08101518051906001600160401b038211610a9d57611d6e6005850154613ed9565b601f8111611ebc575b50602090601f8311600114611e2b57611de194600660c06004999686611e0b976000805160206149fb8339815191529b9761174a97600092611e205750508160011b916000199060031b1c19161760058501550151151591019060ff801983541691151516179055565b906000602085015260006040850152600060608501526000608085015283820360a0850152613e88565b600160c08301520390a2005b85600955611754565b015190508d80610968565b906005850160005260206000209160005b601f1985168110611ea4575094600660c0600499966001876000805160206149fb8339815191529b9761174a97611de19c611e0b9b601f19811610611e8b57505050811b016005850155610980565b015160001960f88460031b161c191690558d8080610a15565b91926020600181928685015181550194019201611e3c565b600585016000526020600020601f840160051c810160208510611efc575b601f830160051c82018110611ef0575050611d77565b60008155600101611eda565b5080611eda565b015190508680611cf9565b9250846000526020600020906000935b601f1984168510611f5f576001945083601f19811610611f46575b505050811b018255611d0e565b015160001960f88460031b161c19169055868080611f39565b81810151835560209485019460019093019290910190611f1e565b909150846000526020600020601f840160051c810160208510611fc3575b90849392915b601f830160051c82018110611fb4575050611ce2565b60008155859450600101611f9e565b5080611f98565b015190508d80611b95565b906005850160005260206000209160005b601f198516811061204e575094600660c0600399966001876000805160206149fb8339815191529b9761174a97611bc29c611bfc9b601f1981161061203557505050811b016005850155610980565b01516000198f8460f8911b161c191690558d8080610a15565b91926020600181928685015181550194019201611fe6565b600585016000526020600020601f840160051c8101602085106120a6575b601f830160051c8201811061209a575050611b58565b60008155600101612084565b5080612084565b015190508680611ada565b9250846000526020600020906000935b601f1984168510612109576001945083601f198116106120f0575b505050811b018255611aef565b015160001960f88460031b161c191690558680806120e3565b818101518355602094850194600190930192909101906120c8565b909150846000526020600020601f840160051c81016020851061216d575b90849392915b601f830160051c8201811061215e575050611ac3565b60008155859450600101612148565b5080612142565b906005850160005260206000209160005b601f19851681106121d4575094600660c0600299966001876000805160206149fb8339815191529b9761174a976119969c6119d29b601f19811610611e8b57505050811b016005850155610980565b91926020600181928685015181550194019201612185565b600585016000526020600020601f840160051c81016020851061222c575b601f830160051c8201811061222057505061192c565b6000815560010161220a565b508061220a565b0151905086806118ae565b9250846000526020600020906000935b601f198416851061228f576001945083601f19811610612276575b505050811b0182556118c3565b015160001960f88460031b161c19169055868080612269565b8181015183556020948501946001909301929091019061224e565b909150846000526020600020601f840160051c8101602085106122f3575b90849392915b601f830160051c820181106122e4575050611897565b600081558594506001016122ce565b50806122c8565b015190508d8061171d565b906005850160005260206000209160005b601f1985168110612364575094600660c0600199968a876000805160206149fb8339815191529b9761174a976117689c6117a29b601f19811610611e8b57505050811b016005850155610980565b91926020600181928685015181550194019201612316565b600585016000526020600020601f840160051c8101602085106123bc575b601f830160051c820181106123b05750506116e0565b6000815560010161239a565b508061239a565b015190508680611662565b9250846000526020600020906000935b601f198416851061241f576001945083601f19811610612406575b505050811b018255611677565b015160001960f88460031b161c191690558680806123f9565b818101518355602094850194600190930192909101906123de565b909150846000526020600020601f840160051c810160208510612483575b90849392915b601f830160051c8201811061247457505061164b565b6000815585945060010161245e565b5080612458565b60405162461bcd60e51b815260206004820152601d60248201527f54656d706c6174657320616c726561647920696e697469616c697a65640000006044820152606490fd5b346105a85760403660031901126105a8576124e8613ead565b6124f06140c1565b906124f961415a565b6001600160a01b031690811561252b57610d8891600052601260205260406000209060ff801983541691151516179055565b60405162461bcd60e51b815260206004820152601960248201527f496e76616c69642076616c696461746f722061646472657373000000000000006044820152606490fd5b346105a85760003660031901126105a85761258961415a565b612591614854565b600160ff1960075416176007557f62e78cea01bee320cd4e420270b5ea74000d11b0c9f74754ebdbfc544b05a2586020604051338152a1005b346105a85760203660031901126105a8576125e3613ead565b6125eb61415a565b6001600160a01b03166000908152600f60205260409020805460ff19169055005b346105a85760203660031901126105a8576004356000526013602052602060018060a01b0360406000205416604051908152f35b346105a85760203660031901126105a8576001600160a01b03612661613ead565b166000526012602052602060ff604060002054166040519015158152f35b346105a8576126a36126903661403a565b90600052600d6020526040600020614050565b50604051906126b182613d83565b8054825260018101546001600160a01b0390811660208401908152600283015460408501908152939092610c0c926126fe60046126f060038501613f13565b936060860194855201613f13565b9283608082015251945116945190519060405195869586614082565b346105a85760003660031901126105a85761273361415a565b60078054610100600160a81b0319811690915560009060081c6001600160a01b03167f8be0079c531659141344cd1fd0a4f28419497f9722a3daafe3b4186f6b6457e08280a3005b346105a85760203660031901126105a8576001600160a01b0361279c613ead565b1680156127bb5760005260036020526020604060002054604051908152f35b6040516322718ad960e21b815260006004820152602490fd5b346105a85760203660031901126105a8576127ed613ead565b6127f561415a565b6001600160a01b0316612809811515614571565b8060005260106020526040600020600160ff198254161790557fd1be2e90bd3d24839d9dd94ad871068e1f9688b02fa43f2a62c9975dfa9de2d7600080a2005b346105a85760203660031901126105a8576001600160a01b0361286a613ead565b166000526010602052602060ff604060002054166040519015158152f35b346105a85760203660031901126105a85760206128a660043561430f565b6040516001600160a01b039091168152f35b346105a85760003660031901126105a857602060ff600754166040519015158152f35b346105a85760403660031901126105a8576004357f39db75df3ed66fe2043917ea45436f0ce2bb4ad1ebdf46101203e09b4e7550da602061291a613ec3565b61292261415a565b61292d84151561452f565b6001600160a01b0316612941811515614571565b806000526010825261295a60ff604060002054166145b5565b83600052601382526040600020816001600160601b0360a01b825416179055604051908152a2005b346105a8576129903661403a565b90612999614854565b33600052601260205260ff6040600020541615612a01576020916129be338284614872565b91826129d1575b50506040519015158152f35b7fb35ebdfb9515b145e406c5c5a0846ec436db0b9560927af3af7a754d90c4f6ff84604051338152a382806129c5565b60405162461bcd60e51b815260206004820152601860248201527f4e6f7420617574686f72697a65642076616c696461746f7200000000000000006044820152606490fd5b346105a85760003660031901126105a8576020600954604051908152f35b346105a857612a723661403a565b90600052600d60205260406000209081548110156105a857612a9391614050565b508054610c0c60018060a01b0360018401541692600281015490612ac56004612abe60038401613f13565b9201613f13565b9160405195869586614082565b346105a85760203660031901126105a85760043560005260146020526020604060002054604051908152f35b346105a85760203660031901126105a857600435600052600c6020526020604060002054604051908152f35b346105a857610d88612b3b36613fb9565b9060405192612b4984613db9565b60008452610d83838383614189565b346105a85760003660031901126105a857612b7161415a565b60075460ff811615612bb05760ff19166007557f5db9ee0a495bf2e6ff9c91a7834c1ba4fdd244a5e8aa4e537bd38aeae4b073aa6020604051338152a1005b604051638dfc202b60e01b8152600490fd5b346105a85760203660031901126105a857600435600052600d6020526020604060002054604051908152f35b346105a85760203660031901126105a857612c07613ead565b612c0f61415a565b6001600160a01b03166000908152600f60205260409020805460ff19166001179055005b346105a85760603660031901126105a8576001600160a01b03604435818116908190036105a857612c62614854565b6004356000526002602052612c7f8260406000205416151561469c565b806000526010602052612c9960ff604060002054166145b5565b6040516323b872dd60e01b81523360048201523060248083019190915235604482015290602090829060649082906000905af190811561067c576000916130ec575b50156130b557600435600052600c6020526040600020805490602435820180921161309f5755604051612d0d81613d9e565b60058152640544f5055560dc1b602082015260405191612d2c83613db9565b60008352600435600052600d60205260406000209260405193612d4e85613d83565b428552602085016000815260408601916024358352606087019386855260808801528054600160401b811015610a9d57612d8d91600182018155614050565b9490946130895786518555600185019151166001600160601b0360a01b825416179055516002830155519283516001600160401b038111610a9d57612dd56003840154613ed9565b601f8111613042575b506020601f8211600114612fcf5781906080949596600092612fc4575b50508160011b916000199060031b1c19161760038401555b01518051906001600160401b038211610a9d57612e336004840154613ed9565b601f8111612f79575b50602090601f8311600114612f0b576004929160009183612f00575b50508160011b916000199060031b1c1916179101555b7f131c2944ea68313084c40d9074bfd26611dbd83e4c0bc84f646b864548708978612ea460405192604084526040840190613e88565b91602435602082015280600435930390a2600435600052600c6020526040600020546040519081526040602082015260056040820152640544f5055560dc1b60608201526000805160206149db833981519152608060043592a2005b015190508580612e58565b90601f198316916004850160005260206000209260005b818110612f6157509160019391856004969410612f48575b505050811b01910155612e6e565b015160001960f88460031b161c19169055858080612f3a565b92936020600181928786015181550195019301612f22565b600484016000526020600020601f840160051c81019160208510612fba575b601f0160051c01905b818110612fae5750612e3c565b60008155600101612fa1565b9091508190612f98565b015190508680612dfb565b6003840160005260206000209560005b601f198416811061302a57509582916080959697600194601f19811610613011575b505050811b016003840155612e13565b015160001960f88460031b161c19169055868080613001565b82820151885560019097019660209283019201612fdf565b600384016000526020600020601f830160051c810160208410613082575b601f830160051c82018110613076575050612dde565b60008155600101613060565b5080613060565b634e487b7160e01b600052600060045260246000fd5b634e487b7160e01b600052601160045260246000fd5b60405162461bcd60e51b815260206004820152600f60248201526e151c985b9cd9995c8819985a5b1959608a1b6044820152606490fd5b613105915060203d602011610675576106678183613dd4565b82612cdb565b346105a85760203660031901126105a857600435600052600a602052604060002060405161313881613d68565b61314182613f13565b815260018201549060208101918252600283015492604082019384526003810154906060830191825260ff6004820154169060808401911515825260ff600661318c60058401613f13565b9260a087019384520154169160c085019215158352845151156131cb57610c0c9451955196519351905115159151925115159360405197889788613fee565b60405162461bcd60e51b815260206004820152601760248201527f54656d706c61746520646f6573206e6f742065786973740000000000000000006044820152606490fd5b346105a85760603660031901126105a8576044356001600160401b0381116105a857613240903690600401613e47565b613248614854565b600435600052600260205260018060a01b0361326c8160406000205416151561469c565b33600052600f60205260ff60406000205416156136025761329160243560043561498f565b6040519061329e82613d9e565b60078252661410565351539560ca1b6020830152600435600052600d602052604060002092604051936132d085613d83565b4285526020850133815260408601916024358352606087019386855260808801528054600160401b811015610a9d5761330e91600182018155614050565b9490946130895786518555600185019151166001600160601b0360a01b825416179055516002830155518051906001600160401b038211610a9d576133566003840154613ed9565b601f81116135bb575b50602090601f83116001146135465791806080949260049460009261353b575b50508160011b916000199060031b1c19161760038201555b019201519182516001600160401b038111610a9d576133b68254613ed9565b601f81116134f3575b506020601f821160011461348d5781929394600092613482575b50508160011b916000199060031b1c19161790555b7f131c2944ea68313084c40d9074bfd26611dbd83e4c0bc84f646b86454870897861342460405192604084526040840190613e88565b91602435602082015280600435930390a2600435600052600c6020526040600020546040519081526040602082015260076040820152661410565351539560ca1b60608201526000805160206149db833981519152608060043592a2005b0151905084806133d9565b601f198216908360005260206000209160005b8181106134db575095836001959697106134c2575b505050811b0190556133ee565b015160001960f88460031b161c191690558480806134b5565b9192602060018192868b0151815501940192016134a0565b826000526020600020601f830160051c81019160208410613531575b601f0160051c01905b81811061352557506133bf565b60008155600101613518565b909150819061350f565b01519050878061337f565b906003840160005260206000209160005b601f19851681106135a35750926080949260019260049583601f1981161061358a575b505050811b016003820155613397565b015160001960f88460031b161c1916905587808061357a565b91926020600181928685015181550194019201613557565b600384016000526020600020601f840160051c8101602085106135fb575b601f830160051c820181106135ef57505061335f565b600081556001016135d9565b50806135d9565b60405162461bcd60e51b815260206004820152601760248201527f4e6f7420617574686f72697a6564206d65726368616e740000000000000000006044820152606490fd5b346105a857610d8861365836613fb9565b91614189565b346105a85760403660031901126105a8576004356024356001600160401b0381116105a8576109a36136b57f931f495b9a8e5d8e61946ea5d61e021f636cfe213a801f97589c18c152e408bd923690600401613e47565b6136bd61415a565b6000848152600260205260409020546136e0906001600160a01b0316151561469c565b61145b81856146df565b346105a85760203660031901126105a857600435600052600b60205261374b604060002061371781613f13565b906001810154906002810154906003810154600560ff6004840154169201549260405196879660c0885260c0880190613e88565b946020870152604086015260608501521515608084015260a08301520390f35b346105a85760403660031901126105a857613784613ead565b6024356137908161430f565b3315158061383f575b80613812575b6137fa576001600160a01b039283169282918491167f8c5be1e5ebec7d5bd14f71427d1e84f3dd0314c0f7b2291e5b200ac8c7c3b925600080a4600090815260046020526040902080546001600160a01b0319169091179055005b60405163a9fbf51f60e01b8152336004820152602490fd5b5060018060a01b038116600052600560205260406000203360005260205260ff604060002054161561379f565b506001600160a01b038116331415613799565b346105a85760203660031901126105a85760043561386f8161430f565b506000526004602052602060018060a01b0360406000205416604051908152f35b346105a85760003660031901126105a857604051600080546138b181613ed9565b808452906001908181169081156114c857506001146138da57610c0c8461145b81860382613dd4565b600080805292507f290decd9548b62a8d60345a988386fc84ba6bc95484008f6362f93160ef3e5635b82841061391b57505050810160200161145b8261144b565b80546020858701810191909152909301928101613903565b346105a8576020806003193601126105a857600435600081815260028352604090205461396a906001600160a01b0316151561469c565b6000526014815260406000205480600052600a82526040600020613a426040519161399483613d68565b61399d81613f13565b83526001810154908584019182526002810154916040850192835260038201546060860190815260ff60048401541690608087019115158252613a2060ff60066139e960058801613f13565b968760a08c01520154161515978860c08201525193519551915192511515936040519a8b9a8b5261010080918c01528a0190613e88565b9460408901526060880152608087015260a086015284820360c0860152613e88565b9060e08301520390f35b346105a85760803660031901126105a8576001600160401b036004358181116105a857613a7d903690600401613e47565b90613a8661415a565b613a8e614854565b6040516020810190613ac26040828651613aac818760208b01613e65565b8101426020820152036020810184520182613dd4565b5190209060405160c0810181811083821117610a9d5760405283815260243560208201526044356040820152600060608201526001608082015260643560a082015282600052600b60205260406000209181518051918211610a9d57613b288454613ed9565b601f8111613c9b575b5091849391602096938790601f8311600114613c05577fee37bb5143a14810f72e86fce895be08e16090409d2e18f79b308995e39b73d4959383613be8969460059460a094600092613bfa575b50508160011b916000199060031b1c19161784555b8981015160018501556040810151600285015560608101516003850155613bcf60808201511515600486019060ff801983541691151516179055565b0151910155604051918291604083526040830190613e88565b604435878301520390a2604051908152f35b015190508c80613b7e565b9084600052886000209160005b601f1985168110613c8157509360018460059460a0947fee37bb5143a14810f72e86fce895be08e16090409d2e18f79b308995e39b73d49a98613be89a98601f19811610613c68575b505050811b018455613b93565b015160001960f88460031b161c191690558c8080613c5b565b818301518455899850600190930192918a01918a01613c12565b846000526020600020601f840160051c81019160208510613cd9575b601f0160051c01905b818110613ccd5750613b31565b60008155600101613cc0565b9091508190613cb7565b346105a85760203660031901126105a8576004359063ffffffff60e01b82168092036105a857602091632483248360e11b8114908115613d25575b5015158152f35b6380ac58cd60e01b811491508115613d57575b8115613d46575b5083613d1e565b6301ffc9a760e01b14905083613d3f565b635b5e139f60e01b81149150613d38565b60e081019081106001600160401b03821117610a9d57604052565b60a081019081106001600160401b03821117610a9d57604052565b604081019081106001600160401b03821117610a9d57604052565b602081019081106001600160401b03821117610a9d57604052565b90601f801991011681019081106001600160401b03821117610a9d57604052565b6001600160401b038111610a9d57601f01601f191660200190565b929192613e1c82613df5565b91613e2a6040519384613dd4565b8294818452818301116105a8578281602093846000960137010152565b9080601f830112156105a857816020613e6293359101613e10565b90565b60005b838110613e785750506000910152565b8181015183820152602001613e68565b90602091613ea181518092818552858086019101613e65565b601f01601f1916010190565b600435906001600160a01b03821682036105a857565b602435906001600160a01b03821682036105a857565b90600182811c92168015613f09575b6020831014613ef357565b634e487b7160e01b600052602260045260246000fd5b91607f1691613ee8565b9060405191826000825492613f2784613ed9565b908184526001948581169081600014613f965750600114613f53575b5050613f5192500383613dd4565b565b9093915060005260209081600020936000915b818310613f7e575050613f5193508201013880613f43565b85548884018501529485019487945091830191613f66565b915050613f5194506020925060ff191682840152151560051b8201013880613f43565b60609060031901126105a8576001600160a01b039060043582811681036105a8579160243590811681036105a8579060443590565b959192936140329461400e60c097939a999a60e08a5260e08a0190613e88565b946020890152604088015260608701521515608086015284820360a0860152613e88565b931515910152565b60409060031901126105a8576004359060243590565b805482101561406c576000526005602060002091020190600090565b634e487b7160e01b600052603260045260246000fd5b9390926140b392613e629694865260018060a01b03166020860152604085015260a0606085015260a0840190613e88565b916080818403910152613e88565b6024359081151582036105a857565b906101006003198301126105a857600435916001600160401b03916024358381116105a8578261410291600401613e47565b9260443592606435926084359260a43580151581036105a8579260c4359182116105a85761413291600401613e47565b9060e43580151581036105a85790565b805482101561406c5760005260206000200190600090565b60075460081c6001600160a01b0316330361417157565b60405163118cdaa760e01b8152336004820152602490fd5b6001600160a01b03918216929091831561060057600092828452826020956002875260409684888820541696879133151580614279575b509060027fddf252ad1be2c89b69c2b068fc378daa952ba7f163c4a11628f55a4df523b3ef9284614246575b858352600381528b8320805460010190558683525289812080546001600160a01b0319168517905580a416928383036142255750505050565b6064945051926364283d7b60e01b8452600484015260248301526044820152fd5b600087815260046020526040902080546001600160a01b0319169055848352600381528b832080546000190190556141ec565b919394509150806142ce575b15614295578592918791386141c0565b8786886142b2576024915190637e27328960e01b82526004820152fd5b604491519063177e802f60e01b82523360048301526024820152fd5b5033871480156142f3575b806142855750858252600481523385898420541614614285565b5086825260058152878220338352815260ff88832054166142d9565b6000818152600260205260409020546001600160a01b0316908115614332575090565b60249060405190637e27328960e01b82526004820152fd5b813b614357575b50505050565b604051630a85bd0160e11b8082523360048301526001600160a01b039283166024830152604482019490945260806064820152602095929091169390929083906143a5906084830190613e88565b039285816000958187895af1849181614430575b50614413575050503d60001461440b573d6143d381613df5565b906143e16040519283613dd4565b81528091843d92013e8051928361052b57604051633250574960e11b815260048101849052602490fd5b50606061050a565b919450915063ffffffff60e01b1603610557575038808080614351565b9091508681813d831161446d575b6144488183613dd4565b8101031261446957516001600160e01b0319811681036144695790386143b9565b8480fd5b503d61443e565b600019811461309f5760010190565b805482101561406c5760005260206000209060021b0190600090565b60009081526011602052604081208054919392845b8381106144c657505050508180918190565b816144d18285614483565b5054146144e6576144e190614474565b6144b4565b9450509190506144f68383614483565b509061451a60ff600180940154169460026145118287614483565b50015494614483565b5060030154919392916001600160a01b031690565b1561453657565b60405162461bcd60e51b8152602060048201526013602482015272125b9d985b1a59081d195b5c1b185d19481251606a1b6044820152606490fd5b1561457857565b60405162461bcd60e51b8152602060048201526015602482015274496e76616c696420746f6b656e206164647265737360581b6044820152606490fd5b156145bc57565b60405162461bcd60e51b8152602060048201526013602482015272151bdad95b881b9bdd081cdd5c1c1bdc9d1959606a1b6044820152606490fd5b51156145ff57565b60405162461bcd60e51b81526020600482015260146024820152734e616d652063616e6e6f7420626520656d70747960601b6044820152606490fd5b909161464890151561452f565b51156145ff5760641061465757565b60405162461bcd60e51b815260206004820152601b60248201527f496e76616c696420646973636f756e742070657263656e7461676500000000006044820152606490fd5b156146a357565b60405162461bcd60e51b8152602060048201526014602482015273151bdad95b88191bd95cc81b9bdd08195e1a5cdd60621b6044820152606490fd5b9190916000908082526020916006835260408120908551906001600160401b0382116148405761470f8354613ed9565b601f81116147fd575b508490601f831160011461477957907ff8e1a15aba9398e019f0b49df1a4fde98ee17ae345cb5f6b5e2c27f5033e8ce796978361476e575b50508160011b916000199060031b1c19161790555b604051908152a1565b015190503880614750565b9196601f198816848452868420935b8181106147e657509160019391897ff8e1a15aba9398e019f0b49df1a4fde98ee17ae345cb5f6b5e2c27f5033e8ce7999a94106147cd575b505050811b019055614765565b015160001960f88460031b161c191690553880806147c0565b929387600181928786015181550195019301614788565b838252858220601f840160051c810191878510614836575b601f0160051c01905b81811061482b5750614718565b82815560010161481e565b9091508190614815565b634e487b7160e01b81526041600452602490fd5b60ff6007541661486057565b60405163d93c066560e01b8152600490fd5b919091600052601160205260406000209060005b825481101561492b578361489a8285614483565b50541480614912575b6148b5576148b090614474565b614886565b829350806148c96148f09260039495614483565b506001908101805460ff191682179055946148e48282614483565b50600242910155614483565b500180546001600160a01b0319166001600160a01b0390921691909117905590565b5060ff60016149218386614483565b50015416156148a3565b50505050600090565b908160209103126105a8575180151581036105a85790565b1561495357565b60405162461bcd60e51b8152602060048201526014602482015273496e73756666696369656e742062616c616e636560601b6044820152606490fd5b600090808252600c6020526149aa836040842054101561494c565b8152600c602052604081209081549283039283116149c6575055565b634e487b7160e01b81526011600452602490fdfeec928c2fe6632313165f754a793ab00b2cde005b5c7571959d3137d5c4d4ac67c0fdbb34fd837325f175bd973a8607230e48718904c92805638b65905f616d7da2646970667358221220288e347d69619ea294feee282c8f003e4470c39a8251e3b25271ed1864e0fdea64736f6c63430008140033",
  "linkReferences": {},
  "deployedLinkReferences": {}
}