{
  "_format": "hh-sol-artifact-1",
  "contractName": "WaveXNFTV3",
  "sourceName": "contracts/v3/WaveXNFTV3.sol",
  "abi": [
    {
      "inputs": [],
      "stateMutability": "nonpayable",
      "type": "constructor"
    },
    {
      "inputs": [
        {
          "internalType": "address",
          "name": "sender",
          "type": "address"
        },
        {
          "internalType": "uint256",
          "name": "tokenId",
          "type": "uint256"
        },
        {
          "internalType": "address",
          "name": "owner",
          "type": "address"
        }
      ],
      "name": "ERC721IncorrectOwner",
      "type": "error"
    },
    {
      "inputs": [
        {
          "internalType": "address",
          "name": "operator",
          "type": "address"
        },
        {
          "internalType": "uint256",
          "name": "tokenId",
          "type": "uint256"
        }
      ],
      "name": "ERC721InsufficientApproval",
      "type": "error"
    },
    {
      "inputs": [
        {
          "internalType": "address",
          "name": "approver",
          "type": "address"
        }
      ],
      "name": "ERC721InvalidApprover",
      "type": "error"
    },
    {
      "inputs": [
        {
          "internalType": "address",
          "name": "operator",
          "type": "address"
        }
      ],
      "name": "ERC721InvalidOperator",
      "type": "error"
    },
    {
      "inputs": [
        {
          "internalType": "address",
          "name": "owner",
          "type": "address"
        }
      ],
      "name": "ERC721InvalidOwner",
      "type": "error"
    },
    {
      "inputs": [
        {
          "internalType": "address",
          "name": "receiver",
          "type": "address"
        }
      ],
      "name": "ERC721InvalidReceiver",
      "type": "error"
    },
    {
      "inputs": [
        {
          "internalType": "address",
          "name": "sender",
          "type": "address"
        }
      ],
      "name": "ERC721InvalidSender",
      "type": "error"
    },
    {
      "inputs": [
        {
          "internalType": "uint256",
          "name": "tokenId",
          "type": "uint256"
        }
      ],
      "name": "ERC721NonexistentToken",
      "type": "error"
    },
    {
      "inputs": [],
      "name": "EnforcedPause",
      "type": "error"
    },
    {
      "inputs": [],
      "name": "ExpectedPause",
      "type": "error"
    },
    {
      "inputs": [
        {
          "internalType": "address",
          "name": "owner",
          "type": "address"
        }
      ],
      "name": "OwnableInvalidOwner",
      "type": "error"
    },
    {
      "inputs": [
        {
          "internalType": "address",
          "name": "account",
          "type": "address"
        }
      ],
      "name": "OwnableUnauthorizedAccount",
      "type": "error"
    },
    {
      "anonymous": false,
      "inputs": [
        {
          "indexed": true,
          "internalType": "address",
          "name": "owner",
          "type": "address"
        },
        {
          "indexed": true,
          "internalType": "address",
          "name": "approved",
          "type": "address"
        },
        {
          "indexed": true,
          "internalType": "uint256",
          "name": "tokenId",
          "type": "uint256"
        }
      ],
      "name": "Approval",
      "type": "event"
    },
    {
      "anonymous": false,
      "inputs": [
        {
          "indexed": true,
          "internalType": "address",
          "name": "owner",
          "type": "address"
        },
        {
          "indexed": true,
          "internalType": "address",
          "name": "operator",
          "type": "address"
        },
        {
          "indexed": false,
          "internalType": "bool",
          "name": "approved",
          "type": "bool"
        }
      ],
      "name": "ApprovalForAll",
      "type": "event"
    },
    {
      "anonymous": false,
      "inputs": [
        {
          "indexed": true,
          "internalType": "uint256",
          "name": "tokenId",
          "type": "uint256"
        },
        {
          "indexed": false,
          "internalType": "uint256",
          "name": "newBalance",
          "type": "uint256"
        },
        {
          "indexed": false,
          "internalType": "string",
          "name": "updateType",
          "type": "string"
        }
      ],
      "name": "BalanceUpdated",
      "type": "event"
    },
    {
      "anonymous": false,
      "inputs": [
        {
          "indexed": false,
          "internalType": "uint256",
          "name": "_fromTokenId",
          "type": "uint256"
        },
        {
          "indexed": false,
          "internalType": "uint256",
          "name": "_toTokenId",
          "type": "uint256"
        }
      ],
      "name": "BatchMetadataUpdate",
      "type": "event"
    },
    {
      "anonymous": false,
      "inputs": [
        {
          "indexed": true,
          "internalType": "uint256",
          "name": "eventId",
          "type": "uint256"
        },
        {
          "indexed": false,
          "internalType": "string",
          "name": "name",
          "type": "string"
        },
        {
          "indexed": false,
          "internalType": "uint256",
          "name": "capacity",
          "type": "uint256"
        }
      ],
      "name": "EventCreated",
      "type": "event"
    },
    {
      "anonymous": false,
      "inputs": [
        {
          "indexed": true,
          "internalType": "uint256",
          "name": "tokenId",
          "type": "uint256"
        },
        {
          "indexed": true,
          "internalType": "uint256",
          "name": "eventId",
          "type": "uint256"
        }
      ],
      "name": "EventPurchased",
      "type": "event"
    },
    {
      "anonymous": false,
      "inputs": [
        {
          "indexed": false,
          "internalType": "uint256",
          "name": "_tokenId",
          "type": "uint256"
        }
      ],
      "name": "MetadataUpdate",
      "type": "event"
    },
    {
      "anonymous": false,
      "inputs": [
        {
          "indexed": true,
          "internalType": "address",
          "name": "previousOwner",
          "type": "address"
        },
        {
          "indexed": true,
          "internalType": "address",
          "name": "newOwner",
          "type": "address"
        }
      ],
      "name": "OwnershipTransferred",
      "type": "event"
    },
    {
      "anonymous": false,
      "inputs": [
        {
          "indexed": false,
          "internalType": "address",
          "name": "account",
          "type": "address"
        }
      ],
      "name": "Paused",
      "type": "event"
    },
    {
      "anonymous": false,
      "inputs": [
        {
          "indexed": true,
          "internalType": "uint256",
          "name": "templateId",
          "type": "uint256"
        },
        {
          "indexed": false,
          "internalType": "address",
          "name": "tokenAddress",
          "type": "address"
        }
      ],
      "name": "PaymentTokenSet",
      "type": "event"
    },
    {
      "anonymous": false,
      "inputs": [
        {
          "indexed": true,
          "internalType": "address",
          "name": "tokenAddress",
          "type": "address"
        }
      ],
      "name": "SupportedTokenAdded",
      "type": "event"
    },
    {
      "anonymous": false,
      "inputs": [
        {
          "indexed": true,
          "internalType": "uint256",
          "name": "templateId",
          "type": "uint256"
        },
        {
          "indexed": false,
          "internalType": "string",
          "name": "name",
          "type": "string"
        },
        {
          "indexed": false,
          "internalType": "uint256",
          "name": "baseBalance",
          "type": "uint256"
        },
        {
          "indexed": false,
          "internalType": "uint256",
          "name": "price",
          "type": "uint256"
        },
        {
          "indexed": false,
          "internalType": "uint256",
          "name": "discount",
          "type": "uint256"
        },
        {
          "indexed": false,
          "internalType": "bool",
          "name": "isVIP",
          "type": "bool"
        },
        {
          "indexed": false,
          "internalType": "string",
          "name": "metadataURI",
          "type": "string"
        },
        {
          "indexed": false,
          "internalType": "bool",
          "name": "active",
          "type": "bool"
        }
      ],
      "name": "TemplateCreated",
      "type": "event"
    },
    {
      "anonymous": false,
      "inputs": [
        {
          "indexed": true,
          "internalType": "uint256",
          "name": "templateId",
          "type": "uint256"
        },
        {
          "indexed": false,
          "internalType": "string",
          "name": "name",
          "type": "string"
        },
        {
          "indexed": false,
          "internalType": "uint256",
          "name": "baseBalance",
          "type": "uint256"
        },
        {
          "indexed": false,
          "internalType": "uint256",
          "name": "price",
          "type": "uint256"
        },
        {
          "indexed": false,
          "internalType": "uint256",
          "name": "discount",
          "type": "uint256"
        },
        {
          "indexed": false,
          "internalType": "bool",
          "name": "isVIP",
          "type": "bool"
        },
        {
          "indexed": false,
          "internalType": "string",
          "name": "metadataURI",
          "type": "string"
        },
        {
          "indexed": false,
          "internalType": "bool",
          "name": "active",
          "type": "bool"
        }
      ],
      "name": "TemplateUpdated",
      "type": "event"
    },
    {
      "anonymous": false,
      "inputs": [
        {
          "indexed": true,
          "internalType": "uint256",
          "name": "tokenId",
          "type": "uint256"
        },
        {
          "indexed": true,
          "internalType": "uint256",
          "name": "eventId",
          "type": "uint256"
        },
        {
          "indexed": false,
          "internalType": "address",
          "name": "validator",
          "type": "address"
        }
      ],
      "name": "TicketUsed",
      "type": "event"
    },
    {
      "anonymous": false,
      "inputs": [
        {
          "indexed": true,
          "internalType": "uint256",
          "name": "tokenId",
          "type": "uint256"
        },
        {
          "indexed": false,
          "internalType": "string",
          "name": "newUri",
          "type": "string"
        }
      ],
      "name": "TokenURIUpdated",
      "type": "event"
    },
    {
      "anonymous": false,
      "inputs": [
        {
          "indexed": true,
          "internalType": "uint256",
          "name": "tokenId",
          "type": "uint256"
        },
        {
          "indexed": false,
          "internalType": "string",
          "name": "transactionType",
          "type": "string"
        },
        {
          "indexed": false,
          "internalType": "uint256",
          "name": "amount",
          "type": "uint256"
        }
      ],
      "name": "TransactionProcessed",
      "type": "event"
    },
    {
      "anonymous": false,
      "inputs": [
        {
          "indexed": true,
          "internalType": "uint256",
          "name": "tokenId",
          "type": "uint256"
        },
        {
          "indexed": false,
          "internalType": "string",
          "name": "transactionType",
          "type": "string"
        },
        {
          "indexed": false,
          "internalType": "uint256",
          "name": "amount",
          "type": "uint256"
        }
      ],
      "name": "TransactionRecorded",
      "type": "event"
    },
    {
      "anonymous": false,
      "inputs": [
        {
          "indexed": true,
          "internalType": "address",
          "name": "from",
          "type": "address"
        },
        {
          "indexed": true,
          "internalType": "address",
          "name": "to",
          "type": "address"
        },
        {
          "indexed": true,
          "internalType": "uint256",
          "name": "tokenId",
          "type": "uint256"
        }
      ],
      "name": "Transfer",
      "type": "event"
    },
    {
      "anonymous": false,
      "inputs": [
        {
          "indexed": false,
          "internalType": "address",
          "name": "account",
          "type": "address"
        }
      ],
      "name": "Unpaused",
      "type": "event"
    },
    {
      "inputs": [
        {
          "internalType": "address",
          "name": "tokenAddress",
          "type": "address"
        }
      ],
      "name": "addSupportedToken",
      "outputs": [],
      "stateMutability": "nonpayable",
      "type": "function"
    },
    {
      "inputs": [
        {
          "internalType": "uint256",
          "name": "templateId",
          "type": "uint256"
        },
        {
          "internalType": "string",
          "name": "name",
          "type": "string"
        },
        {
          "internalType": "uint256",
          "name": "baseBalance",
          "type": "uint256"
        },
        {
          "internalType": "uint256",
          "name": "price",
          "type": "uint256"
        },
        {
          "internalType": "uint256",
          "name": "discount",
          "type": "uint256"
        },
        {
          "internalType": "bool",
          "name": "isVIP",
          "type": "bool"
        },
        {
          "internalType": "string",
          "name": "metadataURI",
          "type": "string"
        },
        {
          "internalType": "bool",
          "name": "active",
          "type": "bool"
        }
      ],
      "name": "addTemplate",
      "outputs": [],
      "stateMutability": "nonpayable",
      "type": "function"
    },
    {
      "inputs": [
        {
          "internalType": "address",
          "name": "to",
          "type": "address"
        },
        {
          "internalType": "uint256",
          "name": "tokenId",
          "type": "uint256"
        }
      ],
      "name": "approve",
      "outputs": [],
      "stateMutability": "nonpayable",
      "type": "function"
    },
    {
      "inputs": [
        {
          "internalType": "address",
          "name": "merchant",
          "type": "address"
        }
      ],
      "name": "authorizeMerchant",
      "outputs": [],
      "stateMutability": "nonpayable",
      "type": "function"
    },
    {
      "inputs": [
        {
          "internalType": "address",
          "name": "",
          "type": "address"
        }
      ],
      "name": "authorizedMerchants",
      "outputs": [
        {
          "internalType": "bool",
          "name": "",
          "type": "bool"
        }
      ],
      "stateMutability": "view",
      "type": "function"
    },
    {
      "inputs": [
        {
          "internalType": "address",
          "name": "owner",
          "type": "address"
        }
      ],
      "name": "balanceOf",
      "outputs": [
        {
          "internalType": "uint256",
          "name": "",
          "type": "uint256"
        }
      ],
      "stateMutability": "view",
      "type": "function"
    },
    {
      "inputs": [
        {
          "internalType": "string",
          "name": "name",
          "type": "string"
        },
        {
          "internalType": "uint256",
          "name": "price",
          "type": "uint256"
        },
        {
          "internalType": "uint256",
          "name": "capacity",
          "type": "uint256"
        },
        {
          "internalType": "uint256",
          "name": "eventType",
          "type": "uint256"
        }
      ],
      "name": "createEvent",
      "outputs": [
        {
          "internalType": "uint256",
          "name": "",
          "type": "uint256"
        }
      ],
      "stateMutability": "nonpayable",
      "type": "function"
    },
    {
      "inputs": [
        {
          "internalType": "uint256",
          "name": "",
          "type": "uint256"
        }
      ],
      "name": "events",
      "outputs": [
        {
          "internalType": "string",
          "name": "name",
          "type": "string"
        },
        {
          "internalType": "uint256",
          "name": "price",
          "type": "uint256"
        },
        {
          "internalType": "uint256",
          "name": "capacity",
          "type": "uint256"
        },
        {
          "internalType": "uint256",
          "name": "soldCount",
          "type": "uint256"
        },
        {
          "internalType": "bool",
          "name": "active",
          "type": "bool"
        },
        {
          "internalType": "uint256",
          "name": "eventType",
          "type": "uint256"
        }
      ],
      "stateMutability": "view",
      "type": "function"
    },
    {
      "inputs": [
        {
          "internalType": "uint256",
          "name": "tokenId",
          "type": "uint256"
        }
      ],
      "name": "getApproved",
      "outputs": [
        {
          "internalType": "address",
          "name": "",
          "type": "address"
        }
      ],
      "stateMutability": "view",
      "type": "function"
    },
    {
      "inputs": [
        {
          "internalType": "uint256",
          "name": "templateId",
          "type": "uint256"
        }
      ],
      "name": "getTemplate",
      "outputs": [
        {
          "internalType": "string",
          "name": "name",
          "type": "string"
        },
        {
          "internalType": "uint256",
          "name": "baseBalance",
          "type": "uint256"
        },
        {
          "internalType": "uint256",
          "name": "price",
          "type": "uint256"
        },
        {
          "internalType": "uint256",
          "name": "discount",
          "type": "uint256"
        },
        {
          "internalType": "bool",
          "name": "isVIP",
          "type": "bool"
        },
        {
          "internalType": "string",
          "name": "metadataURI",
          "type": "string"
        },
        {
          "internalType": "bool",
          "name": "active",
          "type": "bool"
        }
      ],
      "stateMutability": "view",
      "type": "function"
    },
    {
      "inputs": [],
      "name": "getTemplateCount",
      "outputs": [
        {
          "internalType": "uint256",
          "name": "",
          "type": "uint256"
        }
      ],
      "stateMutability": "view",
      "type": "function"
    },
    {
      "inputs": [
        {
          "internalType": "uint256",
          "name": "tokenId",
          "type": "uint256"
        },
        {
          "internalType": "uint256",
          "name": "eventId",
          "type": "uint256"
        }
      ],
      "name": "getTicketStatus",
      "outputs": [
        {
          "internalType": "bool",
          "name": "exists",
          "type": "bool"
        },
        {
          "internalType": "bool",
          "name": "used",
          "type": "bool"
        },
        {
          "internalType": "uint256",
          "name": "usedTimestamp",
          "type": "uint256"
        },
        {
          "internalType": "address",
          "name": "checkedBy",
          "type": "address"
        }
      ],
      "stateMutability": "view",
      "type": "function"
    },
    {
      "inputs": [
        {
          "internalType": "uint256",
          "name": "tokenId",
          "type": "uint256"
        }
      ],
      "name": "getTokenEvents",
      "outputs": [
        {
          "internalType": "uint256[]",
          "name": "",
          "type": "uint256[]"
        }
      ],
      "stateMutability": "view",
      "type": "function"
    },
    {
      "inputs": [
        {
          "internalType": "uint256",
          "name": "tokenId",
          "type": "uint256"
        }
      ],
      "name": "getTokenTemplate",
      "outputs": [
        {
          "internalType": "uint256",
          "name": "templateId",
          "type": "uint256"
        },
        {
          "internalType": "string",
          "name": "name",
          "type": "string"
        },
        {
          "internalType": "uint256",
          "name": "baseBalance",
          "type": "uint256"
        },
        {
          "internalType": "uint256",
          "name": "price",
          "type": "uint256"
        },
        {
          "internalType": "uint256",
          "name": "discount",
          "type": "uint256"
        },
        {
          "internalType": "bool",
          "name": "isVIP",
          "type": "bool"
        },
        {
          "internalType": "string",
          "name": "metadataURI",
          "type": "string"
        },
        {
          "internalType": "bool",
          "name": "active",
          "type": "bool"
        }
      ],
      "stateMutability": "view",
      "type": "function"
    },
    {
      "inputs": [
        {
          "internalType": "uint256",
          "name": "tokenId",
          "type": "uint256"
        },
        {
          "internalType": "uint256",
          "name": "index",
          "type": "uint256"
        }
      ],
      "name": "getTransaction",
      "outputs": [
        {
          "internalType": "uint256",
          "name": "timestamp",
          "type": "uint256"
        },
        {
          "internalType": "address",
          "name": "merchant",
          "type": "address"
        },
        {
          "internalType": "uint256",
          "name": "amount",
          "type": "uint256"
        },
        {
          "internalType": "string",
          "name": "transactionType",
          "type": "string"
        },
        {
          "internalType": "string",
          "name": "metadata",
          "type": "string"
        }
      ],
      "stateMutability": "view",
      "type": "function"
    },
    {
      "inputs": [
        {
          "internalType": "uint256",
          "name": "tokenId",
          "type": "uint256"
        }
      ],
      "name": "getTransactionCount",
      "outputs": [
        {
          "internalType": "uint256",
          "name": "",
          "type": "uint256"
        }
      ],
      "stateMutability": "view",
      "type": "function"
    },
    {
      "inputs": [],
      "name": "initializeDefaultTemplates",
      "outputs": [],
      "stateMutability": "nonpayable",
      "type": "function"
    },
    {
      "inputs": [
        {
          "internalType": "address",
          "name": "owner",
          "type": "address"
        },
        {
          "internalType": "address",
          "name": "operator",
          "type": "address"
        }
      ],
      "name": "isApprovedForAll",
      "outputs": [
        {
          "internalType": "bool",
          "name": "",
          "type": "bool"
        }
      ],
      "stateMutability": "view",
      "type": "function"
    },
    {
      "inputs": [
        {
          "internalType": "uint256",
          "name": "templateId",
          "type": "uint256"
        },
        {
          "internalType": "address",
          "name": "to",
          "type": "address"
        },
        {
          "internalType": "string",
          "name": "uri",
          "type": "string"
        },
        {
          "internalType": "address",
          "name": "paymentToken",
          "type": "address"
        }
      ],
      "name": "mintFromTemplate",
      "outputs": [
        {
          "internalType": "uint256",
          "name": "",
          "type": "uint256"
        }
      ],
      "stateMutability": "nonpayable",
      "type": "function"
    },
    {
      "inputs": [
        {
          "internalType": "uint256",
          "name": "templateId",
          "type": "uint256"
        },
        {
          "internalType": "string",
          "name": "name",
          "type": "string"
        },
        {
          "internalType": "uint256",
          "name": "baseBalance",
          "type": "uint256"
        },
        {
          "internalType": "uint256",
          "name": "price",
          "type": "uint256"
        },
        {
          "internalType": "uint256",
          "name": "discount",
          "type": "uint256"
        },
        {
          "internalType": "bool",
          "name": "isVIP",
          "type": "bool"
        },
        {
          "internalType": "string",
          "name": "metadataURI",
          "type": "string"
        },
        {
          "internalType": "bool",
          "name": "active",
          "type": "bool"
        }
      ],
      "name": "modifyTemplate",
      "outputs": [],
      "stateMutability": "nonpayable",
      "type": "function"
    },
    {
      "inputs": [],
      "name": "name",
      "outputs": [
        {
          "internalType": "string",
          "name": "",
          "type": "string"
        }
      ],
      "stateMutability": "view",
      "type": "function"
    },
    {
      "inputs": [],
      "name": "owner",
      "outputs": [
        {
          "internalType": "address",
          "name": "",
          "type": "address"
        }
      ],
      "stateMutability": "view",
      "type": "function"
    },
    {
      "inputs": [
        {
          "internalType": "uint256",
          "name": "tokenId",
          "type": "uint256"
        }
      ],
      "name": "ownerOf",
      "outputs": [
        {
          "internalType": "address",
          "name": "",
          "type": "address"
        }
      ],
      "stateMutability": "view",
      "type": "function"
    },
    {
      "inputs": [],
      "name": "pause",
      "outputs": [],
      "stateMutability": "nonpayable",
      "type": "function"
    },
    {
      "inputs": [],
      "name": "paused",
      "outputs": [
        {
          "internalType": "bool",
          "name": "",
          "type": "bool"
        }
      ],
      "stateMutability": "view",
      "type": "function"
    },
    {
      "inputs": [
        {
          "internalType": "uint256",
          "name": "tokenId",
          "type": "uint256"
        },
        {
          "internalType": "uint256",
          "name": "amount",
          "type": "uint256"
        },
        {
          "internalType": "string",
          "name": "metadata",
          "type": "string"
        }
      ],
      "name": "processPayment",
      "outputs": [],
      "stateMutability": "nonpayable",
      "type": "function"
    },
    {
      "inputs": [
        {
          "internalType": "uint256",
          "name": "tokenId",
          "type": "uint256"
        },
        {
          "internalType": "uint256",
          "name": "eventId",
          "type": "uint256"
        }
      ],
      "name": "purchaseEventEntrance",
      "outputs": [],
      "stateMutability": "nonpayable",
      "type": "function"
    },
    {
      "inputs": [],
      "name": "renounceOwnership",
      "outputs": [],
      "stateMutability": "nonpayable",
      "type": "function"
    },
    {
      "inputs": [
        {
          "internalType": "address",
          "name": "merchant",
          "type": "address"
        }
      ],
      "name": "revokeMerchant",
      "outputs": [],
      "stateMutability": "nonpayable",
      "type": "function"
    },
    {
      "inputs": [
        {
          "internalType": "address",
          "name": "from",
          "type": "address"
        },
        {
          "internalType": "address",
          "name": "to",
          "type": "address"
        },
        {
          "internalType": "uint256",
          "name": "tokenId",
          "type": "uint256"
        }
      ],
      "name": "safeTransferFrom",
      "outputs": [],
      "stateMutability": "nonpayable",
      "type": "function"
    },
    {
      "inputs": [
        {
          "internalType": "address",
          "name": "from",
          "type": "address"
        },
        {
          "internalType": "address",
          "name": "to",
          "type": "address"
        },
        {
          "internalType": "uint256",
          "name": "tokenId",
          "type": "uint256"
        },
        {
          "internalType": "bytes",
          "name": "data",
          "type": "bytes"
        }
      ],
      "name": "safeTransferFrom",
      "outputs": [],
      "stateMutability": "nonpayable",
      "type": "function"
    },
    {
      "inputs": [
        {
          "internalType": "address",
          "name": "operator",
          "type": "address"
        },
        {
          "internalType": "bool",
          "name": "approved",
          "type": "bool"
        }
      ],
      "name": "setApprovalForAll",
      "outputs": [],
      "stateMutability": "nonpayable",
      "type": "function"
    },
    {
      "inputs": [
        {
          "internalType": "uint256",
          "name": "templateId",
          "type": "uint256"
        },
        {
          "internalType": "address",
          "name": "tokenAddress",
          "type": "address"
        }
      ],
      "name": "setTemplatePaymentToken",
      "outputs": [],
      "stateMutability": "nonpayable",
      "type": "function"
    },
    {
      "inputs": [
        {
          "internalType": "address",
          "name": "validator",
          "type": "address"
        },
        {
          "internalType": "bool",
          "name": "status",
          "type": "bool"
        }
      ],
      "name": "setTicketValidator",
      "outputs": [],
      "stateMutability": "nonpayable",
      "type": "function"
    },
    {
      "inputs": [
        {
          "internalType": "address",
          "name": "",
          "type": "address"
        }
      ],
      "name": "supportedTokens",
      "outputs": [
        {
          "internalType": "bool",
          "name": "",
          "type": "bool"
        }
      ],
      "stateMutability": "view",
      "type": "function"
    },
    {
      "inputs": [
        {
          "internalType": "bytes4",
          "name": "interfaceId",
          "type": "bytes4"
        }
      ],
      "name": "supportsInterface",
      "outputs": [
        {
          "internalType": "bool",
          "name": "",
          "type": "bool"
        }
      ],
      "stateMutability": "view",
      "type": "function"
    },
    {
      "inputs": [],
      "name": "symbol",
      "outputs": [
        {
          "internalType": "string",
          "name": "",
          "type": "string"
        }
      ],
      "stateMutability": "view",
      "type": "function"
    },
    {
      "inputs": [
        {
          "internalType": "uint256",
          "name": "",
          "type": "uint256"
        }
      ],
      "name": "templatePaymentTokens",
      "outputs": [
        {
          "internalType": "address",
          "name": "",
          "type": "address"
        }
      ],
      "stateMutability": "view",
      "type": "function"
    },
    {
      "inputs": [
        {
          "internalType": "uint256",
          "name": "",
          "type": "uint256"
        }
      ],
      "name": "templates",
      "outputs": [
        {
          "internalType": "string",
          "name": "name",
          "type": "string"
        },
        {
          "internalType": "uint256",
          "name": "baseBalance",
          "type": "uint256"
        },
        {
          "internalType": "uint256",
          "name": "price",
          "type": "uint256"
        },
        {
          "internalType": "uint256",
          "name": "discount",
          "type": "uint256"
        },
        {
          "internalType": "bool",
          "name": "isVIP",
          "type": "bool"
        },
        {
          "internalType": "string",
          "name": "metadataURI",
          "type": "string"
        },
        {
          "internalType": "bool",
          "name": "active",
          "type": "bool"
        }
      ],
      "stateMutability": "view",
      "type": "function"
    },
    {
      "inputs": [
        {
          "internalType": "address",
          "name": "",
          "type": "address"
        }
      ],
      "name": "ticketValidators",
      "outputs": [
        {
          "internalType": "bool",
          "name": "",
          "type": "bool"
        }
      ],
      "stateMutability": "view",
      "type": "function"
    },
    {
      "inputs": [
        {
          "internalType": "uint256",
          "name": "",
          "type": "uint256"
        }
      ],
      "name": "tokenBalance",
      "outputs": [
        {
          "internalType": "uint256",
          "name": "",
          "type": "uint256"
        }
      ],
      "stateMutability": "view",
      "type": "function"
    },
    {
      "inputs": [
        {
          "internalType": "uint256",
          "name": "",
          "type": "uint256"
        },
        {
          "internalType": "uint256",
          "name": "",
          "type": "uint256"
        }
      ],
      "name": "tokenEvents",
      "outputs": [
        {
          "internalType": "uint256",
          "name": "",
          "type": "uint256"
        }
      ],
      "stateMutability": "view",
      "type": "function"
    },
    {
      "inputs": [
        {
          "internalType": "uint256",
          "name": "",
          "type": "uint256"
        }
      ],
      "name": "tokenTemplateIds",
      "outputs": [
        {
          "internalType": "uint256",
          "name": "",
          "type": "uint256"
        }
      ],
      "stateMutability": "view",
      "type": "function"
    },
    {
      "inputs": [
        {
          "internalType": "uint256",
          "name": "tokenId",
          "type": "uint256"
        }
      ],
      "name": "tokenURI",
      "outputs": [
        {
          "internalType": "string",
          "name": "",
          "type": "string"
        }
      ],
      "stateMutability": "view",
      "type": "function"
    },
    {
      "inputs": [
        {
          "internalType": "uint256",
          "name": "tokenId",
          "type": "uint256"
        },
        {
          "internalType": "uint256",
          "name": "amount",
          "type": "uint256"
        },
        {
          "internalType": "address",
          "name": "paymentToken",
          "type": "address"
        }
      ],
      "name": "topUpBalance",
      "outputs": [],
      "stateMutability": "nonpayable",
      "type": "function"
    },
    {
      "inputs": [
        {
          "internalType": "uint256",
          "name": "",
          "type": "uint256"
        },
        {
          "internalType": "uint256",
          "name": "",
          "type": "uint256"
        }
      ],
      "name": "transactions",
      "outputs": [
        {
          "internalType": "uint256",
          "name": "timestamp",
          "type": "uint256"
        },
        {
          "internalType": "address",
          "name": "merchant",
          "type": "address"
        },
        {
          "internalType": "uint256",
          "name": "amount",
          "type": "uint256"
        },
        {
          "internalType": "string",
          "name": "transactionType",
          "type": "string"
        },
        {
          "internalType": "string",
          "name": "metadata",
          "type": "string"
        }
      ],
      "stateMutability": "view",
      "type": "function"
    },
    {
      "inputs": [
        {
          "internalType": "address",
          "name": "from",
          "type": "address"
        },
        {
          "internalType": "address",
          "name": "to",
          "type": "address"
        },
        {
          "internalType": "uint256",
          "name": "tokenId",
          "type": "uint256"
        }
      ],
      "name": "transferFrom",
      "outputs": [],
      "stateMutability": "nonpayable",
      "type": "function"
    },
    {
      "inputs": [
        {
          "internalType": "address",
          "name": "newOwner",
          "type": "address"
        }
      ],
      "name": "transferOwnership",
      "outputs": [],
      "stateMutability": "nonpayable",
      "type": "function"
    },
    {
      "inputs": [],
      "name": "unpause",
      "outputs": [],
      "stateMutability": "nonpayable",
      "type": "function"
    },
    {
      "inputs": [
        {
          "internalType": "uint256",
          "name": "tokenId",
          "type": "uint256"
        },
        {
          "internalType": "string",
          "name": "newUri",
          "type": "string"
        }
      ],
      "name": "updateTokenURI",
      "outputs": [],
      "stateMutability": "nonpayable",
      "type": "function"
    },
    {
      "inputs": [
        {
          "internalType": "uint256",
          "name": "tokenId",
          "type": "uint256"
        },
        {
          "internalType": "uint256",
          "name": "eventId",
          "type": "uint256"
        }
      ],
      "name": "validateTicket",
      "outputs": [
        {
          "internalType": "bool",
          "name": "",
          "type": "bool"
        }
      ],
      "stateMutability": "nonpayable",
      "type": "function"
    }
  ],
  "bytecode": "0x6080346200038d576001600160401b039060408181018381118382101762000377578152600c82526020916b5761766558204e465420563360a01b838201528151938285018581108282111762000377578352600685526557415645583360d01b84860152815181811162000377576000948554916001948584811c941680156200036c575b8385101462000358578190601f9485811162000305575b508390858311600114620002a157899262000295575b5050600019600383901b1c191690851b1786555b8651928311620002815783548481811c9116801562000276575b8282101462000262578281116200021a575b5080918311600114620001b3575084958293949592620001a7575b5050600019600383901b1c191690821b1790555b60075490331562000190576001600160a81b0319821633600881811b610100600160a81b0316929092176007559151939192901c6001600160a01b0316907f8be0079c531659141344cd1fd0a4f28419497f9722a3daafe3b4186f6b6457e09080a36142be9081620003938239f35b51631e4fbdf760e01b815260048101839052602490fd5b0151905038806200010d565b90601f198316968487528287209287905b89821062000202575050838596979810620001e8575b505050811b01905562000121565b015160001960f88460031b161c19169055388080620001da565b808785968294968601518155019501930190620001c4565b8487528187208380860160051c82019284871062000258575b0160051c019085905b8281106200024c575050620000f2565b8881550185906200023c565b9250819262000233565b634e487b7160e01b87526022600452602487fd5b90607f1690620000e0565b634e487b7160e01b86526041600452602486fd5b015190503880620000b2565b898052848a208894509190601f1984168b5b87828210620002ee5750508411620002d4575b505050811b018655620000c6565b015160001960f88460031b161c19169055388080620002c6565b8385015186558b97909501949384019301620002b3565b9091508880528389208580850160051c8201928686106200034e575b918991869594930160051c01915b8281106200033f5750506200009c565b8b81558594508991016200032f565b9250819262000321565b634e487b7160e01b88526022600452602488fd5b93607f169362000085565b634e487b7160e01b600052604160045260246000fd5b600080fdfe608080604052600436101561001357600080fd5b60003560e01c90816301ffc9a714613551575080630374ab0b146132ba578063042ab9b3146131a157806306fdde03146130fe578063081812fc146130c0578063095ea7b314612fd95780630b79143014612f5857806318e97fd114612ecc57806323b872dd14612eb55780632834213314612a7e57806331543cf414612979578063368a5247146124a157806337ae9c131461245c5780633de5d0de146124305780633f4ba83a146123c657806342842e0e1461239857806349afc6e51461236c5780634a073254146123405780634eaf9db6146122d25780635016959a146122b457806357d802bd146121f057806359e7d872146121495780635c975abb146121265780636352211e146120f657806368c4ac26146120b75780636d69fcaf1461204257806370a0823114611fe9578063715018a614611f885780637303f6ce14611eed578063737b61ad14611eae57806373b7d05c14611e7a578063819a701c14611e385780638456cb5914611dde5780638729a9d914611d3d5780638af5ae99146114f95780638da5cb5b146114cc57806395d89b41146113ed57806396651ec314611062578063a22cb46514610fb7578063a871bd6614610f78578063b6300ef314610f3a578063b701b31914610d67578063b88d4fde14610cfb578063bc52565214610c93578063c4754b7714610bed578063c87b56dd14610b90578063ca2efd3814610b51578063cdc965cd146107cd578063e985e9c514610777578063f2fde38b146106de5763f50f80621461025057600080fd5b346105c35760803660031901126105c35760043561026c613731565b906044356001600160401b0381116105c35761028c9036906004016136b5565b916001600160a01b039160643583811691908290036105c3576102ad6140c2565b80600052602094600a865260ff60066040600020015416156106a35782600052601086526102e260ff60406000205416613e23565b81600052600a865260008661038e604083209560405196610302886135d6565b61030b81613781565b885260018101549784810198895260c060ff60066002850154946040850195865260038101546060860152826004820154161515608086015261035060058201613781565b60a08601520154161515910152516040516323b872dd60e01b8152336004820152306024820152604481019190915293849283919082906064820190565b03925af19081156106975760009161066a575b5015610634576103b2600854613ce2565b9384600855604051906103c482613627565b6000825286811696871561061b57866000526002895260406000205416868882151592836105e8575b600082815260038d5260408082208054600101905584825260028e52812080546001600160a01b031916841790557fddf252ad1be2c89b69c2b068fc378daa952ba7f163c4a11628f55a4df523b3ef9080a46105cf573b6104ad575b868580600080516020614249833981519152608088886104698986613f4d565b84600052601487526040600020558051600c87526040600020555160405190815260408682015260046040820152631352539560e21b6060820152a2604051908152f35b6040518781806104e6630a85bd0160e11b95868352336004840152600060248401528a60448401526080606484015260848301906136f6565b038160008b5af16000918161058a575b506105525787873d1561054b573d61050d81613663565b9061051b6040519283613642565b81523d60008483013e5b8051928361054657604051633250574960e11b815260048101849052602490fd5b019050fd5b6060610525565b63ffffffff60e09793949596971b16036105725750839291906080610449565b60249060405190633250574960e11b82526004820152fd5b9091508881813d83116105c8575b6105a28183613642565b810103126105c357516001600160e01b0319811681036105c35790386104f6565b600080fd5b503d610598565b6040516339e3563760e11b815260006004820152602490fd5b60008381526004602052604080822080546001600160a01b031916905582825260038e52902080546000190190556103ed565b604051633250574960e11b815260006004820152602490fd5b60405162461bcd60e51b815260048101879052600e60248201526d14185e5b595b9d0819985a5b195960921b6044820152606490fd5b61068a9150873d8911610690575b6106828183613642565b8101906141a2565b386103a1565b503d610678565b6040513d6000823e3d90fd5b60405162461bcd60e51b815260048101879052601360248201527254656d706c617465206e6f742061637469766560681b6044820152606490fd5b346105c35760203660031901126105c3576106f761371b565b6106ff6139c8565b6001600160a01b0381811691821561075e5760078054610100600160a81b03198116600893841b610100600160a81b031617909155901c167f8be0079c531659141344cd1fd0a4f28419497f9722a3daafe3b4186f6b6457e0600080a3005b604051631e4fbdf760e01b815260006004820152602490fd5b346105c35760403660031901126105c35761079061371b565b610798613731565b9060018060a01b03809116600052600560205260406000209116600052602052602060ff604060002054166040519015158152f35b346105c3576107db3661393e565b9695936107e99391936139c8565b6107f4878387613ea9565b604051610800816135d6565b85815286602082015281604082015282606082015283151560808201528460a082015288151560c082015287600052600a60205260406000209080518051906001600160401b038211610a7a5781906108598554613747565b601f8111610b01575b50602090601f8311600114610a9b57600092610a90575b50508160011b916000199060031b1c19161782555b6020810151600183015560408101516002830155606081015160038301556108cb60808201511515600484019060ff801983541691151516179055565b60a08101518051906001600160401b038211610a7a576108ee6005850154613747565b601f8111610a33575b50602090601f83116001146109905760c07fff92d45b846f70a381c6b12925794910c7d5a97f58898ac2a2dae8e48fdbda639c9d98969484610974956109809c9a9895600695600092610985575b50508160011b916000199060031b1c19161760058501555b0151151591019060ff801983541691151516179055565b6040519788978861385c565b0390a2005b015190503880610945565b906005850160005260206000209160005b601f1985168110610a1b57507fff92d45b846f70a381c6b12925794910c7d5a97f58898ac2a2dae8e48fdbda639c9d9896946001856109809c9a989560069560c09561097499601f19811610610a02575b505050811b01600585015561095d565b015160001960f88460031b161c191690553880806109f2565b919260206001819286850151815501940192016109a1565b600585016000526020600020601f840160051c810160208510610a73575b601f830160051c82018110610a675750506108f7565b60008155600101610a51565b5080610a51565b634e487b7160e01b600052604160045260246000fd5b015190508c80610879565b6000868152602081209350601f198516905b818110610ae95750908460019594939210610ad0575b505050811b01825561088e565b015160001960f88460031b161c191690558c8080610ac3565b92936020600181928786015181550195019301610aad565b909150846000526020600020601f840160051c810160208510610b4a575b90849392915b601f830160051c82018110610b3b575050610862565b60008155859450600101610b25565b5080610b1f565b346105c35760203660031901126105c3576001600160a01b03610b7261371b565b16600052600f602052602060ff604060002054166040519015158152f35b346105c35760203660031901126105c357600435610bad81613b7d565b506000526006602052610be9610bc66040600020613781565b6000604051610bd481613627565b526040519182916020835260208301906136f6565b0390f35b346105c3576020806003193601126105c357600435600052600e8152604060002060405190818382549182815201908192600052846000209060005b86828210610c7f578686610c3f82880383613642565b604051928392818401908285525180915260408401929160005b828110610c6857505050500390f35b835185528695509381019392810192600101610c59565b835485529093019260019283019201610c29565b346105c35760203660031901126105c357600435600052600a6020526040600020610cbd81613781565b610be9600183015492600281015490600381015460ff6004830154169060ff6006610cea60058601613781565b94015416936040519788978861385c565b346105c35760803660031901126105c357610d1461371b565b610d1c613731565b90604435606435926001600160401b0384116105c357366023850112156105c357610d54610d6594369060248160040135910161367e565b92610d608383836139f7565b613bb8565b005b346105c357610d75366138a8565b610d7d6140c2565b8160005260209060028252610da060018060a01b03604060002054161515613f0a565b80600052600b8252604060002083600052600c83526040600020549060ff60048201541615610f0257600381015460028201541115610ed057906001610de992015411156141ba565b80600052600b8252610e03600160406000200154846141fd565b80600052600b82526003604060002001610e1d8154613ce2565b905582600052600e82526040600020908154600160401b811015610a7a5760008051602061424983398151915293610e5f8260809560016040950181556139b0565b81549060031b9085821b91600019901b1916179055815192867f41d60c8cad3c4e044896e072fb848c8f5d2e3e91c87a22a93d930c35aa192403600080a385600052600c815281600020548352820152600e60408201526d4556454e545f505552434841534560901b6060820152a2005b60405162461bcd60e51b815260048101859052600a602482015269115d995b9d08199d5b1b60b21b6044820152606490fd5b60405162461bcd60e51b815260048101859052601060248201526f4576656e74206e6f742061637469766560801b6044820152606490fd5b346105c3576080610f53610f4d366138a8565b90613d0d565b6040805194151585529215156020850152918301526001600160a01b03166060820152f35b346105c357610f86366138a8565b90600052600e602052604060002080548210156105c357602091610fa9916139b0565b90546040519160031b1c8152f35b346105c35760403660031901126105c357610fd061371b565b610fd861392f565b6001600160a01b03909116908115611049573360005260056020526040600020826000526020526110198160406000209060ff801983541691151516179055565b60405190151581527f17307eab39ab6107e8899845ad3d59bd9653f200f220920489ca2b5937696c3160203392a3005b604051630b61174360e31b815260048101839052602490fd5b346105c3576110703661393e565b96959361107e9391936139c8565b611089878387613ea9565b86600052600a6020526001604060002001546113a8576040516110ab816135d6565b85815286602082015281604082015282606082015283151560808201528460a082015288151560c082015287600052600a60205260406000209080518051906001600160401b038211610a7a5781906111048554613747565b601f8111611358575b50602090601f83116001146112f2576000926112e7575b50508160011b916000199060031b1c19161782555b60208101516001830155604081015160028301556060810151600383015561117660808201511515600484019060ff801983541691151516179055565b60a08101518051906001600160401b038211610a7a576111996005850154613747565b601f81116112a0575b50602090601f83116001146112295760c06000805160206142698339815191529c9d9896948461120b956109809c9a98956006956000926109855750508160011b916000199060031b1c19161760058501550151151591019060ff801983541691151516179055565b6009548a11611220576040519788978861385c565b89600955610974565b906005850160005260206000209160005b601f198516811061128857506000805160206142698339815191529c9d9896946001856109809c9a989560069560c09561120b99601f19811610610a0257505050811b01600585015561095d565b9192602060018192868501518155019401920161123a565b600585016000526020600020601f840160051c8101602085106112e0575b601f830160051c820181106112d45750506111a2565b600081556001016112be565b50806112be565b015190508c80611124565b6000868152602081209350601f198516905b8181106113405750908460019594939210611327575b505050811b018255611139565b015160001960f88460031b161c191690558c808061131a565b92936020600181928786015181550195019301611304565b909150846000526020600020601f840160051c8101602085106113a1575b90849392915b601f830160051c8201811061139257505061110d565b6000815585945060010161137c565b5080611376565b60405162461bcd60e51b815260206004820152601760248201527f54656d706c61746520616c7265616479206578697374730000000000000000006044820152606490fd5b346105c35760003660031901126105c3576040516000600180549061141182613747565b808552918181169081156114a5575060011461144c575b610be98461143881860382613642565b6040519182916020835260208301906136f6565b600081815292507fb10e2d527612073b26eecdfd717e6a320cf44b4afac2b0732d9fcbe2b7fa0cf65b82841061148d57505050810160200161143882611428565b80546020858701810191909152909301928101611475565b60ff191660208087019190915292151560051b850190920192506114389150839050611428565b346105c35760003660031901126105c35760075460405160089190911c6001600160a01b03168152602090f35b346105c35760003660031901126105c3576115126139c8565b6001600052600a6020527fbbc70db1b6c7afd11e79c0fb0051300458f1a3acb8ee9789d9b6b26c61ad9bc854611cf85760405161154e8161360c565b600481526311dbdb1960e21b602082015260405161156b81613627565b6000815261157882613e65565b6001600052600a6020527fbbc70db1b6c7afd11e79c0fb0051300458f1a3acb8ee9789d9b6b26c61ad9bc8546113a8576040516115b4816135d6565b828152683635c9adc5dea000006020820152683635c9adc5dea00000604082015260006060820152600060808201528160a0820152600160c08201526001600052600a60205260406000209080518051906001600160401b038211610a7a57819061161f8554613747565b601f8111611ca8575b50602090601f8311600114611c3c57600092611c31575b50508160011b916000199060031b1c19161782555b60208101516001830155604081015160028301556060810151600383015561169160808201511515600484019060ff801983541691151516179055565b60a08101518051906001600160401b038211610a7a576116b46005850154613747565b601f8111611bea575b50602090601f8311600114611b735761174594600660c0600199968661177f976000805160206142698339815191529b9761172797600092611b68575b5050600019600383901b1c1916908c1b1760058501550151151591019060ff801983541691151516179055565b60095486116119b7575b60405193849360e0855260e08501906136f6565b90683635c9adc5dea000006020850152683635c9adc5dea000006040850152600060608501526000608085015283820360a08501526136f6565b8460c08301520390a26040516117948161360c565b6008815267506c6174696e756d60c01b60208201526040516117b581613627565b600081526117c282613e65565b6002600052600a6020527fbff4442b8ed600beeb8e26b1279a0f0d14c6edfaec26d968ee13c86f7d4c2ba9546113a8576040516117fe816135d6565b82815268a2a15d09519be00000602082015268a2a15d09519be00000604082015260006060820152600060808201528160a0820152600160c08201526002600052600a60205260406000209080518051906001600160401b038211610a7a5781906118698554613747565b601f8111611b18575b50602090601f8311600114611aac57600092611aa1575b50508160011b916000199060031b1c19161782555b6020810151600183015560408101516002830155606081015160038301556118db60808201511515600484019060ff801983541691151516179055565b60a08101518051906001600160401b038211610a7a576118fe6005850154613747565b601f8111611a5a575b50602090601f83116001146119cb5761197194600660c060029996866119ab976000805160206142698339815191529b97611727976000926119c05750508160011b916000199060031b1c19161760058501550151151591019060ff801983541691151516179055565b9068a2a15d09519be00000602085015268a2a15d09519be000006040850152600060608501526000608085015283820360a08501526136f6565b600160c08301520390a2005b85600955611731565b015190508d80610945565b90601f198316916005860160005260206000209260005b818110611a42575060c0600299966001876000805160206142698339815191529b97611727976119719c976119ab9b60069810611a2957505050811b01600585015561095d565b015160001960f88460031b161c191690558d80806109f2565b929360206001819287860151815501950193016119e2565b600585016000526020600020601f840160051c810160208510611a9a575b601f830160051c82018110611a8e575050611907565b60008155600101611a78565b5080611a78565b015190508680611889565b9250846000526020600020906000935b601f1984168510611afd576001945083601f19811610611ae4575b505050811b01825561189e565b015160001960f88460031b161c19169055868080611ad7565b81810151835560209485019460019093019290910190611abc565b909150846000526020600020601f840160051c810160208510611b61575b90849392915b601f830160051c82018110611b52575050611872565b60008155859450600101611b3c565b5080611b36565b015190508d806116fa565b906005850160005260206000209160005b601f1985168110611bd2575094600660c0600199968a876000805160206142698339815191529b97611727976117459c61177f9b601f19811610611a2957505050811b01600585015561095d565b91926020600181928685015181550194019201611b84565b600585016000526020600020601f840160051c810160208510611c2a575b601f830160051c82018110611c1e5750506116bd565b60008155600101611c08565b5080611c08565b01519050868061163f565b9250846000526020600020906000935b601f1984168510611c8d576001945083601f19811610611c74575b505050811b018255611654565b015160001960f88460031b161c19169055868080611c67565b81810151835560209485019460019093019290910190611c4c565b909150846000526020600020601f840160051c810160208510611cf1575b90849392915b601f830160051c82018110611ce2575050611628565b60008155859450600101611ccc565b5080611cc6565b60405162461bcd60e51b815260206004820152601d60248201527f54656d706c6174657320616c726561647920696e697469616c697a65640000006044820152606490fd5b346105c35760403660031901126105c357611d5661371b565b611d5e61392f565b90611d676139c8565b6001600160a01b0316908115611d9957610d6591600052601260205260406000209060ff801983541691151516179055565b60405162461bcd60e51b815260206004820152601960248201527f496e76616c69642076616c696461746f722061646472657373000000000000006044820152606490fd5b346105c35760003660031901126105c357611df76139c8565b611dff6140c2565b600160ff1960075416176007557f62e78cea01bee320cd4e420270b5ea74000d11b0c9f74754ebdbfc544b05a2586020604051338152a1005b346105c35760203660031901126105c357611e5161371b565b611e596139c8565b6001600160a01b03166000908152600f60205260409020805460ff19169055005b346105c35760203660031901126105c3576004356000526013602052602060018060a01b0360406000205416604051908152f35b346105c35760203660031901126105c3576001600160a01b03611ecf61371b565b166000526012602052602060ff604060002054166040519015158152f35b346105c357611f11611efe366138a8565b90600052600d60205260406000206138be565b5060405190611f1f826135f1565b8054825260018101546001600160a01b0390811660208401908152600283015460408501908152939092610be992611f6c6004611f5e60038501613781565b936060860194855201613781565b92836080820152519451169451905190604051958695866138f0565b346105c35760003660031901126105c357611fa16139c8565b60078054610100600160a81b0319811690915560009060081c6001600160a01b03167f8be0079c531659141344cd1fd0a4f28419497f9722a3daafe3b4186f6b6457e08280a3005b346105c35760203660031901126105c3576001600160a01b0361200a61371b565b1680156120295760005260036020526020604060002054604051908152f35b6040516322718ad960e21b815260006004820152602490fd5b346105c35760203660031901126105c35761205b61371b565b6120636139c8565b6001600160a01b0316612077811515613ddf565b8060005260106020526040600020600160ff198254161790557fd1be2e90bd3d24839d9dd94ad871068e1f9688b02fa43f2a62c9975dfa9de2d7600080a2005b346105c35760203660031901126105c3576001600160a01b036120d861371b565b166000526010602052602060ff604060002054166040519015158152f35b346105c35760203660031901126105c3576020612114600435613b7d565b6040516001600160a01b039091168152f35b346105c35760003660031901126105c357602060ff600754166040519015158152f35b346105c35760403660031901126105c3576004357f39db75df3ed66fe2043917ea45436f0ce2bb4ad1ebdf46101203e09b4e7550da6020612188613731565b6121906139c8565b61219b841515613d9d565b6001600160a01b03166121af811515613ddf565b80600052601082526121c860ff60406000205416613e23565b83600052601382526040600020816001600160601b0360a01b825416179055604051908152a2005b346105c3576121fe366138a8565b906122076140c2565b33600052601260205260ff604060002054161561226f5760209161222c3382846140e0565b918261223f575b50506040519015158152f35b7fb35ebdfb9515b145e406c5c5a0846ec436db0b9560927af3af7a754d90c4f6ff84604051338152a38280612233565b60405162461bcd60e51b815260206004820152601860248201527f4e6f7420617574686f72697a65642076616c696461746f7200000000000000006044820152606490fd5b346105c35760003660031901126105c3576020600954604051908152f35b346105c3576122e0366138a8565b90600052600d60205260406000209081548110156105c357612301916138be565b508054610be960018060a01b0360018401541692600281015490612333600461232c60038401613781565b9201613781565b91604051958695866138f0565b346105c35760203660031901126105c35760043560005260146020526020604060002054604051908152f35b346105c35760203660031901126105c357600435600052600c6020526020604060002054604051908152f35b346105c357610d656123a936613827565b90604051926123b784613627565b60008452610d608383836139f7565b346105c35760003660031901126105c3576123df6139c8565b60075460ff81161561241e5760ff19166007557f5db9ee0a495bf2e6ff9c91a7834c1ba4fdd244a5e8aa4e537bd38aeae4b073aa6020604051338152a1005b604051638dfc202b60e01b8152600490fd5b346105c35760203660031901126105c357600435600052600d6020526020604060002054604051908152f35b346105c35760203660031901126105c35761247561371b565b61247d6139c8565b6001600160a01b03166000908152600f60205260409020805460ff19166001179055005b346105c35760603660031901126105c3576001600160a01b03604435818116908190036105c3576124d06140c2565b60043560005260026020526124ed82604060002054161515613f0a565b80600052601060205261250760ff60406000205416613e23565b6040516323b872dd60e01b81523360048201523060248083019190915235604482015290602090829060649082906000905af19081156106975760009161295a575b501561292357600435600052600c6020526040600020805490602435820180921161290d575560405161257b8161360c565b60058152640544f5055560dc1b60208201526040519161259a83613627565b60008352600435600052600d602052604060002092604051936125bc856135f1565b428552602085016000815260408601916024358352606087019386855260808801528054600160401b811015610a7a576125fb916001820181556138be565b9490946128f75786518555600185019151166001600160601b0360a01b825416179055516002830155519283516001600160401b038111610a7a576126436003840154613747565b601f81116128b0575b506020601f821160011461283d5781906080949596600092612832575b50508160011b916000199060031b1c19161760038401555b01518051906001600160401b038211610a7a576126a16004840154613747565b601f81116127e7575b50602090601f831160011461277957600492916000918361276e575b50508160011b916000199060031b1c1916179101555b7f131c2944ea68313084c40d9074bfd26611dbd83e4c0bc84f646b864548708978612712604051926040845260408401906136f6565b91602435602082015280600435930390a2600435600052600c6020526040600020546040519081526040602082015260056040820152640544f5055560dc1b6060820152600080516020614249833981519152608060043592a2005b0151905085806126c6565b90601f198316916004850160005260206000209260005b8181106127cf575091600193918560049694106127b6575b505050811b019101556126dc565b015160001960f88460031b161c191690558580806127a8565b92936020600181928786015181550195019301612790565b600484016000526020600020601f840160051c81019160208510612828575b601f0160051c01905b81811061281c57506126aa565b6000815560010161280f565b9091508190612806565b015190508680612669565b6003840160005260206000209560005b601f198416811061289857509582916080959697600194601f1981161061287f575b505050811b016003840155612681565b015160001960f88460031b161c1916905586808061286f565b8282015188556001909701966020928301920161284d565b600384016000526020600020601f830160051c8101602084106128f0575b601f830160051c820181106128e457505061264c565b600081556001016128ce565b50806128ce565b634e487b7160e01b600052600060045260246000fd5b634e487b7160e01b600052601160045260246000fd5b60405162461bcd60e51b815260206004820152600f60248201526e151c985b9cd9995c8819985a5b1959608a1b6044820152606490fd5b612973915060203d602011610690576106828183613642565b82612549565b346105c35760203660031901126105c357600435600052600a60205260406000206040516129a6816135d6565b6129af82613781565b815260018201549060208101918252600283015492604082019384526003810154906060830191825260ff6004820154169060808401911515825260ff60066129fa60058401613781565b9260a087019384520154169160c08501921515835284515115612a3957610be9945195519651935190511515915192511515936040519788978861385c565b60405162461bcd60e51b815260206004820152601760248201527f54656d706c61746520646f6573206e6f742065786973740000000000000000006044820152606490fd5b346105c35760603660031901126105c3576044356001600160401b0381116105c357612aae9036906004016136b5565b612ab66140c2565b600435600052600260205260018060a01b03612ada81604060002054161515613f0a565b33600052600f60205260ff6040600020541615612e7057612aff6024356004356141fd565b60405190612b0c8261360c565b60078252661410565351539560ca1b6020830152600435600052600d60205260406000209260405193612b3e856135f1565b4285526020850133815260408601916024358352606087019386855260808801528054600160401b811015610a7a57612b7c916001820181556138be565b9490946128f75786518555600185019151166001600160601b0360a01b825416179055516002830155518051906001600160401b038211610a7a57612bc46003840154613747565b601f8111612e29575b50602090601f8311600114612db457918060809492600494600092612da9575b50508160011b916000199060031b1c19161760038201555b019201519182516001600160401b038111610a7a57612c248254613747565b601f8111612d61575b506020601f8211600114612cfb5781929394600092612cf0575b50508160011b916000199060031b1c19161790555b7f131c2944ea68313084c40d9074bfd26611dbd83e4c0bc84f646b864548708978612c92604051926040845260408401906136f6565b91602435602082015280600435930390a2600435600052600c6020526040600020546040519081526040602082015260076040820152661410565351539560ca1b6060820152600080516020614249833981519152608060043592a2005b015190508480612c47565b601f198216908360005260206000209160005b818110612d4957509583600195969710612d30575b505050811b019055612c5c565b015160001960f88460031b161c19169055848080612d23565b9192602060018192868b015181550194019201612d0e565b826000526020600020601f830160051c81019160208410612d9f575b601f0160051c01905b818110612d935750612c2d565b60008155600101612d86565b9091508190612d7d565b015190508780612bed565b906003840160005260206000209160005b601f1985168110612e115750926080949260019260049583601f19811610612df8575b505050811b016003820155612c05565b015160001960f88460031b161c19169055878080612de8565b91926020600181928685015181550194019201612dc5565b600384016000526020600020601f840160051c810160208510612e69575b601f830160051c82018110612e5d575050612bcd565b60008155600101612e47565b5080612e47565b60405162461bcd60e51b815260206004820152601760248201527f4e6f7420617574686f72697a6564206d65726368616e740000000000000000006044820152606490fd5b346105c357610d65612ec636613827565b916139f7565b346105c35760403660031901126105c3576004356024356001600160401b0381116105c357610980612f237f931f495b9a8e5d8e61946ea5d61e021f636cfe213a801f97589c18c152e408bd9236906004016136b5565b612f2b6139c8565b600084815260026020526040902054612f4e906001600160a01b03161515613f0a565b6114388185613f4d565b346105c35760203660031901126105c357600435600052600b602052612fb96040600020612f8581613781565b906001810154906002810154906003810154600560ff6004840154169201549260405196879660c0885260c08801906136f6565b946020870152604086015260608501521515608084015260a08301520390f35b346105c35760403660031901126105c357612ff261371b565b602435612ffe81613b7d565b331515806130ad575b80613080575b613068576001600160a01b039283169282918491167f8c5be1e5ebec7d5bd14f71427d1e84f3dd0314c0f7b2291e5b200ac8c7c3b925600080a4600090815260046020526040902080546001600160a01b0319169091179055005b60405163a9fbf51f60e01b8152336004820152602490fd5b5060018060a01b038116600052600560205260406000203360005260205260ff604060002054161561300d565b506001600160a01b038116331415613007565b346105c35760203660031901126105c3576004356130dd81613b7d565b506000526004602052602060018060a01b0360406000205416604051908152f35b346105c35760003660031901126105c3576040516000805461311f81613747565b808452906001908181169081156114a5575060011461314857610be98461143881860382613642565b600080805292507f290decd9548b62a8d60345a988386fc84ba6bc95484008f6362f93160ef3e5635b82841061318957505050810160200161143882611428565b80546020858701810191909152909301928101613171565b346105c3576020806003193601126105c35760043560008181526002835260409020546131d8906001600160a01b03161515613f0a565b6000526014815260406000205480600052600a825260406000206132b060405191613202836135d6565b61320b81613781565b83526001810154908584019182526002810154916040850192835260038201546060860190815260ff6004840154169060808701911515825261328e60ff600661325760058801613781565b968760a08c01520154161515978860c08201525193519551915192511515936040519a8b9a8b5261010080918c01528a01906136f6565b9460408901526060880152608087015260a086015284820360c08601526136f6565b9060e08301520390f35b346105c35760803660031901126105c3576001600160401b036004358181116105c3576132eb9036906004016136b5565b906132f46139c8565b6132fc6140c2565b6040516020810190613330604082865161331a818760208b016136d3565b8101426020820152036020810184520182613642565b5190209060405160c0810181811083821117610a7a5760405283815260243560208201526044356040820152600060608201526001608082015260643560a082015282600052600b60205260406000209181518051918211610a7a576133968454613747565b601f8111613509575b5091849391602096938790601f8311600114613473577fee37bb5143a14810f72e86fce895be08e16090409d2e18f79b308995e39b73d4959383613456969460059460a094600092613468575b50508160011b916000199060031b1c19161784555b898101516001850155604081015160028501556060810151600385015561343d60808201511515600486019060ff801983541691151516179055565b01519101556040519182916040835260408301906136f6565b604435878301520390a2604051908152f35b015190508c806133ec565b9084600052886000209160005b601f19851681106134ef57509360018460059460a0947fee37bb5143a14810f72e86fce895be08e16090409d2e18f79b308995e39b73d49a986134569a98601f198116106134d6575b505050811b018455613401565b015160001960f88460031b161c191690558c80806134c9565b818301518455899850600190930192918a01918a01613480565b846000526020600020601f840160051c81019160208510613547575b601f0160051c01905b81811061353b575061339f565b6000815560010161352e565b9091508190613525565b346105c35760203660031901126105c3576004359063ffffffff60e01b82168092036105c357602091632483248360e11b8114908115613593575b5015158152f35b6380ac58cd60e01b8114915081156135c5575b81156135b4575b508361358c565b6301ffc9a760e01b149050836135ad565b635b5e139f60e01b811491506135a6565b60e081019081106001600160401b03821117610a7a57604052565b60a081019081106001600160401b03821117610a7a57604052565b604081019081106001600160401b03821117610a7a57604052565b602081019081106001600160401b03821117610a7a57604052565b90601f801991011681019081106001600160401b03821117610a7a57604052565b6001600160401b038111610a7a57601f01601f191660200190565b92919261368a82613663565b916136986040519384613642565b8294818452818301116105c3578281602093846000960137010152565b9080601f830112156105c3578160206136d09335910161367e565b90565b60005b8381106136e65750506000910152565b81810151838201526020016136d6565b9060209161370f815180928185528580860191016136d3565b601f01601f1916010190565b600435906001600160a01b03821682036105c357565b602435906001600160a01b03821682036105c357565b90600182811c92168015613777575b602083101461376157565b634e487b7160e01b600052602260045260246000fd5b91607f1691613756565b906040519182600082549261379584613747565b90818452600194858116908160001461380457506001146137c1575b50506137bf92500383613642565b565b9093915060005260209081600020936000915b8183106137ec5750506137bf935082010138806137b1565b855488840185015294850194879450918301916137d4565b9150506137bf94506020925060ff191682840152151560051b82010138806137b1565b60609060031901126105c3576001600160a01b039060043582811681036105c3579160243590811681036105c3579060443590565b959192936138a09461387c60c097939a999a60e08a5260e08a01906136f6565b946020890152604088015260608701521515608086015284820360a08601526136f6565b931515910152565b60409060031901126105c3576004359060243590565b80548210156138da576000526005602060002091020190600090565b634e487b7160e01b600052603260045260246000fd5b939092613921926136d09694865260018060a01b03166020860152604085015260a0606085015260a08401906136f6565b9160808184039101526136f6565b6024359081151582036105c357565b906101006003198301126105c357600435916001600160401b03916024358381116105c35782613970916004016136b5565b9260443592606435926084359260a43580151581036105c3579260c4359182116105c3576139a0916004016136b5565b9060e43580151581036105c35790565b80548210156138da5760005260206000200190600090565b60075460081c6001600160a01b031633036139df57565b60405163118cdaa760e01b8152336004820152602490fd5b6001600160a01b03918216929091831561061b57600092828452826020956002875260409684888820541696879133151580613ae7575b509060027fddf252ad1be2c89b69c2b068fc378daa952ba7f163c4a11628f55a4df523b3ef9284613ab4575b858352600381528b8320805460010190558683525289812080546001600160a01b0319168517905580a41692838303613a935750505050565b6064945051926364283d7b60e01b8452600484015260248301526044820152fd5b600087815260046020526040902080546001600160a01b0319169055848352600381528b83208054600019019055613a5a565b91939450915080613b3c575b15613b0357859291879138613a2e565b878688613b20576024915190637e27328960e01b82526004820152fd5b604491519063177e802f60e01b82523360048301526024820152fd5b503387148015613b61575b80613af35750858252600481523385898420541614613af3565b5086825260058152878220338352815260ff8883205416613b47565b6000818152600260205260409020546001600160a01b0316908115613ba0575090565b60249060405190637e27328960e01b82526004820152fd5b813b613bc5575b50505050565b604051630a85bd0160e11b8082523360048301526001600160a01b03928316602483015260448201949094526080606482015260209592909116939092908390613c139060848301906136f6565b039285816000958187895af1849181613c9e575b50613c81575050503d600014613c79573d613c4181613663565b90613c4f6040519283613642565b81528091843d92013e8051928361054657604051633250574960e11b815260048101849052602490fd5b506060610525565b919450915063ffffffff60e01b1603610572575038808080613bbf565b9091508681813d8311613cdb575b613cb68183613642565b81010312613cd757516001600160e01b031981168103613cd7579038613c27565b8480fd5b503d613cac565b600019811461290d5760010190565b80548210156138da5760005260206000209060021b0190600090565b60009081526011602052604081208054919392845b838110613d3457505050508180918190565b81613d3f8285613cf1565b505414613d5457613d4f90613ce2565b613d22565b945050919050613d648383613cf1565b5090613d8860ff60018094015416946002613d7f8287613cf1565b50015494613cf1565b5060030154919392916001600160a01b031690565b15613da457565b60405162461bcd60e51b8152602060048201526013602482015272125b9d985b1a59081d195b5c1b185d19481251606a1b6044820152606490fd5b15613de657565b60405162461bcd60e51b8152602060048201526015602482015274496e76616c696420746f6b656e206164647265737360581b6044820152606490fd5b15613e2a57565b60405162461bcd60e51b8152602060048201526013602482015272151bdad95b881b9bdd081cdd5c1c1bdc9d1959606a1b6044820152606490fd5b5115613e6d57565b60405162461bcd60e51b81526020600482015260146024820152734e616d652063616e6e6f7420626520656d70747960601b6044820152606490fd5b9091613eb6901515613d9d565b5115613e6d57606410613ec557565b60405162461bcd60e51b815260206004820152601b60248201527f496e76616c696420646973636f756e742070657263656e7461676500000000006044820152606490fd5b15613f1157565b60405162461bcd60e51b8152602060048201526014602482015273151bdad95b88191bd95cc81b9bdd08195e1a5cdd60621b6044820152606490fd5b9190916000908082526020916006835260408120908551906001600160401b0382116140ae57613f7d8354613747565b601f811161406b575b508490601f8311600114613fe757907ff8e1a15aba9398e019f0b49df1a4fde98ee17ae345cb5f6b5e2c27f5033e8ce7969783613fdc575b50508160011b916000199060031b1c19161790555b604051908152a1565b015190503880613fbe565b9196601f198816848452868420935b81811061405457509160019391897ff8e1a15aba9398e019f0b49df1a4fde98ee17ae345cb5f6b5e2c27f5033e8ce7999a941061403b575b505050811b019055613fd3565b015160001960f88460031b161c1916905538808061402e565b929387600181928786015181550195019301613ff6565b838252858220601f840160051c8101918785106140a4575b601f0160051c01905b8181106140995750613f86565b82815560010161408c565b9091508190614083565b634e487b7160e01b81526041600452602490fd5b60ff600754166140ce57565b60405163d93c066560e01b8152600490fd5b919091600052601160205260406000209060005b825481101561419957836141088285613cf1565b50541480614180575b6141235761411e90613ce2565b6140f4565b8293508061413761415e9260039495613cf1565b506001908101805460ff191682179055946141528282613cf1565b50600242910155613cf1565b500180546001600160a01b0319166001600160a01b0390921691909117905590565b5060ff600161418f8386613cf1565b5001541615614111565b50505050600090565b908160209103126105c3575180151581036105c35790565b156141c157565b60405162461bcd60e51b8152602060048201526014602482015273496e73756666696369656e742062616c616e636560601b6044820152606490fd5b600090808252600c60205261421883604084205410156141ba565b8152600c60205260408120908154928303928311614234575055565b634e487b7160e01b81526011600452602490fdfeec928c2fe6632313165f754a793ab00b2cde005b5c7571959d3137d5c4d4ac67c0fdbb34fd837325f175bd973a8607230e48718904c92805638b65905f616d7da26469706673582212202a3d0749913eaf942f0b172681207448b69131e57100f45312d172d7669460ee64736f6c63430008140033",
  "linkReferences": {},
  "deployedLinkReferences": {}
}