{
  "_format": "hh-sol-artifact-1",
  "contractName": "MockERC20",
  "sourceName": "contracts/test/MockERC20.sol",
  "abi": [
    {
      "inputs": [
        {
          "internalType": "string",
          "name": "name",
          "type": "string"
        },
        {
          "internalType": "string",
          "name": "symbol",
          "type": "string"
        }
      ],
      "stateMutability": "nonpayable",
      "type": "constructor"
    },
    {
      "inputs": [
        {
          "internalType": "address",
          "name": "spender",
          "type": "address"
        },
        {
          "internalType": "uint256",
          "name": "allowance",
          "type": "uint256"
        },
        {
          "internalType": "uint256",
          "name": "needed",
          "type": "uint256"
        }
      ],
      "name": "ERC20InsufficientAllowance",
      "type": "error"
    },
    {
      "inputs": [
        {
          "internalType": "address",
          "name": "sender",
          "type": "address"
        },
        {
          "internalType": "uint256",
          "name": "balance",
          "type": "uint256"
        },
        {
          "internalType": "uint256",
          "name": "needed",
          "type": "uint256"
        }
      ],
      "name": "ERC20InsufficientBalance",
      "type": "error"
    },
    {
      "inputs": [
        {
          "internalType": "address",
          "name": "approver",
          "type": "address"
        }
      ],
      "name": "ERC20InvalidApprover",
      "type": "error"
    },
    {
      "inputs": [
        {
          "internalType": "address",
          "name": "receiver",
          "type": "address"
        }
      ],
      "name": "ERC20InvalidReceiver",
      "type": "error"
    },
    {
      "inputs": [
        {
          "internalType": "address",
          "name": "sender",
          "type": "address"
        }
      ],
      "name": "ERC20InvalidSender",
      "type": "error"
    },
    {
      "inputs": [
        {
          "internalType": "address",
          "name": "spender",
          "type": "address"
        }
      ],
      "name": "ERC20InvalidSpender",
      "type": "error"
    },
    {
      "inputs": [
        {
          "internalType": "address",
          "name": "owner",
          "type": "address"
        }
      ],
      "name": "OwnableInvalidOwner",
      "type": "error"
    },
    {
      "inputs": [
        {
          "internalType": "address",
          "name": "account",
          "type": "address"
        }
      ],
      "name": "OwnableUnauthorizedAccount",
      "type": "error"
    },
    {
      "anonymous": false,
      "inputs": [
        {
          "indexed": true,
          "internalType": "address",
          "name": "owner",
          "type": "address"
        },
        {
          "indexed": true,
          "internalType": "address",
          "name": "spender",
          "type": "address"
        },
        {
          "indexed": false,
          "internalType": "uint256",
          "name": "value",
          "type": "uint256"
        }
      ],
      "name": "Approval",
      "type": "event"
    },
    {
      "anonymous": false,
      "inputs": [
        {
          "indexed": true,
          "internalType": "address",
          "name": "previousOwner",
          "type": "address"
        },
        {
          "indexed": true,
          "internalType": "address",
          "name": "newOwner",
          "type": "address"
        }
      ],
      "name": "OwnershipTransferred",
      "type": "event"
    },
    {
      "anonymous": false,
      "inputs": [
        {
          "indexed": true,
          "internalType": "address",
          "name": "from",
          "type": "address"
        },
        {
          "indexed": true,
          "internalType": "address",
          "name": "to",
          "type": "address"
        },
        {
          "indexed": false,
          "internalType": "uint256",
          "name": "value",
          "type": "uint256"
        }
      ],
      "name": "Transfer",
      "type": "event"
    },
    {
      "inputs": [
        {
          "internalType": "address",
          "name": "owner",
          "type": "address"
        },
        {
          "internalType": "address",
          "name": "spender",
          "type": "address"
        }
      ],
      "name": "allowance",
      "outputs": [
        {
          "internalType": "uint256",
          "name": "",
          "type": "uint256"
        }
      ],
      "stateMutability": "view",
      "type": "function"
    },
    {
      "inputs": [
        {
          "internalType": "address",
          "name": "spender",
          "type": "address"
        },
        {
          "internalType": "uint256",
          "name": "value",
          "type": "uint256"
        }
      ],
      "name": "approve",
      "outputs": [
        {
          "internalType": "bool",
          "name": "",
          "type": "bool"
        }
      ],
      "stateMutability": "nonpayable",
      "type": "function"
    },
    {
      "inputs": [
        {
          "internalType": "address",
          "name": "account",
          "type": "address"
        }
      ],
      "name": "balanceOf",
      "outputs": [
        {
          "internalType": "uint256",
          "name": "",
          "type": "uint256"
        }
      ],
      "stateMutability": "view",
      "type": "function"
    },
    {
      "inputs": [
        {
          "internalType": "address",
          "name": "from",
          "type": "address"
        },
        {
          "internalType": "uint256",
          "name": "amount",
          "type": "uint256"
        }
      ],
      "name": "burn",
      "outputs": [],
      "stateMutability": "nonpayable",
      "type": "function"
    },
    {
      "inputs": [],
      "name": "decimals",
      "outputs": [
        {
          "internalType": "uint8",
          "name": "",
          "type": "uint8"
        }
      ],
      "stateMutability": "view",
      "type": "function"
    },
    {
      "inputs": [
        {
          "internalType": "address",
          "name": "to",
          "type": "address"
        },
        {
          "internalType": "uint256",
          "name": "amount",
          "type": "uint256"
        }
      ],
      "name": "mint",
      "outputs": [],
      "stateMutability": "nonpayable",
      "type": "function"
    },
    {
      "inputs": [],
      "name": "name",
      "outputs": [
        {
          "internalType": "string",
          "name": "",
          "type": "string"
        }
      ],
      "stateMutability": "view",
      "type": "function"
    },
    {
      "inputs": [],
      "name": "owner",
      "outputs": [
        {
          "internalType": "address",
          "name": "",
          "type": "address"
        }
      ],
      "stateMutability": "view",
      "type": "function"
    },
    {
      "inputs": [],
      "name": "renounceOwnership",
      "outputs": [],
      "stateMutability": "nonpayable",
      "type": "function"
    },
    {
      "inputs": [
        {
          "internalType": "uint8",
          "name": "newDecimals",
          "type": "uint8"
        }
      ],
      "name": "setDecimals",
      "outputs": [],
      "stateMutability": "nonpayable",
      "type": "function"
    },
    {
      "inputs": [],
      "name": "symbol",
      "outputs": [
        {
          "internalType": "string",
          "name": "",
          "type": "string"
        }
      ],
      "stateMutability": "view",
      "type": "function"
    },
    {
      "inputs": [],
      "name": "totalSupply",
      "outputs": [
        {
          "internalType": "uint256",
          "name": "",
          "type": "uint256"
        }
      ],
      "stateMutability": "view",
      "type": "function"
    },
    {
      "inputs": [
        {
          "internalType": "address",
          "name": "to",
          "type": "address"
        },
        {
          "internalType": "uint256",
          "name": "value",
          "type": "uint256"
        }
      ],
      "name": "transfer",
      "outputs": [
        {
          "internalType": "bool",
          "name": "",
          "type": "bool"
        }
      ],
      "stateMutability": "nonpayable",
      "type": "function"
    },
    {
      "inputs": [
        {
          "internalType": "address",
          "name": "from",
          "type": "address"
        },
        {
          "internalType": "address",
          "name": "to",
          "type": "address"
        },
        {
          "internalType": "uint256",
          "name": "value",
          "type": "uint256"
        }
      ],
      "name": "transferFrom",
      "outputs": [
        {
          "internalType": "bool",
          "name": "",
          "type": "bool"
        }
      ],
      "stateMutability": "nonpayable",
      "type": "function"
    },
    {
      "inputs": [
        {
          "internalType": "address",
          "name": "newOwner",
          "type": "address"
        }
      ],
      "name": "transferOwnership",
      "outputs": [],
      "stateMutability": "nonpayable",
      "type": "function"
    }
  ],
  "bytecode": "0x60806040526005805460ff60a01b1916600960a11b1790553480156200002457600080fd5b5060405162000d3c38038062000d3c8339810160408190526200004791620001c4565b3382826003620000588382620002bd565b506004620000678282620002bd565b5050506001600160a01b0381166200009957604051631e4fbdf760e01b81526000600482015260240160405180910390fd5b620000a481620000ad565b50505062000389565b600580546001600160a01b038381166001600160a01b0319831681179093556040519116919082907f8be0079c531659141344cd1fd0a4f28419497f9722a3daafe3b4186f6b6457e090600090a35050565b634e487b7160e01b600052604160045260246000fd5b600082601f8301126200012757600080fd5b81516001600160401b0380821115620001445762000144620000ff565b604051601f8301601f19908116603f011681019082821181831017156200016f576200016f620000ff565b816040528381526020925086838588010111156200018c57600080fd5b600091505b83821015620001b0578582018301518183018401529082019062000191565b600093810190920192909252949350505050565b60008060408385031215620001d857600080fd5b82516001600160401b0380821115620001f057600080fd5b620001fe8683870162000115565b935060208501519150808211156200021557600080fd5b50620002248582860162000115565b9150509250929050565b600181811c908216806200024357607f821691505b6020821081036200026457634e487b7160e01b600052602260045260246000fd5b50919050565b601f821115620002b857600081815260208120601f850160051c81016020861015620002935750805b601f850160051c820191505b81811015620002b4578281556001016200029f565b5050505b505050565b81516001600160401b03811115620002d957620002d9620000ff565b620002f181620002ea84546200022e565b846200026a565b602080601f831160018114620003295760008415620003105750858301515b600019600386901b1c1916600185901b178555620002b4565b600085815260208120601f198616915b828110156200035a5788860151825594840194600190910190840162000339565b5085821015620003795787850151600019600388901b60f8161c191681555b5050505050600190811b01905550565b6109a380620003996000396000f3fe608060405234801561001057600080fd5b50600436106100f55760003560e01c8063715018a6116100975780639dc29fac116100665780639dc29fac146101fb578063a9059cbb1461020e578063dd62ed3e14610221578063f2fde38b1461025a57600080fd5b8063715018a6146101bd5780637a1395aa146101c55780638da5cb5b146101d857806395d89b41146101f357600080fd5b806323b872dd116100d357806323b872dd1461014d578063313ce5671461016057806340c10f191461017f57806370a082311461019457600080fd5b806306fdde03146100fa578063095ea7b31461011857806318160ddd1461013b575b600080fd5b61010261026d565b60405161010f91906107ca565b60405180910390f35b61012b610126366004610834565b6102ff565b604051901515815260200161010f565b6002545b60405190815260200161010f565b61012b61015b36600461085e565b610319565b600554600160a01b900460ff1660405160ff909116815260200161010f565b61019261018d366004610834565b61033d565b005b61013f6101a236600461089a565b6001600160a01b031660009081526020819052604090205490565b61019261034b565b6101926101d33660046108bc565b61035f565b6005546040516001600160a01b03909116815260200161010f565b610102610387565b610192610209366004610834565b610396565b61012b61021c366004610834565b6103a0565b61013f61022f3660046108df565b6001600160a01b03918216600090815260016020908152604080832093909416825291909152205490565b61019261026836600461089a565b6103ae565b60606003805461027c90610912565b80601f01602080910402602001604051908101604052809291908181526020018280546102a890610912565b80156102f55780601f106102ca576101008083540402835291602001916102f5565b820191906000526020600020905b8154815290600101906020018083116102d857829003601f168201915b5050505050905090565b60003361030d8185856103f1565b60019150505b92915050565b600033610327858285610403565b610332858585610481565b506001949350505050565b61034782826104e0565b5050565b610353610516565b61035d6000610543565b565b610367610516565b6005805460ff909216600160a01b0260ff60a01b19909216919091179055565b60606004805461027c90610912565b6103478282610595565b60003361030d818585610481565b6103b6610516565b6001600160a01b0381166103e557604051631e4fbdf760e01b8152600060048201526024015b60405180910390fd5b6103ee81610543565b50565b6103fe83838360016105cb565b505050565b6001600160a01b03838116600090815260016020908152604080832093861683529290522054600019811461047b578181101561046c57604051637dc7a0d960e11b81526001600160a01b038416600482015260248101829052604481018390526064016103dc565b61047b848484840360006105cb565b50505050565b6001600160a01b0383166104ab57604051634b637e8f60e11b8152600060048201526024016103dc565b6001600160a01b0382166104d55760405163ec442f0560e01b8152600060048201526024016103dc565b6103fe8383836106a0565b6001600160a01b03821661050a5760405163ec442f0560e01b8152600060048201526024016103dc565b610347600083836106a0565b6005546001600160a01b0316331461035d5760405163118cdaa760e01b81523360048201526024016103dc565b600580546001600160a01b038381166001600160a01b0319831681179093556040519116919082907f8be0079c531659141344cd1fd0a4f28419497f9722a3daafe3b4186f6b6457e090600090a35050565b6001600160a01b0382166105bf57604051634b637e8f60e11b8152600060048201526024016103dc565b610347826000836106a0565b6001600160a01b0384166105f55760405163e602df0560e01b8152600060048201526024016103dc565b6001600160a01b03831661061f57604051634a1406b160e11b8152600060048201526024016103dc565b6001600160a01b038085166000908152600160209081526040808320938716835292905220829055801561047b57826001600160a01b0316846001600160a01b03167f8c5be1e5ebec7d5bd14f71427d1e84f3dd0314c0f7b2291e5b200ac8c7c3b9258460405161069291815260200190565b60405180910390a350505050565b6001600160a01b0383166106cb5780600260008282546106c0919061094c565b9091555061073d9050565b6001600160a01b0383166000908152602081905260409020548181101561071e5760405163391434e360e21b81526001600160a01b038516600482015260248101829052604481018390526064016103dc565b6001600160a01b03841660009081526020819052604090209082900390555b6001600160a01b03821661075957600280548290039055610778565b6001600160a01b03821660009081526020819052604090208054820190555b816001600160a01b0316836001600160a01b03167fddf252ad1be2c89b69c2b068fc378daa952ba7f163c4a11628f55a4df523b3ef836040516107bd91815260200190565b60405180910390a3505050565b600060208083528351808285015260005b818110156107f7578581018301518582016040015282016107db565b506000604082860101526040601f19601f8301168501019250505092915050565b80356001600160a01b038116811461082f57600080fd5b919050565b6000806040838503121561084757600080fd5b61085083610818565b946020939093013593505050565b60008060006060848603121561087357600080fd5b61087c84610818565b925061088a60208501610818565b9150604084013590509250925092565b6000602082840312156108ac57600080fd5b6108b582610818565b9392505050565b6000602082840312156108ce57600080fd5b813560ff811681146108b557600080fd5b600080604083850312156108f257600080fd5b6108fb83610818565b915061090960208401610818565b90509250929050565b600181811c9082168061092657607f821691505b60208210810361094657634e487b7160e01b600052602260045260246000fd5b50919050565b8082018082111561031357634e487b7160e01b600052601160045260246000fdfea264697066735822122060279c5735fb0a30ee23541d0ba3fc1ec961615bf5af37d65058ba6322c9b46464736f6c63430008140033",
  "linkReferences": {},
  "deployedLinkReferences": {}
}