{
  "_format": "hh-sol-artifact-1",
  "contractName": "MockERC20",
  "sourceName": "contracts/test/MockERC20.sol",
  "abi": [
    {
      "inputs": [
        {
          "internalType": "string",
          "name": "name",
          "type": "string"
        },
        {
          "internalType": "string",
          "name": "symbol",
          "type": "string"
        }
      ],
      "stateMutability": "nonpayable",
      "type": "constructor"
    },
    {
      "inputs": [
        {
          "internalType": "address",
          "name": "spender",
          "type": "address"
        },
        {
          "internalType": "uint256",
          "name": "allowance",
          "type": "uint256"
        },
        {
          "internalType": "uint256",
          "name": "needed",
          "type": "uint256"
        }
      ],
      "name": "ERC20InsufficientAllowance",
      "type": "error"
    },
    {
      "inputs": [
        {
          "internalType": "address",
          "name": "sender",
          "type": "address"
        },
        {
          "internalType": "uint256",
          "name": "balance",
          "type": "uint256"
        },
        {
          "internalType": "uint256",
          "name": "needed",
          "type": "uint256"
        }
      ],
      "name": "ERC20InsufficientBalance",
      "type": "error"
    },
    {
      "inputs": [
        {
          "internalType": "address",
          "name": "approver",
          "type": "address"
        }
      ],
      "name": "ERC20InvalidApprover",
      "type": "error"
    },
    {
      "inputs": [
        {
          "internalType": "address",
          "name": "receiver",
          "type": "address"
        }
      ],
      "name": "ERC20InvalidReceiver",
      "type": "error"
    },
    {
      "inputs": [
        {
          "internalType": "address",
          "name": "sender",
          "type": "address"
        }
      ],
      "name": "ERC20InvalidSender",
      "type": "error"
    },
    {
      "inputs": [
        {
          "internalType": "address",
          "name": "spender",
          "type": "address"
        }
      ],
      "name": "ERC20InvalidSpender",
      "type": "error"
    },
    {
      "inputs": [
        {
          "internalType": "address",
          "name": "owner",
          "type": "address"
        }
      ],
      "name": "OwnableInvalidOwner",
      "type": "error"
    },
    {
      "inputs": [
        {
          "internalType": "address",
          "name": "account",
          "type": "address"
        }
      ],
      "name": "OwnableUnauthorizedAccount",
      "type": "error"
    },
    {
      "anonymous": false,
      "inputs": [
        {
          "indexed": true,
          "internalType": "address",
          "name": "owner",
          "type": "address"
        },
        {
          "indexed": true,
          "internalType": "address",
          "name": "spender",
          "type": "address"
        },
        {
          "indexed": false,
          "internalType": "uint256",
          "name": "value",
          "type": "uint256"
        }
      ],
      "name": "Approval",
      "type": "event"
    },
    {
      "anonymous": false,
      "inputs": [
        {
          "indexed": true,
          "internalType": "address",
          "name": "previousOwner",
          "type": "address"
        },
        {
          "indexed": true,
          "internalType": "address",
          "name": "newOwner",
          "type": "address"
        }
      ],
      "name": "OwnershipTransferred",
      "type": "event"
    },
    {
      "anonymous": false,
      "inputs": [
        {
          "indexed": true,
          "internalType": "address",
          "name": "from",
          "type": "address"
        },
        {
          "indexed": true,
          "internalType": "address",
          "name": "to",
          "type": "address"
        },
        {
          "indexed": false,
          "internalType": "uint256",
          "name": "value",
          "type": "uint256"
        }
      ],
      "name": "Transfer",
      "type": "event"
    },
    {
      "inputs": [
        {
          "internalType": "address",
          "name": "owner",
          "type": "address"
        },
        {
          "internalType": "address",
          "name": "spender",
          "type": "address"
        }
      ],
      "name": "allowance",
      "outputs": [
        {
          "internalType": "uint256",
          "name": "",
          "type": "uint256"
        }
      ],
      "stateMutability": "view",
      "type": "function"
    },
    {
      "inputs": [
        {
          "internalType": "address",
          "name": "spender",
          "type": "address"
        },
        {
          "internalType": "uint256",
          "name": "value",
          "type": "uint256"
        }
      ],
      "name": "approve",
      "outputs": [
        {
          "internalType": "bool",
          "name": "",
          "type": "bool"
        }
      ],
      "stateMutability": "nonpayable",
      "type": "function"
    },
    {
      "inputs": [
        {
          "internalType": "address",
          "name": "account",
          "type": "address"
        }
      ],
      "name": "balanceOf",
      "outputs": [
        {
          "internalType": "uint256",
          "name": "",
          "type": "uint256"
        }
      ],
      "stateMutability": "view",
      "type": "function"
    },
    {
      "inputs": [
        {
          "internalType": "address",
          "name": "from",
          "type": "address"
        },
        {
          "internalType": "uint256",
          "name": "amount",
          "type": "uint256"
        }
      ],
      "name": "burn",
      "outputs": [],
      "stateMutability": "nonpayable",
      "type": "function"
    },
    {
      "inputs": [],
      "name": "decimals",
      "outputs": [
        {
          "internalType": "uint8",
          "name": "",
          "type": "uint8"
        }
      ],
      "stateMutability": "view",
      "type": "function"
    },
    {
      "inputs": [
        {
          "internalType": "address",
          "name": "to",
          "type": "address"
        },
        {
          "internalType": "uint256",
          "name": "amount",
          "type": "uint256"
        }
      ],
      "name": "mint",
      "outputs": [],
      "stateMutability": "nonpayable",
      "type": "function"
    },
    {
      "inputs": [],
      "name": "name",
      "outputs": [
        {
          "internalType": "string",
          "name": "",
          "type": "string"
        }
      ],
      "stateMutability": "view",
      "type": "function"
    },
    {
      "inputs": [],
      "name": "owner",
      "outputs": [
        {
          "internalType": "address",
          "name": "",
          "type": "address"
        }
      ],
      "stateMutability": "view",
      "type": "function"
    },
    {
      "inputs": [],
      "name": "renounceOwnership",
      "outputs": [],
      "stateMutability": "nonpayable",
      "type": "function"
    },
    {
      "inputs": [
        {
          "internalType": "uint8",
          "name": "newDecimals",
          "type": "uint8"
        }
      ],
      "name": "setDecimals",
      "outputs": [],
      "stateMutability": "nonpayable",
      "type": "function"
    },
    {
      "inputs": [],
      "name": "symbol",
      "outputs": [
        {
          "internalType": "string",
          "name": "",
          "type": "string"
        }
      ],
      "stateMutability": "view",
      "type": "function"
    },
    {
      "inputs": [],
      "name": "totalSupply",
      "outputs": [
        {
          "internalType": "uint256",
          "name": "",
          "type": "uint256"
        }
      ],
      "stateMutability": "view",
      "type": "function"
    },
    {
      "inputs": [
        {
          "internalType": "address",
          "name": "to",
          "type": "address"
        },
        {
          "internalType": "uint256",
          "name": "value",
          "type": "uint256"
        }
      ],
      "name": "transfer",
      "outputs": [
        {
          "internalType": "bool",
          "name": "",
          "type": "bool"
        }
      ],
      "stateMutability": "nonpayable",
      "type": "function"
    },
    {
      "inputs": [
        {
          "internalType": "address",
          "name": "from",
          "type": "address"
        },
        {
          "internalType": "address",
          "name": "to",
          "type": "address"
        },
        {
          "internalType": "uint256",
          "name": "value",
          "type": "uint256"
        }
      ],
      "name": "transferFrom",
      "outputs": [
        {
          "internalType": "bool",
          "name": "",
          "type": "bool"
        }
      ],
      "stateMutability": "nonpayable",
      "type": "function"
    },
    {
      "inputs": [
        {
          "internalType": "address",
          "name": "newOwner",
          "type": "address"
        }
      ],
      "name": "transferOwnership",
      "outputs": [],
      "stateMutability": "nonpayable",
      "type": "function"
    }
  ],
  "bytecode": "0x6080604052346200038c5762000e31803803806200001d8162000391565b9283398101906040818303126200038c5780516001600160401b03908181116200038c57836200004f918401620003b7565b91602093848201518381116200038c576200006b9201620003b7565b82518281116200028c576003918254916001958684811c9416801562000381575b888510146200036b578190601f9485811162000315575b508890858311600114620002ae57600092620002a2575b505060001982861b1c191690861b1783555b80519384116200028c5760049586548681811c9116801562000281575b828210146200026c5783811162000221575b5080928511600114620001b35750938394918492600095620001a7575b50501b92600019911b1c19161781555b33156200018f5760055460405190336001600160a01b0382167f8be0079c531659141344cd1fd0a4f28419497f9722a3daafe3b4186f6b6457e0600080a36001600160a81b0319163360ff60a01b191617600960a11b17600555610a0790816200042a8239f35b602490600060405191631e4fbdf760e01b8352820152fd5b01519350388062000118565b92919084601f1981168860005285600020956000905b89838310620002065750505010620001eb575b50505050811b01815562000128565b01519060f884600019921b161c1916905538808080620001dc565b858701518955909701969485019488935090810190620001c9565b87600052816000208480880160051c82019284891062000262575b0160051c019087905b82811062000255575050620000fb565b6000815501879062000245565b925081926200023c565b602288634e487b7160e01b6000525260246000fd5b90607f1690620000e9565b634e487b7160e01b600052604160045260246000fd5b015190503880620000ba565b90889350601f19831691876000528a6000209260005b8c828210620002fe5750508411620002e5575b505050811b018355620000cc565b015160001983881b60f8161c19169055388080620002d7565b8385015186558c97909501949384019301620002c4565b90915085600052886000208580850160051c8201928b861062000361575b918a91869594930160051c01915b82811062000351575050620000a3565b600081558594508a910162000341565b9250819262000333565b634e487b7160e01b600052602260045260246000fd5b93607f16936200008c565b600080fd5b6040519190601f01601f191682016001600160401b038111838210176200028c57604052565b919080601f840112156200038c5782516001600160401b0381116200028c57602090620003ed601f8201601f1916830162000391565b928184528282870101116200038c5760005b8181106200041557508260009394955001015290565b8581018301518482018401528201620003ff56fe6080604081815260048036101561001557600080fd5b600092833560e01c90816306fdde031461075857508063095ea7b3146106af57806318160ddd1461069057806323b872dd1461059d578063313ce5671461057857806340c10f19146104d157806370a082311461049a578063715018a61461043a5780637a1395aa146103f45780638da5cb5b146103cb57806395d89b41146102ab5780639dc29fac146101d8578063a9059cbb146101a7578063dd62ed3e1461015a5763f2fde38b146100c857600080fd5b34610156576020366003190112610156576100e1610896565b906100ea6108c7565b6001600160a01b03918216928315610140575050600554826bffffffffffffffffffffffff60a01b821617600555167f8be0079c531659141344cd1fd0a4f28419497f9722a3daafe3b4186f6b6457e08380a380f35b51631e4fbdf760e01b8152908101849052602490fd5b8280fd5b5050346101a357806003193601126101a35780602092610178610896565b6101806108b1565b6001600160a01b0391821683526001865283832091168252845220549051908152f35b5080fd5b5050346101a357806003193601126101a3576020906101d16101c7610896565b60243590336108f3565b5160018152f35b508290346101a357826003193601126101a3576101f3610896565b6001600160a01b03811691602435918315610294578385528460205285852054918383106102605750508184957fddf252ad1be2c89b69c2b068fc378daa952ba7f163c4a11628f55a4df523b3ef936020938688528785520381872055816002540360025551908152a380f35b865163391434e360e21b81526001600160a01b03909216908201908152602081018390526040810184905281906060010390fd5b8551634b637e8f60e11b8152808301869052602490fd5b509190346101a357816003193601126101a357805190828454600181811c908083169283156103c1575b60209384841081146103ae57838852908115610392575060011461033d575b505050829003601f01601f191682019267ffffffffffffffff84118385101761032a575082918261032692528261084d565b0390f35b634e487b7160e01b815260418552602490fd5b8787529192508591837f8a35acfbc15ff81a39ae7d344fd709f28e8600b4aa8c65c6b64bfe7fe36bd19b5b83851061037e57505050508301013880806102f4565b805488860183015293019284908201610368565b60ff1916878501525050151560051b84010190503880806102f4565b634e487b7160e01b895260228a52602489fd5b91607f16916102d5565b5050346101a357816003193601126101a35760055490516001600160a01b039091168152602090f35b8382346101a35760203660031901126101a3573560ff811681036101a35761041a6108c7565b6005805460ff60a01b191660a09290921b60ff60a01b1691909117905580f35b83346104975780600319360112610497576104536108c7565b600580546001600160a01b0319811690915581906001600160a01b03167f8be0079c531659141344cd1fd0a4f28419497f9722a3daafe3b4186f6b6457e08280a380f35b80fd5b5050346101a35760203660031901126101a35760209181906001600160a01b036104c2610896565b16815280845220549051908152f35b5090346101565780600319360112610156576104eb610896565b6001600160a01b031691602435919083156105635760025490838201809211610550575084927fddf252ad1be2c89b69c2b068fc378daa952ba7f163c4a11628f55a4df523b3ef9260209260025585855284835280852082815401905551908152a380f35b634e487b7160e01b865260119052602485fd5b84602492519163ec442f0560e01b8352820152fd5b5050346101a357816003193601126101a35760209060ff60055460a01c169051908152f35b508234610497576060366003190112610497576105b8610896565b6105c06108b1565b916044359360018060a01b0383168083526001602052868320338452602052868320549160001983036105fc575b6020886101d18989896108f3565b86831061066457811561064d573315610636575082526001602090815286832033845281529186902090859003905582906101d1876105ee565b8751634a1406b160e11b8152908101849052602490fd5b875163e602df0560e01b8152908101849052602490fd5b8751637dc7a0d960e11b8152339181019182526020820193909352604081018790528291506060010390fd5b5050346101a357816003193601126101a3576020906002549051908152f35b50346101565781600319360112610156576106c8610896565b602435903315610741576001600160a01b031691821561072a57508083602095338152600187528181208582528752205582519081527f8c5be1e5ebec7d5bd14f71427d1e84f3dd0314c0f7b2291e5b200ac8c7c3b925843392a35160018152f35b8351634a1406b160e11b8152908101859052602490fd5b835163e602df0560e01b8152808401869052602490fd5b849150833461015657826003193601126101565782600354600181811c90808316928315610843575b60209384841081146103ae5783885290811561082757506001146107d157505050829003601f01601f191682019267ffffffffffffffff84118385101761032a575082918261032692528261084d565b600387529192508591837fc2575a0e9e593c00f959f8c92f12db2869c3395a3b0502d05e2516446f71f85b5b83851061081357505050508301018580806102f4565b8054888601830152930192849082016107fd565b60ff1916878501525050151560051b84010190508580806102f4565b91607f1691610781565b6020808252825181830181905290939260005b82811061088257505060409293506000838284010152601f8019910116010190565b818101860151848201604001528501610860565b600435906001600160a01b03821682036108ac57565b600080fd5b602435906001600160a01b03821682036108ac57565b6005546001600160a01b031633036108db57565b60405163118cdaa760e01b8152336004820152602490fd5b916001600160a01b038084169283156109b8571692831561099f576000908382528160205260408220549083821061096d575091604082827fddf252ad1be2c89b69c2b068fc378daa952ba7f163c4a11628f55a4df523b3ef958760209652828652038282205586815220818154019055604051908152a3565b60405163391434e360e21b81526001600160a01b03919091166004820152602481019190915260448101839052606490fd5b60405163ec442f0560e01b815260006004820152602490fd5b604051634b637e8f60e11b815260006004820152602490fdfea2646970667358221220ac93c5c2581e529e5dbe86ff8a2955d7c4d2956d54de18017d761aae5c19c4c764736f6c63430008140033",
  "linkReferences": {},
  "deployedLinkReferences": {}
}