{
  "_format": "hh-sol-artifact-1",
  "contractName": "WaveXNFTV2",
  "sourceName": "contracts/v2/WaveXNFTV2.sol",
  "abi": [
    {
      "inputs": [],
      "stateMutability": "nonpayable",
      "type": "constructor"
    },
    {
      "inputs": [
        {
          "internalType": "address",
          "name": "sender",
          "type": "address"
        },
        {
          "internalType": "uint256",
          "name": "tokenId",
          "type": "uint256"
        },
        {
          "internalType": "address",
          "name": "owner",
          "type": "address"
        }
      ],
      "name": "ERC721IncorrectOwner",
      "type": "error"
    },
    {
      "inputs": [
        {
          "internalType": "address",
          "name": "operator",
          "type": "address"
        },
        {
          "internalType": "uint256",
          "name": "tokenId",
          "type": "uint256"
        }
      ],
      "name": "ERC721InsufficientApproval",
      "type": "error"
    },
    {
      "inputs": [
        {
          "internalType": "address",
          "name": "approver",
          "type": "address"
        }
      ],
      "name": "ERC721InvalidApprover",
      "type": "error"
    },
    {
      "inputs": [
        {
          "internalType": "address",
          "name": "operator",
          "type": "address"
        }
      ],
      "name": "ERC721InvalidOperator",
      "type": "error"
    },
    {
      "inputs": [
        {
          "internalType": "address",
          "name": "owner",
          "type": "address"
        }
      ],
      "name": "ERC721InvalidOwner",
      "type": "error"
    },
    {
      "inputs": [
        {
          "internalType": "address",
          "name": "receiver",
          "type": "address"
        }
      ],
      "name": "ERC721InvalidReceiver",
      "type": "error"
    },
    {
      "inputs": [
        {
          "internalType": "address",
          "name": "sender",
          "type": "address"
        }
      ],
      "name": "ERC721InvalidSender",
      "type": "error"
    },
    {
      "inputs": [
        {
          "internalType": "uint256",
          "name": "tokenId",
          "type": "uint256"
        }
      ],
      "name": "ERC721NonexistentToken",
      "type": "error"
    },
    {
      "inputs": [],
      "name": "EnforcedPause",
      "type": "error"
    },
    {
      "inputs": [],
      "name": "ExpectedPause",
      "type": "error"
    },
    {
      "inputs": [
        {
          "internalType": "address",
          "name": "owner",
          "type": "address"
        }
      ],
      "name": "OwnableInvalidOwner",
      "type": "error"
    },
    {
      "inputs": [
        {
          "internalType": "address",
          "name": "account",
          "type": "address"
        }
      ],
      "name": "OwnableUnauthorizedAccount",
      "type": "error"
    },
    {
      "anonymous": false,
      "inputs": [
        {
          "indexed": true,
          "internalType": "address",
          "name": "owner",
          "type": "address"
        },
        {
          "indexed": true,
          "internalType": "address",
          "name": "approved",
          "type": "address"
        },
        {
          "indexed": true,
          "internalType": "uint256",
          "name": "tokenId",
          "type": "uint256"
        }
      ],
      "name": "Approval",
      "type": "event"
    },
    {
      "anonymous": false,
      "inputs": [
        {
          "indexed": true,
          "internalType": "address",
          "name": "owner",
          "type": "address"
        },
        {
          "indexed": true,
          "internalType": "address",
          "name": "operator",
          "type": "address"
        },
        {
          "indexed": false,
          "internalType": "bool",
          "name": "approved",
          "type": "bool"
        }
      ],
      "name": "ApprovalForAll",
      "type": "event"
    },
    {
      "anonymous": false,
      "inputs": [
        {
          "indexed": true,
          "internalType": "uint256",
          "name": "tokenId",
          "type": "uint256"
        },
        {
          "indexed": false,
          "internalType": "uint256",
          "name": "newBalance",
          "type": "uint256"
        },
        {
          "indexed": false,
          "internalType": "string",
          "name": "updateType",
          "type": "string"
        }
      ],
      "name": "BalanceUpdated",
      "type": "event"
    },
    {
      "anonymous": false,
      "inputs": [
        {
          "indexed": false,
          "internalType": "uint256",
          "name": "_fromTokenId",
          "type": "uint256"
        },
        {
          "indexed": false,
          "internalType": "uint256",
          "name": "_toTokenId",
          "type": "uint256"
        }
      ],
      "name": "BatchMetadataUpdate",
      "type": "event"
    },
    {
      "anonymous": false,
      "inputs": [
        {
          "indexed": true,
          "internalType": "uint256",
          "name": "eventId",
          "type": "uint256"
        },
        {
          "indexed": false,
          "internalType": "string",
          "name": "name",
          "type": "string"
        },
        {
          "indexed": false,
          "internalType": "uint256",
          "name": "capacity",
          "type": "uint256"
        }
      ],
      "name": "EventCreated",
      "type": "event"
    },
    {
      "anonymous": false,
      "inputs": [
        {
          "indexed": true,
          "internalType": "uint256",
          "name": "tokenId",
          "type": "uint256"
        },
        {
          "indexed": true,
          "internalType": "uint256",
          "name": "eventId",
          "type": "uint256"
        }
      ],
      "name": "EventPurchased",
      "type": "event"
    },
    {
      "anonymous": false,
      "inputs": [
        {
          "indexed": false,
          "internalType": "uint256",
          "name": "_tokenId",
          "type": "uint256"
        }
      ],
      "name": "MetadataUpdate",
      "type": "event"
    },
    {
      "anonymous": false,
      "inputs": [
        {
          "indexed": true,
          "internalType": "address",
          "name": "previousOwner",
          "type": "address"
        },
        {
          "indexed": true,
          "internalType": "address",
          "name": "newOwner",
          "type": "address"
        }
      ],
      "name": "OwnershipTransferred",
      "type": "event"
    },
    {
      "anonymous": false,
      "inputs": [
        {
          "indexed": false,
          "internalType": "address",
          "name": "account",
          "type": "address"
        }
      ],
      "name": "Paused",
      "type": "event"
    },
    {
      "anonymous": false,
      "inputs": [
        {
          "indexed": true,
          "internalType": "address",
          "name": "tokenAddress",
          "type": "address"
        }
      ],
      "name": "SupportedTokenAdded",
      "type": "event"
    },
    {
      "anonymous": false,
      "inputs": [
        {
          "indexed": true,
          "internalType": "uint256",
          "name": "templateId",
          "type": "uint256"
        },
        {
          "indexed": false,
          "internalType": "string",
          "name": "name",
          "type": "string"
        },
        {
          "indexed": false,
          "internalType": "uint256",
          "name": "baseBalance",
          "type": "uint256"
        },
        {
          "indexed": false,
          "internalType": "uint256",
          "name": "price",
          "type": "uint256"
        },
        {
          "indexed": false,
          "internalType": "uint256",
          "name": "discount",
          "type": "uint256"
        },
        {
          "indexed": false,
          "internalType": "bool",
          "name": "isVIP",
          "type": "bool"
        },
        {
          "indexed": false,
          "internalType": "string",
          "name": "metadataURI",
          "type": "string"
        },
        {
          "indexed": false,
          "internalType": "bool",
          "name": "active",
          "type": "bool"
        }
      ],
      "name": "TemplateCreated",
      "type": "event"
    },
    {
      "anonymous": false,
      "inputs": [
        {
          "indexed": true,
          "internalType": "uint256",
          "name": "templateId",
          "type": "uint256"
        },
        {
          "indexed": false,
          "internalType": "string",
          "name": "name",
          "type": "string"
        },
        {
          "indexed": false,
          "internalType": "uint256",
          "name": "baseBalance",
          "type": "uint256"
        },
        {
          "indexed": false,
          "internalType": "uint256",
          "name": "price",
          "type": "uint256"
        },
        {
          "indexed": false,
          "internalType": "uint256",
          "name": "discount",
          "type": "uint256"
        },
        {
          "indexed": false,
          "internalType": "bool",
          "name": "isVIP",
          "type": "bool"
        },
        {
          "indexed": false,
          "internalType": "string",
          "name": "metadataURI",
          "type": "string"
        },
        {
          "indexed": false,
          "internalType": "bool",
          "name": "active",
          "type": "bool"
        }
      ],
      "name": "TemplateUpdated",
      "type": "event"
    },
    {
      "anonymous": false,
      "inputs": [
        {
          "indexed": true,
          "internalType": "uint256",
          "name": "tokenId",
          "type": "uint256"
        },
        {
          "indexed": false,
          "internalType": "string",
          "name": "transactionType",
          "type": "string"
        },
        {
          "indexed": false,
          "internalType": "uint256",
          "name": "amount",
          "type": "uint256"
        }
      ],
      "name": "TransactionProcessed",
      "type": "event"
    },
    {
      "anonymous": false,
      "inputs": [
        {
          "indexed": true,
          "internalType": "uint256",
          "name": "tokenId",
          "type": "uint256"
        },
        {
          "indexed": false,
          "internalType": "string",
          "name": "transactionType",
          "type": "string"
        },
        {
          "indexed": false,
          "internalType": "uint256",
          "name": "amount",
          "type": "uint256"
        }
      ],
      "name": "TransactionRecorded",
      "type": "event"
    },
    {
      "anonymous": false,
      "inputs": [
        {
          "indexed": true,
          "internalType": "address",
          "name": "from",
          "type": "address"
        },
        {
          "indexed": true,
          "internalType": "address",
          "name": "to",
          "type": "address"
        },
        {
          "indexed": true,
          "internalType": "uint256",
          "name": "tokenId",
          "type": "uint256"
        }
      ],
      "name": "Transfer",
      "type": "event"
    },
    {
      "anonymous": false,
      "inputs": [
        {
          "indexed": false,
          "internalType": "address",
          "name": "account",
          "type": "address"
        }
      ],
      "name": "Unpaused",
      "type": "event"
    },
    {
      "inputs": [
        {
          "internalType": "address",
          "name": "tokenAddress",
          "type": "address"
        }
      ],
      "name": "addSupportedToken",
      "outputs": [],
      "stateMutability": "nonpayable",
      "type": "function"
    },
    {
      "inputs": [
        {
          "internalType": "uint256",
          "name": "templateId",
          "type": "uint256"
        },
        {
          "internalType": "string",
          "name": "name",
          "type": "string"
        },
        {
          "internalType": "uint256",
          "name": "baseBalance",
          "type": "uint256"
        },
        {
          "internalType": "uint256",
          "name": "price",
          "type": "uint256"
        },
        {
          "internalType": "uint256",
          "name": "discount",
          "type": "uint256"
        },
        {
          "internalType": "bool",
          "name": "isVIP",
          "type": "bool"
        },
        {
          "internalType": "string",
          "name": "metadataURI",
          "type": "string"
        },
        {
          "internalType": "bool",
          "name": "active",
          "type": "bool"
        }
      ],
      "name": "addTemplate",
      "outputs": [],
      "stateMutability": "nonpayable",
      "type": "function"
    },
    {
      "inputs": [
        {
          "internalType": "address",
          "name": "to",
          "type": "address"
        },
        {
          "internalType": "uint256",
          "name": "tokenId",
          "type": "uint256"
        }
      ],
      "name": "approve",
      "outputs": [],
      "stateMutability": "nonpayable",
      "type": "function"
    },
    {
      "inputs": [
        {
          "internalType": "address",
          "name": "merchant",
          "type": "address"
        }
      ],
      "name": "authorizeMerchant",
      "outputs": [],
      "stateMutability": "nonpayable",
      "type": "function"
    },
    {
      "inputs": [
        {
          "internalType": "address",
          "name": "",
          "type": "address"
        }
      ],
      "name": "authorizedMerchants",
      "outputs": [
        {
          "internalType": "bool",
          "name": "",
          "type": "bool"
        }
      ],
      "stateMutability": "view",
      "type": "function"
    },
    {
      "inputs": [
        {
          "internalType": "address",
          "name": "owner",
          "type": "address"
        }
      ],
      "name": "balanceOf",
      "outputs": [
        {
          "internalType": "uint256",
          "name": "",
          "type": "uint256"
        }
      ],
      "stateMutability": "view",
      "type": "function"
    },
    {
      "inputs": [
        {
          "internalType": "string",
          "name": "name",
          "type": "string"
        },
        {
          "internalType": "uint256",
          "name": "price",
          "type": "uint256"
        },
        {
          "internalType": "uint256",
          "name": "capacity",
          "type": "uint256"
        },
        {
          "internalType": "uint256",
          "name": "eventType",
          "type": "uint256"
        }
      ],
      "name": "createEvent",
      "outputs": [
        {
          "internalType": "uint256",
          "name": "",
          "type": "uint256"
        }
      ],
      "stateMutability": "nonpayable",
      "type": "function"
    },
    {
      "inputs": [
        {
          "internalType": "uint256",
          "name": "",
          "type": "uint256"
        }
      ],
      "name": "events",
      "outputs": [
        {
          "internalType": "string",
          "name": "name",
          "type": "string"
        },
        {
          "internalType": "uint256",
          "name": "price",
          "type": "uint256"
        },
        {
          "internalType": "uint256",
          "name": "capacity",
          "type": "uint256"
        },
        {
          "internalType": "uint256",
          "name": "soldCount",
          "type": "uint256"
        },
        {
          "internalType": "bool",
          "name": "active",
          "type": "bool"
        },
        {
          "internalType": "uint256",
          "name": "eventType",
          "type": "uint256"
        }
      ],
      "stateMutability": "view",
      "type": "function"
    },
    {
      "inputs": [
        {
          "internalType": "uint256",
          "name": "tokenId",
          "type": "uint256"
        }
      ],
      "name": "getApproved",
      "outputs": [
        {
          "internalType": "address",
          "name": "",
          "type": "address"
        }
      ],
      "stateMutability": "view",
      "type": "function"
    },
    {
      "inputs": [
        {
          "internalType": "uint256",
          "name": "templateId",
          "type": "uint256"
        }
      ],
      "name": "getTemplate",
      "outputs": [
        {
          "internalType": "string",
          "name": "name",
          "type": "string"
        },
        {
          "internalType": "uint256",
          "name": "baseBalance",
          "type": "uint256"
        },
        {
          "internalType": "uint256",
          "name": "price",
          "type": "uint256"
        },
        {
          "internalType": "uint256",
          "name": "discount",
          "type": "uint256"
        },
        {
          "internalType": "bool",
          "name": "isVIP",
          "type": "bool"
        },
        {
          "internalType": "string",
          "name": "metadataURI",
          "type": "string"
        },
        {
          "internalType": "bool",
          "name": "active",
          "type": "bool"
        }
      ],
      "stateMutability": "view",
      "type": "function"
    },
    {
      "inputs": [],
      "name": "getTemplateCount",
      "outputs": [
        {
          "internalType": "uint256",
          "name": "",
          "type": "uint256"
        }
      ],
      "stateMutability": "view",
      "type": "function"
    },
    {
      "inputs": [
        {
          "internalType": "uint256",
          "name": "tokenId",
          "type": "uint256"
        }
      ],
      "name": "getTokenEvents",
      "outputs": [
        {
          "internalType": "uint256[]",
          "name": "",
          "type": "uint256[]"
        }
      ],
      "stateMutability": "view",
      "type": "function"
    },
    {
      "inputs": [
        {
          "internalType": "uint256",
          "name": "tokenId",
          "type": "uint256"
        },
        {
          "internalType": "uint256",
          "name": "index",
          "type": "uint256"
        }
      ],
      "name": "getTransaction",
      "outputs": [
        {
          "internalType": "uint256",
          "name": "timestamp",
          "type": "uint256"
        },
        {
          "internalType": "address",
          "name": "merchant",
          "type": "address"
        },
        {
          "internalType": "uint256",
          "name": "amount",
          "type": "uint256"
        },
        {
          "internalType": "string",
          "name": "transactionType",
          "type": "string"
        },
        {
          "internalType": "string",
          "name": "metadata",
          "type": "string"
        }
      ],
      "stateMutability": "view",
      "type": "function"
    },
    {
      "inputs": [
        {
          "internalType": "uint256",
          "name": "tokenId",
          "type": "uint256"
        }
      ],
      "name": "getTransactionCount",
      "outputs": [
        {
          "internalType": "uint256",
          "name": "",
          "type": "uint256"
        }
      ],
      "stateMutability": "view",
      "type": "function"
    },
    {
      "inputs": [],
      "name": "initializeDefaultTemplates",
      "outputs": [],
      "stateMutability": "nonpayable",
      "type": "function"
    },
    {
      "inputs": [
        {
          "internalType": "address",
          "name": "owner",
          "type": "address"
        },
        {
          "internalType": "address",
          "name": "operator",
          "type": "address"
        }
      ],
      "name": "isApprovedForAll",
      "outputs": [
        {
          "internalType": "bool",
          "name": "",
          "type": "bool"
        }
      ],
      "stateMutability": "view",
      "type": "function"
    },
    {
      "inputs": [
        {
          "internalType": "uint256",
          "name": "templateId",
          "type": "uint256"
        },
        {
          "internalType": "address",
          "name": "to",
          "type": "address"
        },
        {
          "internalType": "string",
          "name": "uri",
          "type": "string"
        }
      ],
      "name": "mintFromTemplate",
      "outputs": [
        {
          "internalType": "uint256",
          "name": "",
          "type": "uint256"
        }
      ],
      "stateMutability": "payable",
      "type": "function"
    },
    {
      "inputs": [
        {
          "internalType": "uint256",
          "name": "templateId",
          "type": "uint256"
        },
        {
          "internalType": "string",
          "name": "name",
          "type": "string"
        },
        {
          "internalType": "uint256",
          "name": "baseBalance",
          "type": "uint256"
        },
        {
          "internalType": "uint256",
          "name": "price",
          "type": "uint256"
        },
        {
          "internalType": "uint256",
          "name": "discount",
          "type": "uint256"
        },
        {
          "internalType": "bool",
          "name": "isVIP",
          "type": "bool"
        },
        {
          "internalType": "string",
          "name": "metadataURI",
          "type": "string"
        },
        {
          "internalType": "bool",
          "name": "active",
          "type": "bool"
        }
      ],
      "name": "modifyTemplate",
      "outputs": [],
      "stateMutability": "nonpayable",
      "type": "function"
    },
    {
      "inputs": [],
      "name": "name",
      "outputs": [
        {
          "internalType": "string",
          "name": "",
          "type": "string"
        }
      ],
      "stateMutability": "view",
      "type": "function"
    },
    {
      "inputs": [],
      "name": "owner",
      "outputs": [
        {
          "internalType": "address",
          "name": "",
          "type": "address"
        }
      ],
      "stateMutability": "view",
      "type": "function"
    },
    {
      "inputs": [
        {
          "internalType": "uint256",
          "name": "tokenId",
          "type": "uint256"
        }
      ],
      "name": "ownerOf",
      "outputs": [
        {
          "internalType": "address",
          "name": "",
          "type": "address"
        }
      ],
      "stateMutability": "view",
      "type": "function"
    },
    {
      "inputs": [],
      "name": "pause",
      "outputs": [],
      "stateMutability": "nonpayable",
      "type": "function"
    },
    {
      "inputs": [],
      "name": "paused",
      "outputs": [
        {
          "internalType": "bool",
          "name": "",
          "type": "bool"
        }
      ],
      "stateMutability": "view",
      "type": "function"
    },
    {
      "inputs": [
        {
          "internalType": "uint256",
          "name": "tokenId",
          "type": "uint256"
        },
        {
          "internalType": "uint256",
          "name": "amount",
          "type": "uint256"
        },
        {
          "internalType": "string",
          "name": "metadata",
          "type": "string"
        }
      ],
      "name": "processPayment",
      "outputs": [],
      "stateMutability": "nonpayable",
      "type": "function"
    },
    {
      "inputs": [
        {
          "internalType": "uint256",
          "name": "tokenId",
          "type": "uint256"
        },
        {
          "internalType": "uint256",
          "name": "eventId",
          "type": "uint256"
        }
      ],
      "name": "purchaseEventEntrance",
      "outputs": [],
      "stateMutability": "nonpayable",
      "type": "function"
    },
    {
      "inputs": [],
      "name": "renounceOwnership",
      "outputs": [],
      "stateMutability": "nonpayable",
      "type": "function"
    },
    {
      "inputs": [
        {
          "internalType": "address",
          "name": "merchant",
          "type": "address"
        }
      ],
      "name": "revokeMerchant",
      "outputs": [],
      "stateMutability": "nonpayable",
      "type": "function"
    },
    {
      "inputs": [
        {
          "internalType": "address",
          "name": "from",
          "type": "address"
        },
        {
          "internalType": "address",
          "name": "to",
          "type": "address"
        },
        {
          "internalType": "uint256",
          "name": "tokenId",
          "type": "uint256"
        }
      ],
      "name": "safeTransferFrom",
      "outputs": [],
      "stateMutability": "nonpayable",
      "type": "function"
    },
    {
      "inputs": [
        {
          "internalType": "address",
          "name": "from",
          "type": "address"
        },
        {
          "internalType": "address",
          "name": "to",
          "type": "address"
        },
        {
          "internalType": "uint256",
          "name": "tokenId",
          "type": "uint256"
        },
        {
          "internalType": "bytes",
          "name": "data",
          "type": "bytes"
        }
      ],
      "name": "safeTransferFrom",
      "outputs": [],
      "stateMutability": "nonpayable",
      "type": "function"
    },
    {
      "inputs": [
        {
          "internalType": "address",
          "name": "operator",
          "type": "address"
        },
        {
          "internalType": "bool",
          "name": "approved",
          "type": "bool"
        }
      ],
      "name": "setApprovalForAll",
      "outputs": [],
      "stateMutability": "nonpayable",
      "type": "function"
    },
    {
      "inputs": [
        {
          "internalType": "address",
          "name": "",
          "type": "address"
        }
      ],
      "name": "supportedTokens",
      "outputs": [
        {
          "internalType": "bool",
          "name": "",
          "type": "bool"
        }
      ],
      "stateMutability": "view",
      "type": "function"
    },
    {
      "inputs": [
        {
          "internalType": "bytes4",
          "name": "interfaceId",
          "type": "bytes4"
        }
      ],
      "name": "supportsInterface",
      "outputs": [
        {
          "internalType": "bool",
          "name": "",
          "type": "bool"
        }
      ],
      "stateMutability": "view",
      "type": "function"
    },
    {
      "inputs": [],
      "name": "symbol",
      "outputs": [
        {
          "internalType": "string",
          "name": "",
          "type": "string"
        }
      ],
      "stateMutability": "view",
      "type": "function"
    },
    {
      "inputs": [
        {
          "internalType": "uint256",
          "name": "",
          "type": "uint256"
        }
      ],
      "name": "templates",
      "outputs": [
        {
          "internalType": "string",
          "name": "name",
          "type": "string"
        },
        {
          "internalType": "uint256",
          "name": "baseBalance",
          "type": "uint256"
        },
        {
          "internalType": "uint256",
          "name": "price",
          "type": "uint256"
        },
        {
          "internalType": "uint256",
          "name": "discount",
          "type": "uint256"
        },
        {
          "internalType": "bool",
          "name": "isVIP",
          "type": "bool"
        },
        {
          "internalType": "string",
          "name": "metadataURI",
          "type": "string"
        },
        {
          "internalType": "bool",
          "name": "active",
          "type": "bool"
        }
      ],
      "stateMutability": "view",
      "type": "function"
    },
    {
      "inputs": [
        {
          "internalType": "uint256",
          "name": "",
          "type": "uint256"
        }
      ],
      "name": "tokenBalance",
      "outputs": [
        {
          "internalType": "uint256",
          "name": "",
          "type": "uint256"
        }
      ],
      "stateMutability": "view",
      "type": "function"
    },
    {
      "inputs": [
        {
          "internalType": "uint256",
          "name": "",
          "type": "uint256"
        },
        {
          "internalType": "uint256",
          "name": "",
          "type": "uint256"
        }
      ],
      "name": "tokenEvents",
      "outputs": [
        {
          "internalType": "uint256",
          "name": "",
          "type": "uint256"
        }
      ],
      "stateMutability": "view",
      "type": "function"
    },
    {
      "inputs": [
        {
          "internalType": "uint256",
          "name": "tokenId",
          "type": "uint256"
        }
      ],
      "name": "tokenURI",
      "outputs": [
        {
          "internalType": "string",
          "name": "",
          "type": "string"
        }
      ],
      "stateMutability": "view",
      "type": "function"
    },
    {
      "inputs": [
        {
          "internalType": "uint256",
          "name": "tokenId",
          "type": "uint256"
        },
        {
          "internalType": "uint256",
          "name": "amount",
          "type": "uint256"
        },
        {
          "internalType": "address",
          "name": "paymentToken",
          "type": "address"
        }
      ],
      "name": "topUpBalance",
      "outputs": [],
      "stateMutability": "nonpayable",
      "type": "function"
    },
    {
      "inputs": [
        {
          "internalType": "uint256",
          "name": "",
          "type": "uint256"
        },
        {
          "internalType": "uint256",
          "name": "",
          "type": "uint256"
        }
      ],
      "name": "transactions",
      "outputs": [
        {
          "internalType": "uint256",
          "name": "timestamp",
          "type": "uint256"
        },
        {
          "internalType": "address",
          "name": "merchant",
          "type": "address"
        },
        {
          "internalType": "uint256",
          "name": "amount",
          "type": "uint256"
        },
        {
          "internalType": "string",
          "name": "transactionType",
          "type": "string"
        },
        {
          "internalType": "string",
          "name": "metadata",
          "type": "string"
        }
      ],
      "stateMutability": "view",
      "type": "function"
    },
    {
      "inputs": [
        {
          "internalType": "address",
          "name": "from",
          "type": "address"
        },
        {
          "internalType": "address",
          "name": "to",
          "type": "address"
        },
        {
          "internalType": "uint256",
          "name": "tokenId",
          "type": "uint256"
        }
      ],
      "name": "transferFrom",
      "outputs": [],
      "stateMutability": "nonpayable",
      "type": "function"
    },
    {
      "inputs": [
        {
          "internalType": "address",
          "name": "newOwner",
          "type": "address"
        }
      ],
      "name": "transferOwnership",
      "outputs": [],
      "stateMutability": "nonpayable",
      "type": "function"
    },
    {
      "inputs": [],
      "name": "unpause",
      "outputs": [],
      "stateMutability": "nonpayable",
      "type": "function"
    }
  ],
  "bytecode": "0x6080346200038d576001600160401b039060408181018381118382101762000377578152600c82526020916b2bb0bb32ac1027232a102b1960a11b83820152815193828501858110828211176200037757835260068552652ba0ab22ac1960d11b84860152815181811162000377576000948554916001948584811c941680156200036c575b8385101462000358578190601f9485811162000305575b508390858311600114620002a157899262000295575b5050600019600383901b1c191690851b1786555b8651928311620002815783548481811c9116801562000276575b8282101462000262578281116200021a575b5080918311600114620001b3575084958293949592620001a7575b5050600019600383901b1c191690821b1790555b60075490331562000190576001600160a81b0319821633600881811b610100600160a81b0316929092176007559151939192901c6001600160a01b0316907f8be0079c531659141344cd1fd0a4f28419497f9722a3daafe3b4186f6b6457e09080a3613b1e9081620003938239f35b51631e4fbdf760e01b815260048101839052602490fd5b0151905038806200010d565b90601f198316968487528287209287905b89821062000202575050838596979810620001e8575b505050811b01905562000121565b015160001960f88460031b161c19169055388080620001da565b808785968294968601518155019501930190620001c4565b8487528187208380860160051c82019284871062000258575b0160051c019085905b8281106200024c575050620000f2565b8881550185906200023c565b9250819262000233565b634e487b7160e01b87526022600452602487fd5b90607f1690620000e0565b634e487b7160e01b86526041600452602486fd5b015190503880620000b2565b898052848a208894509190601f1984168b5b87828210620002ee5750508411620002d4575b505050811b018655620000c6565b015160001960f88460031b161c19169055388080620002c6565b8385015186558b97909501949384019301620002b3565b9091508880528389208580850160051c8201928686106200034e575b918991869594930160051c01915b8281106200033f5750506200009c565b8b81558594508991016200032f565b9250819262000321565b634e487b7160e01b88526022600452602488fd5b93607f169362000085565b634e487b7160e01b600052604160045260246000fd5b600080fdfe608080604052600436101561001357600080fd5b60003560e01c90816301ffc9a71461314e575080630374ab0b14612eb757806306fdde0314612e14578063081812fc14612dd6578063095ea7b314612cef5780630b79143014612c6e57806323b872dd14612c57578063283421331461282057806331543cf41461271b578063368a5247146121e857806337ae9c13146121a35780633de5d0de146121775780633f4ba83a1461210d57806342842e0e146120df57806349afc6e5146120b35780634eaf9db6146120455780635016959a146120275780635c975abb146120045780636352211e14611fd457806368c4ac2614611f955780636d69fcaf14611ee857806370a0823114611e8f578063715018a614611e2e5780637303f6ce14611d93578063819a701c14611d515780638456cb5914611cf75780638af5ae99146114b35780638da5cb5b1461148657806395d89b41146113a757806396651ec31461101c578063a22cb46514610f6e578063a871bd6614610f2f578063b701b31914610d5c578063b88d4fde14610cf0578063bc52565214610c88578063c4754b7714610be2578063c58d068614610701578063c87b56dd146106a4578063ca2efd3814610665578063cdc965cd146102e1578063e985e9c51461028b5763f2fde38b146101ed57600080fd5b3461028657602036600319011261028657610206613318565b61020e6135b6565b6001600160a01b0381811691821561026d5760078054610100600160a81b03198116600893841b610100600160a81b031617909155901c167f8be0079c531659141344cd1fd0a4f28419497f9722a3daafe3b4186f6b6457e0600080a3005b604051631e4fbdf760e01b815260006004820152602490fd5b600080fd5b34610286576040366003190112610286576102a4613318565b6102ac61332e565b9060018060a01b03809116600052600560205260406000209116600052602052602060ff604060002054166040519015158152f35b34610286576102ef3661352c565b9695936102fd9391936135b6565b610308878387613914565b604051610314816131d3565b85815286602082015281604082015282606082015283151560808201528460a082015288151560c082015287600052600a60205260406000209080518051906001600160401b03821161058e57819061036d8554613344565b601f8111610615575b50602090601f83116001146105af576000926105a4575b50508160011b916000199060031b1c19161782555b6020810151600183015560408101516002830155606081015160038301556103df60808201511515600484019060ff801983541691151516179055565b60a08101518051906001600160401b03821161058e576104026005850154613344565b601f8111610547575b50602090601f83116001146104a45760c07fff92d45b846f70a381c6b12925794910c7d5a97f58898ac2a2dae8e48fdbda639c9d98969484610488956104949c9a9895600695600092610499575b50508160011b916000199060031b1c19161760058501555b0151151591019060ff801983541691151516179055565b60405197889788613459565b0390a2005b015190503880610459565b906005850160005260206000209160005b601f198516811061052f57507fff92d45b846f70a381c6b12925794910c7d5a97f58898ac2a2dae8e48fdbda639c9d9896946001856104949c9a989560069560c09561048899601f19811610610516575b505050811b016005850155610471565b015160001960f88460031b161c19169055388080610506565b919260206001819286850151815501940192016104b5565b600585016000526020600020601f840160051c810160208510610587575b601f830160051c8201811061057b57505061040b565b60008155600101610565565b5080610565565b634e487b7160e01b600052604160045260246000fd5b015190508c8061038d565b6000868152602081209350601f198516905b8181106105fd57509084600195949392106105e4575b505050811b0182556103a2565b015160001960f88460031b161c191690558c80806105d7565b929360206001819287860151815501950193016105c1565b909150846000526020600020601f840160051c81016020851061065e575b90849392915b601f830160051c8201811061064f575050610376565b60008155859450600101610639565b5080610633565b34610286576020366003190112610286576001600160a01b03610686613318565b16600052600f602052602060ff604060002054166040519015158152f35b34610286576020366003190112610286576004356106c18161376b565b5060005260066020526106fd6106da604060002061337e565b60006040516106e881613224565b526040519182916020835260208301906132f3565b0390f35b60603660031901126102865760043561071861332e565b906001600160401b03604435818111610286576107399036906004016132b2565b916107426139b9565b80600052602093600a855260ff6006604060002001541615610ba75781600052600a85526002604060002001543410610b6b576107806008546139aa565b91826008556040519461079286613224565b600086526001600160a01b0383811696908715610b52578560005260028952604060002054169384151580610b1f575b8860005260038a5286896040600020976001988981540190558260005260028d526040600020826001600160601b0360a01b8254161790557fddf252ad1be2c89b69c2b068fc378daa952ba7f163c4a11628f55a4df523b3ef600080a4610b06573b6109e8575b509091928094955060005260068652604060002090805195861161058e576108518254613344565b601f811161099f575b508690601f8711600114610926579186869760809593600080516020613aa9833981519152979560009261091b575b5050600019600383901b1c191690841b1790555b7ff8e1a15aba9398e019f0b49df1a4fde98ee17ae345cb5f6b5e2c27f5033e8ce787604051878152a180600052600a8752816040600020015485600052600c8852604060002055600052600a86526040600020015460405190815260408682015260046040820152631352539560e21b6060820152a2604051908152f35b015190508a80610889565b90601f1987169183600052886000209260005b8a82821061098b5750509760809593879593600080516020613aa98339815191529893838b9c10610972575b505050811b01905561089d565b015160001960f88460031b161c191690558a8080610965565b838501518655948801949384019301610939565b8260005287600020601f880160051c8101918989106109de575b601f0160051c019085905b8281106109d257505061085a565b600081550185906109c4565b90915081906109b9565b604051888180610a21630a85bd0160e11b95868352336004840152600060248401528a60448401526080606484015260848301906132f3565b038160008c5af160009181610ac6575b50610a8d5788883d15610a86573d610a4881613260565b90610a56604051928361323f565b81523d60008483013e5b80519283610a8157604051633250574960e11b815260048101849052602490fd5b019050fd5b6060610a60565b63ffffffff60e0989394959697981b1603610aae5750908493929187610829565b60249060405190633250574960e11b82526004820152fd5b9091508981813d8311610aff575b610ade818361323f565b8101031261028657516001600160e01b03198116810361028657908a610a31565b503d610ad4565b6040516339e3563760e11b815260006004820152602490fd5b60008781526004602052604080822080546001600160a01b031916905587825260038c52902080546000190190556107c2565b604051633250574960e11b815260006004820152602490fd5b60405162461bcd60e51b8152600481018690526014602482015273125b9cdd59999a58da595b9d081c185e5b595b9d60621b6044820152606490fd5b60405162461bcd60e51b815260048101869052601360248201527254656d706c617465206e6f742061637469766560681b6044820152606490fd5b346102865760208060031936011261028657600435600052600e8152604060002060405190818382549182815201908192600052846000209060005b86828210610c74578686610c348288038361323f565b604051928392818401908285525180915260408401929160005b828110610c5d57505050500390f35b835185528695509381019392810192600101610c4e565b835485529093019260019283019201610c1e565b3461028657602036600319011261028657600435600052600a6020526040600020610cb28161337e565b6106fd600183015492600281015490600381015460ff6004830154169060ff6006610cdf6005860161337e565b940154169360405197889788613459565b3461028657608036600319011261028657610d09613318565b610d1161332e565b90604435606435926001600160401b038411610286573660238501121561028657610d49610d5a94369060248160040135910161327b565b92610d558383836135e5565b6137a6565b005b3461028657610d6a366134a5565b610d726139b9565b8160005260209060028252610d9560018060a01b036040600020541615156139d7565b80600052600b8252604060002083600052600c83526040600020549060ff60048201541615610ef757600381015460028201541115610ec557906001610dde9201541115613a1a565b80600052600b8252610df860016040600020015484613a5d565b80600052600b82526003604060002001610e1281546139aa565b905582600052600e82526040600020908154600160401b81101561058e57600080516020613aa983398151915293610e5482608095600160409501815561359e565b81549060031b9085821b91600019901b1916179055815192867f41d60c8cad3c4e044896e072fb848c8f5d2e3e91c87a22a93d930c35aa192403600080a385600052600c815281600020548352820152600e60408201526d4556454e545f505552434841534560901b6060820152a2005b60405162461bcd60e51b815260048101859052600a602482015269115d995b9d08199d5b1b60b21b6044820152606490fd5b60405162461bcd60e51b815260048101859052601060248201526f4576656e74206e6f742061637469766560801b6044820152606490fd5b3461028657610f3d366134a5565b90600052600e6020526040600020805482101561028657602091610f609161359e565b90546040519160031b1c8152f35b3461028657604036600319011261028657610f87613318565b6024359081151590818303610286576001600160a01b031691821561100357610fd59033600052600560205260406000208460005260205260406000209060ff801983541691151516179055565b6040519081527f17307eab39ab6107e8899845ad3d59bd9653f200f220920489ca2b5937696c3160203392a3005b604051630b61174360e31b815260048101849052602490fd5b346102865761102a3661352c565b9695936110389391936135b6565b611043878387613914565b86600052600a60205260016040600020015461136257604051611065816131d3565b85815286602082015281604082015282606082015283151560808201528460a082015288151560c082015287600052600a60205260406000209080518051906001600160401b03821161058e5781906110be8554613344565b601f8111611312575b50602090601f83116001146112ac576000926112a1575b50508160011b916000199060031b1c19161782555b60208101516001830155604081015160028301556060810151600383015561113060808201511515600484019060ff801983541691151516179055565b60a08101518051906001600160401b03821161058e576111536005850154613344565b601f811161125a575b50602090601f83116001146111e35760c0600080516020613ac98339815191529c9d989694846111c5956104949c9a98956006956000926104995750508160011b916000199060031b1c19161760058501550151151591019060ff801983541691151516179055565b6009548a116111da5760405197889788613459565b89600955610488565b906005850160005260206000209160005b601f19851681106112425750600080516020613ac98339815191529c9d9896946001856104949c9a989560069560c0956111c599601f1981161061051657505050811b016005850155610471565b919260206001819286850151815501940192016111f4565b600585016000526020600020601f840160051c81016020851061129a575b601f830160051c8201811061128e57505061115c565b60008155600101611278565b5080611278565b015190508c806110de565b6000868152602081209350601f198516905b8181106112fa57509084600195949392106112e1575b505050811b0182556110f3565b015160001960f88460031b161c191690558c80806112d4565b929360206001819287860151815501950193016112be565b909150846000526020600020601f840160051c81016020851061135b575b90849392915b601f830160051c8201811061134c5750506110c7565b60008155859450600101611336565b5080611330565b60405162461bcd60e51b815260206004820152601760248201527f54656d706c61746520616c7265616479206578697374730000000000000000006044820152606490fd5b3461028657600036600319011261028657604051600060018054906113cb82613344565b8085529181811690811561145f5750600114611406575b6106fd846113f28186038261323f565b6040519182916020835260208301906132f3565b600081815292507fb10e2d527612073b26eecdfd717e6a320cf44b4afac2b0732d9fcbe2b7fa0cf65b8284106114475750505081016020016113f2826113e2565b8054602085870181019190915290930192810161142f565b60ff191660208087019190915292151560051b850190920192506113f291508390506113e2565b346102865760003660031901126102865760075460405160089190911c6001600160a01b03168152602090f35b34610286576000366003190112610286576114cc6135b6565b6001600052600a6020527fbbc70db1b6c7afd11e79c0fb0051300458f1a3acb8ee9789d9b6b26c61ad9bc854611cb25760405161150881613209565b600481526311dbdb1960e21b602082015260405161152581613224565b60008152611532826138d0565b6001600052600a6020527fbbc70db1b6c7afd11e79c0fb0051300458f1a3acb8ee9789d9b6b26c61ad9bc8546113625760405161156e816131d3565b828152683635c9adc5dea000006020820152683635c9adc5dea00000604082015260006060820152600060808201528160a0820152600160c08201526001600052600a60205260406000209080518051906001600160401b03821161058e5781906115d98554613344565b601f8111611c62575b50602090601f8311600114611bf657600092611beb575b50508160011b916000199060031b1c19161782555b60208101516001830155604081015160028301556060810151600383015561164b60808201511515600484019060ff801983541691151516179055565b60a08101518051906001600160401b03821161058e5761166e6005850154613344565b601f8111611ba4575b50602090601f8311600114611b2d576116ff94600660c0600199968661173997600080516020613ac98339815191529b976116e197600092611b22575b5050600019600383901b1c1916908c1b1760058501550151151591019060ff801983541691151516179055565b6009548611611971575b60405193849360e0855260e08501906132f3565b90683635c9adc5dea000006020850152683635c9adc5dea000006040850152600060608501526000608085015283820360a08501526132f3565b8460c08301520390a260405161174e81613209565b6008815267506c6174696e756d60c01b602082015260405161176f81613224565b6000815261177c826138d0565b6002600052600a6020527fbff4442b8ed600beeb8e26b1279a0f0d14c6edfaec26d968ee13c86f7d4c2ba954611362576040516117b8816131d3565b82815268a2a15d09519be00000602082015268a2a15d09519be00000604082015260006060820152600060808201528160a0820152600160c08201526002600052600a60205260406000209080518051906001600160401b03821161058e5781906118238554613344565b601f8111611ad2575b50602090601f8311600114611a6657600092611a5b575b50508160011b916000199060031b1c19161782555b60208101516001830155604081015160028301556060810151600383015561189560808201511515600484019060ff801983541691151516179055565b60a08101518051906001600160401b03821161058e576118b86005850154613344565b601f8111611a14575b50602090601f83116001146119855761192b94600660c0600299968661196597600080516020613ac98339815191529b976116e19760009261197a5750508160011b916000199060031b1c19161760058501550151151591019060ff801983541691151516179055565b9068a2a15d09519be00000602085015268a2a15d09519be000006040850152600060608501526000608085015283820360a08501526132f3565b600160c08301520390a2005b856009556116eb565b015190508d80610459565b90601f198316916005860160005260206000209260005b8181106119fc575060c060029996600187600080516020613ac98339815191529b976116e19761192b9c976119659b600698106119e357505050811b016005850155610471565b015160001960f88460031b161c191690558d8080610506565b9293602060018192878601518155019501930161199c565b600585016000526020600020601f840160051c810160208510611a54575b601f830160051c82018110611a485750506118c1565b60008155600101611a32565b5080611a32565b015190508680611843565b9250846000526020600020906000935b601f1984168510611ab7576001945083601f19811610611a9e575b505050811b018255611858565b015160001960f88460031b161c19169055868080611a91565b81810151835560209485019460019093019290910190611a76565b909150846000526020600020601f840160051c810160208510611b1b575b90849392915b601f830160051c82018110611b0c57505061182c565b60008155859450600101611af6565b5080611af0565b015190508d806116b4565b906005850160005260206000209160005b601f1985168110611b8c575094600660c0600199968a87600080516020613ac98339815191529b976116e1976116ff9c6117399b601f198116106119e357505050811b016005850155610471565b91926020600181928685015181550194019201611b3e565b600585016000526020600020601f840160051c810160208510611be4575b601f830160051c82018110611bd8575050611677565b60008155600101611bc2565b5080611bc2565b0151905086806115f9565b9250846000526020600020906000935b601f1984168510611c47576001945083601f19811610611c2e575b505050811b01825561160e565b015160001960f88460031b161c19169055868080611c21565b81810151835560209485019460019093019290910190611c06565b909150846000526020600020601f840160051c810160208510611cab575b90849392915b601f830160051c82018110611c9c5750506115e2565b60008155859450600101611c86565b5080611c80565b60405162461bcd60e51b815260206004820152601d60248201527f54656d706c6174657320616c726561647920696e697469616c697a65640000006044820152606490fd5b3461028657600036600319011261028657611d106135b6565b611d186139b9565b600160ff1960075416176007557f62e78cea01bee320cd4e420270b5ea74000d11b0c9f74754ebdbfc544b05a2586020604051338152a1005b3461028657602036600319011261028657611d6a613318565b611d726135b6565b6001600160a01b03166000908152600f60205260409020805460ff19169055005b3461028657611db7611da4366134a5565b90600052600d60205260406000206134bb565b5060405190611dc5826131ee565b8054825260018101546001600160a01b03908116602084019081526002830154604085019081529390926106fd92611e126004611e046003850161337e565b93606086019485520161337e565b92836080820152519451169451905190604051958695866134ed565b3461028657600036600319011261028657611e476135b6565b60078054610100600160a81b0319811690915560009060081c6001600160a01b03167f8be0079c531659141344cd1fd0a4f28419497f9722a3daafe3b4186f6b6457e08280a3005b34610286576020366003190112610286576001600160a01b03611eb0613318565b168015611ecf5760005260036020526020604060002054604051908152f35b6040516322718ad960e21b815260006004820152602490fd5b3461028657602036600319011261028657611f01613318565b611f096135b6565b6001600160a01b03168015611f58578060005260106020526040600020600160ff198254161790557fd1be2e90bd3d24839d9dd94ad871068e1f9688b02fa43f2a62c9975dfa9de2d7600080a2005b60405162461bcd60e51b8152602060048201526015602482015274496e76616c696420746f6b656e206164647265737360581b6044820152606490fd5b34610286576020366003190112610286576001600160a01b03611fb6613318565b166000526010602052602060ff604060002054166040519015158152f35b34610286576020366003190112610286576020611ff260043561376b565b6040516001600160a01b039091168152f35b3461028657600036600319011261028657602060ff600754166040519015158152f35b34610286576000366003190112610286576020600954604051908152f35b3461028657612053366134a5565b90600052600d602052604060002090815481101561028657612074916134bb565b5080546106fd60018060a01b03600184015416926002810154906120a6600461209f6003840161337e565b920161337e565b91604051958695866134ed565b3461028657602036600319011261028657600435600052600c6020526020604060002054604051908152f35b3461028657610d5a6120f036613424565b90604051926120fe84613224565b60008452610d558383836135e5565b34610286576000366003190112610286576121266135b6565b60075460ff8116156121655760ff19166007557f5db9ee0a495bf2e6ff9c91a7834c1ba4fdd244a5e8aa4e537bd38aeae4b073aa6020604051338152a1005b604051638dfc202b60e01b8152600490fd5b3461028657602036600319011261028657600435600052600d6020526020604060002054604051908152f35b34610286576020366003190112610286576121bc613318565b6121c46135b6565b6001600160a01b03166000908152600f60205260409020805460ff19166001179055005b34610286576060366003190112610286576001600160a01b0360443581811690819003610286576122176139b9565b6004356000526002602052612234826040600020541615156139d7565b80600052601060205260ff60406000205416156126e05760206000916064604051809481936323b872dd60e01b835233600484015230602484015260243560448401525af19081156126d457600091612699575b501561266257600435600052600c6020526040600020805490602435820180921161264c57556040516122ba81613209565b60058152640544f5055560dc1b6020820152604051916122d983613224565b60008352600435600052600d602052604060002092604051936122fb856131ee565b428552602085016000815260408601916024358352606087019386855260808801528054600160401b81101561058e5761233a916001820181556134bb565b9490946126365786518555600185019151166001600160601b0360a01b825416179055516002830155519283516001600160401b03811161058e576123826003840154613344565b601f81116125ef575b506020601f821160011461257c5781906080949596600092612571575b50508160011b916000199060031b1c19161760038401555b01518051906001600160401b03821161058e576123e06004840154613344565b601f8111612526575b50602090601f83116001146124b85760049291600091836124ad575b50508160011b916000199060031b1c1916179101555b7f131c2944ea68313084c40d9074bfd26611dbd83e4c0bc84f646b864548708978612451604051926040845260408401906132f3565b91602435602082015280600435930390a2600435600052600c6020526040600020546040519081526040602082015260056040820152640544f5055560dc1b6060820152600080516020613aa9833981519152608060043592a2005b015190508580612405565b90601f198316916004850160005260206000209260005b81811061250e575091600193918560049694106124f5575b505050811b0191015561241b565b015160001960f88460031b161c191690558580806124e7565b929360206001819287860151815501950193016124cf565b600484016000526020600020601f840160051c81019160208510612567575b601f0160051c01905b81811061255b57506123e9565b6000815560010161254e565b9091508190612545565b0151905086806123a8565b6003840160005260206000209560005b601f19841681106125d757509582916080959697600194601f198116106125be575b505050811b0160038401556123c0565b015160001960f88460031b161c191690558680806125ae565b8282015188556001909701966020928301920161258c565b600384016000526020600020601f830160051c81016020841061262f575b601f830160051c8201811061262357505061238b565b6000815560010161260d565b508061260d565b634e487b7160e01b600052600060045260246000fd5b634e487b7160e01b600052601160045260246000fd5b60405162461bcd60e51b815260206004820152600f60248201526e151c985b9cd9995c8819985a5b1959608a1b6044820152606490fd5b90506020813d6020116126cc575b816126b46020938361323f565b81010312610286575180151581036102865782612288565b3d91506126a7565b6040513d6000823e3d90fd5b60405162461bcd60e51b8152602060048201526013602482015272151bdad95b881b9bdd081cdd5c1c1bdc9d1959606a1b6044820152606490fd5b3461028657602036600319011261028657600435600052600a6020526040600020604051612748816131d3565b6127518261337e565b815260018201549060208101918252600283015492604082019384526003810154906060830191825260ff6004820154169060808401911515825260ff600661279c6005840161337e565b9260a087019384520154169160c085019215158352845151156127db576106fd9451955196519351905115159151925115159360405197889788613459565b60405162461bcd60e51b815260206004820152601760248201527f54656d706c61746520646f6573206e6f742065786973740000000000000000006044820152606490fd5b34610286576060366003190112610286576044356001600160401b038111610286576128509036906004016132b2565b6128586139b9565b600435600052600260205260018060a01b0361287c816040600020541615156139d7565b33600052600f60205260ff6040600020541615612c12576128a1602435600435613a5d565b604051906128ae82613209565b60078252661410565351539560ca1b6020830152600435600052600d602052604060002092604051936128e0856131ee565b4285526020850133815260408601916024358352606087019386855260808801528054600160401b81101561058e5761291e916001820181556134bb565b9490946126365786518555600185019151166001600160601b0360a01b825416179055516002830155518051906001600160401b03821161058e576129666003840154613344565b601f8111612bcb575b50602090601f8311600114612b5657918060809492600494600092612b4b575b50508160011b916000199060031b1c19161760038201555b019201519182516001600160401b03811161058e576129c68254613344565b601f8111612b03575b506020601f8211600114612a9d5781929394600092612a92575b50508160011b916000199060031b1c19161790555b7f131c2944ea68313084c40d9074bfd26611dbd83e4c0bc84f646b864548708978612a34604051926040845260408401906132f3565b91602435602082015280600435930390a2600435600052600c6020526040600020546040519081526040602082015260076040820152661410565351539560ca1b6060820152600080516020613aa9833981519152608060043592a2005b0151905084806129e9565b601f198216908360005260206000209160005b818110612aeb57509583600195969710612ad2575b505050811b0190556129fe565b015160001960f88460031b161c19169055848080612ac5565b9192602060018192868b015181550194019201612ab0565b826000526020600020601f830160051c81019160208410612b41575b601f0160051c01905b818110612b3557506129cf565b60008155600101612b28565b9091508190612b1f565b01519050878061298f565b906003840160005260206000209160005b601f1985168110612bb35750926080949260019260049583601f19811610612b9a575b505050811b0160038201556129a7565b015160001960f88460031b161c19169055878080612b8a565b91926020600181928685015181550194019201612b67565b600384016000526020600020601f840160051c810160208510612c0b575b601f830160051c82018110612bff57505061296f565b60008155600101612be9565b5080612be9565b60405162461bcd60e51b815260206004820152601760248201527f4e6f7420617574686f72697a6564206d65726368616e740000000000000000006044820152606490fd5b3461028657610d5a612c6836613424565b916135e5565b3461028657602036600319011261028657600435600052600b602052612ccf6040600020612c9b8161337e565b906001810154906002810154906003810154600560ff6004840154169201549260405196879660c0885260c08801906132f3565b946020870152604086015260608501521515608084015260a08301520390f35b3461028657604036600319011261028657612d08613318565b602435612d148161376b565b33151580612dc3575b80612d96575b612d7e576001600160a01b039283169282918491167f8c5be1e5ebec7d5bd14f71427d1e84f3dd0314c0f7b2291e5b200ac8c7c3b925600080a4600090815260046020526040902080546001600160a01b0319169091179055005b60405163a9fbf51f60e01b8152336004820152602490fd5b5060018060a01b038116600052600560205260406000203360005260205260ff6040600020541615612d23565b506001600160a01b038116331415612d1d565b3461028657602036600319011261028657600435612df38161376b565b506000526004602052602060018060a01b0360406000205416604051908152f35b346102865760003660031901126102865760405160008054612e3581613344565b8084529060019081811690811561145f5750600114612e5e576106fd846113f28186038261323f565b600080805292507f290decd9548b62a8d60345a988386fc84ba6bc95484008f6362f93160ef3e5635b828410612e9f5750505081016020016113f2826113e2565b80546020858701810191909152909301928101612e87565b34610286576080366003190112610286576001600160401b0360043581811161028657612ee89036906004016132b2565b90612ef16135b6565b612ef96139b9565b6040516020810190612f2d6040828651612f17818760208b016132d0565b810142602082015203602081018452018261323f565b5190209060405160c081018181108382111761058e5760405283815260243560208201526044356040820152600060608201526001608082015260643560a082015282600052600b6020526040600020918151805191821161058e57612f938454613344565b601f8111613106575b5091849391602096938790601f8311600114613070577fee37bb5143a14810f72e86fce895be08e16090409d2e18f79b308995e39b73d4959383613053969460059460a094600092613065575b50508160011b916000199060031b1c19161784555b898101516001850155604081015160028501556060810151600385015561303a60808201511515600486019060ff801983541691151516179055565b01519101556040519182916040835260408301906132f3565b604435878301520390a2604051908152f35b015190508c80612fe9565b9084600052886000209160005b601f19851681106130ec57509360018460059460a0947fee37bb5143a14810f72e86fce895be08e16090409d2e18f79b308995e39b73d49a986130539a98601f198116106130d3575b505050811b018455612ffe565b015160001960f88460031b161c191690558c80806130c6565b818301518455899850600190930192918a01918a0161307d565b846000526020600020601f840160051c81019160208510613144575b601f0160051c01905b8181106131385750612f9c565b6000815560010161312b565b9091508190613122565b34610286576020366003190112610286576004359063ffffffff60e01b821680920361028657602091632483248360e11b8114908115613190575b5015158152f35b6380ac58cd60e01b8114915081156131c2575b81156131b1575b5083613189565b6301ffc9a760e01b149050836131aa565b635b5e139f60e01b811491506131a3565b60e081019081106001600160401b0382111761058e57604052565b60a081019081106001600160401b0382111761058e57604052565b604081019081106001600160401b0382111761058e57604052565b602081019081106001600160401b0382111761058e57604052565b90601f801991011681019081106001600160401b0382111761058e57604052565b6001600160401b03811161058e57601f01601f191660200190565b92919261328782613260565b91613295604051938461323f565b829481845281830111610286578281602093846000960137010152565b9080601f83011215610286578160206132cd9335910161327b565b90565b60005b8381106132e35750506000910152565b81810151838201526020016132d3565b9060209161330c815180928185528580860191016132d0565b601f01601f1916010190565b600435906001600160a01b038216820361028657565b602435906001600160a01b038216820361028657565b90600182811c92168015613374575b602083101461335e57565b634e487b7160e01b600052602260045260246000fd5b91607f1691613353565b906040519182600082549261339284613344565b90818452600194858116908160001461340157506001146133be575b50506133bc9250038361323f565b565b9093915060005260209081600020936000915b8183106133e95750506133bc935082010138806133ae565b855488840185015294850194879450918301916133d1565b9150506133bc94506020925060ff191682840152151560051b82010138806133ae565b6060906003190112610286576001600160a01b0390600435828116810361028657916024359081168103610286579060443590565b9591929361349d9461347960c097939a999a60e08a5260e08a01906132f3565b946020890152604088015260608701521515608086015284820360a08601526132f3565b931515910152565b6040906003190112610286576004359060243590565b80548210156134d7576000526005602060002091020190600090565b634e487b7160e01b600052603260045260246000fd5b93909261351e926132cd9694865260018060a01b03166020860152604085015260a0606085015260a08401906132f3565b9160808184039101526132f3565b9061010060031983011261028657600435916001600160401b0391602435838111610286578261355e916004016132b2565b9260443592606435926084359260a4358015158103610286579260c4359182116102865761358e916004016132b2565b9060e43580151581036102865790565b80548210156134d75760005260206000200190600090565b60075460081c6001600160a01b031633036135cd57565b60405163118cdaa760e01b8152336004820152602490fd5b6001600160a01b039182169290918315610b52576000928284528260209560028752604096848888205416968791331515806136d5575b509060027fddf252ad1be2c89b69c2b068fc378daa952ba7f163c4a11628f55a4df523b3ef92846136a2575b858352600381528b8320805460010190558683525289812080546001600160a01b0319168517905580a416928383036136815750505050565b6064945051926364283d7b60e01b8452600484015260248301526044820152fd5b600087815260046020526040902080546001600160a01b0319169055848352600381528b83208054600019019055613648565b9193945091508061372a575b156136f15785929187913861361c565b87868861370e576024915190637e27328960e01b82526004820152fd5b604491519063177e802f60e01b82523360048301526024820152fd5b50338714801561374f575b806136e157508582526004815233858984205416146136e1565b5086825260058152878220338352815260ff8883205416613735565b6000818152600260205260409020546001600160a01b031690811561378e575090565b60249060405190637e27328960e01b82526004820152fd5b813b6137b3575b50505050565b604051630a85bd0160e11b8082523360048301526001600160a01b039283166024830152604482019490945260806064820152602095929091169390929083906138019060848301906132f3565b039285816000958187895af184918161388c575b5061386f575050503d600014613867573d61382f81613260565b9061383d604051928361323f565b81528091843d92013e80519283610a8157604051633250574960e11b815260048101849052602490fd5b506060610a60565b919450915063ffffffff60e01b1603610aae5750388080806137ad565b9091508681813d83116138c9575b6138a4818361323f565b810103126138c557516001600160e01b0319811681036138c5579038613815565b8480fd5b503d61389a565b51156138d857565b60405162461bcd60e51b81526020600482015260146024820152734e616d652063616e6e6f7420626520656d70747960601b6044820152606490fd5b90911561396f5751156138d85760641061392a57565b60405162461bcd60e51b815260206004820152601b60248201527f496e76616c696420646973636f756e742070657263656e7461676500000000006044820152606490fd5b60405162461bcd60e51b8152602060048201526013602482015272125b9d985b1a59081d195b5c1b185d19481251606a1b6044820152606490fd5b600019811461264c5760010190565b60ff600754166139c557565b60405163d93c066560e01b8152600490fd5b156139de57565b60405162461bcd60e51b8152602060048201526014602482015273151bdad95b88191bd95cc81b9bdd08195e1a5cdd60621b6044820152606490fd5b15613a2157565b60405162461bcd60e51b8152602060048201526014602482015273496e73756666696369656e742062616c616e636560601b6044820152606490fd5b600090808252600c602052613a788360408420541015613a1a565b8152600c60205260408120908154928303928311613a94575055565b634e487b7160e01b81526011600452602490fdfeec928c2fe6632313165f754a793ab00b2cde005b5c7571959d3137d5c4d4ac67c0fdbb34fd837325f175bd973a8607230e48718904c92805638b65905f616d7da2646970667358221220c9fc3445b73939531b43219930e0ce29dd1f9fcaa1868952cee9a434e73953bc64736f6c63430008140033",
  "linkReferences": {},
  "deployedLinkReferences": {}
}